:100000000C9434000C945B000C945B000C945B002B
:100010000C945B000C945B000C9451010C945B00FD
:100020000C945B000C94FE120C945B000C940F1368
:100030000C945B000C945B000C945B000C945B00D4
:100040000C94F2120C945B000C947E010C94F6005C
:100050000C945B000C945B000C945B000C945B00B4
:100060000C945B000C945B00E0EFF6E085EC98E00C
:1000700001C08193EF3FF907E0F3D9F311241FBECC
:10008000CFEFD8E0DEBFCDBF11E0A0E0B1E0ECEAF9
:10009000F7E302C005900D92A230B107D9F726E030
:1000A000A2E0B1E001C01D92A03FB207E1F70E94BB
:1000B0005D000C94D41B0C94000078940E948C007A
:1000C0000E94BF020E94DF0F0E9492120E94F70F4F
:1000D0000E9427100E94A60490E080E008951092EC
:1000E0000301109202010895909109019F5F9038D9
:1000F00009F490E0209108012917E1F3E09109014A
:10010000F0E0E059F94F8083909309018091C1009C
:1001100080628093C10008951092C50080E18093B1
:10012000C400E0ECF0E080818D7F8083E1ECF0E0C2
:100130008081806180838081886080838081806805
:1001400080838EE70E947400F894A89584B7877F17
:1001500084BFE0E6F0E080818861808386E480836C
:1001600078940895CF92DF92EF92FF92CF93C82FA9
:10017000CB01BA0120E030E04AE754E40E94C41AFF
:100180000E94911A6B017C0128EFF21A8C2D806875
:100190000E947400D701C60127E0B695A7959795F0
:1001A00087952A95D1F780680E947400D701C6010F
:1001B0003EE0B695A795979587953A95D1F78068D3
:1001C0000E947400D701C60145E1B695A7959795A1
:1001D00087954A95D1F780680E9474008C2FCF9143
:1001E000FF90EF90DF90CF900C9474001F920F92CD
:1001F0000FB60F9211248F939F93EF93FF938091EB
:100200000801909105019923D1F095E09093C600E3
:1002100090910501915090930501909109019813D7
:1002200005C08091C1008F7D8093C100FF91EF9147
:100230009F918F910F900FBE0F901F901895E82FF0
:10024000F0E0E059F94F90819093C6008F5F8038BD
:1002500009F480E080930801E0CFE0910A01F0E02A
:10026000E059FA4F808190910A019F5F90930A01B3
:100270002FB7F894909104019F5F9093040190919F
:100280000401903160F0909105019F5F909305010A
:100290009091C10090629093C100109204012FBF11
:1002A00008951F920F920FB60F9211242F933F9330
:1002B0004F935F936F937F938F939F93AF93BF936E
:1002C000EF93FF9380E00E94FE0F8BE30E943611B4
:1002D000E0E6F0E0808180648083FF91EF91BF9140
:1002E000AF919F918F917F916F915F914F913F91CE
:1002F0002F910F900FBE0F901F9018951F920F9285
:100300000FB60F9211242F933F934F935F936F93E8
:100310007F938F939F93AF93BF93EF93FF93A89592
:100320009091C600809100018823A9F010920001ED
:1003300090930701FF91EF91BF91AF919F918F91A2
:100340007F916F915F914F913F912F910F900FBED1
:100350000F901F90189581E0809300018091070114
:10036000891721F08DE30E943611E4CF803148F5E2
:10037000813011F481E2F7CF823069F410920301E9
:100380001092020110920A0110920B0110920401C6
:100390000E945011CFCF883019F40E94FB11CACFB0
:1003A000873019F40E94FF11C5CF833019F40E94E1
:1003B000FD02C0CF843019F40E940103BBCF83E259
:1003C000D2CFE0910B0191E09E0F20910A012913F9
:1003D00002C082E2C8CFF0E0E059FA4F80839093E8
:1003E0000B01A8CFCF93C1E080910301811115C00B
:1003F00010920601C1E090910A0180910B019817BB
:10040000D1F10E942D01803131F481E0809303010C
:100410001092020181E4CF9108958091020181112F
:100420000AC00E943311811106C00E945B0F811126
:1004300002C0C093020180910201882371F01092E2
:10044000060190910A0180910B01981749F00E94D2
:100450002D01813111F4109203010E941403C4CFC5
:1004600080910601811104C00E940503C09306011A
:100470000E941403E6CF80910601811104C00E94FE
:100480000503C09306010E941403B5CF80910301B8
:10049000882361F080910201811108C090910A01C6
:1004A00080910B01981304C00E94050380E8089511
:1004B0000E942D0187FDFBCF813119F410920301B9
:1004C000F5CF83E20E943611F1CF20910A0190917D
:1004D0000B0181E0291301C080E0089581E0809341
:1004E000020108950F931F93E1E1F1E0638170E051
:1004F00090E080E0605871098109910927E0660F5A
:10050000771F881F991F2A95D1F7028110E030E0EC
:1005100020E00058110921093109600F711F821F65
:10052000931F37E0660F771F881F991F3A95D1F701
:10053000018110E030E020E0005811092109310963
:10054000600F711F821F931F47E0660F771F881F80
:10055000991F4A95D1F72081620F711D811D911D50
:1005600060587109810998400E94841920E030E0A8
:100570004AE754E40E94DA181F910F910895E6E1CA
:10058000F1E081E0808340E050E06AEF75E442836F
:1005900053836483758316821782108611861286B0
:1005A000138614861586168640E050E060EA70E4F3
:1005B0004787508B618B728B438B548B658B768B0B
:1005C000178A108E118E128E9CE0E1E3F1E0DF01BC
:1005D000292F1D922A95E9F7EDE3F1E0DF011D9245
:1005E0009A95E9F78093100180930F0110920E0104
:1005F00010920D0180930C01089581E08093100109
:10060000089581E080930F0108952FB7F8948091A9
:100610000D0190910E01019690930E0180930D01B2
:1006200010920C012FBF08958F929F92AF92BF92AC
:10063000CF92DF92EF92FF920F931F93CF9399B1D6
:1006400089B1282F221F2227221F92FB882780F999
:10065000822B11F44B9B03C080E00E94FE0F0E948E
:100660004D11882391F10E94850F0E9434126B0175
:100670007C010E9420124B015C010E940C12870138
:100680007601A50194010E948A0F0E940C126093CA
:1006900025017093260180932701909328010E94E1
:1006A00020126093290170932A0180932B0190936B
:1006B0002C010E94341260932D0170932E018093BF
:1006C0002F0190933001109215018091100181113A
:1006D00005C080910F01882309F42CC110921001EC
:1006E0000E945B0F811112C00E94650281110EC031
:1006F0000E944D1181110AC081E40E94740083B7E9
:10070000816083BF889583B78E7F83BF99B189B19C
:10071000282F221F2227221F92FB882780F9822B55
:1007200019F082E40E9474004B9B03C083E40E9492
:1007300074000E940912882319F084E40E94740056
:100740000E944A11C82F803211F00E947400309B21
:1007500005C0C43219F084E20E947400319B05C0C8
:10076000C53219F085E20E947400329B05C0C63282
:1007700019F086E20E947400339B05C0CA3219F05A
:100780008AE20E9474000E940C1220E030E040EAED
:1007900050E40E9451182091310130913201409172
:1007A0003301509134010E945118AB01BC0188E71C
:1007B0000E94B2000E94201220E030E040EA50E4A3
:1007C0000E94511820913501309136014091370136
:1007D000509138010E945118AB01BC0189E70E9479
:1007E000B2000E9434122091390130913A014091B7
:1007F0003B0150913C010E945118AB01BC018AE7BA
:100800000E94B20080910C01811110C060910D0115
:1008100070910E0190E080E00E948219AB01BC0152
:1008200087E70E94B20081E080930C01E0EFF6E0E0
:10083000BF01605F76408081853C09F473C090E021
:1008400080E00E948219AB01BC0185E70E94B200E2
:1008500080910F01882309F457C010920F0140E0E6
:1008600050E063E275E486E70E94B20040913101F6
:1008700050913201609133017091340181E60E9400
:10088000B20040913501509136016091370170916D
:10089000380182E60E94B2004091390150913A013C
:1008A00060913B0170913C0183E60E94B20040914F
:1008B00018015091190160911A0170911B0187E68E
:1008C0000E94B20060911C0170E090E080E00E9404
:1008D0008219AB01BC0188E60E94B20040911D0163
:1008E00050911E0160911F017091200189E60E94C4
:1008F000B200409121015091220160912301709139
:1009000024018AE60E94B20086E0CF911F910F91E8
:10091000FF90EF90DF90CF90BF90AF909F908F901F
:100920000C94740088E0EF3FF80711F008F087CFCF
:1009300031967ECFCF911F910F91FF90EF90DF9076
:10094000CF90BF90AF909F908F900895C1E3D1E07A
:100950003CE0932E772473940E94F201182F0E949A
:100960004D11882319F00E941403F6CF17FDF4C22D
:10097000EFEBE10FEA3108F038C1EF3008F031C198
:10098000F0E0EB53FB4F0C94B41B3A05D4042E0556
:1009900001053D054005430548054D058505B6059E
:1009A000E705EB05ED05EF05A0901801B0901901E2
:1009B000C0901A01D0901B01E0902D01F0902E0103
:1009C00000912F01109130012091290130912A01CD
:1009D00040912B0150912C016091250170912601CD
:1009E00080912701909128011F921F921F921F92C0
:1009F00080901C010E94B70A0F900F900F900F90EB
:100A000039C0A0901801B0901901C0901A01D0907F
:100A10001B01E0902D01F0902E0100912F0110910B
:100A200030012091290130912A0140912B015091F0
:100A30002C016091250170912601809127019091F0
:100A40002801E0912401EF93E0912301EF93E091DD
:100A50002201EF93E0912101EF93CACF60911D0134
:100A600070911E0180911F019091200140911C0105
:100A70000E94AD0E1092150176CF10921601FACF9A
:100A800070921601F7CF8091160180931701F2CF73
:100A90008091170180931601EDCF0E944517FE014A
:100AA000892D11928A95E9F780E090E0A0EAB0E400
:100AB0008093250190932601A0932701B0932801EC
:100AC0008093290190932A01A0932B01B0932C01CC
:100AD00010922D0110922E0110922F0110923001D0
:100AE000A0901801B0901901C0901A01D0901B017C
:100AF0001F921F921F921F92812CE12CF12C8701D3
:100B00009C01AD01CD01B90175CF8091310190916A
:100B10003201A0913301B091340180933D01909353
:100B20003E01A0933F01B093400180913501909127
:100B30003601A0913701B091380180934101909323
:100B40004201A0934301B0934401809139019091F7
:100B50003A01A0913B01B0913C01809345019093F3
:100B60004601A0934701B093480184CF80913D0195
:100B700090913E01A0913F01B091400180933101DD
:100B800090933201A0933301B093340180914101DD
:100B900090914201A0914301B091440180933501AD
:100BA00090933601A0933701B093380180914501AD
:100BB00090914601A0914701B0914801809339017D
:100BC00090933A01A0933B01B0933C0153CF83E053
:100BD0000E940E0F4FCF84E0FBCF85E0F9CF86E077
:100BE000F7CF8CE30E94361145CF8FE9810F8A3110
:100BF00008F0B0C180911501843009F0A9C11456E4
:100C0000173108F0A3C1E12FF0E0E75FF94F0C9432
:100C1000B41BE606A607A306A607260752077E070B
:100C2000A607A607A607A607A6070F07A607A607F3
:100C3000BF06A607A607A607A60720064C06780645
:100C4000109116010E9472021130D9F420E030E0B8
:100C500040EA50E40E9452189B01AC0160913101BE
:100C60007091320180913301909134010E945218A9
:100C700060932501709326018093270190932801AA
:100C8000F9CE9B01AC016091250170912601809104
:100C9000270190912801EACF109116010E9472025B
:100CA0001130D9F420E030E040EA50E40E945218BC
:100CB0009B01AC0160913501709136018091370143
:100CC000909138010E9452186093290170932A0173
:100CD00080932B0190932C01CDCE9B01AC016091B0
:100CE000290170912A0180912B0190912C01EACF6A
:100CF000109116010E9472021130D1F420E030E010
:100D0000A9010E9452189B01AC01609139017091B8
:100D10003A0180913B0190913C010E9452186093EE
:100D20002D0170932E0180932F0190933001A2CE5C
:100D30009B01AC0160912D0170912E0180912F01DA
:100D400090913001EACF0E9472026B017C012DEC80
:100D50003CEC4CEC5DE30E94D51887FF07C02DECFE
:100D6000C22E2CECD22EED2C2DE3F22EC0921801C7
:100D7000D0921901E0921A01F0921B017BCE0E94E1
:100D800072026B017C0120E030E0A9010E94D518BD
:100D900087FD11C020E030E04FE753E4C701B60102
:100DA0000E948C1A18165CF0C701B6010E945319F4
:100DB00060931C015FCEC12CD12C7601F5CFC12CE4
:100DC000D12C9FE7E92E93E4F92EEECF0E94720218
:100DD0006B017C0120E030E0A9010E94D51887FD5D
:100DE00013C020E030E040E251E4C701B6010E94A8
:100DF0008C1A18166CF0C0921D01D0921E01E09260
:100E00001F01F092200136CEC12CD12C7601F3CFF8
:100E1000C12CD12C80E2E82E81E4F82EECCF0E9488
:100E200072026B017C0120E030E0A9010E94D5181C
:100E300087FF03C0C12CD12C7601C0922101D09232
:100E40002201E0922301F092240114CE0E9472024A
:100E50006B017C0180911601813059F4C0923101FF
:100E6000D0923201E0923301F092340103CE0E941D
:100E700014030E9433118111FACF0E940C1220E05A
:100E800030E040EA50E40E945118A70196010E9408
:100E90005218609331017093320180933301909323
:100EA0003401E8CD0E9472026B017C018091160131
:100EB000813059F4C0923501D0923601E092370169
:100EC000F0923801D7CD0E9414030E943311811192
:100ED000FACF0E94201220E030E040EA50E40E9465
:100EE0005118A70196010E94521860933501709322
:100EF00036018093370190933801BCCD0E94720275
:100F00006B017C0180911601813059F4C092390146
:100F1000D0923A01E0923B01F0923C01ABCD0E94AD
:100F200014030E9433118111FACF0E9434129B01E5
:100F3000AC01C701B6010E94521860933901709349
:100F40003A0180933B0190933C0194CD8EE34ACECD
:100F50008AE348CE83E246CEE0911501E43048F4BE
:100F600081E08E0F80931501F0E0EF5EFE4F10835D
:100F7000FACC8AE30E943611F6CC4F925F926F92C0
:100F80007F928F929F92AF92BF92CF92DF92EF9219
:100F9000FF920F931F93CF93DF93CDB7DEB7629786
:100FA0000FB6F894DEBF0FBECDBF9A8B898B2A0196
:100FB0003B015901FC0162897389848995890E94EA
:100FC00082196B017C01A30192010E94C41A0E9444
:100FD000BE180E9453192B013C01E989FA8941A6E8
:100FE00052A663A674A6A5019801C701B6010E9486
:100FF000C41A0E94BE180E9453194B015C01E98972
:10100000FA8985A696A6A7A6B0AA21A932A943A9BE
:1010100054A9A0EEBEE20E94BA1B69837A838B8337
:101020009C830E9484196D837E838F839887C3017C
:10103000B2010E9482192B013C01A7019601C70150
:10104000B6010E94C41A6B017C01A3019201C30185
:10105000B2010E94C41A69877A878B879C872D8189
:101060003E814F815885CA01B9010E9452186D878F
:101070007E878F87988B29853A854B855C85C7014C
:10108000B6010E9451182D853E854F8558890E94D2
:10109000DA180E94BE180E944C192B013C01C501B0
:1010A000B4010E9482199B01AC010E94C41A4B0139
:1010B0005C01A70196010E9451186B017C016981B6
:1010C0007A818B819C8190958095709561957F4FF9
:1010D0008F4F9F4F0E9484199B01AC010E945218B0
:1010E0009B01AC01C701B6010E94DA180E94BF192A
:1010F000E989FA89C684D784E088F188A701960136
:10110000241935094609570929833A834B835C839F
:101110000E944C1929813A814B815C81261B370B37
:10112000480B590BDA01C901B7FF3BC0C701B60133
:101130000E9484192D853E854F8558890E94C41AC6
:1011400029853A854B855C850E945118A50194013B
:101150000E9452184B015C0120E030E040E850E46E
:101160006D817E818F8198850E94C41A9B01AC019C
:10117000C501B4010E94DA180E94BE180E944C19E1
:1011800097FF03C060E070E0CB01260137016415D2
:1011900075058605970514F42B013C0180E090E06D
:1011A000DC01E989FA8945AA56AA67AA70AE840DBE
:1011B000951DA61DB71D81AF92AFA3AFB4AF6296C8
:1011C0000FB6F894DEBF0FBECDBFDF91CF911F9158
:1011D0000F91FF90EF90DF90CF90BF90AF909F90D6
:1011E0008F907F906F905F904F9008954F925F9295
:1011F0006F927F92AF92BF92CF92DF92EF92FF9267
:101200000F931F93CF93DF938C01EB01FC01428C72
:10121000538C648C758CAA8CBB8CCC8CDD8C95012A
:10122000A601C301B2010E94D51887FF37C0A301F0
:101230009201C301B2010E94C41A2B013C0120E0BB
:101240003AEB4BE55AECF80162A173A184A195A198
:101250000E94C41A9B01AC01C301B2010E94511843
:101260000E94371B7B018C019B01AC01B501C601BB
:101270000E94D51887FF02C0750186019701A80159
:10128000B501C6010E94D518882341F0C701D801D5
:101290008A8F9B8FAC8FBD8F81E08FA3DF91CF9121
:1012A0001F910F91FF90EF90DF90CF90BF90AF9084
:1012B0007F906F905F904F9008952F923F924F9242
:1012C0005F926F927F928F929F92AF92BF92CF92D6
:1012D000DF92EF92FF920F931F93CF93DF931091C2
:1012E0006601F0E0E0E0D0E0C0E020916501812FF0
:1012F000012E000C990B2817190609F05FC01091F8
:101300006501D0E0C0E090E080E005E44091660136
:10131000212F012E000C330B4217130609F0B1C028
:10132000009749F0209739F0FC0120A5211103C056
:10133000BE010E94F608F0906501D0E0C0E085E4AF
:10134000E82E8F2D0F2C000C990B20916601281789
:10135000190609F0AFC0CE88DF88E88CF98CA701A8
:1013600096016A8D7B8D8C8D9D8D0E94DA184B01C4
:101370005C018881A7019601813009F0DFC0C701B7
:10138000B6010E94DA188B019C01B501A401CE01BF
:101390000E94BD071FA2DF91CF911F910F91FF9077
:1013A000EF90DF90CF90BF90AF909F908F907F9005
:1013B0006F905F904F903F902F900895111101C052
:1013C0001EE0115025E41202C0011124AC0149595C
:1013D0005E4F6A01209709F44CC0309709F449C068
:1013E000BE8CEF8C08A1F9A088A5811145C0428C64
:1013F000538C648C758C2B2D3E2D402F5F2DC3019B
:10140000B2010E94D51887FF37C0A3019201C30122
:10141000B2010E94C41A1B012C0120E03AEB4BE5FB
:101420005AEC6AA17BA18CA19DA10E94C41A9B01C8
:10143000AC01C201B1010E9451180E94371B662EF7
:10144000872E982EA92E2B2D3E2D402F5F2D0E94EA
:101450008C1A181624F46B2C8E2C902EAF2C862D03
:10146000982DA92DBA2D8A8F9B8FAC8FBD8F51E0FF
:101470005FA3FE01E60139CF8B2D9E2DA02FBF2D3E
:10148000F2CF100290011124F901E959FE4F7F01BA
:10149000009749F0209739F0FC0120A5211103C0E5
:1014A000BE010E94F6081F5F1E3009F410E0CE0155
:1014B000E7012CCFFF2D4E2DF40290011124F901EC
:1014C000E959FE4F6F01209791F12FA121110AC018
:1014D000E89EF001E99EF00D1124E959FE4F27A185
:1014E000222329F18E889F88A88CB98CE89EF00170
:1014F000E99EF00D1124E959FE4FA5019401628D7A
:10150000738D848D958D0E94DA182B013C01A50105
:1015100094016A8D7B8D8C8D9D8D0E94DA18AB01B4
:10152000BC0193018201CE010E94BD071FA2F3946A
:10153000FEE0FF1201C0F12CE60103CF60E070E095
:10154000CB011FCFCF93DF938F5F8E3009F480E004
:10155000C82F880FDD0B809165018C171D0621F0C7
:10156000CE01DF91CF9108950E941403F4CF2F9202
:101570003F924F925F926F927F928F929F92AF9223
:10158000BF92CF92DF92EF92FF920F931F93CF9370
:10159000DF93CDB7DEB7A1970FB6F894DEBF0FBECD
:1015A000CDBF2B013C0129833A834B835C83ED86BD
:1015B000FE860F87188BAD82BE82CF82D886CEA8DA
:1015C000DFA8E8ACF9AC2DEC3CEC4CEC5DE3B501EC
:1015D0008F8198850E94D51887FF08C00DEC0D8378
:1015E0001CEC1E830CEC0F831DE318872CE137ECF9
:1015F00041EB52E4C301B2010E94C41A0E94911A45
:101600006D8B7E8B8F8B988F24E731ED45EB52E409
:1016100069817A818B819C810E94C41A0E94911AEF
:10162000698F7A8F8B8F9C8F25E535E545E052E4F5
:101630006D857E858F8598890E94C41A0E94911AB3
:101640006D8F7E8F8F8F98A38091660190E00E94AE
:10165000A20A89A380916601282E312C20E030E077
:10166000A901C701B6010E94D518882309F44AC30D
:1016700085E4829D8001839D100D112409591E4F20
:1016800081E0D8018C932CE137EC41EB52E4C701A7
:10169000B6010E94C41A20E030E040E854E40E9401
:1016A000C41A0E94911AF801FD96608371838283A7
:1016B000938385E4829DF001839DF00D1124E95907
:1016C000FE4F86A215868091590190915A01A091F2
:1016D0005B01B0915C010D891E892F89388D081737
:1016E00019072A073B0714F428E0258780905D013D
:1016F00090905E01A0905F01B0906001298D3A8DBD
:101700004B8D5C8D281539054A055B055CF425E495
:10171000229DF001239DF00D1124E959FE4F2585EE
:1017200020612587C0906101D0906201E090630143
:10173000F09064010D8D1E8D2F8D38A10C151D05A7
:101740002E053F055CF425E4229DF001239DF00D5C
:101750001124E959FE4F2585206225874D895E8930
:101760006F89788D481B590B6A0B7B0B49875A8709
:101770006B877C8777FF0BC088279927DC01841B48
:10178000950BA60BB70B89879A87AB87BC87E5E4D7
:10179000E29D9001E39D300D112429593E4F89852A
:1017A0009A85AB85BC85F90181839283A383B48339
:1017B000098D1A8D2B8D3C8D081919092A093B09B1
:1017C0004801590128013901B7FE07C044245524B6
:1017D0003201481859086A087B08E5E4E29D900147
:1017E000E39D300D112429593E4FD90115964D9294
:1017F0005D926D927C9218970D8D1E8D2F8D38A164
:101800000C191D092E093F0968017901F7FE07C06F
:101810000027112798010C191D092E093F0995E48D
:10182000929DD001939DB00D1124FD01E959FE4F09
:10183000018712872387348789859A85AB85BC8584
:1018400084159505A605B70510F4D301C201898357
:101850009A83AB83BC8380179107A207B30720F458
:1018600009831A832B833C8385E4829D8001839DB9
:10187000100D112409591E4F89819A81AB81BC81B9
:10188000F80186879787A08BB18B892B8A2B8B2BAE
:1018900009F44AC2CB01BA010E9484192CE137EC49
:1018A00041EB52E40E94DA1869877A878B879C871C
:1018B000C501B4010E94841924E731ED45EB52E4DF
:1018C0000E94DA18698B7A8B8B8B9C8BC701B601CF
:1018D0000E94841925E535E545E052E40E94DA18B6
:1018E0006B017C0129853A854B855C85CA01B9016C
:1018F0000E94C41A4B015C0129893A894B895C8991
:10190000CA01B9010E94C41A9B01AC01C501B4010E
:101910000E9452184B015C01A7019601C701B60154
:101920000E94C41A9B01AC01C501B4010E94521867
:101930000E94371B6D877E878F87988BD801929680
:101940006D937D938D939C9395979B01AC0160E083
:1019500070E080E89FE30E94DA182B013C018D8142
:101960009E81AF81B885F801868B978BA08FB18F50
:1019700069817A818B819C810E9484194B015C0171
:10198000A30192016D817E818F8198850E94C41A86
:10199000A50194010E94C41A0E94BE180E94531906
:1019A000D80152966D937D938D939C935597A30187
:1019B0009201C501B4010E94C41A20E03AEB4BED3C
:1019C00059E40E94C41A20E030E84BE356E40E9438
:1019D000DA180E94BE180E945319F80161AB72AB6D
:1019E00083AB94ABA301920169857A858B859C8535
:1019F0000E94C41A69837A838B839C83A30192011A
:101A000069897A898B899C890E94C41A69877A8737
:101A10008B879C87A3019201C701B6010E94C41A5B
:101A20002B013C019091660180916501981709F4A2
:101A300073C1C0904901D0904A01E0904B01F090F1
:101A40004C0120E030E0A901B601C7010E948C1AC8
:101A500018160CF061C160914D0170914E0180919A
:101A60004F0190915001905829813A814B815C81BE
:101A70000E94C41A4B015C01209151013091520126
:101A8000409153015091540169857A858B859C85DD
:101A90000E94C41A9B01AC01C501B4010E945118F7
:101AA0004B015C0120915501309156014091570145
:101AB00050915801C301B2010E94C41A9B01AC01AC
:101AC000C501B4010E9451184B015C0123E333E3CB
:101AD00043E75FE30E94D51887FF1EC12D813E8139
:101AE0004F815885B601C7010E94D51887FD04C0F3
:101AF000CD80DE80EF80F88423E333E343E75FEBC0
:101B0000C501B4010E948C1A1816C4F5A5019401F0
:101B100060E070E080E89FE30E94511820E030E030
:101B200040E05FE30E94C41A0E94371B4B015C0136
:101B300020E030EC48E256E40E94C41A698B7A8BAC
:101B40008B8B9C8BA501940160E070E080E89FE3A3
:101B50000E9451189B01AC0169897A898B899C8903
:101B60000E94DA180E94371B4B015C019601A70105
:101B70000E948C1A181614F06401750185E4829D88
:101B8000F001839DF00D1124E959FE4FC601D701E4
:101B9000868F978FA0A3B1A320E03AEB4BE55AECD8
:101BA0006D857E858F8598890E94C41A9B01AC0142
:101BB00060E070E0CB010E9451180E94371B4B017E
:101BC0005C019B01AC01B601C7010E94D51887FDDD
:101BD00002C06401750185E4829D8001839D100D22
:101BE000112409591E4FC601D701F801828F938F26
:101BF000A48FB58F9401A5016D817E818F81988519
:101C00000E94D51818160CF48CC081E0D801989663
:101C10008C9385E4829DF001839DF00D1124E95998
:101C2000FE4F81E087A309811A812B813C810093BB
:101C30004D0110934E0120934F013093500129859F
:101C40003A854B855C852093510130935201409336
:101C500053015093540140925501509256016092A5
:101C60005701709258018D819E81AF81B885809314
:101C7000490190934A01A0934B01B0934C0109A1F3
:101C8000009366012D893E894F89588D2093590113
:101C900030935A0140935B0150935C01898D9A8D7A
:101CA000AB8DBC8D80935D0190935E01A0935F012D
:101CB000B09360010D8D1E8D2F8D38A100936101B1
:101CC0001093620120936301309364010E945D09C7
:101CD000A1960FB6F894DEBF0FBECDBFDF91CF91B6
:101CE0001F910F91FF90EF90DF90CF90BF90AF903A
:101CF0009F908F907F906F905F904F903F902F902C
:101D00000C940D1185E4829DF001839DF00D11244A
:101D1000E959FE4F1082CDCCC12CD12CE12CF12CF5
:101D20002DCFF80110A675CFA1960FB6F894DEBF9F
:101D30000FBECDBFDF91CF911F910F91FF90EF901C
:101D4000DF90CF90BF90AF909F908F907F906F90DB
:101D50005F904F903F902F900895CF92DF92EF9237
:101D6000FF92CF936B017C01C42F8091660190E0BC
:101D70000E94A20AE091660195E4E99FF001112416
:101D8000E959FE4F92E09083C6A3DF01AF5BBF4FDE
:101D9000CD92DD92ED92FC92139716861786108AEB
:101DA000118A12A213A214A215A240E050E06AEF19
:101DB00075E4468B578B608F718F128A138A148A51
:101DC000158A41E050E060E070E041AB52AB63AB9C
:101DD00074AB128E138E148E158E168E178E10A263
:101DE00011A291E090A797A31092490110924A0185
:101DF00010924B0110924C01EDE4F1E09CE0DF0108
:101E00001D929A95E9F7809366010E945D09CF9132
:101E1000FF90EF90DF90CF900C940D11CF93C82FCF
:101E20008091660190E00E94A20AE091660195E42B
:101E3000E99FF0011124E959FE4FC08316861786E9
:101E4000108A118A12A213A214A215A240E050E037
:101E50006AEF75E4468B578B608F718F128A138AF5
:101E6000148A158A41E050E060E070E041AB52AB6B
:101E700063AB74AB128E138E148E158E168E178E66
:101E800010A211A291E090A797A31092490110927D
:101E90004A0110924B0110924C01EDE4F1E09CE0FC
:101EA000DF011D929A95E9F7809366010E945D0912
:101EB000CF910C940D11209166019091650181E004
:101EC000291301C080E00895909166018091650119
:101ED000981749F08091650125E4829FC001112483
:101EE00089599E4F089590E080E008959091660191
:101EF00080916501981741F0809165018F5F8E3068
:101F000009F480E0809365010895809166018093D3
:101F1000650108958F929F92AF92BF92CF92DF9208
:101F2000EF92FF920F931F93CF93DF9349015A01D2
:101F300067012CE137EC41EB52E40E94C41A0E9485
:101F4000911AC9E5D1E0688379838A839B8324E76A
:101F500031ED45EB52E4C501B4010E94C41A0E9460
:101F6000911A6C837D838E839F8325E535E545E05B
:101F700052E4C801B6010E94C41A0E94911A6887EF
:101F800079878A879B871092490110924A011092A3
:101F90004B0110924C01EDE4F1E08CE0DF011D9269
:101FA0008A95E9F7DF91CF911F910F91FF90EF9004
:101FB000DF90CF90BF90AF909F908F900895EF9259
:101FC000FF920F931F931092660110926501E12C0E
:101FD000F12C870120E030E040EA50E4CA01B90169
:101FE0000E948A0F1F910F91FF90EF9008958AB180
:101FF00083778AB987B1807C87B9089529B199B16F
:10200000392F331F3327331F22FB992790F9932B46
:1020100011F44B9B06C018BC893228F082E085BDC4
:10202000089588BDF9CF8B3010F083E0F8CF84E0BD
:10203000F6CF88B50895882311F05C9A08955C98CE
:102040000895882311F05E9A08955E980895559A30
:1020500088E085BD81E084BD84B5806284BD8FEF5A
:1020600087BD18BC549A80E00E941B10569A80E0ED
:102070000C9421108091430590914405A091450551
:10208000B09146054091470550914805609149053A
:1020900070914A05840F951FA61FB71F813828E34A
:1020A000920721E0A207B10550F480934305909375
:1020B0004405A0934505B093460580E008958058F7
:1020C0009843A140B1098093430590934405A093A0
:1020D0004505B093460581E008959B01AC0120348D
:1020E00086E038074105510520F420E436E040E061
:1020F00050E060E070E788E399E30E94921BB90129
:1021000090E02115310581E048075105B0F0211517
:10211000310588E04807510520F563E0569547955D
:10212000379527956A95D1F7B901E3E0220F331F60
:10213000441F551FEA95D1F791E080918100887F77
:102140009F5F892B80938100709389006093880042
:1021500020934705309348054093490550934A051D
:10216000089586E056954795379527958A95D1F736
:10217000B90196E0220F331F441F551F9A95D1F7DE
:1021800092E0DBCFCF92DF92EF92FF92CF93DF937B
:102190006B017C010E946D10C0916205D0916305B6
:1021A00088818130B1F4A0914C05B0E0A70196017F
:1021B0000E94BA1B2A893B894C895D890E94921B27
:1021C000822FDF91CF91FF90EF90DF90CF900C9412
:1021D000FE0FC701B6010E9482196B017C016A895A
:1021E0007B898C899D890E9482199B01AC01C70162
:1021F000B6010E94DA186B017C016EA170E090E0DC
:1022000080E00E9484199B01AC01C701B6010E94C5
:10221000C41A0E945319862FD4CF80913E05811194
:102220000BC081E080933E0588E08093610580913A
:102230006F00826080936F00089510923E051092A7
:1022400063051092620510922D0510922E051092D2
:102250002F0510923005EFE6F0E080818D7F8083BE
:1022600080E00C94FE0F80913E05089590913D050D
:1022700091110FC080933C0581E080933D05109241
:102280003B0580E00E941B1080E00E9421100C940E
:102290006F00089580913C05089580913D05089553
:1022A00080E280933C0510923D0510923B05089515
:1022B0004F925F926F927F928F92AF92BF92CF9226
:1022C000DF92EF92FF920F931F93CF93DF93CDB7DF
:1022D000DEB72C970FB6F894DEBF0FBECDBF698373
:1022E0007A838B839C8329013A01ED82FE820F83DE
:1022F0001887A986BA86CB86DC8680913E05811137
:1023000071C0E12CF12C8701A8019701C801B70128
:102310000E948A0FE4E6F5E08CE0DF011D928A95C9
:10232000E9F71F921F921F921F92812CAE8CBF8CD7
:10233000C8A0D9A0A301920169817A818B819C8177
:102340000E94B70A0F900F900F900F9080913E055A
:1023500081114BC0E12CF12C8701A8019701C80124
:10236000B7010E948A0FE4E6F5E08CE0DF011D92E0
:102370008A95E9F70E94501181E0809335051F92FC
:102380001F921F921F92812CAE8CBF8CC8A0D9A027
:1023900029853A854B855C856D817E818F81988505
:1023A0000E94B70A0F900F900F900F9080913E05FA
:1023B00081111EC0109235052C960FB6F894DEBF21
:1023C0000FBECDBFDF91CF911F910F91FF90EF9086
:1023D000DF90CF90BF90AF908F907F906F905F9085
:1023E0004F9008950E94140388CF0E941403AECF2B
:1023F0000E941403DBCF81E080933B050895809118
:102400003B05882319F081E080933A0510923B0543
:10241000089580913B0508952FB7F8946091640565
:102420007091650580916605909167052FBF0E94A8
:1024300084192CE137EC41EB52E40E94DA1808953C
:102440002FB7F894609168057091690580916A05CD
:1024500090916B052FBF0E94841924E731ED45EB65
:1024600052E40E94DA1808952FB7F89460916C0531
:1024700070916D0580916E0590916F052FBF0E9440
:10248000841925E535E545E052E40E94DA180895FF
:102490008F929F92AF92BF92CF92DF92EF92FF9274
:1024A0000F931F93CF93DF9349015A01670178017E
:1024B0001FB7F8942CE137EC41EB52E40E94C41AA8
:1024C0000E94911AC4E6D5E0688379838A839B834E
:1024D00024E731ED45EB52E4C501B4010E94C41A72
:1024E0000E94911A6C837D838E839F8325E535E559
:1024F00045E052E4C701B6010E94C41A0E94911A35
:10250000688779878A879B871FBFDF91CF911F914B
:102510000F91FF90EF90DF90CF90BF90AF909F9082
:102520008F900895EF92FF920F931F9384B18F6362
:1025300084B985B1807C886085B9E1E8F0E080816C
:102540008F7E8083808188608083E0E8F0E08081F6
:102550008D7F808380818E7F808380818F73808355
:1025600080818F7C80831092B0001092B100E0E7F0
:10257000F0E080818160808360E476E080E090E03C
:102580000E946D1080E00E94FE0FE4E6F5E08CE012
:10259000DF011D928A95E9F7E12CF12C870120E0FB
:1025A00030E040EA50E4CA01B9010E94481210929A
:1025B000430510924405109245051092460510926D
:1025C00063051092620510923D0580E280933C0500
:1025D00010924B05109235051F910F91FF90EF90CF
:1025E0000C941D111F920F920FB60F9211245D983B
:1025F00015BC0F900FBE0F901F9018951F920F9251
:102600000FB60F9211248F9385B1887F85B91092F0
:10261000B1008F910F900FBE0F901F9018951F92D1
:102620000F920FB60F921124CF92DF92EF92FF928A
:102630002F933F934F935F936F937F938F939F93CA
:10264000AF93BF93CF93DF93EF93FF9380914B05AD
:1026500081110DC081E080934B0580913D05882359
:10266000E9F00E941D110E94850F10924B05FF9109
:10267000EF91DF91CF91BF91AF919F918F917F911A
:102680006F915F914F913F912F91FF90EF90DF906D
:10269000CF900F900FBE0F901F90189580913B0523
:1026A000882321F080E00E94FE0FDFCF99B189B12D
:1026B000282F221F2227221F92FB882780F9822B96
:1026C00011F44B9B03C080E00E94FE0F8091350502
:1026D000811112C0309B04C084E20E943611C5CF24
:1026E000319B02C085E2F9CF329B02C086E2F5CF72
:1026F000339B02C08AE2F1CF25B1909161059873B6
:1027000085B1877C892B85B928732913AECF85B114
:10271000887F90916105892B85B98AEF8093B200FB
:1027200082E08093B1007894809162059091630576
:10273000892B09F06DC00E94640F9093630580930C
:102740006205009719F40E941D118FCFFC012081B2
:10275000223008F05DC061A572A583A594A56093A1
:102760003F0570934005809341059093420540E4F6
:10277000C42E4CE9D42EE12CF12CC0924305D0920A
:102780004405E0924505F0924605213051F410923F
:102790004D0510924E0510924F0510925005109263
:1027A0004C050E94C210E0916205F0916305868598
:1027B0009785A089B189B595A79597958795B09587
:1027C000A095909581959F4FAF4FBF4F80935D052A
:1027D00090935E05A0935F05B093600580935905C3
:1027E00090935A05A0935B05B0935C0580935505C3
:1027F00090935605A0935705B09358051092510534
:1028000010925205109253051092540510923A05F9
:10281000C0916205D09163052881273008F025CF4B
:10282000E22FF0E0EA5EFB4E0C94B41B1D141D1465
:10283000E21639173D173F1743173D853093610561
:1028400089819A81AB81BC8140915D0550915E0583
:1028500060915F0570916005840F951FA61FB71FDB
:1028600080935D0590935E05A0935F05B09360052E
:102870004E855F8568897989181619061A061B0620
:1028800024F5316030936105841B950BA60BB70BC3
:1028900080935D0590935E05A0935F05B0936005FE
:1028A0008091640590916505A0916605B0916705DA
:1028B00033FF69C10197A109B10980936405909321
:1028C0006505A0936605B09367058D819E81AF81F4
:1028D000B885C0905905D0905A05E0905B05F090FE
:1028E0005C058C0D9D1DAE1DBF1D809359059093F9
:1028F0005A05A0935B05B0935C05181619061A06D5
:102900001B0634F530916105326030936105841BFC
:10291000950BA60BB70B8093590590935A05A0937E
:102920005B05B0935C058091680590916905A09165
:102930006A05B0916B0534FF2AC10197A109B1095D
:102940008093680590936905A0936A05B0936B0521
:1029500089859A85AB85BC85C0905505D090560574
:10296000E0905705F09058058C0D9D1DAE1DBF1DC4
:102970008093550590935605A0935705B09358053D
:10298000181619061A061B0634F5309161053460D5
:1029900030936105841B950BA60BB70B80935505EF
:1029A00090935605A0935705B093580580916C05F8
:1029B00090916D05A0916E05B0916F0535FFEBC04C
:1029C0000197A109B10980936C0590936D05A093BF
:1029D0006E05B0936F058091510590915205A091BD
:1029E0005305B09154050196A11DB11D8093510569
:1029F00090935205A0935305B0935405309161050F
:102A0000E8E03E273093610584179507A607B707CE
:102A100008F0CAC120913A05213009F0C0C04091A8
:102A20003F055091400560914105709142054093EA
:102A3000360550933705609338057093390589A59D
:102A40009AA5ABA5BCA5481759076A077B0740F0B4
:102A500080933F0590934005A0934105B0934205B4
:102A600080E49CE9A0E0B0E08093430590934405A6
:102A7000A0934505B093460560913F0570914005D0
:102A800080914105909142050E94C21082E080939E
:102A90003A05E0916205F09163058081813009F08B
:102AA000E4CD8091510590915205A0915305B091CC
:102AB00054052AE0880F991FAA1FBB1F2A95D1F73A
:102AC00040914D0550914E0560914F057091500514
:102AD000452B462B472B41F480934D0590934E0593
:102AE000A0934F05B093500540914D0550914E0570
:102AF00060914F057091500584179507A607B70799
:102B000008F4B3CDFD9680819181A281B381840FB9
:102B1000951FA61FB71F80934D0590934E05A09358
:102B20004F05B0935005F8940E9446027894E091C6
:102B30006205F091630526A130E0220F331F682F54
:102B40006058770B269FC001279F900D369F900DF0
:102B500011246FEF70E00E947E1B60934C05209162
:102B60003F05309140054091410550914205A62F07
:102B7000B0E00E94BA1B22893389448955890E949A
:102B8000921B822F90CD0196A11DB11D96CE01966C
:102B9000A11DB11DD5CE0196A11DB11D14CF20914F
:102BA0003A05223009F03FC00E943A10882309F408
:102BB00070CF89A99AA9ABA9BCA940913F055091B2
:102BC00040056091410570914205840F951FA61F35
:102BD000B71F80933F0590934005A0934105B093A4
:102BE0004205409136055091370560913805709146
:102BF000390584179507A607B70750F040933F059E
:102C000050934005609341057093420510923A0538
:102C100060913F057091400580914105909142057A
:102C20000E94C21036CF4DA95EA96FA978AD841756
:102C30009507A607B70778F50E943A10882309F48C
:102C400028CF89A99AA9ABA9BCA940913F05509169
:102C500040056091410570914205840F951FA61FA4
:102C6000B71F80933F0590934005A0934105B09313
:102C700042054A895B896C897D89481759076A072B
:102C80007B0730F640933F05509340056093410524
:102C900070934205BDCF49AD5AAD6BAD7CAD841785
:102CA0009507A607B70769F480E49CE9A0E0B0E0C7
:102CB0008093430590934405A0934505B093460542
:102CC000E8CE84179507A607B70708F446C00E9408
:102CD0003A10882309F4DDCE49A95AA96BA97CA929
:102CE00080913F0590914005A0914105B09142052A
:102CF000481759076A077B0738F5841B950BA60B05
:102D0000B70B80933F0590934005A0934105B09386
:102D100042058DA59EA5AFA5B8A940913F0550914C
:102D200040056091410570914205481759076A07AF
:102D30007B0708F06DCF80933F0590934005A093EB
:102D40004105B093420564CF10923F0510924005B3
:102D50001092410510924205DCCF6A897B898C89EB
:102D60009D89C0903F05D0904005E0904105F090CE
:102D700042056C157D058E059F0551F060933F055A
:102D80007093400580934105909342050E94C210C4
:102D9000E0916205F09163058081813009F481CE74
:102DA00086A10E94FE0F75CE213029F480E00E949A
:102DB000FE0F0E946E0210926305109262050E943F
:102DC000760F53CCC0902D05D0902E05E0902F05A6
:102DD000F0903005C114D104E104F104E9F420E0DD
:102DE00030E04AE754E4FE01EF5BFF4F6081718100
:102DF000828193810E94C41A0E94911A60933105C6
:102E000070933205809333059093340560E67AEE33
:102E100080E090E00E946D10809131059091320524
:102E2000A0913305B0913405C816D906EA06FB0611
:102E3000B8F48EA10E94FE0F80912D0590912E0571
:102E4000A0912F05B09130050196A11DB11D809371
:102E50002D0590932E05A0932F05B093300505CC3A
:102E600010922D0510922E0510922F05109230050C
:102E7000A2CF81E00E941B109ECF80E0FBCF81E0BB
:102E80000E94211098CF80E0FBCF8F929F92AF924B
:102E9000BF92CF92DF92EF92FF920F931F93CF9347
:102EA000DF9380913E058111F6C0E12CF12C870162
:102EB000A8019701C801B7010E948A0FE4E6F5E076
:102EC0008CE0DF011D928A95E9F781E0809335055A
:102ED000309B17C01F921F921F921F92812CA12C12
:102EE000B12CE8E4CE2EE4E4DE2EA801970160E0E8
:102EF00070E080EA91E40E94B70A0F900F900F9063
:102F00000F90319B1AC01F921F921F921F92812C0B
:102F1000A12CB12C78E4C72E74E4D72EE12CF12C2F
:102F20008701A801970160E070E080EA91EC0E94BF
:102F3000B70A0F900F900F900F90329B1AC01F92FC
:102F40001F921F921F92812CA12CB12C68E4C62ED7
:102F500064E4D62EE12CF12C870120E030E040EA39
:102F600051E4C801B7010E94B70A0F900F900F906B
:102F70000F90339B1AC01F921F921F921F92812C99
:102F8000A12CB12C58E4C52E54E4D52EE12CF12C03
:102F9000870120E030E040EA51ECC801B7010E940F
:102FA000B70A0F900F900F900F9080913E058111FE
:102FB00075C01092350585E4982E9F92C8E4CF9392
:102FC0001F921F92A12CB12C6501E12CF12C00E283
:102FD00011E4A601950160EF73E284E799EC0E9489
:102FE0005811D4E4DF93CF931F921F92E12CF12C60
:102FF00000E810E4A601950160EF73E284E799EC24
:103000000E9458119F92CF931F921F92A12CB12C16
:1030100030E2C32E31E4D32EE12CF12C870120EFD6
:1030200033E244E759ECC801B7010E945811DF931D
:10303000CF931F921F92A12CB12C40E8C42E40E4E4
:10304000D42E20EF33E244E759ECC801B7010E94C7
:103050005811A8019701C801B7010E948A0FE4E640
:10306000F5E08CE0DF011D928A95E9F78DB79EB7F8
:1030700040960FB6F8949EBF0FBE8DBFDF91CF91E3
:103080001F910F91FF90EF90DF90CF90BF90AF9086
:103090009F908F9008950E94140303CF0E94140301
:1030A00084CF5058BB27AA270E9469180C943A1A5B
:1030B0000E942C1A38F00E94331A20F039F49F3FF6
:1030C00019F426F40C94291A0EF4E095E7FB0C94FD
:1030D000FA19E92F0E944B1A58F3BA1762077307BF
:1030E0008407950720F079F4A6F50C94851A0EF460
:1030F000E0950B2EBA2FA02D0B01B90190010C0108
:10310000CA01A0011124FF27591B99F0593F50F41F
:10311000503E68F11A16F040A22F232F342F442777
:10312000585FF3CF469537952795A795F04053956F
:10313000C9F77EF41F16BA0B620B730B840BBAF03F
:103140009150A1F0FF0FBB1F661F771F881FC2F7AA
:103150000EC0BA0F621F731F841F48F487957795BE
:103160006795B795F7959E3F08F0B0CF9395880F78
:1031700008F09927EE0F9795879508950E946D1A8C
:1031800090F09F3748F4911116F40C94861A60E081
:1031900070E080E89FE3089526F01B16611D711D05
:1031A000811D0C94001A0C941B1A0E94D61908F465
:1031B00081E008950E94EE180C943A1A0E94331A86
:1031C00058F00E942C1A40F029F45F3F29F00C942B
:1031D000FA1951110C94861A0C94291A0E944B1A50
:1031E00068F39923B1F3552391F3951B550BBB2736
:1031F000AA2762177307840738F09F5F5F4F220F7B
:10320000331F441FAA1FA9F335D00E2E3AF0E0E871
:1032100032D091505040E695001CCAF72BD0FE2FBB
:1032200029D0660F771F881FBB1F2617370748074F
:10323000AB07B0E809F0BB0B802DBF01FF27935807
:103240005F4F3AF09E3F510578F00C94FA190C94B8
:10325000861A5F3FE4F3983ED4F386957795679599
:10326000B795F7959F5FC9F7880F911D969587953C
:1032700097F90895E1E0660F771F881FBB1F62175B
:1032800073078407BA0720F0621B730B840BBA0B19
:10329000EE1F88F7E09508950E9453196894B111C4
:1032A0000C94861A08950E94531A88F09F5798F03C
:1032B000B92F9927B751B0F0E1F0660F771F881F3B
:1032C000991F1AF0BA95C9F714C0B13091F00E9455
:1032D000851AB1E008950C94851A672F782F8827F6
:1032E000B85F39F0B93FCCF3869577956795B3957C
:1032F000D9F73EF490958095709561957F4F8F4FEB
:103300009F4F0895E89409C097FB3EF490958095EF
:10331000709561957F4F8F4F9F4F9923A9F0F92F9B
:1033200096E9BB279395F695879577956795B79519
:10333000F111F8CFFAF4BB0F11F460FF1BC06F5FFF
:103340007F4F8F4F9F4F16C0882311F096E911C011
:10335000772321F09EE8872F762F05C0662371F032
:1033600096E8862F70E060E02AF09A95660F771F46
:10337000881FDAF7880F9695879597F908950E9428
:103380006D1A90F09F3748F4911116F00C94861A3C
:1033900060E070E080E89FEB089526F41B16611D45
:1033A000711D811D0C94001A0C941B1A990F0008B2
:1033B000550FAA0BE0E8FEEF16161706E807F90707
:1033C000C0F012161306E407F50798F0621B730BA2
:1033D000840B950B39F40A2661F0232B242B252B23
:1033E00021F408950A2609F4A140A6958FEF811DC6
:1033F000811D089597F99F6780E870E060E0089567
:10340000882371F4772321F09850872B762F07C0FB
:10341000662311F499270DC09051862B70E060E06F
:103420002AF09A95660F771F881FDAF7880F96950E
:10343000879597F908959F3F31F0915020F4879533
:1034400077956795B795880F911D9695879597F90C
:1034500008959FEF80EC089500240A94161617062D
:1034600018060906089500240A9412161306140675
:1034700005060895092E0394000C11F4882352F0D8
:10348000BB0F40F4BF2B11F460FF04C06F5F7F4F90
:103490008F4F9F4F089557FD9058440F551F59F077
:1034A0005F3F71F04795880F97FB991F61F09F3F31
:1034B00079F087950895121613061406551FF2CF5A
:1034C0004695F1DF08C0161617061806991FF1CFAA
:1034D000869571056105089408950E94531AA0F01D
:1034E000BEE7B91788F4BB279F3860F41616B11DE4
:1034F000672F782F8827985FF7CF86957795679500
:10350000B11D93959639C8F30895E894BB276627B3
:103510007727CB0197F908950E94D61908F48FEF09
:1035200008950E94531A58F19E5760F19851A0F0E7
:10353000E9F0983020F5092E9927660F771F881F2C
:10354000991F0A94D1F712C0062E672F782F88276B
:10355000985F11F4000C07C0993FB4F386957795F6
:1035600067959395D9F7611D711D811D3EF4909566
:103570008095709561957F4F8F4F9F4F0895689408
:103580000C94861A0C94851A0E94D71A0C943A1A35
:103590000E942C1A38F00E94331A20F0952311F063
:1035A0000C94FA190C94291A11240C94861A0E946E
:1035B0004B1A70F3959FC1F3950F50E0551F629F12
:1035C000F001729FBB27F00DB11D639FAA27F00D7C
:1035D000B11DAA1F649F6627B00DA11D661F829FA3
:1035E0002227B00DA11D621F739FB00DA11D621F88
:1035F000839FA00D611D221F749F3327A00D611DA5
:10360000231F849F600D211D822F762F6A2F112486
:103610009F5750409AF0F1F088234AF0EE0FFF1FB9
:10362000BB1F661F771F881F91505040A9F79E3F10
:10363000510580F00C94FA190C94861A5F3FE4F35C
:10364000983ED4F3869577956795B795F795E79566
:103650009F5FC1F7FE2B880F911D9695879597F96F
:10366000089519F416F40C94291A0C941B1A0E944C
:10367000531AB8F39923C9F3B6F39F57550B87FF35
:103680000E94771B0024A0E640EA900180585695DE
:10369000979528F4805C660F771F881F20F0261707
:1036A0003707480730F4621B730B840B202931293C
:1036B0004A2BA69517940794202531254A2758F7B9
:1036C000660F771F881F20F026173707480730F44A
:1036D000620B730B840B200D311D411DA09581F7EA
:1036E000B901842F9158880F969587950895915028
:1036F0005040660F771F881FD2F70895AA1BBB1B87
:1037000051E107C0AA1FBB1FA617B70710F0A61BE1
:10371000B70B881F991F5A95A9F780959095BC0102
:10372000CD010895A1E21A2EAA1BBB1BFD010DC0FD
:10373000AA1FBB1FEE1FFF1FA217B307E407F50761
:1037400020F0A21BB30BE40BF50B661F771F881F3D
:10375000991F1A9469F760957095809590959B01D3
:10376000AC01BD01CF010895EE0FFF1F0590F4914C
:10377000E02D09940E94C51BA59F900DB49F900D4C
:10378000A49F800D911D11240895A29FB001B39FA5
:10379000C001A39F700D811D1124911DB29F700D5A
:0C37A000811D1124911D0895F894FFCFA5
:0237AC0001001A
:00000001FF
