:100000000C9434000C945B000C945B000C945B002B
:100010000C945B000C945B000C9451010C945B00FD
:100020000C945B000C940E120C945B000C941F1249
:100030000C945B000C945B000C945B000C945B00D4
:100040000C9402120C945B000C947E010C94F6004C
:100050000C945B000C945B000C945B000C945B00B4
:100060000C945B000C945B00EFEEF6E085EC98E0FE
:1000700001C08193EF3FF907E0F3D9F311241FBECC
:10008000CFEFD8E0DEBFCDBF11E0A0E0B1E0EAE8FD
:10009000F5E302C005900D92A230B107D9F726E032
:1000A000A2E0B1E001C01D92AF3EB207E1F70E94AD
:1000B0005D000C94C31A0C94000078940E948C008C
:1000C0000E94B1020E940A0F0E94A2110E94220FF8
:1000D0000E94520F0E94980490E080E008951092D0
:1000E0000301109202010895909109019F5F9038D9
:1000F00009F490E0209108012917E1F3E09109014A
:10010000F0E0E159F94F8083909309018091C1009B
:1001100080628093C10008951092C50080E18093B1
:10012000C400E0ECF0E080818D7F8083E1ECF0E0C2
:100130008081806180838081886080838081806805
:1001400080838EE70E947400F894A89584B7877F17
:1001500084BFE0E6F0E080818861808386E480836C
:1001600078940895CF92DF92EF92FF92CF93C82FA9
:10017000CB01BA0120E030E04AE754E40E94B31911
:100180000E9480196B017C0128EFF21A8C2D806887
:100190000E947400D701C60127E0B695A7959795F0
:1001A00087952A95D1F780680E947400D701C6010F
:1001B0003EE0B695A795979587953A95D1F78068D3
:1001C0000E947400D701C60145E1B695A7959795A1
:1001D00087954A95D1F780680E9474008C2FCF9143
:1001E000FF90EF90DF90CF900C9474001F920F92CD
:1001F0000FB60F9211248F939F93EF93FF938091EB
:100200000801909105019923D1F095E09093C600E3
:1002100090910501915090930501909109019813D7
:1002200005C08091C1008F7D8093C100FF91EF9147
:100230009F918F910F900FBE0F901F901895E82FF0
:10024000F0E0E159F94F90819093C6008F5F8038BC
:1002500009F480E080930801E0CFE0910A01F0E02A
:10026000E159FA4F808190910A019F5F90930A01B2
:100270002FB7F894909104019F5F9093040190919F
:100280000401903160F0909105019F5F909305010A
:100290009091C10090629093C100109204012FBF11
:1002A00008951F920F920FB60F9211242F933F9330
:1002B0004F935F936F937F938F939F93AF93BF936E
:1002C000EF93FF9380E00E94290F8BE30E944C1074
:1002D000E0E6F0E0808180648083FF91EF91BF9140
:1002E000AF919F918F917F916F915F914F913F91CE
:1002F0002F910F900FBE0F901F9018951F920F9285
:100300000FB60F9211242F933F934F935F936F93E8
:100310007F938F939F93AF93BF93EF93FF93A89592
:100320009091C600809100018823A9F010920001ED
:1003300090930701FF91EF91BF91AF919F918F91A2
:100340007F916F915F914F913F912F910F900FBED1
:100350000F901F90189581E0809300018091070114
:10036000891721F08DE30E944C10E4CF803148F5CD
:10037000813011F481E2F7CF823069F410920301E9
:100380001092020110920A0110920B0110920401C6
:100390000E946010CFCF883019F40E940B11CACF91
:1003A000873019F40E940F11C5CF833019F40E94D1
:1003B000EF02C0CF843019F40E94F302BBCF83E276
:1003C000D2CFE0910B0191E09E0F20910A012913F9
:1003D00002C082E2C8CFF0E0E159FA4F80839093E7
:1003E0000B01A8CFCF93C1E080910301811115C00B
:1003F00010920601C1E090910A0180910B019817BB
:1004000061F10E942D01803131F481E0809303017C
:100410001092020181E4CF91089580910201882316
:1004200071F01092060190910A0180910B019817CA
:1004300049F00E942D01813111F4109203010E94B4
:100440000603D2CF80910601811104C00E94F702F9
:10045000C09306010E940603E6CF80910601811138
:1004600004C00E94F702C09306010E940603C3CF96
:1004700080910301882361F080910201811108C0FD
:1004800090910A0180910B01981304C00E94F70219
:1004900080E808950E942D0187FDFBCF813119F47A
:1004A00010920301F5CF83E20E944C10F1CF20910E
:1004B0000A0190910B0181E0291301C080E00895A9
:1004C00081E08093020108950F931F93E1E1F1E031
:1004D000638170E090E080E06058710981099109C2
:1004E00027E0660F771F881F991F2A95D1F7028191
:1004F00010E030E020E00058110921093109600FB7
:10050000711F821F931F37E0660F771F881F991F87
:100510003A95D1F7018110E030E020E00058110950
:1005200021093109600F711F821F931F47E0660F79
:10053000771F881F991F4A95D1F72081620F711D7F
:10054000811D911D60587109810998400E9473189E
:1005500020E030E04AE754E40E94C9171F910F9150
:100560000895E6E1F1E081E0808340E050E06AEF49
:1005700075E44283538364837583168217821086E1
:1005800011861286138614861586168640E050E082
:1005900060EA70E44787508B618B728B438B548B7E
:1005A000658B768B178A108E118E128E9CE0E1E39C
:1005B000F1E0DF01292F1D922A95E9F7EDE3F1E043
:1005C000DF011D929A95E9F78093100180930F0146
:1005D00010920E0110920D0180930C01089581E09C
:1005E00080931001089581E080930F0108952FB743
:1005F000F89480910D0190910E01019690930E0157
:1006000080930D0110920C012FBF08958F929F923D
:10061000AF92BF92CF92DF92EF92FF920F931F9310
:10062000CF9399B189B1282F221F2227221F92FB35
:10063000882780F9822B11F44B9B03C080E00E9435
:10064000290F0E945D10882391F10E94B00E0E9434
:1006500044116B017C010E9430114B015C010E942E
:100660001C1187017601A50194010E94B50E0E941C
:100670001C116093250170932601809327019093AC
:1006800028010E9430116093290170932A01809300
:100690002B0190932C010E94441160932D017093C3
:1006A0002E0180932F0190933001109215018091BB
:1006B0001001811105C080910F01882309F42CC11C
:1006C000109210010E94860E811112C00E945702E2
:1006D00081110EC00E945D1081110AC081E40E9448
:1006E000740083B7816083BF889583B78E7F83BF93
:1006F00099B189B1282F221F2227221F92FB882718
:1007000080F9822B19F082E40E9474004B9B03C095
:1007100083E40E9474000E941911882319F084E474
:100720000E9474000E945A10C82F803211F00E945B
:100730007400309B05C0C43219F084E20E9474003A
:10074000319B05C0C53219F085E20E947400329BCE
:1007500005C0C63219F086E20E947400339B05C0C2
:10076000CA3219F08AE20E9474000E941C1120E033
:1007700030E040EA50E40E9440172091310130916E
:10078000320140913301509134010E944017AB0176
:10079000BC0188E70E94B2000E94301120E030E0E6
:1007A00040EA50E40E944017209135013091360113
:1007B00040913701509138010E944017AB01BC01B4
:1007C00089E70E94B2000E944411209139013091C2
:1007D0003A0140913B0150913C010E944017AB010E
:1007E000BC018AE70E94B20080910C01811110C007
:1007F00060910D0170910E0190E080E00E947118EF
:10080000AB01BC0187E70E94B20081E080930C013C
:10081000EFEEF6E0BF016F5E76408081853C09F423
:1008200073C090E080E00E947118AB01BC0185E7C5
:100830000E94B20080910F01882309F457C01092E2
:100840000F0140E050EE62E275E486E70E94B200DC
:100850004091310150913201609133017091340126
:1008600081E60E94B20040913501509136016091BD
:1008700037017091380182E60E94B200409139013F
:1008800050913A0160913B0170913C0183E60E94D6
:10089000B200409118015091190160911A017091B4
:1008A0001B0187E60E94B20060911C0170E090E09D
:1008B00080E00E947118AB01BC0188E60E94B20082
:1008C00040911D0150911E0160911F017091200106
:1008D00089E60E94B200409121015091220160916D
:1008E0002301709124018AE60E94B20086E0CF9134
:1008F0001F910F91FF90EF90DF90CF90BF90AF903E
:100900009F908F900C94740088E0EF3FF80711F0EF
:1009100008F087CF31967ECFCF911F910F91FF9036
:10092000EF90DF90CF90BF90AF909F908F90089501
:10093000C1E3D1E08CE0982E772473940E94F201F9
:10094000182F0E945D10882319F00E940603F6CF2D
:1009500017FD99C2EFEBE10FEA3108F038C1EF3033
:1009600008F031C1F0E0E954FB4F0C94A31A2C05B8
:10097000C6042005F3042F05320535053A053F0569
:100980007705A805D905DD05DF05E105A09018016B
:10099000B0901901C0901A01D0901B01E0902D0178
:1009A000F0902E0100912F0110913001209129012A
:1009B00030912A0140912B0150912C016091250129
:1009C0007091260180912701909128011F921F921A
:1009D0001F921F9280901C010E9409090F900F9096
:1009E0000F900F9039C0A0901801B0901901C090DD
:1009F0001A01D0901B01E0902D01F0902E01009182
:100A00002F01109130012091290130912A0140914C
:100A10002B0150912C01609125017091260180914C
:100A2000270190912801E0912401EF93E0912301A7
:100A3000EF93E0912201EF93E0912101EF93CACF70
:100A400060911D0170911E0180911F019091200104
:100A500040911C010E944A0E1092150176CF10920F
:100A60001601FACF70921601F7CF8091160180938C
:100A70001701F2CF8091170180931601EDCF0E94EC
:100A80003416FE01892D11928A95E9F780E090E0F5
:100A9000A0EAB0E48093250190932601A09327015A
:100AA000B09328018093290190932A01A0932B01F0
:100AB000B0932C0110922D0110922E0110922F0153
:100AC00010923001A0901801B0901901C0901A0145
:100AD000D0901B011F921F921F921F92812CE12C1C
:100AE000F12C87019C01AD01CD01B90175CF809139
:100AF000310190913201A0913301B0913401809382
:100B00003D0190933E01A0933F01B093400180913D
:100B1000350190913601A0913701B0913801809351
:100B2000410190934201A0934301B093440180910D
:100B3000390190913A01A0913B01B0913C01809321
:100B4000450190934601A0934701B093480184CF9B
:100B500080913D0190913E01A0913F01B0914001F3
:100B60008093310190933201A0933301B09334010B
:100B70008091410190914201A0914301B0914401C3
:100B80008093350190933601A0933701B0933801DB
:100B90008091450190914601A0914701B091480193
:100BA0008093390190933A01A0933B01B0933C01AB
:100BB00053CF83E00E94710E4FCF84E0FBCF85E0DE
:100BC000F9CF86E0F7CF8CE30E944C1045CF8FE938
:100BD000810F8A3108F055C180911501843009F0E8
:100BE0004EC11456173108F048C1E12FF0E0E5502E
:100BF000FA4F0C94A31AA7063D0795063D07BD06BC
:100C0000E90615073D073D073D073D073D07B206CD
:100C10003D073D07A0063D073D073D073D0712067E
:100C20003E066A06109116010E9464021130D9F442
:100C300020E030E040EA50E40E9441179B01AC0103
:100C400060913101709132018091330190913401B2
:100C50000E9441176093250170932601809327011C
:100C600090932801F9CE9B01AC0160912501709110
:100C700026018091270190912801EACF1091160159
:100C80000E9464021130D9F420E030E040EA50E4E0
:100C90000E9441179B01AC016091350170913601B2
:100CA00080913701909138010E944117609329018A
:100CB00070932A0180932B0190932C01CDCE9B0140
:100CC000AC016091290170912A0180912B019091D2
:100CD0002C01EACF109116010E9464021130D1F468
:100CE00020E030E0A9010E9441179B01AC01609116
:100CF000390170913A0180913B0190913C010E9431
:100D0000411760932D0170932E0180932F019093D2
:100D10003001A2CE9B01AC0160912D0170912E019A
:100D200080912F0190913001EACF0E94640260937C
:100D300018017093190180931A0190931B018CCEB6
:100D40000E9464020E94421860931C0185CE0E949A
:100D5000640260931D0170931E0180931F019093A4
:100D600020017ACE0E9464026093210170932201D7
:100D700080932301909324016FCE0E9464026B0143
:100D80007C0180911601813059F4C0923101D092DA
:100D90003201E0923301F09234015ECE0E940603EC
:100DA0000E9449108111FACF0E941C1120E030E00E
:100DB00040EA50E40E944017A70196010E944117A3
:100DC0006093310170933201809333019093340129
:100DD00043CE0E9464026B017C0180911601813038
:100DE00059F4C0923501D0923601E0923701F09269
:100DF000380132CE0E9406030E9449108111FACFB9
:100E00000E94301120E030E040EA50E40E94401798
:100E1000A70196010E944117609335017093360136
:100E2000809337019093380117CE0E9464026B01C2
:100E30007C0180911601813059F4C0923901D09221
:100E40003A01E0923B01F0923C0106CE0E9406037B
:100E50000E9449108111FACF0E9444119B01AC01FC
:100E6000C701B6010E9441176093390170933A019E
:100E700080933B0190933C01EFCD8EE3A5CE8AE3B6
:100E8000A3CE83E2A1CEE0911501E43048F481E0E5
:100E90008E0F80931501F0E0EF5EFE4F108355CD6D
:100EA0008AE30E944C1051CD4F925F926F927F92D5
:100EB0008F929F92AF92BF92CF92DF92EF92FF926A
:100EC0000F931F93CF93DF93CDB7DEB762970FB623
:100ED000F894DEBF0FBECDBF9A8B898B2A013B01F0
:100EE0005901FC0162897389848995890E9471186E
:100EF0006B017C01A30192010E94B3190E94AD17FE
:100F00000E9442182B013C01E989FA8941A652A6A8
:100F100063A674A6A5019801C701B6010E94B31982
:100F20000E94AD170E9442184B015C01E989FA89C1
:100F300085A696A6A7A6B0AA21A932A943A954A915
:100F4000A0EEBEE20E94A91A69837A838B839C83F8
:100F50000E9473186D837E838F839887C301B201CB
:100F60000E9471182B013C01A7019601C701B6012F
:100F70000E94B3196B017C01A3019201C301B2016C
:100F80000E94B31969877A878B879C872D813E8160
:100F90004F815885CA01B9010E9441176D877E872C
:100FA0008F87988B29853A854B855C85C701B6016B
:100FB0000E9440172D853E854F8558890E94C9178C
:100FC0000E94AD170E943B182B013C01C501B401E2
:100FD0000E9471189B01AC010E94B3194B015C0186
:100FE000A70196010E9440176B017C0169817A81FB
:100FF0008B819C8190958095709561957F4F8F4FE7
:101000009F4F0E9473189B01AC010E9441179B01E6
:10101000AC01C701B6010E94C9170E94AE18E98948
:10102000FA89C684D784E088F188A701960124193B
:1010300035094609570929833A834B835C830E940B
:101040003B1829813A814B815C81261B370B480B69
:10105000590BDA01C901B7FF3BC0C701B6010E94B5
:1010600073182D853E854F8558890E94B3192985AF
:101070003A854B855C850E944017A50194010E942A
:1010800041174B015C0120E030E040E850E46D8105
:101090007E818F8198850E94B3199B01AC01C501A7
:1010A000B4010E94C9170E94AD170E943B1897FF18
:1010B00003C060E070E0CB012601370164157505BF
:1010C0008605970514F42B013C0180E090E0DC01DB
:1010D000E989FA8945AA56AA67AA70AE840D951DBA
:1010E000A61DB71D81AF92AFA3AFB4AF62960FB686
:1010F000F894DEBF0FBECDBFDF91CF911F910F914E
:10110000FF90EF90DF90CF90BF90AF909F908F9027
:101110007F906F905F904F9008954F925F926F9283
:101120007F92AF92BF92CF92DF92EF92FF920F9396
:101130001F93CF93DF938C01EB01FC01428C538C06
:10114000648C758CAA8CBB8CCC8CDD8C9501A60133
:10115000C301B2010E94C41787FF37C0A3019201E7
:10116000C301B2010E94B3192B013C0120E03AEB0C
:101170004BE55AECF80162A173A184A195A10E94EC
:10118000B3199B01AC01C301B2010E9440170E9438
:10119000261A7B018C019B01AC01B501C6010E949E
:1011A000C41787FF02C0750186019701A801B50128
:1011B000C6010E94C417882341F0C701D8018A8F55
:1011C0009B8FAC8FBD8F81E08FA3DF91CF911F915B
:1011D0000F91FF90EF90DF90CF90BF90AF907F90F6
:1011E0006F905F904F900895CF93DF938F5F8E3015
:1011F00009F480E0C82F880FDD0B809165018C1702
:101200001D0621F0CE01DF91CF9108950E940603C3
:10121000F4CF2F923F924F925F926F927F928F9274
:101220009F92AF92BF92CF92DF92EF92FF920F9375
:101230001F93CF93DF93CDB7DEB7A1970FB6F89486
:10124000DEBF0FBECDBF29013A01E982FA820B83CE
:101250001C83AD82BE82CF82D886CEA8DFA8E8AC40
:10126000F9AC2CE137EC41EB52E40E94B3190E9437
:101270008019698B7A8B8B8B9C8B24E731ED45EB46
:1012800052E4C301B2010E94B3190E9480196D8B10
:101290007E8B8F8B988F25E535E545E052E469819B
:1012A0007A818B819C810E94B3190E948019698F79
:1012B0007A8F8B8F9C8F8091660190E00E94F4085A
:1012C00089A380916601282E312C20E030E0A9010D
:1012D000C701B6010E94C417882309F499C285E4A6
:1012E000829D8001839D100D112409591E4F81E0BC
:1012F000D8018C932CE137EC41EB52E4C701B601E5
:101300000E94B31920E030E040E854E40E94B31991
:101310000E948019F801FD96608371838283938314
:1013200085E4829DF001839DF00D1124E959FE4F63
:1013300086A215868091590190915A01A0915B0176
:10134000B0915C0149885A886B887C884816590698
:101350006A067B0614F428E0258780905D01909052
:101360005E01A0905F01B09060014D885E886F883B
:10137000788C481459046A047B045CF425E4229DAB
:10138000F001239DF00D1124E959FE4F25852061C0
:101390002587C0906101D0906201E0906301F090D8
:1013A0006401498C5A8C6B8C7C8C4C145D046E04EB
:1013B0007F045CF425E4229DF001239DF00D1124AF
:1013C000E959FE4F25852062258749885A886B8810
:1013D0007C88481A590A6A0A7B0AC301B20197FF3E
:1013E00007C0442455243201461A570A680A790A6C
:1013F00045E4429D9001439D300D112429593E4FF3
:10140000D90111964D925D926D927C9214970D893F
:101410001E892F89388D081919092A093B094801A5
:10142000590189829A82AB82BC82B7FE0BC0222707
:101430003327A901281939094A095B0929833A8305
:101440004B835C8345E4429D9001439D300D112404
:10145000D901A959BE4F09811A812B813C8115966A
:101460000D931D932D933C931897298D3A8D4B8D99
:101470005C8D2C193D094E095F0969017A01CD8601
:10148000DE86EF86F88AF7FE0BC000271127980149
:101490000C191D092E093F090D871E872F87388BD0
:1014A000E5E4E29DA001E39D500D112449595E4FF2
:1014B0000D851E852F853889DA0119960D931D93A8
:1014C0002D933C931C9749865A866B867C860981AE
:1014D0001A812B813C81401651066206730620F466
:1014E00009871A872B873C8749845A846B847C84BC
:1014F0002D853E854F85588942165306640675062C
:1015000010F429013A0125E4229D8001239D100D4C
:10151000112409591E4FD8011E964D925D926D926D
:101520007C925197411451046104710409F499C3E8
:101530000E9473182CE137EC41EB52E40E94C9176A
:1015400069877A878B879C87C501B4010E947318CD
:1015500024E731ED45EB52E40E94C9176D877E8781
:101560008F87988BC701B6010E94731825E535E572
:1015700045E052E40E94C9174B015C0129853A8578
:101580004B855C85CA01B9010E94B3196B017C01CE
:101590002D853E854F855889CA01B9010E94B3192E
:1015A0009B01AC01C701B6010E9441176B017C0190
:1015B000A5019401C501B4010E94B3199B01AC01BE
:1015C000C701B6010E9441170E94261A69837A83D7
:1015D0008B839C83F80162A373A384A395A39B01CF
:1015E000AC0160E070E080E89FE30E94C9176B01E6
:1015F0007C018D819E81AF81B885F801868B978BA8
:10160000A08FB18FC301B2010E9473182B013C015E
:101610002D813E814F815885C701B6010E94B319C3
:10162000A30192010E94B3190E94AD170E944218B3
:10163000D80152966D937D938D939C935597A701F6
:101640009601C301B2010E94B31920E03AEB4BEDC1
:1016500059E40E94B31920E030E84BE356E40E94BD
:10166000C9170E94AD170E944218F80161AB72AB16
:1016700083AB94ABA701960169857A858B859C85A0
:101680000E94B31969877A878B879C87A701960187
:101690006D857E858F8598890E94B3196D877E87B9
:1016A0008F87988BA7019601C501B4010E94B319D9
:1016B0002B013C019091660180916501981709F416
:1016C000B1C0C0904901D0904A01E0904B01F09028
:1016D0004C0120E030E0A901B601C7010E947B194E
:1016E00018160CF09FC060914D0170914E018091D1
:1016F0004F0190915001905829853A854B855C8522
:101700000E94B3194B015C012091510130915201AB
:1017100040915301509154016D857E858F85988944
:101720000E94B3199B01AC01C501B4010E9440178E
:101730004B015C01209155013091560140915701B8
:1017400050915801C301B2010E94B3199B01AC0131
:10175000C501B4010E9440174B015C0123E333E350
:1017600043E75FE30E94C41787FF5CC02D813E8181
:101770004F815885B601C7010E94C41787FD04C078
:10178000CD80DE80EF80F88423E333E343E75FEB33
:10179000C501B4010E947B1918160CF047C0A501C1
:1017A000940160E070E080E89FE30E94401720E031
:1017B00030E040E05FE30E94B3190E94261A4B011B
:1017C0005C0120E030EC48E256E40E94B3196D8FD2
:1017D0007E8F8F8F98A3A501940160E070E080E870
:1017E0009FE30E9440179B01AC016D8D7E8D8F8D14
:1017F00098A10E94C9170E94261A4B015C0196010C
:10180000A7010E947B1918168CF0640175010EC0A7
:1018100085E4829DF001839DF00D1124E959FE4F6E
:1018200010827ECDC12CD12CE12CF12C85E4829D3F
:10183000F001839DF00D1124E959FE4FC601D70137
:10184000868F978FA0A3B1A320E03AEB4BE55AEC2B
:1018500069817A818B819C810E94B3199B01AC01C3
:1018600060E070E0CB010E9440170E94261A4B01F5
:101870005C019B01AC01B601C7010E94C41787FD42
:1018800002C06401750185E4829D8001839D100D75
:10189000112409591E4FC601D701F801828F938F79
:1018A000A48FB58F9401A5016D817E818F8198856C
:1018B0000E94C41718160CF4E2C081E0D801989673
:1018C0008C9385E4829DF001839DF00D1124E959EC
:1018D000FE4F81E087A309851A852B853C850093FF
:1018E0004D0110934E0120934F01309350012D85EF
:1018F0003E854F8558892093510130935201409382
:1019000053015093540140925501509256016092F8
:101910005701709258018D819E81AF81B885809367
:10192000490190934A01A0934B01B0934C0149A007
:101930004092660149885A886B887C884092590198
:1019400050925A0160925B0170925C014D885E88F2
:101950006F88788C40925D0150925E0160925F01C9
:1019600070926001498C5A8C6B8C7C8C4092610126
:10197000509262016092630170926401F09066017E
:10198000F0E0E0E010E000E0209165018F2D0F2CE9
:10199000000C990B2817190609F074C0F090650126
:1019A00010E000E090E080E025E4E22E4091660146
:1019B0002F2D0F2C000C330B4217130609F0D9C042
:1019C000009759F00115110541F0DC0198962C9112
:1019D000211103C0B8010E948D08D0906501F12C3F
:1019E000E12C85E4C82E8D2D0D2C000C990B209137
:1019F00066012817190609F0D9C0D70156968D90AF
:101A00009D90AD90BC905997A50194015A966D9107
:101A10007D918D919C915D970E94C9172B013C018E
:101A2000F7018081A5019401813009F00BC1C50146
:101A3000B4010E94C9178B019C01B301A201C70127
:101A40000E945407D70197961C92A1960FB6F8945E
:101A5000DEBF0FBECDBFDF91CF911F910F91FF90E1
:101A6000EF90DF90CF90BF90AF909F908F907F903E
:101A70006F905F904F903F902F900C942B10F80137
:101A800010A61FCFF11002C03EE0F32EFA942F2DC6
:101A900035E42302C0011124AC0149595E4F6A01AB
:101AA0000115110509F45DC0309709F45AC0D80139
:101AB00098968C9198975E969C905E975F96AC9066
:101AC0005F979096BC9090979196EC9081114CC046
:101AD000428C538C648C758CA3019201692D7A2DF4
:101AE0008B2D9E2D0E947B191816F4F5A3019201EF
:101AF000C301B2010E94B3191B012C0120E03AEB93
:101B00004BE55AECF80162A173A184A195A10E9452
:101B1000B3199B01AC01C201B1010E9440170E94A0
:101B2000261A362E472E582E892E262F372F482F2D
:101B3000592F692D7A2D8B2D9E2D0E94C41787FF5A
:101B400003C0392C25018E2C832D942DA52DB82D65
:101B5000F801828F938FA48FB58FE1E0D80197961B
:101B6000EC93F801860110CF892D9A2DAB2DBE2D57
:101B7000EFCFFF2D4E2DF40290011124D901A95968
:101B8000BE4F6D01009751F00115110539F0FC01B0
:101B900020A5211103C0B8010E948D08F394FEE036
:101BA000FF1201C0F12CC801860100CFBD2DEC2D24
:101BB000BE0290011124890109591E4F1801E11438
:101BC000F104C9F1D70197962C9121110AC0C89E42
:101BD000F001C99EF00D1124E959FE4F27A12223DF
:101BE00051F1F70146885788608C718CC89EF001CE
:101BF000C99EF00D1124E959FE4FA3019201628D97
:101C0000738D848D958D0E94C9174B015C01A301D2
:101C10009201D7015A966D917D918D919C915D971E
:101C20000E94C917AB01BC0195018401C7010E9444
:101C30005407F70117A2D394FEE0DF1201C0D12CA4
:101C40007101D1CE60E070E0CB010E94C9178B0119
:101C50009C01B301A201C7010E945407F70117A21A
:101C6000F4CEA1960FB6F894DEBF0FBECDBFDF91C4
:101C7000CF911F910F91FF90EF90DF90CF90BF9089
:101C8000AF909F908F907F906F905F904F903F901C
:101C90002F900895CF92DF92EF92FF92CF936B0136
:101CA0007C01C42F8091660190E00E94F408E091CD
:101CB000660195E4E99FF0011124E959FE4F92E095
:101CC0009083C6A3EF5BFF4FC082D182E282F38292
:101CD00080936601CF91FF90EF90DF90CF900C94AE
:101CE0002B10CF93C82F8091660190E00E94F408DA
:101CF000E091660195E4E99FF0011124E959FE4F56
:101D0000C08380936601CF910C942B1020916601C3
:101D10009091650181E0291301C080E008959091C0
:101D2000660180916501981749F08091650125E46D
:101D3000829FC001112489599E4F089590E080E050
:101D400008959091660180916501981741F0809106
:101D500065018F5F8E3009F480E0809365010895FE
:101D6000809166018093650108958F929F92AF9252
:101D7000BF92CF92DF92EF92FF920F931F93CF9378
:101D8000DF9349015A0167012CE137EC41EB52E442
:101D90000E94B3190E948019C9E5D1E06883798354
:101DA0008A839B8324E731ED45EB52E4C501B401FE
:101DB0000E94B3190E9480196C837D838E839F8358
:101DC00025E535E545E052E4C801B6010E94B319A6
:101DD0000E948019688779878A879B8710924901BA
:101DE00010924A0110924B0110924C01EDE4F1E087
:101DF0008CE0DF011D928A95E9F7DF91CF911F9169
:101E00000F91FF90EF90DF90CF90BF90AF909F9099
:101E10008F900895EF92FF920F931F931092660197
:101E200010926501E12CF12C870120E030E040EABE
:101E300050E4CA01B9010E94B50E1F910F91FF90A5
:101E4000EF9008958AB183778AB987B1807C87B98A
:101E5000089529B199B1392F331F3327331F22FB3E
:101E6000992790F9932B11F44B9B06C018BC89322B
:101E700028F082E085BD089588BDF9CF8B3010F041
:101E800083E0F8CF84E0F6CF88B50895882311F079
:101E90005C9A08955C980895882311F05E9A0895DD
:101EA0005E980895559A88E085BD81E084BD84B52B
:101EB000806284BD8FEF87BD18BC549A80E00E9479
:101EC000460F569A80E00C944C0F809143059091F8
:101ED0004405A0914505B0914605409147055091B4
:101EE00048056091490570914A05840F951FA61F0A
:101EF000B71F813828E3920721E0A207B10550F40B
:101F00008093430590934405A0934505B0934605FF
:101F100080E0089580589843A140B109809343051B
:101F200090934405A0934505B093460581E008953C
:101F30009B01AC01203486E038074105510520F4AF
:101F400020E436E040E050E060E070E788E399E3A9
:101F50000E94811AB90190E02115310581E04807FE
:101F60005105B0F02115310588E04807510520F5ED
:101F700063E056954795379527956A95D1F7B9014E
:101F8000E3E0220F331F441F551FEA95D1F791E07C
:101F900080918100887F9F5F892B8093810070935F
:101FA000890060938800209347053093480540934B
:101FB000490550934A05089586E05695479537950B
:101FC00027958A95D1F7B90196E0220F331F441F58
:101FD000551F9A95D1F792E0DBCFCF92DF92EF9227
:101FE000FF92CF93DF936B017C010E94980FC09109
:101FF0006105D09162058881813049F480E0DF91EC
:10200000CF91FF90EF90DF90CF900C94290FC701F4
:10201000B6010E9471186B017C016A897B898C89E9
:102020009D890E9471189B01AC01C701B6010E94F5
:10203000C9176B017C016EA170E090E080E00E9406
:1020400073189B01AC01C701B6010E94B3190E942D
:102050004218862FD4CF80913E0581110BC081E0BC
:1020600080933E0588E08093600580916F008260D8
:1020700080936F00089510923E05109262051092B1
:102080006105EFE6F0E080818D7F808380E00C9435
:10209000290F80913E05089590913D05911109C049
:1020A00080933C0581E080933D0510923B050C94A4
:1020B0006F00089580913C05089580913D05089535
:1020C00080E280933C0510923D0510923B050895F7
:1020D0004F925F926F927F928F92AF92BF92CF9208
:1020E000DF92EF92FF920F931F93CF93DF93CDB7C1
:1020F000DEB72C970FB6F894DEBF0FBECDBF698355
:102100007A838B839C8329013A01ED82FE820F83BF
:102110001887A986BA86CB86DC8680913E05811118
:1021200071C0E12CF12C8701A8019701C801B7010A
:102130000E94B50EE3E6F5E08CE0DF011D928A9582
:10214000E9F71F921F921F921F92812CAE8CBF8CB9
:10215000C8A0D9A0A301920169817A818B819C8159
:102160000E9409090F900F900F900F9080913E05EB
:1021700081114BC0E12CF12C8701A8019701C80106
:10218000B7010E94B50EE3E6F5E08CE0DF011D9299
:102190008A95E9F70E94601081E0809335051F92CF
:1021A0001F921F921F92812CAE8CBF8CC8A0D9A009
:1021B00029853A854B855C856D817E818F819885E7
:1021C0000E9409090F900F900F900F9080913E058B
:1021D00081111EC0109235052C960FB6F894DEBF03
:1021E0000FBECDBFDF91CF911F910F91FF90EF9068
:1021F000DF90CF90BF90AF908F907F906F905F9067
:102200004F9008950E94060388CF0E940603AECF28
:102210000E940603DBCF81E080933B050895809107
:102220003B05882319F081E080933A0510923B0525
:10223000089580913B0508952FB7F8946091630548
:102240007091640580916505909166052FBF0E948D
:1022500073182CE137EC41EB52E40E94C917089542
:102260002FB7F894609167057091680580916905B2
:1022700090916A052FBF0E94731824E731ED45EB5A
:1022800052E40E94C91708952FB7F89460916B0526
:1022900070916C0580916D0590916E052FBF0E9425
:1022A000731825E535E545E052E40E94C917089505
:1022B0008F929F92AF92BF92CF92DF92EF92FF9256
:1022C0000F931F93CF93DF9349015A016701780160
:1022D0001FB7F8942CE137EC41EB52E40E94B3199C
:1022E0000E948019C3E6D5E0688379838A839B8343
:1022F00024E731ED45EB52E4C501B4010E94B31966
:102300000E9480196C837D838E839F8325E535E54C
:1023100045E052E4C701B6010E94B3190E9480193A
:10232000688779878A879B871FBFDF91CF911F912D
:102330000F91FF90EF90DF90CF90BF90AF909F9064
:102340008F900895EF92FF920F931F9384B18F6344
:1023500084B985B1807C886085B9E1E8F0E080814E
:102360008F7E8083808188608083E0E8F0E08081D8
:102370008D7F808380818E7F808380818F73808337
:1023800080818F7C80831092B0001092B100E0E7D2
:10239000F0E080818160808360E476E080E090E01E
:1023A0000E94980F80E00E94290FE3E6F5E08CE0A0
:1023B000DF011D928A95E9F7E12CF12C870120E0DD
:1023C00030E040EA50E4CA01B9010E94581110926D
:1023D000430510924405109245051092460510924F
:1023E00062051092610510923D0580E280933C05E4
:1023F00010924B05109235051F910F91FF90EF90B1
:102400000C943B101F920F920FB60F9211245D98FF
:1024100015BC0F900FBE0F901F9018951F920F9232
:102420000FB60F9211248F9385B1887F85B91092D2
:10243000B1008F910F900FBE0F901F9018951F92B3
:102440000F920FB60F921124CF92DF92EF92FF926C
:102450002F933F934F935F936F937F938F939F93AC
:10246000AF93BF93CF93DF93EF93FF9380914B058F
:1024700081110DC081E080934B0580913D0588233B
:10248000E9F00E943B100E94B00E10924B05FF91A4
:10249000EF91DF91CF91BF91AF919F918F917F91FC
:1024A0006F915F914F913F912F91FF90EF90DF904F
:1024B000CF900F900FBE0F901F90189580913B0505
:1024C000882321F080E00E94290FDFCF809135051D
:1024D000811122C099B189B1282F221F2227221FE2
:1024E00092FB882780F9822B11F44B9B03C080E07C
:1024F0000E94290F309B04C084E20E944C10C5CF7B
:10250000319B02C085E2F9CF329B02C086E2F5CF53
:10251000339B02C08AE2F1CF25B190916005987398
:1025200085B1877C892B85B928732913AECF85B1F6
:10253000887F90916005892B85B98AEF8093B200DE
:1025400082E08093B100789480916105909162055A
:10255000892B09F06CC00E948F0E909362058093C6
:102560006105009719F40E943B108FCFFC01208178
:10257000223008F05CC061A572A583A594A5609384
:102580003F0570934005809341059093420540E4D8
:10259000C42E4CE9D42EE12CF12CC0924305D092EC
:1025A0004405E0924505F09246050E94ED0FE0914A
:1025B0006105F09162058081813041F410924C05F3
:1025C00010924D0510924E0510924F058685978505
:1025D000A089B189B595A79597958795B095A09550
:1025E000909581959F4FAF4FBF4F80935C0590931F
:1025F0005D05A0935E05B0935F05809358059093A9
:102600005905A0935A05B0935B05809354059093A8
:102610005505A0935605B09357051092500510929A
:102620005105109252051092530510923A05C0912F
:102630006105D09162052881273008F026CFE22F6E
:10264000F0E0EB5DFC4E0C94A31A2C132C13D11567
:1026500028162C162E1632163D853093600589817A
:102660009A81AB81BC8140915C0550915D05609180
:102670005E0570915F05840F951FA61FB71F80939D
:102680005C0590935D05A0935E05B0935F054E8554
:102690005F8568897989181619061A061B0624F5BC
:1026A000316030936005841B950BA60BB70B8093AC
:1026B0005C0590935D05A0935E05B0935F058091E6
:1026C000630590916405A0916505B091660533FF9F
:1026D000F0C00197A109B109809363059093640547
:1026E000A0936505B09366058D819E81AF81B88505
:1026F000C0905805D0905905E0905A05F0905B05C0
:102700008C0D9D1DAE1DBF1D8093580590935905DE
:10271000A0935A05B0935B05181619061A061B06F6
:1027200034F530916005326030936005841B950B61
:10273000A60BB70B8093580590935905A0935A05A3
:10274000B0935B058091670590916805A09169053C
:10275000B0916A0534FFB1C00197A109B109809316
:10276000670590936805A0936905B0936A0589850C
:102770009A85AB85BC85C0905405D0905505E090F6
:102780005605F09057058C0D9D1DAE1DBF1D809305
:10279000540590935505A0935605B0935705181608
:1027A00019061A061B0634F5309160053460309323
:1027B0006005841B950BA60BB70B80935405909373
:1027C0005505A0935605B093570580916B059091E0
:1027D0006C05A0916D05B0916E0535FF72C0019733
:1027E000A109B10980936B0590936C05A0936D05C9
:1027F000B0936E058091500590915105A0915205BE
:10280000B09153050196A11DB11D80935005909381
:102810005105A0935205B093530530916005E8E04F
:102820003E273093600584179507A607B70708F081
:10283000ADC120913A05213009F047C040913F05D4
:1028400050914005609141057091420540933605D5
:1028500050933705609338057093390589A59AA57B
:10286000ABA5BCA5481759076A077B0740F08093C2
:102870003F0590934005A0934105B093420580E445
:102880009CE9A0E0B0E08093430590934405A093B9
:102890004505B093460560913F05709140058091D4
:1028A0004105909142050E94ED0F82E080933A0528
:1028B000ECCD0196A11DB11D0FCF0196A11DB11D3B
:1028C0004ECF0196A11DB11D8DCF20913A0522302A
:1028D00009F03FC00E94650F882309F4D6CD89A96D
:1028E0009AA9ABA9BCA940913F05509140056091C0
:1028F000410570914205840F951FA61FB71F809355
:102900003F0590934005A0934105B0934205409147
:102910003605509137056091380570913905841757
:102920009507A607B70750F040933F055093400521
:10293000609341057093420510923A0560913F05FE
:102940007091400580914105909142050E94ED0FE4
:102950009CCD4DA95EA96FA978AD84179507A607F0
:10296000B70778F50E94650F882309F48ECD89A9F1
:102970009AA9ABA9BCA940913F055091400560912F
:10298000410570914205840F951FA61FB71F8093C4
:102990003F0590934005A0934105B09342054A89B5
:1029A0005B896C897D89481759076A077B0730F670
:1029B00040933F0550934005609341057093420555
:1029C000BDCF49AD5AAD6BAD7CAD84179507A60759
:1029D000B70769F480E49CE9A0E0B0E08093430588
:1029E00090934405A0934505B09346054ECD8417BA
:1029F0009507A607B70708F446C00E94650F88230D
:102A000009F443CD49A95AA96BA97CA980913F0536
:102A100090914005A0914105B09142054817590792
:102A20006A077B0738F5841B950BA60BB70B8093C1
:102A30003F0590934005A0934105B09342058DA5B5
:102A40009EA5AFA5B8A940913F0550914005609162
:102A5000410570914205481759076A077B0708F03E
:102A60006DCF80933F0590934005A0934105B093AF
:102A7000420564CF10923F05109240051092410527
:102A800010924205DCCF6A897B898C899D89C09030
:102A90003F05D0904005E0904105F09042056C154F
:102AA0007D058E059F0551F060933F0570934005AD
:102AB00080934105909342050E94ED0FE0916105DE
:102AC000F09162058081813009F05EC080915005EF
:102AD00090915105A0915205B09153052AE0880FBD
:102AE000991FAA1FBB1F2A95D1F740914C05509101
:102AF0004D0560914E0570914F05452B462B472B98
:102B000041F480934C0590934D05A0934E05B093EE
:102B10004F0540914C0550914D0560914E057091C7
:102B20004F0584179507A607B70708F4AECCFD96A6
:102B300080819181A281B381840F951FA61FB71F49
:102B400080934C0590934D05A0934E05B0934F058F
:102B5000F8940E9438027894E0916105F091620542
:102B600026A130E0220F331F682F6058770B269F75
:102B7000C001279F900D369F900D11246FEF70E0DC
:102B80000E946D1A862F9FCC86A19DCC213011F416
:102B90000E94600210926205109261050E94A10ECF
:102BA00074CCC0902D05D0902E05E0902F05F090AC
:102BB0003005C114D104E104F104E9F420E030E06F
:102BC0004AE754E4FE01EF5BFF4F6081718182812F
:102BD00093810E94B3190E9480196093310570930C
:102BE0003205809333059093340560E67AEE80E0F9
:102BF00090E00E94980F8091310590913205A0914C
:102C00003305B0913405C816D906EA06FB06B8F4B8
:102C10008EA10E94290F80912D0590912E05A091E3
:102C20002F05B09130050196A11DB11D80932D0592
:102C300090932E05A0932F05B093300526CC1092CB
:102C40002D0510922E0510922F0510923005A2CF5F
:102C500081E00E94460F9ECF80E0FBCF81E00E9482
:102C60004C0F98CF80E0FBCF8F929F92AF92BF9294
:102C7000CF92DF92EF92FF920F931F93CF93DF9348
:102C800080913E058111F6C0E12CF12C8701A8014D
:102C90009701C801B7010E94B50EE3E6F5E08CE0AC
:102CA000DF011D928A95E9F781E080933505309B1D
:102CB00017C01F921F921F921F92812CA12CB12C22
:102CC000E8E4CE2EE4E4DE2EA801970160E070E097
:102CD00080EA91E40E9409090F900F900F900F90E5
:102CE000319B1AC01F921F921F921F92812CA12C00
:102CF000B12C78E4C72E74E4D72EE12CF12C870197
:102D0000A801970160E070E080EA91EC0E94090957
:102D10000F900F900F900F90329B1AC01F921F922E
:102D20001F921F92812CA12CB12C68E4C62E64E462
:102D3000D62EE12CF12C870120E030E040EA51E46E
:102D4000C801B7010E9409090F900F900F900F90D2
:102D5000339B1AC01F921F921F921F92812CA12C8D
:102D6000B12C58E4C52E54E4D52EE12CF12C87016A
:102D700020E030E040EA51ECC801B7010E940909A7
:102D80000F900F900F900F9080913E05811175C0AC
:102D90001092350585E4982E9F92C8E4CF931F9238
:102DA0001F92A12CB12C6501E12CF12C00E211E461
:102DB000A601950160EF73E284E799EC0E94681028
:102DC000D4E4DF93CF931F921F92E12CF12C00E803
:102DD00010E4A601950160EF73E284E799EC0E948C
:102DE00068109F92CF931F921F92A12CB12C30E2BA
:102DF000C32E31E4D32EE12CF12C870120EF33E2F6
:102E000044E759ECC801B7010E946810DF93CF93E3
:102E10001F921F92A12CB12C40E8C42E40E4D42E66
:102E200020EF33E244E759ECC801B7010E94681073
:102E3000A8019701C801B7010E94B50EE3E6F5E0CD
:102E40008CE0DF011D928A95E9F78DB79EB7409619
:102E50000FB6F8949EBF0FBE8DBFDF91CF911F912B
:102E60000F91FF90EF90DF90CF90BF90AF909F9029
:102E70008F9008950E94060303CF0E94060384CF1B
:102E80005058BB27AA270E9458170C9429190E9452
:102E90001B1938F00E94221920F039F49F3F19F4D1
:102EA00026F40C9418190EF4E095E7FB0C94E9183D
:102EB000E92F0E943A1958F3BA176207730784077B
:102EC000950720F079F4A6F50C9474190EF4E095AA
:102ED0000B2EBA2FA02D0B01B90190010C01CA01D4
:102EE000A0011124FF27591B99F0593F50F4503E7F
:102EF00068F11A16F040A22F232F342F4427585F71
:102F0000F3CF469537952795A795F0405395C9F788
:102F10007EF41F16BA0B620B730B840BBAF0915040
:102F2000A1F0FF0FBB1F661F771F881FC2F70EC0DF
:102F3000BA0F621F731F841F48F4879577956795B2
:102F4000B795F7959E3F08F0B0CF9395880F08F09E
:102F50009927EE0F9795879508950E945C1990F038
:102F60009F3748F4911116F40C94751960E070E0E5
:102F700080E89FE3089526F01B16611D711D811DD9
:102F80000C94EF180C940A190E94C51808F481E0FB
:102F900008950E94DD170C9429190E94221958F0F7
:102FA0000E941B1940F029F45F3F29F00C94E918A6
:102FB00051110C9475190C9418190E943A1968F360
:102FC0009923B1F3552391F3951B550BBB27AA27E2
:102FD00062177307840738F09F5F5F4F220F331F1C
:102FE000441FAA1FA9F335D00E2E3AF0E0E832D0E4
:102FF00091505040E695001CCAF72BD0FE2F29D0E7
:10300000660F771F881FBB1F261737074807AB07B8
:10301000B0E809F0BB0B802DBF01FF2793585F4F2D
:103020003AF09E3F510578F00C94E9180C9475190C
:103030005F3FE4F3983ED4F3869577956795B7950F
:10304000F7959F5FC9F7880F911D9695879597F91A
:103050000895E1E0660F771F881FBB1F6217730793
:103060008407BA0720F0621B730B840BBA0BEE1FA8
:1030700088F7E09508950E9442186894B1110C9465
:10308000751908950E94421988F09F5798F0B92F3A
:103090009927B751B0F0E1F0660F771F881F991F8D
:1030A0001AF0BA95C9F714C0B13091F00E947419A2
:1030B000B1E008950C947419672F782F8827B85FB2
:1030C00039F0B93FCCF3869577956795B395D9F7E5
:1030D0003EF490958095709561957F4F8F4F9F4FEF
:1030E0000895E89409C097FB3EF4909580957095FB
:1030F00061957F4F8F4F9F4F9923A9F0F92F96E944
:10310000BB279395F695879577956795B795F111B8
:10311000F8CFFAF4BB0F11F460FF1BC06F5F7F4F55
:103120008F4F9F4F16C0882311F096E911C0772367
:1031300021F09EE8872F762F05C0662371F096E870
:10314000862F70E060E02AF09A95660F771F881F3F
:10315000DAF7880F9695879597F908950E945C197C
:1031600090F09F3748F4911116F00C94751960E0B7
:1031700070E080E89FEB089526F41B16611D711D19
:10318000811D0C94EF180C940A19990F0008550F23
:10319000AA0BE0E8FEEF16161706E807F907C0F0DD
:1031A00012161306E407F50798F0621B730B840BE5
:1031B000950B39F40A2661F0232B242B252B21F4BF
:1031C00008950A2609F4A140A6958FEF811D811D5F
:1031D000089597F99F6780E870E060E0089588237C
:1031E00071F4772321F09850872B762F07C0662340
:1031F00011F499270DC09051862B70E060E02AF001
:103200009A95660F771F881FDAF7880F969587952E
:1032100097F908959F3F31F0915020F48795779565
:103220006795B795880F911D9695879597F908959D
:103230009FEF80EC089500240A94161617061806CE
:103240000906089500240A941216130614060506AA
:103250000895092E0394000C11F4882352F0BB0F3B
:1032600040F4BF2B11F460FF04C06F5F7F4F8F4F9E
:103270009F4F089557FD9058440F551F59F05F3FD9
:1032800071F04795880F97FB991F61F09F3F79F088
:1032900087950895121613061406551FF2CF46950A
:1032A000F1DF08C0161617061806991FF1CF86958C
:1032B00071056105089408950E944219A0F0BEE7C7
:1032C000B91788F4BB279F3860F41616B11D672F15
:1032D000782F8827985FF7CF869577956795B11DEA
:1032E00093959639C8F30895E894BB276627772706
:1032F000CB0197F908950E94C51808F48FEF08953F
:103300000E94421958F19E5760F19851A0F0E9F0DF
:10331000983020F5092E9927660F771F881F991F6F
:103320000A94D1F712C0062E672F782F8827985F4E
:1033300011F4000C07C0993FB4F386957795679513
:103340009395D9F7611D711D811D3EF4909580956F
:10335000709561957F4F8F4F9F4F089568940C949F
:1033600075190C9474190E94C6190C9429190E949D
:103370001B1938F00E94221920F0952311F00C94AB
:10338000E9180C94181911240C9475190E943A1913
:1033900070F3959FC1F3950F50E0551F629FF001A8
:1033A000729FBB27F00DB11D639FAA27F00DB11DC1
:1033B000AA1F649F6627B00DA11D661F829F22274A
:1033C000B00DA11D621F739FB00DA11D621F839FD1
:1033D000A00D611D221F749F3327A00D611D231FA7
:1033E000849F600D211D822F762F6A2F11249F57F5
:1033F00050409AF0F1F088234AF0EE0FFF1FBB1FF8
:10340000661F771F881F91505040A9F79E3F5105B6
:1034100080F00C94E9180C9475195F3FE4F3983E22
:10342000D4F3869577956795B795F795E7959F5F60
:10343000C1F7FE2B880F911D9695879597F90895F2
:1034400019F416F40C9418190C940A190E944219D4
:10345000B8F39923C9F3B6F39F57550B87FF0E9422
:10346000661A0024A0E640EA900180585695979588
:1034700028F4805C660F771F881F20F02617370717
:10348000480730F4621B730B840B202931294A2B27
:10349000A69517940794202531254A2758F7660FDB
:1034A000771F881F20F026173707480730F4620B74
:1034B000730B840B200D311D411DA09581F7B901BF
:1034C000842F9158880F9695879508959150504074
:1034D000660F771F881FD2F70895AA1BBB1B51E107
:1034E00007C0AA1FBB1FA617B70710F0A61BB70B74
:1034F000881F991F5A95A9F780959095BC01CD0119
:103500000895A1E21A2EAA1BBB1BFD010DC0AA1F24
:10351000BB1FEE1FFF1FA217B307E407F50720F03C
:10352000A21BB30BE40BF50B661F771F881F991FB7
:103530001A9469F760957095809590959B01AC0100
:10354000BD01CF010895EE0FFF1F0590F491E02D0E
:1035500009940E94B41AA59F900DB49F900DA49F4A
:10356000800D911D11240895A29FB001B39FC00149
:10357000A39F700D811D1124911DB29F700D811D9F
:0A3580001124911D0895F894FFCF67
:02358A0001003E
:00000001FF
