:100000000C9434000C945B000C945B000C945B002B
:100010000C945B000C945B000C945B000C945B00F4
:100020000C945B000C9478110C945B000C94891177
:100030000C945B000C945B000C945B000C945B00D4
:100040000C946C110C945B000C943E010C94E80031
:100050000C945B000C945B000C945B000C945B00B4
:100060000C945B000C945B00E9EEF6E085EC98E004
:1000700001C08193EF3FF907E0F3D9F311241FBECC
:10008000CFEFD8E0DEBFCDBF11E0A0E0B1E0EEE5FC
:10009000F3E302C005900D92A230B107D9F726E034
:1000A000A2E0B1E001C01D92A93EB207E1F70E94B3
:1000B0005D000C94AD190C94000078940E948C00A3
:1000C0000E9467020E94A40E0E940C110E94BC0EA6
:1000D0000E94E30E0E94320490E080E008951092A6
:1000E0000301109202010895909109019F5F9038D9
:1000F00009F490E0209108012917E1F3E09109014A
:10010000F0E0E759F94F8083909309018091C10095
:1001100080628093C10008951092C50080E18093B1
:10012000C400E0ECF0E080818D7F8083E1ECF0E0C2
:100130008081806180838081886080838081806805
:1001400080838EE70C947400CF92DF92EF92FF923F
:10015000CF93C82FCB01BA0120E030E04AE754E446
:100160000E9489180E9456186B017C0128EFF21A30
:100170008C2D80680E947400D701C60127E0B695D7
:10018000A795979587952A95D1F780680E94740066
:10019000D701C6013EE0B695A795979587953A9504
:1001A000D1F780680E947400D701C60145E1B69579
:1001B000A795979587954A95D1F780680E94740016
:1001C0008C2FCF91FF90EF90DF90CF900C94740024
:1001D0001F920F920FB60F9211248F939F93EF935C
:1001E000FF9380910801909105019923D1F095E04A
:1001F0009093C600909105019150909305019091C4
:100200000901981305C08091C1008F7D8093C100C2
:10021000FF91EF919F918F910F900FBE0F901F90C4
:100220001895E82FF0E0E759F94F90819093C600B8
:100230008F5F803809F480E080930801E0CFE0917F
:100240000A01F0E0E759FA4F808190910A019F5F1F
:1002500090930A01909104019F5F90930401903163
:1002600061F4909105019F5F909305019091C10009
:1002700090629093C1001092040108951F920F9212
:100280000FB60F9211242F933F934F935F936F9369
:100290007F938F939F93AF93BF93CF93EF93FF93EE
:1002A000C091C600809100018823B1F01092000136
:1002B000C0930701FF91EF91CF91BF91AF919F91B3
:1002C0008F917F916F915F914F913F912F910F90FF
:1002D0000FBE0F901F90189581E0809300018091D0
:1002E00007018C1719F08DE30E94D80FC031E8F494
:1002F00081E2C13019F1C23069F410920301109209
:10030000020110920A0110920B01109204010E9446
:10031000EA0FD0CFC33019F40E94A502CBCF83E2FD
:10032000C43061F40E94A902C5CFE0910B0181E0C5
:100330008E0F90910A01981304C082E20E94D80F98
:10034000B9CFF0E0E759FA4FC08380930B01B2CFE9
:10035000CF93C1E080910301811115C01092060175
:10036000C1E090910A0180910B01981761F10E9400
:100370001F01803131F481E080930301109202016A
:1003800081E4CF91089580910201882371F0109249
:10039000060190910A0180910B01981749F00E9483
:1003A0001F01813111F4109203010E94B902D2CFD2
:1003B00080910601811104C00E94AD02C093060124
:1003C0000E94B902E6CF80910601811104C00E940B
:1003D000AD02C09306010E94B902C3CF8091030110
:1003E000882361F080910201811108C090910A0177
:1003F00080910B01981304C00E94AD0280E808951B
:100400000E941F0187FDFBCF813119F41092030177
:10041000F5CF83E20E94D80FF1CF20910A0190918D
:100420000B0181E0291301C080E0089581E08093F1
:10043000020108950F931F93E1E1F1E0638170E001
:1004400090E080E0605871098109910927E0660F0A
:10045000771F881F991F2A95D1F7028110E030E09D
:1004600020E00058110921093109600F711F821F16
:10047000931F37E0660F771F881F991F3A95D1F7B2
:10048000018110E030E020E0005811092109310914
:10049000600F711F821F931F47E0660F771F881F31
:1004A000991F4A95D1F72081620F711D811D911D01
:1004B00060587109810998400E94491720E030E096
:1004C0004AE754E40E949F161F910F910895E6E1B8
:1004D000F1E081E0808340E050E06AEF75E4428320
:1004E0005383648375831682178210861186128661
:1004F000138614861586168640E050E060EA70E4A4
:100500004787508B618B728B438B548B658B768BBB
:10051000178A108E118E128E9CE0E1E3F1E0DF016C
:10052000292F1D922A95E9F7EDE3F1E0DF011D92F5
:100530009A95E9F78093100180930F0110920E01B4
:1005400010920D0180930C01089581E080931001B9
:10055000089581E080930F01089580910D0190919D
:100560000E01019690930E0180930D0110920C01E3
:1005700008958F929F92AF92BF92CF92DF92EF92A7
:10058000FF920F931F93CF934A9B02C04B9903C0D6
:1005900080E00E94C30E0E94E70F882391F10E9421
:1005A0004A0E0E94B5106B017C010E94A4104B0101
:1005B0005C010E94931087017601A50194010E94BD
:1005C0004F0E0E9493106093250170932601809333
:1005D0002701909328010E94A41060932901709331
:1005E0002A0180932B0190932C010E94B5106093F7
:1005F0002D0170932E0180932F0190933001109262
:10060000150180911001811105C080910F0188238F
:1006100009F41CC1109210010E94200E811112C019
:100620000E940D0281110EC00E94E70F81110AC0C5
:1006300081E40E94740083B7816083BF889583B78B
:100640008E7F83BF4A9903C082E40E9474004B9955
:1006500003C083E40E9474000E94E40FC82F80321C
:1006600011F00E947400309905C0C43219F084E280
:100670000E947400319905C0C53219F085E20E94CC
:100680007400329905C0C63219F086E20E947400E7
:10069000339905C0CA3219F08AE20E9474000E94A0
:1006A000931020E030E040EA50E40E9416162091BA
:1006B00031013091320140913301509134010E9457
:1006C0001616AB01BC0188E70E94A4000E94A4108A
:1006D00020E030E040EA50E40E94161620913501F7
:1006E0003091360140913701509138010E94161621
:1006F000AB01BC0189E70E94A4000E94B5102091C3
:10070000390130913A0140913B0150913C010E94E6
:100710001616AB01BC018AE70E94A40080910C016F
:10072000811110C060910D0170910E0190E080E088
:100730000E944717AB01BC0187E70E94A40081E03B
:1007400080930C01E9EEF6E0BF01695E764080819E
:10075000853C09F473C090E080E00E944717AB012C
:10076000BC0185E70E94A40080910F01882309F451
:1007700057C010920F0140E050E86BEF74E486E739
:100780000E94A400409131015091320160913301E7
:100790007091340181E60E94A4004091350150918E
:1007A0003601609137017091380182E60E94A40001
:1007B0004091390150913A0160913B0170913C01A7
:1007C00083E60E94A40040911801509119016091A4
:1007D0001A0170911B0187E60E94A40060911C0120
:1007E00070E090E080E00E944717AB01BC0188E612
:1007F0000E94A40040911D0150911E0160911F01B3
:100800007091200189E60E94A4004091210150913D
:10081000220160912301709124018AE60E94A400C4
:1008200086E0CF911F910F91FF90EF90DF90CF90D6
:10083000BF90AF909F908F900C94740088E0EF3F32
:10084000F80711F008F087CF31967ECFCF911F9136
:100850000F91FF90EF90DF90CF90BF90AF909F905F
:100860008F900895C1E3D1E08CE0982E77247394A3
:100870000E94A801182F0E94E70F882319F00E94F8
:10088000B902F6CF17FD99C2EFEBE10FEA3108F09C
:1008900038C1EF3008F031C1F0E0EF5AFB4F0C9453
:1008A0007919C6046004BA048D04C904CC04CF04C9
:1008B000D404D904110542057305770579057B0534
:1008C000A0901801B0901901C0901A01D0901B019E
:1008D000E0902D01F0902E0100912F011091300138
:1008E0002091290130912A0140912B0150912C0136
:1008F0006091250170912601809127019091280136
:100900001F921F921F921F9280901C010E94A308A9
:100910000F900F900F900F9039C0A0901801B090D9
:100920001901C0901A01D0901B01E0902D01F090A8
:100930002E0100912F011091300120912901309159
:100940002A0140912B0150912C0160912501709159
:1009500026018091270190912801E0912401EF93D5
:10096000E0912301EF93E0912201EF93E0912101C7
:10097000EF93CACF60911D0170911E0180911F01FC
:100980009091200140911C010E94E40D10921501EC
:1009900076CF10921601FACF70921601F7CF8091A0
:1009A000160180931701F2CF8091170180931601F1
:1009B000EDCF0E940A15FE01892D11928A95E9F763
:1009C00080E090E0A0EAB0E48093250190932601B6
:1009D000A0932701B09328018093290190932A01C5
:1009E000A0932B01B0932C0110922D0110922E0197
:1009F00010922F0110923001A0901801B0901901AF
:100A0000C0901A01D0901B011F921F921F921F923B
:100A1000812CE12CF12C87019C01AD01CD01B901A4
:100A200075CF8091310190913201A0913301B09145
:100A3000340180933D0190933E01A0933F01B09318
:100A400040018091350190913601A0913701B0911C
:100A500038018093410190934201A0934301B093E8
:100A600044018091390190913A01A0913B01B091EC
:100A70003C018093450190934601A0934701B093B8
:100A8000480184CF80913D0190913E01A0913F01AA
:100A9000B09140018093310190933201A0933301D2
:100AA000B09334018091410190914201A0914301A2
:100AB000B09144018093350190933601A0933701A2
:100AC000B09338018091450190914601A091470172
:100AD000B09148018093390190933A01A0933B0172
:100AE000B0933C0153CF83E00E940B0E4FCF84E0C4
:100AF000FBCF85E0F9CF86E0F7CF8CE30E94D80FDB
:100B000045CF8FE9810F8A3108F055C180911501D9
:100B1000843009F04EC11456173108F048C1E12F56
:100B2000F0E0EB56FA4F0C9479194106D7062F06E0
:100B3000D70657068306AF06D706D706D706D706C9
:100B4000D7064C06D706D7063A06D706D706D706E5
:100B5000D706AC05D8050406109116010E941A02AA
:100B60001130D9F420E030E040EA50E40E9417163A
:100B70009B01AC0160913101709132018091330190
:100B8000909134010E9417166093250170932601FD
:100B90008093270190932801F9CE9B01AC016091CD
:100BA0002501709126018091270190912801EACFBB
:100BB000109116010E941A021130D9F420E030E0A1
:100BC00040EA50E40E9417169B01AC016091350188
:100BD0007091360180913701909138010E9417166B
:100BE0006093290170932A0180932B0190932C012B
:100BF000CDCE9B01AC016091290170912A018091B9
:100C00002B0190912C01EACF109116010E941A023B
:100C10001130D1F420E030E0A9010E9417169B01A9
:100C2000AC016091390170913A0180913B01909142
:100C30003C010E94171660932D0170932E01809342
:100C40002F0190933001A2CE9B01AC0160912D0148
:100C500070912E0180912F0190913001EACF0E9476
:100C60001A02609318017093190180931A019093EE
:100C70001B018CCE0E941A020E94181760931C015F
:100C800085CE0E941A0260931D0170931E0180930D
:100C90001F01909320017ACE0E941A0260932101D5
:100CA0007093220180932301909324016FCE0E94C0
:100CB0001A026B017C0180911601813059F4C092B7
:100CC0003101D0923201E0923301F09234015ECED4
:100CD0000E94B9020E94D50F8111FACF0E94931091
:100CE00020E030E040EA50E40E941616A701960189
:100CF0000E94171660933101709332018093330183
:100D00009093340143CE0E941A026B017C018091C2
:100D10001601813059F4C0923501D0923601E0922B
:100D20003701F092380132CE0E94B9020E94D50FED
:100D30008111FACF0E94A41020E030E040EA50E494
:100D40000E941616A70196010E941716609335019E
:100D500070933601809337019093380117CE0E942B
:100D60001A026B017C0180911601813059F4C09206
:100D70003901D0923A01E0923B01F0923C0106CE5B
:100D80000E94B9020E94D50F8111FACF0E94B510BE
:100D90009B01AC01C701B6010E941716609339018F
:100DA00070933A0180933B0190933C01EFCD8EE329
:100DB000A5CE8AE3A3CE83E2A1CEE0911501E43073
:100DC00048F481E08E0F80931501F0E0EF5EFE4F56
:100DD000108355CD8AE30E94D80F51CD4F925F9278
:100DE0006F927F928F929F92AF92BF92CF92DF923B
:100DF000EF92FF920F931F93CF93DF93CDB7DEB7A0
:100E000062970FB6F894DEBF0FBECDBF9A8B898B69
:100E10002A013B015901FC01628973898489958902
:100E20000E9447176B017C01A30192010E9489185F
:100E30000E9483160E9418172B013C01E989FA8948
:100E400041A652A663A674A6A5019801C701B601E2
:100E50000E9489180E9483160E9418174B015C019A
:100E6000E989FA8985A696A6A7A6B0AA21A932A9DA
:100E700043A954A9A0EEBEE20E947F1969837A8338
:100E80008B839C830E9449176D837E838F83988711
:100E9000C301B2010E9447172B013C01A701960133
:100EA000C701B6010E9489186B017C01A301920160
:100EB000C301B2010E94891869877A878B879C8752
:100EC0002D813E814F815885CA01B9010E941716B4
:100ED0006D877E878F87988B29853A854B855C85C2
:100EE000C701B6010E9416162D853E854F8558898B
:100EF0000E949F160E9483160E9411172B013C012D
:100F0000C501B4010E9447179B01AC010E948918DA
:100F10004B015C01A70196010E9416166B017C0132
:100F200069817A818B819C8190958095709561957E
:100F30007F4F8F4F9F4F0E9449179B01AC010E942A
:100F400017169B01AC01C701B6010E949F160E94B3
:100F50008417E989FA89C684D784E088F188A701D3
:100F60009601241935094609570929833A834B8389
:100F70005C830E94111729813A814B815C81261B79
:100F8000370B480B590BDA01C901B7FF3BC0C7014A
:100F9000B6010E9449172D853E854F8558890E94CC
:100FA000891829853A854B855C850E941616A5010E
:100FB00094010E9417164B015C0120E030E040E8EC
:100FC00050E46D817E818F8198850E9489189B01F4
:100FD000AC01C501B4010E949F160E9483160E94B5
:100FE000111797FF03C060E070E0CB0126013701C5
:100FF000641575058605970514F42B013C0180E006
:1010000090E0DC01E989FA8945AA56AA67AA70AE80
:10101000840D951DA61DB71D81AF92AFA3AFB4AFD0
:1010200062960FB6F894DEBF0FBECDBFDF91CF91B1
:101030001F910F91FF90EF90DF90CF90BF90AF90F6
:101040009F908F907F906F905F904F9008954F92F8
:101050005F926F927F92AF92BF92CF92DF92EF92A8
:10106000FF920F931F93CF93DF938C01EB01FC0151
:10107000428C538C648C758CAA8CBB8CCC8CDD8C94
:101080009501A601C301B2010E949A1687FF37C0DD
:10109000A3019201C301B2010E9489182B013C01F6
:1010A00020E03AEB4BE55AECF80162A173A184A170
:1010B00095A10E9489189B01AC01C301B2010E9455
:1010C00016160E94FC187B018C019B01AC01B50136
:1010D000C6010E949A1687FF02C07501860197011A
:1010E000A801B501C6010E949A16882341F0C701E4
:1010F000D8018A8F9B8FAC8FBD8F81E08FA3DF914A
:10110000CF911F910F91FF90EF90DF90CF90BF9004
:10111000AF907F906F905F904F900895CF93DF9343
:101120008F5F8E3009F480E0C82F880FDD0B80912F
:1011300065018C171D0621F0CE01DF91CF91089536
:101140000E94B902F4CF2F923F924F925F926F921A
:101150007F928F929F92AF92BF92CF92DF92EF9247
:10116000FF920F931F93CF93DF93CDB7DEB7A19775
:101170000FB6F894DEBF0FBECDBF29013A01E98258
:10118000FA820B831C83AD82BE82CF82D886CEA822
:10119000DFA8E8ACF9AC2CE137EC41EB52E40E945B
:1011A00089180E945618698B7A8B8B8B9C8B24E74D
:1011B00031ED45EB52E4C301B2010E9489180E944F
:1011C00056186D8B7E8B8F8B988F25E535E545E026
:1011D00052E469817A818B819C810E9489180E94E6
:1011E0005618698F7A8F8B8F9C8F8091660190E063
:1011F0000E948E0889A380916601282E312C20E060
:1012000030E0A901C701B6010E949A16882309F4AB
:1012100099C285E4829D8001839D100D1124095996
:101220001E4F81E0D8018C932CE137EC41EB52E466
:10123000C701B6010E94891820E030E040E854E47C
:101240000E9489180E945618F801FD9660837183E8
:101250008283938385E4829DF001839DF00D1124A8
:10126000E959FE4F86A215868091590190915A0145
:10127000A0915B01B0915C0149885A886B887C8899
:10128000481659066A067B0614F428E025878090E4
:101290005D0190905E01A0905F01B09060014D886B
:1012A0005E886F88788C481459046A047B045CF467
:1012B00025E4229DF001239DF00D1124E959FE4FF4
:1012C000258520612587C0906101D0906201E09062
:1012D0006301F0906401498C5A8C6B8C7C8C4C14AB
:1012E0005D046E047F045CF425E4229DF001239DDF
:1012F000F00D1124E959FE4F258520622587498884
:101300005A886B887C88481A590A6A0A7B0AC30182
:10131000B20197FF07C0442455243201461A570AE8
:10132000680A790A45E4429D9001439D300D1124DD
:1013300029593E4FD90111964D925D926D927C9242
:1013400014970D891E892F89388D081919092A09C2
:101350003B094801590189829A82AB82BC82B7FE5F
:101360000BC022273327A901281939094A095B092B
:1013700029833A834B835C8345E4429D9001439DDE
:10138000300D1124D901A959BE4F09811A812B8131
:101390003C8115960D931D932D933C931897298DA1
:1013A0003A8D4B8D5C8D2C193D094E095F09690101
:1013B0007A01CD86DE86EF86F88AF7FE0BC000271D
:1013C000112798010C191D092E093F090D871E8749
:1013D0002F87388BE5E4E29DA001E39D500D112499
:1013E00049595E4F0D851E852F853889DA0119967A
:1013F0000D931D932D933C931C9749865A866B86BB
:101400007C8609811A812B813C8140165106620637
:10141000730620F409871A872B873C8749845A84EE
:101420006B847C842D853E854F85588942165306F2
:101430006406750610F429013A0125E4229D800115
:10144000239D100D112409591E4FD8011E964D924F
:101450005D926D927C925197411451046104710424
:1014600009F499C30E9449172CE137EC41EB52E48F
:101470000E949F1669877A878B879C87C501B40174
:101480000E94491724E731ED45EB52E40E949F1674
:101490006D877E878F87988BC701B6010E94491799
:1014A00025E535E545E052E40E949F164B015C01BD
:1014B00029853A854B855C85CA01B9010E94891846
:1014C0006B017C012D853E854F855889CA01B90184
:1014D0000E9489189B01AC01C701B6010E94171632
:1014E0006B017C01A5019401C501B4010E9489181A
:1014F0009B01AC01C701B6010E9417160E94FC189F
:1015000069837A838B839C83F80162A373A384A38A
:1015100095A39B01AC0160E070E080E89FE30E942E
:101520009F166B017C018D819E81AF81B885F8018A
:10153000868B978BA08FB18FC301B2010E94491790
:101540002B013C012D813E814F815885C701B60199
:101550000E948918A30192010E9489180E94831693
:101560000E941817D80152966D937D938D939C938A
:101570005597A7019601C301B2010E94891820E086
:101580003AEB4BED59E40E94891820E030E84BE338
:1015900056E40E949F160E9483160E941817F801B5
:1015A00061AB72AB83AB94ABA701960169857A8579
:1015B0008B859C850E94891869877A878B879C8791
:1015C000A70196016D857E858F8598890E9489186F
:1015D0006D877E878F87988BA7019601C501B4011F
:1015E0000E9489182B013C01909166018091650150
:1015F000981709F4B1C0C0904901D0904A01E09019
:101600004B01F0904C0120E030E0A901B601C70188
:101610000E94511818160CF09FC060914D017091F6
:101620004E0180914F0190915001905829853A8543
:101630004B855C850E9489184B015C01209151010A
:101640003091520140915301509154016D857E8536
:101650008F8598890E9489189B01AC01C501B4014E
:101660000E9416164B015C012091550130915601E4
:101670004091570150915801C301B2010E9489184D
:101680009B01AC01C501B4010E9416164B015C011F
:1016900023E333E343E75FE30E949A1687FF5CC0CE
:1016A0002D813E814F815885B601C7010E949A164F
:1016B00087FD04C0CD80DE80EF80F88423E333E330
:1016C00043E75FEBC501B4010E94511818160CF0F6
:1016D00047C0A501940160E070E080E89FE30E94AC
:1016E000161620E030E040E05FE30E9489180E9477
:1016F000FC184B015C0120E030EC48E256E40E940B
:1017000089186D8F7E8F8F8F98A3A501940160E05B
:1017100070E080E89FE30E9416169B01AC016D8D7E
:101720007E8D8F8D98A10E949F160E94FC184B0100
:101730005C019601A7010E94511818168CF06401F3
:1017400075010EC085E4829DF001839DF00D11248A
:10175000E959FE4F10827ECDC12CD12CE12CF12C09
:1017600085E4829DF001839DF00D1124E959FE4F1F
:10177000C601D701868F978FA0A3B1A320E03AEBD3
:101780004BE55AEC69817A818B819C810E94891892
:101790009B01AC0160E070E0CB010E9416160E9434
:1017A000FC184B015C019B01AC01B601C7010E9412
:1017B0009A1687FD02C06401750185E4829D80014F
:1017C000839D100D112409591E4FC601D701F80140
:1017D000828F938FA48FB58F9401A5016D817E8137
:1017E0008F8198850E949A1618160CF4E2C081E049
:1017F000D80198968C9385E4829DF001839DF00D2D
:101800001124E959FE4F81E087A309851A852B85AC
:101810003C8500934D0110934E0120934F0130936E
:1018200050012D853E854F85588920935101309375
:1018300052014093530150935401409255015092EC
:10184000560160925701709258018D819E81AF813F
:10185000B8858093490190934A01A0934B01B093BE
:101860004C0149A04092660149885A886B887C885F
:101870004092590150925A0160925B0170925C0152
:101880004D885E886F88788C40925D0150925E0131
:1018900060925F0170926001498C5A8C6B8C7C8CD9
:1018A0004092610150926201609263017092640102
:1018B000F0906601F0E0E0E010E000E020916501CA
:1018C0008F2D0F2C000C990B2817190609F074C0E6
:1018D000F090650110E000E090E080E025E4E22E69
:1018E000409166012F2D0F2C000C330B421713066D
:1018F00009F0D9C0009759F00115110541F0DC013C
:1019000098962C91211103C0B8010E942708D0900D
:101910006501F12CE12C85E4C82E8D2D0D2C000CD9
:10192000990B209166012817190609F0D9C0D70133
:1019300056968D909D90AD90BC905997A5019401BD
:101940005A966D917D918D919C915D970E949F1605
:101950002B013C01F7018081A5019401813009F040
:101960000BC1C501B4010E949F168B019C01B301FC
:10197000A201C7010E94EE06D70197961C92A1967C
:101980000FB6F894DEBF0FBECDBFDF91CF911F9190
:101990000F91FF90EF90DF90CF90BF90AF909F900E
:1019A0008F907F906F905F904F903F902F900C940E
:1019B000B70FF80110A61FCFF11002C03EE0F32EC2
:1019C000FA942F2D35E42302C0011124AC014959AA
:1019D0005E4F6A010115110509F45DC0309709F4E5
:1019E0005AC0D80198968C9198975E969C905E9775
:1019F0005F96AC905F979096BC9090979196EC9084
:101A000081114CC0428C538C648C758CA301920163
:101A1000692D7A2D8B2D9E2D0E9451181816F4F5E4
:101A2000A3019201C301B2010E9489181B012C017C
:101A300020E03AEB4BE55AECF80162A173A184A1D6
:101A400095A10E9489189B01AC01C201B1010E94BD
:101A500016160E94FC18362E472E582E892E262F39
:101A6000372F482F592F692D7A2D8B2D9E2D0E94AF
:101A70009A1687FF03C0392C25018E2C832D942DB7
:101A8000A52DB82DF801828F938FA48FB58FE1E03B
:101A9000D8019796EC93F801860110CF892D9A2DE5
:101AA000AB2DBE2DEFCFFF2D4E2DF4029001112452
:101AB000D901A959BE4F6D01009751F001151105CB
:101AC00039F0FC0120A5211103C0B8010E942708AC
:101AD000F394FEE0FF1201C0F12CC801860100CF93
:101AE000BD2DEC2DBE0290011124890109591E4F14
:101AF0001801E114F104C9F1D70197962C91211135
:101B00000AC0C89EF001C99EF00D1124E959FE4F8C
:101B100027A1222351F1F70146885788608C718CE8
:101B2000C89EF001C99EF00D1124E959FE4FA30192
:101B30009201628D738D848D958D0E949F164B014D
:101B40005C01A3019201D7015A966D917D918D910F
:101B50009C915D970E949F16AB01BC019501840189
:101B6000C7010E94EE06F70117A2D394FEE0DF1230
:101B700001C0D12C7101D1CE60E070E0CB010E9498
:101B80009F168B019C01B301A201C7010E94EE06C2
:101B9000F70117A2F4CEA1960FB6F894DEBF0FBEE0
:101BA000CDBFDF91CF911F910F91FF90EF90DF900C
:101BB000CF90BF90AF909F908F907F906F905F90ED
:101BC0004F903F902F900895CF92DF92EF92FF9227
:101BD000CF936B017C01C42F8091660190E00E943D
:101BE0008E08E091660195E4E99FF0011124E9591E
:101BF000FE4F92E09083C6A3EF5BFF4FC082D1827D
:101C0000E282F38280936601CF91FF90EF90DF90A4
:101C1000CF900C94B70FCF93C82F8091660190E0BE
:101C20000E948E08E091660195E4E99FF00111247D
:101C3000E959FE4FC08380936601CF910C94B70F92
:101C4000209166019091650181E0291301C080E037
:101C500008959091660180916501981749F08091EF
:101C6000650125E4829FC001112489599E4F089582
:101C700090E080E008959091660180916501981749
:101C800041F0809165018F5F8E3009F480E0809390
:101C900065010895809166018093650108958F9292
:101CA0009F92AF92BF92CF92DF92EF92FF920F93EB
:101CB0001F93CF93DF9349015A0167012CE137EC61
:101CC00041EB52E40E9489180E945618C9E5D1E000
:101CD000688379838A839B8324E731ED45EB52E463
:101CE000C501B4010E9489180E9456186C837D8337
:101CF0008E839F8325E535E545E052E4C801B601B2
:101D00000E9489180E945618688779878A879B875E
:101D10001092490110924A0110924B0110924C010D
:101D2000EDE4F1E08CE0DF011D928A95E9F7DF91A7
:101D3000CF911F910F91FF90EF90DF90CF90BF90C8
:101D4000AF909F908F900895EF92FF920F931F9303
:101D50001092660110926501E12CF12C870120E0C0
:101D600030E040EA50E4CA01B9010E944F0E1F91D1
:101D70000F91FF90EF9008958AB1837F8AB987B160
:101D8000807C87B908954A9B02C04B9906C017BC56
:101D9000893228F082E085BD089587BDF9CF8B3068
:101DA00010F083E0F8CF84E0F6CF87B5089588235C
:101DB00011F05C9A08955C980895882311F05F9A59
:101DC00008955F980895569A17BC81E884BD83E012
:101DD00085BD549A80E00E94D70E579A80E00C94FB
:101DE000DD0E80913D0590913E05A0913F05B0919B
:101DF0004005409141055091420560914305709125
:101E00004405840F951FA61FB71F813828E392074A
:101E100021E0A207B10550F480933D0590933E0563
:101E2000A0933F05B093400580E008958058984303
:101E3000A140B10980933D0590933E05A0933F05D5
:101E4000B093400581E008959B01AC01203486E009
:101E500038074105510520F420E436E040E050E029
:101E600060E070E788E399E30E945719B90190E0B8
:101E70002115310581E048075105B0F021153105E4
:101E800088E04807510520F563E05695479537955A
:101E900027956A95D1F7B901E3E0220F331F441F5C
:101EA000551FEA95D1F791E080918100887F9F5F6F
:101EB000892B809381007093890060938800209320
:101EC00041053093420540934305509344050895DE
:101ED00086E056954795379527958A95D1F7B901AC
:101EE00096E0220F331F441F551F9A95D1F792E0B9
:101EF000DBCFCF92DF92EF92FF92CF93DF936B0114
:101F00007C010E94240FC0915B05D0915C05888103
:101F1000813049F480E0DF91CF91FF90EF90DF9026
:101F2000CF900C94C30EC701B6010E9447176B01F6
:101F30007C016A897B898C899D890E9447179B0156
:101F4000AC01C701B6010E949F166B017C016EA116
:101F500070E090E080E00E9449179B01AC01C7014E
:101F6000B6010E9489180E941817862FD4CF80913D
:101F7000380581110BC081E08093380580E38093A0
:101F80005A0580916F00826080936F0008951092CF
:101F9000380510925C0510925B05EFE6F0E0808159
:101FA0008D7F808380E00C94C30E80913805089566
:101FB00090913705911107C08093360581E0809399
:101FC00037050C946F00089580913605089580912F
:101FD0003705089580E280933605109237050895FD
:101FE0004F925F926F927F928F92AF92BF92CF92F9
:101FF000DF92EF92FF920F931F93CF93DF93CDB7B2
:10200000DEB72C970FB6F894DEBF0FBECDBF698345
:102010007A838B839C8329013A01ED82FE820F83B0
:102020001887A986BA86CB86DC868091380581110F
:1020300071C0E12CF12C8701A8019701C801B701FB
:102040000E944F0EEDE5F5E08CE0DF011D928A95D0
:10205000E9F71F921F921F921F92812CAE8CBF8CAA
:10206000C8A0D9A0A301920169817A818B819C814A
:102070000E94A3080F900F900F900F908091380549
:1020800081114BC0E12CF12C8701A8019701C801F7
:10209000B7010E944F0EEDE5F5E08CE0DF011D92E7
:1020A0008A95E9F70E94EA0F81E0809335051F9237
:1020B0001F921F921F92812CAE8CBF8CC8A0D9A0FA
:1020C00029853A854B855C856D817E818F819885D8
:1020D0000E94A3080F900F900F900F9080913805E9
:1020E00081111EC0109235052C960FB6F894DEBFF4
:1020F0000FBECDBFDF91CF911F910F91FF90EF9059
:10210000DF90CF90BF90AF908F907F906F905F9057
:102110004F9008950E94B90288CF0E94B902AECFB5
:102120000E94B902DBCF60915D0570915E058091E0
:102130005F05909160050E9449172CE137EC41EB57
:1021400052E40E949F1608956091610570916205A6
:1021500080916305909164050E94491724E731ED51
:1021600045EB52E40E949F160895609165057091B9
:10217000660580916705909168050E94491725E5DD
:1021800035E545E052E40E949F1608958F929F9294
:10219000AF92BF92CF92DF92EF92FF920F931F9375
:1021A000CF93DF9349015A0167012CE137EC41EBF2
:1021B00052E40E9489180E945618CDE5D5E0688344
:1021C00079838A839B8324E731ED45EB52E4C50193
:1021D000B4010E9489180E9456186C837D838E83F7
:1021E0009F8325E535E545E052E4C801B6010E942C
:1021F00089180E945618688779878A879B87DF919C
:10220000CF911F910F91FF90EF90DF90CF90BF90F3
:10221000AF909F908F900895EF92FF920F931F932E
:1022200084B18F6384B985B1807C806385B9E1E82E
:10223000F0E080818F7E8083808188608083E0E809
:10224000F0E080818D7F808380818E7F808380819C
:102250008F73808380818F7C80831092B000109276
:10226000B100E0E7F0E080818160808360E476E0A7
:1022700080E090E00E94240F80E00E94C30EEDE514
:10228000F5E08CE0DF011D928A95E9F7E12CF12C55
:10229000870120E030E040EA50E4CA01B9010E9421
:1022A000C61010923D0510923E0510923F05109207
:1022B000400510925C0510925B051092370580E294
:1022C0008093360510924505109235051F910F91A8
:1022D000FF90EF900C94C70F1F920F920FB60F92C2
:1022E00011245E9815BC0F900FBE0F901F9018958B
:1022F0001F920F920FB60F9211248F9385B1887F92
:1023000085B91092B1008F910F900FBE0F901F9062
:1023100018951F920F920FB60F921124CF92DF9251
:10232000EF92FF922F933F934F935F936F937F931F
:102330008F939F93AF93BF93CF93DF93EF93FF93CD
:102340008091450581110DC081E080934505809104
:1023500037058823E9F00E94C70F0E944A0E1092A9
:102360004505FF91EF91DF91CF91BF91AF919F9183
:102370008F917F916F915F914F913F912F91FF903E
:10238000EF90DF90CF900F900FBE0F901F90189599
:1023900080913505811119C04A9B02C04B9903C039
:1023A00080E00E94C30E309904C084E20E94D80FDE
:1023B000D6CF319902C085E2F9CF329902C086E2C8
:1023C000F5CF339902C08AE2F1CF25B190915A0539
:1023D000987385B1877C892B85B928732913BFCF62
:1023E00085B1887F90915A05892B85B98AEF8093B2
:1023F000B20082E08093B100789480915B05909167
:102400005C05892B09F06AC00E94290E90935C0537
:1024100080935B05009719F40E94C70FA0CFFC01C1
:102420002081223008F05AC061A572A583A594A529
:102430006093390570933A0580933B0590933C0572
:1024400040E4C42E4CE9D42EE12CF12CC0923D0581
:10245000D0923E05E0923F05F09240050E94790F30
:10246000E0915B05F0915C058081813041F4109230
:102470004605109247051092480510924905868539
:102480009785A089B189B595A79597958795B095BA
:10249000A095909581959F4FAF4FBF4F8093560564
:1024A00090935705A0935805B09359058093520512
:1024B00090935305A0935405B093550580934E0512
:1024C00090934F05A0935005B093510510924A0583
:1024D00010924B0510924C0510924D05C0915B0572
:1024E000D0915C052881273008F039CFE22FF0E049
:1024F000E458FD4E0C94791983128312AF14FE1424
:102500000215041508153D8530935A0589819A8175
:10251000AB81BC814091560550915705609158059B
:1025200070915905840F951FA61FB71F80935605FC
:1025300090935705A0935805B09359054E855F8534
:1025400068897989181619061A061B0624F5316060
:1025500030935A05841B950BA60BB70B8093560539
:1025600090935705A0935805B093590580915D0548
:1025700090915E05A0915F05B091600533FFF3C0B7
:102580000197A109B10980935D0590935E05A09321
:102590005F05B09360058D819E81AF81B885C09045
:1025A0005205D0905305E0905405F09055058C0DE0
:1025B0009D1DAE1DBF1D8093520590935305A093A2
:1025C0005405B0935505181619061A061B0634F55E
:1025D00030915A05326030935A05841B950BA60B37
:1025E000B70B8093520590935305A0935405B09375
:1025F00055058091610590916205A0916305B091A8
:10260000640534FFB4C00197A109B1098093610545
:1026100090936205A0936305B093640589859A85BC
:10262000AB85BC85C0904E05D0904F05E09050051D
:10263000F09051058C0D9D1DAE1DBF1D80934E0564
:1026400090934F05A0935005B093510518161906A5
:102650001A061B0634F530915A05346030935A053A
:10266000841B950BA60BB70B80934E0590934F05DB
:10267000A0935005B0935105809165059091660532
:10268000A0916705B091680535FF75C00197A10954
:10269000B1098093650590936605A0936705B09393
:1026A000680580914A0590914B05A0914C05B09129
:1026B0004D050196A11DB11D80934A0590934B05D0
:1026C000A0934C05B0934D0530915A05E0E33E27A9
:1026D00030935A0584179507A607B70708F034C149
:1026E0004DA95EA96FA978AD84179507A607B7070E
:1026F00008F045C00E94F10E882309F430CE89A964
:102700009AA9ABA9BCA94091390550913A056091AD
:102710003B0570913C05840F951FA61FB71F809342
:10272000390590933A05A0933B05B0933C054A893F
:102730005B896C897D89481759076A077B0740F4D4
:102740004093390550933A0560933B0570933C05DF
:102750006091390570913A0580913B0590913C0557
:102760000E94790FFCCD0196A11DB11D0CCF0196E1
:10277000A11DB11D4BCF0196A11DB11D8ACF49AD41
:102780005AAD6BAD7CAD84179507A607B70769F402
:1027900080E49CE9A0E0B0E080933D0590933E0585
:1027A000A0933F05B0934005DACD84179507A6079F
:1027B000B70708F446C00E94F10E882309F4CFCD74
:1027C00049A95AA96BA97CA98091390590913A052C
:1027D000A0913B05B0913C05481759076A077B0754
:1027E00038F5841B950BA60BB70B80933905909396
:1027F0003A05A0933B05B0933C058DA59EA5AFA5DA
:10280000B8A94091390550913A0560913B05709106
:102810003C05481759076A077B0708F099CF809352
:10282000390590933A05A0933B05B0933C0590CFB2
:102830001092390510923A0510923B0510923C0512
:10284000DCCF6A897B898C899D89C0903905D090BD
:102850003A05E0903B05F0903C056C157D058E0532
:102860009F0551F06093390570933A0580933B05BD
:1028700090933C050E94790FE0915B05F0915C0517
:102880008081813009F05EC080914A0590914B05AE
:10289000A0914C05B0914D052AE0880F991FAA1F01
:1028A000BB1F2A95D1F7409146055091470560918D
:1028B000480570914905452B462B472B41F48093E1
:1028C000460590934705A0934805B093490540916C
:1028D0004605509147056091480570914905841758
:1028E0009507A607B70708F43ACDFD968081918138
:1028F000A281B381840F951FA61FB71F8093460541
:1029000090934705A0934805B0934905F8940E9419
:10291000EE017894482F4058550B9A01220F331F2F
:10292000E0915B05F0915C0546A1429FC001439F89
:10293000900D11246FEF70E00E944319862F0E94C2
:10294000C30E0DCD86A1FBCF213011F40E941602DB
:1029500010925C0510925B050E943B0E00CDC0906A
:102960002D05D0902E05E0902F05F0903005C11474
:10297000D104E104F104E9F420E030E04AE754E452
:10298000FE01EF5BFF4F60817181828193810E9424
:1029900089180E9456186093310570933205809310
:1029A00033059093340560E67AEE80E090E00E9473
:1029B000240F5FEFC51AD50AE50AF50AC0922D0566
:1029C000D0922E05E0922F05F092300580913105CE
:1029D00090913205A0913305B0913405C816D906FF
:1029E000EA06FB0610F48EA1AACF10922D051092D4
:1029F0002E0510922F0510923005AACF81E00E947B
:102A0000D70EA6CF80E0FBCF81E00E94DD0EA0CFE5
:102A100080E0FBCF8F929F92AF92BF92CF92DF92D6
:102A2000EF92FF920F931F93CF93DF93809138051E
:102A30008111F6C0E12CF12C8701A8019701C80192
:102A4000B7010E944F0EEDE5F5E08CE0DF011D922D
:102A50008A95E9F781E080933505309917C01F9278
:102A60001F921F921F92812CA12CB12CE8E4CE2E34
:102A7000E4E4DE2EA801970160E070E080EA91E4D2
:102A80000E94A3080F900F900F900F9031991AC0D9
:102A90001F921F921F921F92812CA12CB12C78E4BF
:102AA000C72E74E4D72EE12CF12C8701A8019701E1
:102AB00060E070E080EA91EC0E94A3080F900F9014
:102AC0000F900F9032991AC01F921F921F921F925F
:102AD000812CA12CB12C68E4C62E64E4D62EE12C06
:102AE000F12C870120E030E040EA51E4C801B70151
:102AF0000E94A3080F900F900F900F9033991AC067
:102B00001F921F921F921F92812CA12CB12C58E46E
:102B1000C52E54E4D52EE12CF12C870120E030E0C5
:102B200040EA51ECC801B7010E94A3080F900F9032
:102B30000F900F9080913805811175C01092350566
:102B400085E4982E9F92C8E4CF931F921F92A12CE8
:102B5000B12C6501E12CF12C00E211E4A6019501F4
:102B600060EF73E284E799EC0E94F00FD4E4DF9306
:102B7000CF931F921F92E12CF12C00E810E4A601E4
:102B8000950160EF73E284E799EC0E94F00F9F9249
:102B9000CF931F921F92A12CB12C30E2C32E31E4AF
:102BA000D32EE12CF12C870120EF33E244E759ECDE
:102BB000C801B7010E94F00FDF93CF931F921F92BD
:102BC000A12CB12C40E8C42E40E4D42E20EF33E2F7
:102BD00044E759ECC801B7010E94F00FA801970122
:102BE000C801B7010E944F0EEDE5F5E08CE0DF0172
:102BF0001D928A95E9F78DB79EB740960FB6F89467
:102C00009EBF0FBE8DBFDF91CF911F910F91FF909F
:102C1000EF90DF90CF90BF90AF909F908F900895EE
:102C20000E94B90203CF0E94B90284CF5058BB273B
:102C3000AA270E942E160C94FF170E94F11738F055
:102C40000E94F81720F039F49F3F19F426F40C94F1
:102C5000EE170EF4E095E7FB0C94BF17E92F0E94E6
:102C6000101858F3BA17620773078407950720F006
:102C700079F4A6F50C944A180EF4E0950B2EBA2FB1
:102C8000A02D0B01B90190010C01CA01A001112472
:102C9000FF27591B99F0593F50F4503E68F11A161E
:102CA000F040A22F232F342F4427585FF3CF4695AF
:102CB00037952795A795F0405395C9F77EF41F16D1
:102CC000BA0B620B730B840BBAF09150A1F0FF0F9B
:102CD000BB1F661F771F881FC2F70EC0BA0F621F87
:102CE000731F841F48F4879577956795B795F79577
:102CF0009E3F08F0B0CF9395880F08F09927EE0F0C
:102D00009795879508950E94321890F09F3748F460
:102D1000911116F40C944B1860E070E080E89FE38A
:102D2000089526F01B16611D711D811D0C94C51799
:102D30000C94E0170E949B1708F481E008950E940C
:102D4000B3160C94FF170E94F81758F00E94F11761
:102D500040F029F45F3F29F00C94BF1751110C94F7
:102D60004B180C94EE170E94101868F39923B1F3D6
:102D7000552391F3951B550BBB27AA2762177307A1
:102D8000840738F09F5F5F4F220F331F441FAA1F35
:102D9000A9F335D00E2E3AF0E0E832D091505040F1
:102DA000E695001CCAF72BD0FE2F29D0660F771F9F
:102DB000881FBB1F261737074807AB07B0E809F085
:102DC000BB0B802DBF01FF2793585F4F3AF09E3F0A
:102DD000510578F00C94BF170C944B185F3FE4F347
:102DE000983ED4F3869577956795B795F7959F5F4D
:102DF000C9F7880F911D9695879597F90895E1E099
:102E0000660F771F881FBB1F621773078407BA07F7
:102E100020F0621B730B840BBA0BEE1F88F7E09552
:102E200008950E9418176894B1110C944B180895D6
:102E30000E94181888F09F5798F0B92F9927B7511A
:102E4000B0F0E1F0660F771F881F991F1AF0BA954E
:102E5000C9F714C0B13091F00E944A18B1E008954A
:102E60000C944A18672F782F8827B85F39F0B93F3C
:102E7000CCF3869577956795B395D9F73EF4909501
:102E80008095709561957F4F8F4F9F4F0895E8947F
:102E900009C097FB3EF490958095709561957F4FA2
:102EA0008F4F9F4F9923A9F0F92F96E9BB27939550
:102EB000F695879577956795B795F111F8CFFAF460
:102EC000BB0F11F460FF1BC06F5F7F4F8F4F9F4F91
:102ED00016C0882311F096E911C0772321F09EE8EF
:102EE000872F762F05C0662371F096E8862F70E055
:102EF00060E02AF09A95660F771F881FDAF7880F2F
:102F00009695879597F908950E94321890F09F370B
:102F100048F4911116F00C944B1860E070E080E8D2
:102F20009FEB089526F41B16611D711D811D0C94E5
:102F3000C5170C94E017990F0008550FAA0BE0E88D
:102F4000FEEF16161706E807F907C0F0121613066B
:102F5000E407F50798F0621B730B840B950B39F4AB
:102F60000A2661F0232B242B252B21F408950A2611
:102F700009F4A140A6958FEF811D811D089597F951
:102F80009F6780E870E060E00895882371F47723FC
:102F900021F09850872B762F07C0662311F49927CC
:102FA0000DC09051862B70E060E02AF09A95660F74
:102FB000771F881FDAF7880F9695879597F90895F8
:102FC0009F3F31F0915020F4879577956795B7959D
:102FD000880F911D9695879597F908959FEF80EC3E
:102FE000089500240A94161617061806090608956F
:102FF00000240A9412161306140605060895092ED5
:103000000394000C11F4882352F0BB0F40F4BF2B43
:1030100011F460FF04C06F5F7F4F8F4F9F4F089583
:1030200057FD9058440F551F59F05F3F71F0479579
:10303000880F97FB991F61F09F3F79F0879508955E
:10304000121613061406551FF2CF4695F1DF08C07D
:10305000161617061806991FF1CF8695710561059A
:10306000089408950E941818A0F0BEE7B91788F4D4
:10307000BB279F3860F41616B11D672F782F88275D
:10308000985FF7CF869577956795B11D939596399B
:10309000C8F30895E894BB2766277727CB0197F9F3
:1030A00008950E949B1708F48FEF08950E94181846
:1030B00058F19E5760F19851A0F0E9F0983020F552
:1030C000092E9927660F771F881F991F0A94D1F739
:1030D00012C0062E672F782F8827985F11F4000CF6
:1030E00007C0993FB4F38695779567959395D9F77F
:1030F000611D711D811D3EF49095809570956195BF
:103100007F4F8F4F9F4F089568940C944B180C94E9
:103110004A180E949C180C94FF170E94F11738F06F
:103120000E94F81720F0952311F00C94BF170C940F
:10313000EE1711240C944B180E94101870F3959FF1
:10314000C1F3950F50E0551F629FF001729FBB279E
:10315000F00DB11D639FAA27F00DB11DAA1F649F3A
:103160006627B00DA11D661F829F2227B00DA11DED
:10317000621F739FB00DA11D621F839FA00D611D73
:10318000221F749F3327A00D611D231F849F600D94
:10319000211D822F762F6A2F11249F5750409AF0BD
:1031A000F1F088234AF0EE0FFF1FBB1F661F771F49
:1031B000881F91505040A9F79E3F510580F00C9414
:1031C000BF170C944B185F3FE4F3983ED4F38695F9
:1031D00077956795B795F795E7959F5FC1F7FE2BB4
:1031E000880F911D9695879597F9089519F416F40F
:1031F0000C94EE170C94E0170E941818B8F399235A
:10320000C9F3B6F39F57550B87FF0E943C19002462
:10321000A0E640EA900180585695979528F4805C86
:10322000660F771F881F20F026173707480730F4EE
:10323000621B730B840B202931294A2BA695179406
:103240000794202531254A2758F7660F771F881FD6
:1032500020F026173707480730F4620B730B840BF6
:10326000200D311D411DA09581F7B901842F915882
:10327000880F96958795089591505040660F771F57
:10328000881FD2F7089597FB072E16F4009407D0F5
:1032900077FD09D00E948A1907FC05D03EF490956D
:1032A00081959F4F0895709561957F4F0895A1E294
:1032B0001A2EAA1BBB1BFD010DC0AA1FBB1FEE1FB0
:1032C000FF1FA217B307E407F50720F0A21BB30BFB
:1032D000E40BF50B661F771F881F991F1A9469F777
:1032E00060957095809590959B01AC01BD01CF01D3
:1032F0000895EE0FFF1F0590F491E02D09940E94B0
:103300009E19A59F900DB49F900DA49F800D911DB7
:1033100011240895AA1BBB1B51E107C0AA1FBB1FA4
:10332000A617B70710F0A61BB70B881F991F5A9551
:10333000A9F780959095BC01CD010895A29FB00199
:10334000B39FC001A39F700D811D1124911DB29FD9
:0E335000700D811D1124911D0895F894FFCF7A
:02335E0001006C
:00000001FF
