:100000000C9434000C945B000C945B000C945B002B
:100010000C945B000C945B000C9441020C945B000C
:100020000C945B000C9415130C945B000C94261339
:100030000C945B000C945B000C945B000C945B00D4
:100040000C9409130C945B000C9451010C94F60071
:100050000C945B000C945B000C945B000C945B00B4
:100060000C945B000C945B00E1EFF6E085EC98E00B
:1000700001C08193EF3FF907E0F3D9F311241FBECC
:10008000CFEFD8E0DEBFCDBF11E0A0E0B1E0E0ED02
:10009000F8E302C005900D92A230B107D9F726E02F
:1000A000A2E0B1E001C01D92A13FB207E1F70E94BA
:1000B0005D000C94661C0C94000078940E948C00E7
:1000C0000E94D0020E94F00F0E94A9120E94081004
:1000D0000E9434100E94B70490E080E008951092CE
:1000E0000301109202010895909109019F5F9038D9
:1000F00009F490E0209108012917E1F3E09109014A
:10010000F0E0EF58F94F8083909309018091C1008E
:1001100080628093C10008951092C50080E18093B1
:10012000C400E0ECF0E080818D7F8083E1ECF0E0C2
:100130008081806180838081886080838081806805
:1001400080838EE70E947400F894A89584B7877F17
:1001500084BFE0E6F0E080818861808386E480836C
:1001600078940895CF92DF92EF92FF92CF93C82FA9
:10017000CB01BA0120E030E04AE754E40E944E1B74
:100180000E941B1B6B017C0128EFF21A8C2D8068EA
:100190000E947400D701C60127E0B695A7959795F0
:1001A00087952A95D1F780680E947400D701C6010F
:1001B0003EE0B695A795979587953A95D1F78068D3
:1001C0000E947400D701C60145E1B695A7959795A1
:1001D00087954A95D1F780680E9474008C2FCF9143
:1001E000FF90EF90DF90CF900C9474001F920F92CD
:1001F0000FB60F9211248F939F93EF93FF938091EB
:100200000801909105019923D1F095E09093C600E3
:1002100090910501915090930501909109019813D7
:1002200005C08091C1008F7D8093C100FF91EF9147
:100230009F918F910F900FBE0F901F901895E82FF0
:10024000F0E0EF58F94F90819093C6008F5F8038AF
:1002500009F480E080930801E0CFE0910A01F0E02A
:10026000EF58FA4F808190910A019F5F90930A01A5
:100270002FB7F894909104019F5F9093040190919F
:100280000401903160F0909105019F5F909305010A
:100290009091C10090629093C100109204012FBF11
:1002A00008951F920F920FB60F9211242F933F9330
:1002B0004F935F936F937F938F939F93AF93BF936E
:1002C000EF93FF93A8959091C60080910001882339
:1002D000A9F01092000190930701FF91EF91BF9157
:1002E000AF919F918F917F916F915F914F913F91CE
:1002F0002F910F900FBE0F901F90189581E0809363
:10030000000180910701891721F08DE30E944D11B2
:10031000E4CF803148F5813011F481E2F7CF8230AB
:1003200069F4109203011092020110920A011092D6
:100330000B01109204010E946711CFCF883019F48D
:100340000E941212CACF873019F40E941612C5CF2C
:10035000833019F40E940E03C0CF843019F40E9438
:100360001203BBCF83E2D2CFE0910B0191E09E0F4D
:1003700020910A01291302C082E2C8CFF0E0EF58B1
:10038000FA4F808390930B01A8CFCF93C1E0809167
:100390000301811115C010920601C1E090910A017C
:1003A00080910B019817D1F10E942D01803131F419
:1003B00081E0809303011092020181E4CF910895BE
:1003C0008091020181110AC00E944A11811106C068
:1003D0000E946C0F811102C0C09302018091020142
:1003E000882371F01092060190910A0180910B010F
:1003F000981749F00E942D01813111F410920301E8
:100400000E942503C4CF80910601811104C00E947F
:100410001603C09306010E942503E6CF80910601D2
:10042000811104C00E941603C09306010E94250397
:10043000B5CF80910301882361F080910201811181
:1004400008C090910A0180910B01981304C00E948A
:10045000160380E808950E942D0187FDFBCF8131AE
:1004600019F410920301F5CF83E20E944D11F1CFF0
:1004700020910A0190910B0181E0291301C080E0D5
:1004800008951F920F920FB60F9211242F933F934E
:100490004F935F936F937F938F939F93AF93BF938C
:1004A000EF93FF9380E00E940F100E944A1188236F
:1004B000C9F08BE30E944D118091600080648093AD
:1004C0006000FF91EF91BF91AF919F918F917F91CC
:1004D0006F915F914F913F912F910F900FBE0F90B1
:1004E0001F9018950E946C0F8111E3CF0E94380273
:1004F0008111DFCF809103018111DBCFDDCF81E05E
:100500008093020108950F931F93E1E1F1E063816D
:1005100070E090E080E0605871098109910927E05E
:10052000660F771F881F991F2A95D1F7028110E067
:1005300030E020E00058110921093109600F711FD6
:10054000821F931F37E0660F771F881F991F3A9508
:10055000D1F7018110E030E020E0005811092109B5
:100560003109600F711F821F931F47E0660F771FCD
:10057000881F991F4A95D1F72081620F711D811D37
:10058000911D60587109810998400E940E1A20E05F
:1005900030E04AE754E40E9464191F910F910895D6
:1005A000E6E1F1E081E0808340E050E06AEF75E44D
:1005B0004283538364837583168217821086118663
:1005C0001286138614861586168640E050E060EA8F
:1005D00070E44787508B618B728B438B548B658B98
:1005E000768B178A108E118E128E9CE0E1E3F1E07B
:1005F000DF01292F1D922A95E9F7EDE3F1E0DF01F4
:100600001D929A95E9F78093100180930F01109243
:100610000E0110920D0180930C01089581E08093EA
:100620001001089581E080930F0108952FB7F89489
:1006300080910D0190910E01019690930E0180938F
:100640000D0110920C012FBF08958F929F92AF92CF
:10065000BF92CF92DF92EF92FF920F931F93CF93AF
:1006600099B189B1282F221F2227221F92FB8827A8
:1006700080F9822B11F44B9B03C080E00E940F1085
:100680000E946411882391F10E94960F0E944B12E0
:100690006B017C010E9437124B015C010E94231206
:1006A00087017601A50194010E949B0F0E942312ED
:1006B0006093250170932601809327019093280170
:1006C0000E9437126093290170932A0180932B01B5
:1006D00090932C010E944B1260932D0170932E0178
:1006E00080932F0190933001109215018091100199
:1006F000811105C080910F01882309F42CC110924B
:1007000010010E946C0F811112C00E9438028111E9
:100710000EC00E94641181110AC081E40E9474001D
:1007200083B7816083BF889583B78E7F83BF99B17C
:1007300089B1282F221F2227221F92FB882780F9A8
:10074000822B19F082E40E9474004B9B03C083E467
:100750000E9474000E942012882319F084E40E94F1
:1007600074000E946111C82F803211F00E94740041
:10077000309B05C0C43219F084E20E947400319BA2
:1007800005C0C53219F085E20E947400329B05C095
:10079000C63219F086E20E947400339B05C0CA324B
:1007A00019F08AE20E9474000E94231220E030E0D7
:1007B00040EA50E40E94DB1820913101309132016F
:1007C00040913301509134010E94DB18AB01BC0110
:1007D00088E70E94B2000E94371220E030E040EA31
:1007E00050E40E94DB182091350130913601409190
:1007F0003701509138010E94DB18AB01BC0189E739
:100800000E94B2000E944B122091390130913A01AE
:1008100040913B0150913C010E94DB18AB01BC01AF
:100820008AE70E94B20080910C01811110C0609192
:100830000D0170910E0190E080E00E940C1AAB0156
:10084000BC0187E70E94B20081E080930C01E1EFD8
:10085000F6E0BF01615F76408081853C09F473C09A
:1008600090E080E00E940C1AAB01BC0185E70E9479
:10087000B20080910F01882309F457C010920F0134
:1008800040E052EC6BEC76E486E70E94B2004091C7
:10089000310150913201609133017091340181E650
:1008A0000E94B200409135015091360160913701AC
:1008B0007091380182E60E94B20040913901509156
:1008C0003A0160913B0170913C0183E60E94B200C5
:1008D000409118015091190160911A0170911B010A
:1008E00087E60E94B20060911C0170E090E080E019
:1008F0000E940C1AAB01BC0188E60E94B200409134
:100900001D0150911E0160911F017091200189E627
:100910000E94B20040912101509122016091230177
:10092000709124018AE60E94B20086E0CF911F9167
:100930000F91FF90EF90DF90CF90BF90AF909F907E
:100940008F900C94740088E0EF3FF80711F008F0E6
:1009500087CF31967ECFCF911F910F91FF90EF906F
:10096000DF90CF90BF90AF909F908F900895C1E39C
:10097000D1E03CE0932E772473940E94C501182F98
:100980000E946411882319F00E942503F6CF17FDF9
:10099000F4C2EFEBE10FEA3108F038C1EF3008F0B4
:1009A00031C1F0E0EA52FB4F0C943E1C4B05E504CC
:1009B0003F0512054E055105540559055E0596057E
:1009C000C705F805FC05FE050006A0901801B090CB
:1009D0001901C0901A01D0901B01E0902D01F090F8
:1009E0002E0100912F0110913001209129013091A9
:1009F0002A0140912B0150912C01609125017091A9
:100A0000260180912701909128011F921F921F9229
:100A10001F9280901C010E94C80A0F900F900F90A7
:100A20000F9039C0A0901801B0901901C0901A0120
:100A3000D0901B01E0902D01F0902E0100912F012C
:100A4000109130012091290130912A0140912B0110
:100A500050912C0160912501709126018091270110
:100A600090912801E0912401EF93E0912301EF930D
:100A7000E0912201EF93E0912101EF93CACF6091C1
:100A80001D0170911E0180911F01909120014091E4
:100A90001C010E94BE0E1092150176CF1092160115
:100AA000FACF70921601F7CF80911601809317014B
:100AB000F2CF8091170180931601EDCF0E94CF17DE
:100AC000FE01892D11928A95E9F780E090E0A0EA75
:100AD000B0E48093250190932601A0932701B09361
:100AE00028018093290190932A01A0932B01B093B0
:100AF0002C0110922D0110922E0110922F011092B4
:100B00003001A0901801B0901901C0901A01D09046
:100B10001B011F921F921F921F92812CE12CF12C1E
:100B200087019C01AD01CD01B90175CF80913101E3
:100B300090913201A0913301B091340180933D0135
:100B400090933E01A0933F01B09340018091350105
:100B500090913601A0913701B09138018093410105
:100B600090934201A0934301B093440180913901D5
:100B700090913A01A0913B01B0913C0180934501D5
:100B800090934601A0934701B093480184CF809190
:100B90003D0190913E01A0913F01B09140018093B1
:100BA000310190933201A0933301B09334018091CD
:100BB000410190914201A0914301B0914401809381
:100BC000350190933601A0933701B093380180919D
:100BD000450190914601A0914701B0914801809351
:100BE000390190933A01A0933B01B0933C0153CF5C
:100BF00083E00E941F0F4FCF84E0FBCF85E0F9CF49
:100C000086E0F7CF8CE30E944D1145CF8FE9810F2D
:100C10008A3108F0B0C180911501843009F0A9C172
:100C20001456173108F0A3C1E12FF0E0E65EF94F4A
:100C30000C943E1CF706B707B406B70737076307DF
:100C40008F07B707B707B707B707B7072007B70773
:100C5000B707D006B707B707B707B70731065D066E
:100C60008906109116010E9483021130D9F420E008
:100C700030E040EA50E40E94DC189B01AC01609136
:100C800031017091320180913301909134010E94C1
:100C9000DC186093250170932601809327019093BF
:100CA0002801F9CE9B01AC016091250170912601CC
:100CB0008091270190912801EACF109116010E949E
:100CC00083021130D9F420E030E040EA50E40E9481
:100CD000DC189B01AC016091350170913601809167
:100CE0003701909138010E94DC18609329017093BC
:100CF0002A0180932B0190932C01CDCE9B01AC0156
:100D00006091290170912A0180912B0190912C0111
:100D1000EACF109116010E9483021130D1F420E035
:100D200030E0A9010E94DC189B01AC0160913901FF
:100D300070913A0180913B0190913C010E94DC1836
:100D400060932D0170932E0180932F0190933001B9
:100D5000A2CE9B01AC0160912D0170912E0180917A
:100D60002F0190913001EACF0E9483026B017C0138
:100D70002DEC3CEC4CEC5DE30E945F1987FF07C053
:100D80002DECC22E2CECD22EED2C2DE3F22EC092A7
:100D90001801D0921901E0921A01F0921B017BCE4A
:100DA0000E9483026B017C0120E030E0A9010E94D7
:100DB0005F1987FD11C020E030E04FE753E4C70121
:100DC000B6010E94161B18165CF0C701B6010E94FE
:100DD000DD1960931C015FCEC12CD12C7601F5CFBB
:100DE000C12CD12C9FE7E92E93E4F92EEECF0E947F
:100DF00083026B017C0120E030E0A9010E945F19B1
:100E000087FD13C020E030E040E251E4C701B601A5
:100E10000E94161B18166CF0C0921D01D0921E0184
:100E2000E0921F01F092200136CEC12CD12C760128
:100E3000F3CFC12CD12C80E2E82E81E4F82EECCF48
:100E40000E9483026B017C0120E030E0A9010E9436
:100E50005F1987FF03C0C12CD12C7601C0922101FC
:100E6000D0922201E0922301F092240114CE0E943C
:100E700083026B017C0180911601813059F4C0928C
:100E80003101D0923201E0923301F092340103CE6D
:100E90000E9425030E944A118111FACF0E94231259
:100EA00020E030E040EA50E40E94DB18A701960100
:100EB0000E94DC18609331017093320180933301FA
:100EC00090933401E8CD0E9483026B017C018091F4
:100ED0001601813059F4C0923501D0923601E0926A
:100EE0003701F0923801D7CD0E9425030E944A11A4
:100EF0008111FACF0E94371220E030E040EA50E43E
:100F00000E94DB18A70196010E94DC18609335014E
:100F1000709336018093370190933801BCCD0E94C5
:100F200083026B017C0180911601813059F4C092DB
:100F30003901D0923A01E0923B01F0923C01ABCDF5
:100F40000E9425030E944A118111FACF0E944B1280
:100F50009B01AC01C701B6010E94DC186093390106
:100F600070933A0180933B0190933C0194CD8EE3C2
:100F70004ACE8AE348CE83E246CEE0911501E430C2
:100F800048F481E08E0F80931501F0E0EF5EFE4F94
:100F90001083FACC8AE30E944D11F6CC4F925F92F7
:100FA0006F927F928F929F92AF92BF92CF92DF9279
:100FB000EF92FF920F931F93CF93DF93CDB7DEB7DE
:100FC00062970FB6F894DEBF0FBECDBF9A8B898BA8
:100FD0002A013B015901FC01628973898489958941
:100FE0000E940C1A6B017C01A30192010E944E1B0E
:100FF0000E9448190E94DD192B013C01E989FA89F8
:1010000041A652A663A674A6A5019801C701B60120
:101010000E944E1B0E9448190E94DD194B015C0181
:10102000E989FA8985A696A6A7A6B0AA21A932A918
:1010300043A954A9A0EEBEE20E94441C69837A83AE
:101040008B839C830E940E1A6D837E838F83988787
:10105000C301B2010E940C1A2B013C01A7019601A9
:10106000C701B6010E944E1B6B017C01A3019201D6
:10107000C301B2010E944E1B69877A878B879C87C8
:101080002D813E814F815885CA01B9010E94DC182B
:101090006D877E878F87988B29853A854B855C8500
:1010A000C701B6010E94DB182D853E854F85588902
:1010B0000E9464190E9448190E94D6192B013C0114
:1010C000C501B4010E940C1A9B01AC010E944E1B89
:1010D0004B015C01A70196010E94DB186B017C01AA
:1010E00069817A818B819C819095809570956195BD
:1010F0007F4F8F4F9F4F0E940E1A9B01AC010E94A1
:10110000DC189B01AC01C701B6010E9464190E9462
:10111000491AE989FA89C684D784E088F188A70149
:101120009601241935094609570929833A834B83C7
:101130005C830E94D61929813A814B815C81261BF0
:10114000370B480B590BDA01C901B7FF3BC0C70188
:10115000B6010E940E1A2D853E854F8558890E9442
:101160004E1B29853A854B855C850E94DB18A501BD
:1011700094010E94DC184B015C0120E030E040E863
:1011800050E46D817E818F8198850E944E1B9B016A
:10119000AC01C501B4010E9464190E9448190E9463
:1011A000D61997FF03C060E070E0CB01260137013C
:1011B000641575058605970514F42B013C0180E044
:1011C00090E0DC01E989FA8945AA56AA67AA70AEBF
:1011D000840D951DA61DB71D81AF92AFA3AFB4AF0F
:1011E00062960FB6F894DEBF0FBECDBFDF91CF91F0
:1011F0001F910F91FF90EF90DF90CF90BF90AF9035
:101200009F908F907F906F905F904F9008954F9236
:101210005F926F927F92AF92BF92CF92DF92EF92E6
:10122000FF920F931F93CF93DF938C01EB01FC018F
:10123000428C538C648C758CAA8CBB8CCC8CDD8CD2
:101240009501A601C301B2010E945F1987FF37C053
:10125000A3019201C301B2010E944E1B2B013C016C
:1012600020E03AEB4BE55AECF80162A173A184A1AE
:1012700095A10E944E1B9B01AC01C301B2010E94CB
:10128000DB180E94C11B7B018C019B01AC01B501E5
:10129000C6010E945F1987FF02C075018601970190
:1012A000A801B501C6010E945F19882341F0C7015A
:1012B000D8018A8F9B8FAC8FBD8F81E08FA3DF9188
:1012C000CF911F910F91FF90EF90DF90CF90BF9043
:1012D000AF907F906F905F904F9008952F923F92C4
:1012E0004F925F926F927F928F929F92AF92BF9236
:1012F000CF92DF92EF92FF920F931F93CF93DF93E2
:1013000010916601F0E0E0E0D0E0C0E020916501DE
:10131000812F012E000C990B2817190609F05FC0C8
:1013200010916501D0E0C0E090E080E005E44091DC
:101330006601212F012E000C330B4217130609F012
:10134000B1C0009749F0209739F0FC0120A5211188
:1013500003C0BE010E940709F0906501D0E0C0E023
:1013600085E4E82E8F2D0F2C000C990B209166013F
:101370002817190609F0AFC0CE88DF88E88CF98CF1
:10138000A70196016A8D7B8D8C8D9D8D0E946419BD
:101390004B015C018881A7019601813009F0DFC013
:1013A000C701B6010E9464198B019C01B501A4011B
:1013B000CE010E94CE071FA2DF91CF911F910F9106
:1013C000FF90EF90DF90CF90BF90AF909F908F9065
:1013D0007F906F905F904F903F902F9008951111E4
:1013E00001C01EE0115025E41202C0011124AC011D
:1013F00049595E4F6A01209709F44CC0309709F4AF
:1014000049C0BE8CEF8C08A1F9A088A5811145C008
:10141000428C538C648C758C2B2D3E2D402F5F2D70
:10142000C301B2010E945F1987FF37C0A301920177
:10143000C301B2010E944E1B1B012C0120E03AEBBC
:101440004BE55AEC6AA17BA18CA19DA10E944E1B89
:101450009B01AC01C201B1010E94DB180E94C11BBB
:10146000662E872E982EA92E2B2D3E2D402F5F2DD8
:101470000E94161B181624F46B2C8E2C902EAF2C69
:10148000862D982DA92DBA2D8A8F9B8FAC8FBD8F5D
:1014900051E05FA3FE01E60139CF8B2D9E2DA02FD9
:1014A000BF2DF2CF100290011124F901E959FE4F2E
:1014B0007F01009749F0209739F0FC0120A5211108
:1014C00003C0BE010E9407091F5F1E3009F410E02F
:1014D000CE01E7012CCFFF2D4E2DF40290011124F7
:1014E000F901E959FE4F6F01209791F12FA12111C8
:1014F0000AC0E89EF001E99EF00D1124E959FE4F63
:1015000027A1222329F18E889F88A88CB98CE89E78
:10151000F001E99EF00D1124E959FE4FA501940157
:10152000628D738D848D958D0E9464192B013C0111
:10153000A50194016A8D7B8D8C8D9D8D0E9464190F
:10154000AB01BC0193018201CE010E94CE071FA214
:10155000F394FEE0FF1201C0F12CE60103CF60E03E
:1015600070E0CB011FCFCF93DF938F5F8E3009F4F4
:1015700080E0C82F880FDD0B809165018C171D0658
:1015800021F0CE01DF91CF9108950E942503F4CF81
:101590002F923F924F925F926F927F928F929F9283
:1015A000AF92BF92CF92DF92EF92FF920F931F9371
:1015B000CF93DF93CDB7DEB7A1970FB6F894DEBF18
:1015C0000FBECDBF2B013C0129833A834B835C8343
:1015D000ED86FE860F87188BAD82BE82CF82D886BD
:1015E000CEA8DFA8E8ACF9AC2DEC3CEC4CEC5DE30C
:1015F000B5018F8198850E945F1987FF08C00DECA7
:101600000D831CEC1E830CEC0F831DE318872CE16B
:1016100037EC41EB52E4C301B2010E944E1B0E9421
:101620001B1B6D8B7E8B8F8B988F24E731ED45EBE9
:1016300052E469817A818B819C810E944E1B0E94B9
:101640001B1B698F7A8F8B8F9C8F25E535E545E0D5
:1016500052E46D857E858F8598890E944E1B0E947D
:101660001B1B6D8F7E8F8F8F98A38091660190E0FA
:101670000E94B30A89A380916601282E312C20E0B4
:1016800030E0A901C701B6010E945F19882309F45F
:101690004AC385E4829D8001839D100D1124095960
:1016A0001E4F81E0D8018C932CE137EC41EB52E4E2
:1016B000C701B6010E944E1B20E030E040E854E430
:1016C0000E944E1B0E941B1BF801FD9660837183D4
:1016D0008283938385E4829DF001839DF00D112424
:1016E000E959FE4F86A215868091590190915A01C1
:1016F000A0915B01B0915C010D891E892F89388D05
:10170000081719072A073B0714F428E0258780905B
:101710005D0190905E01A0905F01B0906001298D05
:101720003A8D4B8D5C8D281539054A055B055CF4B7
:1017300025E4229DF001239DF00D1124E959FE4F6F
:10174000258520612587C0906101D0906201E090DD
:101750006301F09064010D8D1E8D2F8D38A10C1545
:101760001D052E053F055CF425E4229DF001239D17
:10177000F00D1124E959FE4F2585206225874D89FA
:101780005E896F89788D481B590B6A0B7B0B4987E3
:101790005A876B877C8777FF0BC088279927DC01E6
:1017A000841B950BA60BB70B89879A87AB87BC87E1
:1017B000E5E4E29D9001E39D300D112429593E4F4F
:1017C00089859A85AB85BC85F90181839283A38342
:1017D000B483098D1A8D2B8D3C8D081919092A099E
:1017E0003B094801590128013901B7FE07C04424CB
:1017F00055243201481859086A087B08E5E4E29D3F
:101800009001E39D300D112429593E4FD9011596C1
:101810004D925D926D927C9218970D8D1E8D2F8D3D
:1018200038A10C191D092E093F0968017901F7FE3D
:1018300007C00027112798010C191D092E093F091F
:1018400095E4929DD001939DB00D1124FD01E959BD
:10185000FE4F018712872387348789859A85AB8558
:10186000BC8584159505A605B70510F4D301C20102
:1018700089839A83AB83BC8380179107A207B30740
:1018800020F409831A832B833C8385E4829D8001A5
:10189000839D100D112409591E4F89819A81AB81B6
:1018A000BC81F80186879787A08BB18B892B8A2B07
:1018B0008B2B09F44AC2CB01BA010E940E1A2CE10B
:1018C00037EC41EB52E40E94641969877A878B8771
:1018D0009C87C501B4010E940E1A24E731ED45EB47
:1018E00052E40E946419698B7A8B8B8B9C8BC701A5
:1018F000B6010E940E1A25E535E545E052E40E9446
:1019000064196B017C0129853A854B855C85CA0188
:10191000B9010E944E1B4B015C0129893A894B8910
:101920005C89CA01B9010E944E1B9B01AC01C50133
:10193000B4010E94DC184B015C01A7019601C701AC
:10194000B6010E944E1B9B01AC01C501B4010E946F
:10195000DC180E94C11B6D877E878F87988BD8010A
:1019600092966D937D938D939C9395979B01AC017B
:1019700060E070E080E89FE30E9464192B013C0165
:101980008D819E81AF81B885F801868B978BA08F62
:10199000B18F69817A818B819C810E940E1A4B01E3
:1019A0005C01A30192016D817E818F8198850E94E7
:1019B0004E1BA50194010E944E1B0E9448190E94D3
:1019C000DD19D80152966D937D938D939C93559715
:1019D000A3019201C501B4010E944E1B20E03AEB25
:1019E0004BED59E40E944E1B20E030E84BE356E4F7
:1019F0000E9464190E9448190E94DD19F80161AB28
:101A000072AB83AB94ABA301920169857A858B8518
:101A10009C850E944E1B69837A838B839C83A301E0
:101A2000920169897A898B899C890E944E1B6987FA
:101A30007A878B879C87A3019201C701B6010E9418
:101A40004E1B2B013C019091660180916501981716
:101A500009F473C1C0904901D0904A01E0904B0154
:101A6000F0904C0120E030E0A901B601C7010E94CE
:101A7000161B18160CF061C160914D0170914E015A
:101A800080914F0190915001905829813A814B816A
:101A90005C810E944E1B4B015C01209151013091F1
:101AA0005201409153015091540169857A858B858B
:101AB0009C850E944E1B9B01AC01C501B4010E9494
:101AC000DB184B015C01209155013091560140918A
:101AD000570150915801C301B2010E944E1B9B0156
:101AE000AC01C501B4010E94DB184B015C0123E38A
:101AF00033E343E75FE30E945F1987FF1EC12D8137
:101B00003E814F815885B601C7010E945F1987FD4C
:101B100004C0CD80DE80EF80F88423E333E343E725
:101B20005FEBC501B4010E94161B1816C4F5A50190
:101B3000940160E070E080E89FE30E94DB1820E001
:101B400030E040E05FE30E944E1B0E94C11B4B014E
:101B50005C0120E030EC48E256E40E944E1B698BA9
:101B60007A8B8B8B9C8BA501940160E070E080E800
:101B70009FE30E94DB189B01AC0169897A898B89FC
:101B80009C890E9464190E94C11B4B015C01960153
:101B9000A7010E94161B181614F06401750185E454
:101BA000829DF001839DF00D1124E959FE4FC6017D
:101BB000D701868F978FA0A3B1A320E03AEB4BE526
:101BC0005AEC6D857E858F8598890E944E1B9B01FE
:101BD000AC0160E070E0CB010E94DB180E94C11BE9
:101BE0004B015C019B01AC01B601C7010E945F196A
:101BF00087FD02C06401750185E4829D8001839D9B
:101C0000100D112409591E4FC601D701F801828F0A
:101C1000938FA48FB58F9401A5016D817E818F81F3
:101C200098850E945F1918160CF48CC081E0D801C9
:101C300098968C9385E4829DF001839DF00D11248C
:101C4000E959FE4F81E087A309811A812B813C81EC
:101C500000934D0110934E0120934F01309350019A
:101C600029853A854B855C8520935101309352013B
:101C700040935301509354014092550150925601A4
:101C800060925701709258018D819E81AF81B88515
:101C90008093490190934A01A0934B01B0934C016A
:101CA00009A1009366012D893E894F89588D2093A3
:101CB000590130935A0140935B0150935C01898D27
:101CC0009A8DAB8DBC8D80935D0190935E01A09346
:101CD0005F01B09360010D8D1E8D2F8D38A1009393
:101CE00061011093620120936301309364010E94AB
:101CF0006E09A1960FB6F894DEBF0FBECDBFDF917F
:101D0000CF911F910F91FF90EF90DF90CF90BF90F8
:101D1000AF909F908F907F906F905F904F903F908B
:101D20002F900C94241185E4829DF001839DF00D89
:101D30001124E959FE4F1082CDCCC12CD12CE12CBD
:101D4000F12C2DCFF80110A675CFA1960FB6F894FF
:101D5000DEBF0FBECDBFDF91CF911F910F91FF90DE
:101D6000EF90DF90CF90BF90AF909F908F907F903B
:101D70006F905F904F903F902F900895CF92DF9299
:101D8000EF92FF92CF936B017C01C42F809166018B
:101D900090E00E94B30AE091660195E4E99FF001AA
:101DA0001124E959FE4F92E09083C6A3DF01AF5B97
:101DB000BF4FCD92DD92ED92FC9213971686178657
:101DC000108A118A12A213A214A215A240E050E0B8
:101DD0006AEF75E4468B578B608F718F128A138A76
:101DE000148A158A41E050E060E070E041AB52ABEC
:101DF00063AB74AB128E138E148E158E168E178EE7
:101E000010A211A291E090A797A3109249011092FD
:101E10004A0110924B0110924C01EDE4F1E09CE07C
:101E2000DF011D929A95E9F7809366010E946E0981
:101E3000CF91FF90EF90DF90CF900C942411CF932F
:101E4000C82F8091660190E00E94B30AE09166017C
:101E500095E4E99FF0011124E959FE4FC0831686ED
:101E60001786108A118A12A213A214A215A240E0AA
:101E700050E06AEF75E4468B578B608F718F128A42
:101E8000138A148A158A41E050E060E070E041ABAB
:101E900052AB63AB74AB128E138E148E158E168EEE
:101EA000178E10A211A291E090A797A3109249015A
:101EB00010924A0110924B0110924C01EDE4F1E0B6
:101EC0009CE0DF011D929A95E9F7809366010E94DC
:101ED0006E09CF910C9424112091660190916501B7
:101EE00081E0291301C080E00895909166018091FE
:101EF0006501981749F08091650125E4829FC00132
:101F0000112489599E4F089590E080E008959091A2
:101F1000660180916501981741F0809165018F5F9E
:101F20008E3009F480E08093650108958091660108
:101F30008093650108958F929F92AF92BF92CF9246
:101F4000DF92EF92FF920F931F93CF93DF9349019C
:101F50005A0167012CE137EC41EB52E40E944E1B21
:101F60000E941B1BC9E5D1E0688379838A839B8328
:101F700024E731ED45EB52E4C501B4010E944E1B4C
:101F80000E941B1B6C837D838E839F8325E535E533
:101F900045E052E4C801B6010E944E1B0E941B1B83
:101FA000688779878A879B871092490110924A0136
:101FB00010924B0110924C01EDE4F1E08CE0DF0156
:101FC0001D928A95E9F7DF91CF911F910F91FF90B4
:101FD000EF90DF90CF90BF90AF909F908F9008953B
:101FE000EF92FF920F931F9310926601109265017A
:101FF000E12CF12C870120E030E040EA50E4CA01F6
:10200000B9010E949B0F1F910F91FF90EF900895CF
:102010008AB183778AB987B1807C87B9089529B15D
:1020200099B1392F331F3327331F22FB992790F99A
:10203000932B21F44B9902C0811104C010922D05FD
:102040005D98089580932D05089580912D0508953C
:10205000882311F05C9A08955C980895882311F004
:102060005E9A08955E980895559A14BC15BCEEE6E4
:10207000F0E080818160808316BC549A80E00E94E9
:102080002810569A80E00C942E108091440590916F
:102090004505A0914605B0914705409148055091EE
:1020A000490560914A0570914B05840F951FA61F45
:1020B000B71F813828E3920721E0A207B10550F449
:1020C0008093440590934505A0934605B09347053A
:1020D00080E0089580589843A140B1098093440559
:1020E00090934505A0934605B093470581E0089578
:1020F0009B01AC01203486E038074105510520F4EE
:1021000020E436E040E050E060E070E788E399E3E7
:102110000E941C1CB90190E02115310581E048079F
:102120005105B0F02115310588E04807510520F52B
:1021300063E056954795379527956A95D1F7B9018C
:10214000E3E0220F331F441F551FEA95D1F791E0BA
:1021500080918100887F9F5F892B8093810070939D
:102160008900609388002093480530934905409387
:102170004A0550934B05089586E056954795379547
:1021800027958A95D1F7B90196E0220F331F441F96
:10219000551F9A95D1F792E0DBCFCF92DF92EF9265
:1021A000FF92CF93DF936B017C010E947810C09166
:1021B0006305D091640588818130B1F4A0914D050B
:1021C000B0E0A70196010E94441C2A893B894C89F2
:1021D0005D890E941C1C822FDF91CF91FF90EF90B0
:1021E000DF90CF900C940F10C701B6010E940C1A1B
:1021F0006B017C016A897B898C899D890E940C1AFC
:102200009B01AC01C701B6010E94641923E333E3CB
:1022100043E75FE30E944E1B2DEC3CEC4CE45DE396
:102220000E94DC186B017C016EA170E090E080E000
:102230000E940E1A9B01AC01C701B6010E944E1B01
:102240000E94DD19862FC8CF80913F0581110BC0F8
:1022500081E080933F0588E08093620580916F0064
:10226000826080936F00089510923F05109264057C
:102270001092630510922E0510922F0510923005D2
:1022800010923105EFE6F0E080818D7F808380E061
:102290000C940F1080913F05089590913E05911187
:1022A0000FC080933D0581E080933E0510923C0570
:1022B00080E00E94281080E00E942E100C946F0095
:1022C000089580913D05089580913E05089580E22E
:1022D00080933D0510923E0510923C0508954F9263
:1022E0005F926F927F928F92AF92BF92CF92DF9266
:1022F000EF92FF920F931F93CF93DF93CDB7DEB78B
:102300002C970FB6F894DEBF0FBECDBF69837A83DA
:102310008B839C8329013A01ED82FE820F8318870B
:10232000A986BA86CB86DC8680913F05811171C073
:10233000E12CF12C8701A8019701C801B7010E9487
:102340009B0FE5E6F5E08CE0DF011D928A95E9F749
:102350001F921F921F921F92812CAE8CBF8CC8A01F
:10236000D9A0A301920169817A818B819C810E940D
:10237000C80A0F900F900F900F9080913F05811128
:102380004BC0E12CF12C8701A8019701C801B701CE
:102390000E949B0FE5E6F5E08CE0DF011D928A9537
:1023A000E9F70E94671181E0809336051F921F9222
:1023B0001F921F92812CAE8CBF8CC8A0D9A02985FA
:1023C0003A854B855C856D817E818F8198850E94E1
:1023D000C80A0F900F900F900F9080913F058111C8
:1023E0001EC0109236052C960FB6F894DEBF0FBEB5
:1023F000CDBFDF91CF911F910F91FF90EF90DF90B4
:10240000CF90BF90AF908F907F906F905F904F90E4
:1024100008950E94250388CF0E942503AECF0E9415
:102420002503DBCF81E080933C05089580913C0536
:10243000882319F081E080933B0510923C050895B4
:1024400080913C0508952FB7F894609165057091CF
:10245000660580916705909168052FBF0E940E1A4E
:102460002CE137EC41EB52E40E94641908952FB738
:10247000F8946091690570916A0580916B0590915F
:102480006C052FBF0E940E1A24E731ED45EB52E494
:102490000E94641908952FB7F89460916D057091AA
:1024A0006E0580916F05909170052FBF0E940E1AE6
:1024B00025E535E545E052E40E94641908958F92C0
:1024C0009F92AF92BF92CF92DF92EF92FF920F93C3
:1024D0001F93CF93DF9349015A01670178011FB71A
:1024E000F8942CE137EC41EB52E40E944E1B0E9421
:1024F0001B1BC5E6D5E0688379838A839B8324E729
:1025000031ED45EB52E4C501B4010E944E1B0E941F
:102510001B1B6C837D838E839F8325E535E545E01A
:1025200052E4C701B6010E944E1B0E941B1B688724
:1025300079878A879B871FBFDF91CF911F910F916A
:10254000FF90EF90DF90CF90BF90AF909F908F90D3
:102550000895EF92FF920F931F9384B18F6384B914
:1025600085B1807C886085B9E1E8F0E080818F7E6C
:102570008083808188608083E0E8F0E080818D7FC7
:10258000808380818E7F808380818F738083808130
:102590008F7C80831092B0001092B100E0E7F0E0F1
:1025A00080818160808360E476E080E090E00E943A
:1025B000781080E00E940F10E5E6F5E08CE0DF0186
:1025C0001D928A95E9F7E12CF12C870120E030E09B
:1025D00040EA50E4CA01B9010E945F12109244051A
:1025E0001092450510924605109247051092640519
:1025F0001092630510923E0580E280933D05109293
:102600004C05109236051F910F91FF90EF900C949E
:1026100034111F920F920FB60F9211245D9815BCC2
:102620000F900FBE0F901F9018951F920F920FB62C
:102630000F9211248F9385B1887F85B91092B100D4
:102640008F910F900FBE0F901F9018951F920F92B1
:102650000FB60F921124CF92DF92EF92FF922F9339
:102660003F934F935F936F937F938F939F93AF931A
:10267000BF93CF93DF93EF93FF9380914C0581112C
:102680000DC081E080934C0580913E058823E9F0E0
:102690000E9434110E94960F10924C05FF91EF9109
:1026A000DF91CF91BF91AF919F918F917F916F916A
:1026B0005F914F913F912F91FF90EF90DF90CF90DE
:1026C0000F900FBE0F901F90189580913C058823A6
:1026D00021F080E00E940F10DFCF99B189B1282F3F
:1026E000221F2227221F92FB882780F9822B11F4B8
:1026F0004B9B03C080E00E940F1080913605811132
:1027000012C0309B04C084E20E944D11C5CF319BA2
:1027100002C085E2F9CF329B02C086E2F5CF339B3F
:1027200002C08AE2F1CF0E94251090910101903100
:1027300080F5809101018F5F8093010125B1909117
:102740006205987385B1877C892B85B92873291315
:10275000A3CF85B1887F90916205892B85B98AEFD7
:102760008093B20082E08093B100789480916305F9
:1027700090916405892B09F0D5C00E94750F909344
:10278000640580936305009709F06AC00E943411C4
:1027900083CF811103C05D9881E0CECF15BC5D9AD7
:1027A000823FD0F7209148053091490540914A0574
:1027B00050914B05232F342F452F552760E1869FDD
:1027C000D00111240E944F1CAB01BC01DC01CA01E5
:1027D00021E04F3F510561057105F1F1E8F1C3E0DA
:1027E000B695A79597958795CA95D1F722E08F3F23
:1027F0009105A105B10581F178F1DB01CA01F6E08F
:10280000B695A79597958795FA95D1F723E08F3FD1
:102810009105A105B10501F1F8F0BB27A72F962F6F
:10282000852F24E08F3F9105A105B105A9F0A0F007
:10283000DB01CA015AE0B695A795979587955A95F9
:10284000D1F78F3F9105A105B10529F020F08FEF59
:1028500090E0A0E0B0E025E0819586BD25BD9CCF4D
:10286000FC012081223008F05DC061A572A583A51E
:1028700094A5609340057093410580934205909321
:10288000430540E4C42E4CE9D42EE12CF12CC09237
:102890004405D0924505E0924605F0924705213067
:1028A00051F410924E0510924F051092500510925F
:1028B000510510924D050E94CD10E0916305F091F5
:1028C000640586859785A089B189B595A795979563
:1028D0008795B095A095909581959F4FAF4FBF4F2D
:1028E00080935E0590935F05A0936005B0936105AA
:1028F00080935A0590935B05A0935C05B0935D05AA
:102900008093560590935705A0935805B0935905A9
:1029100010925205109253051092540510925505CD
:1029200010923B05C0916305D09164052881273042
:1029300008F0B2CEE22FF0E0E056FB4E0C943E1CC5
:10294000A714A7146C17C317C717C917CD173D8550
:102950003093620589819A81AB81BC8140915E058B
:1029600050915F056091600570916105840F951F1E
:10297000A61FB71F80935E0590935F05A093600527
:10298000B09361054E855F856889798918161906A7
:102990001A061B0624F5316030936205841B950BE3
:1029A000A60BB70B80935E0590935F05A09360051F
:1029B000B09361058091650590916605A0916705CA
:1029C000B091680533FF69C10197A109B1098093EE
:1029D000650590936605A0936705B09368058D81A2
:1029E0009E81AF81B885C0905A05D0905B05E0907C
:1029F0005C05F0905D058C0D9D1DAE1DBF1D809387
:102A00005A0590935B05A0935C05B0935D0518167D
:102A100019061A061B0634F53091620532603093B0
:102A20006205841B950BA60BB70B80935A059093F8
:102A30005B05A0935C05B0935D058091690590915D
:102A40006A05A0916B05B0916C0534FF2AC101970E
:102A5000A109B1098093690590936A05A0936B055C
:102A6000B0936C0589859A85AB85BC85C090560569
:102A7000D0905705E0905805F09059058C0D9D1D9C
:102A8000AE1DBF1D8093560590935705A093580522
:102A9000B0935905181619061A061B0634F530911D
:102AA0006205346030936205841B950BA60BB70B4F
:102AB0008093560590935705A0935805B0935905F8
:102AC00080916D0590916E05A0916F05B091700594
:102AD00035FFEBC00197A109B10980936D05909373
:102AE0006E05A0936F05B09370058091520590918B
:102AF0005305A0915405B09155050196A11DB11D36
:102B00008093520590935305A0935405B0935505B7
:102B100030916205E8E03E273093620584179507FF
:102B2000A607B70708F0CAC120913B05213009F07C
:102B3000C0C040914005509141056091420570919F
:102B400043054093370550933805609339057093DA
:102B50003A0589A59AA5ABA5BCA5481759076A07E8
:102B60007B0740F08093400590934105A093420578
:102B7000B093430580E49CE9A0E0B0E08093440575
:102B800090934505A0934605B09347056091400595
:102B90007091410580914205909143050E94CD10AE
:102BA00082E080933B05E0916305F09164058081AC
:102BB000813009F071CD8091520590915305A0911B
:102BC0005405B09155052AE0880F991FAA1FBB1F15
:102BD0002A95D1F740914E0550914F0560915005CF
:102BE00070915105452B462B472B41F480934E05A0
:102BF00090934F05A0935005B093510540914E0519
:102C000050914F05609150057091510584179507BB
:102C1000A607B70708F440CDFD9680819181A28177
:102C2000B381840F951FA61FB71F80934E05909305
:102C30004F05A0935005B0935105F8940E941902D6
:102C40007894E0916305F091640526A130E0220FAD
:102C5000331F682F6058770B269FC001279F900D68
:102C6000369F900D11246FEF70E00E94081C609356
:102C70004D0520914005309141054091420550910C
:102C80004305A62FB0E00E94441C22893389448961
:102C900055890E941C1C822F1DCD0196A11DB11DBE
:102CA00096CE0196A11DB11DD5CE0196A11DB11DD7
:102CB00014CF20913B05223009F03FC00E944510FF
:102CC000882309F470CF89A99AA9ABA9BCA940911E
:102CD0004005509141056091420570914305840F74
:102CE000951FA61FB71F8093400590934105A093A1
:102CF0004205B093430540913705509138056091E6
:102D0000390570913A0584179507A607B70750F063
:102D100040934005509341056093420570934305ED
:102D200010923B05609140057091410580914205EC
:102D3000909143050E94CD1036CF4DA95EA96FA991
:102D400078AD84179507A607B70778F50E94451058
:102D5000882309F428CF89A99AA9ABA9BCA94091D5
:102D60004005509141056091420570914305840FE3
:102D7000951FA61FB71F8093400590934105A09310
:102D80004205B09343054A895B896C897D89481760
:102D900059076A077B0730F6409340055093410579
:102DA0006093420570934305BDCF49AD5AAD6BADFD
:102DB0007CAD84179507A607B70769F480E49CE902
:102DC000A0E0B0E08093440590934505A0934605AC
:102DD000B0934705E8CE84179507A607B70708F410
:102DE00046C00E944510882309F4DDCE49A95AA99E
:102DF0006BA97CA98091400590914105A091420565
:102E0000B0914305481759076A077B0738F5841BBB
:102E1000950BA60BB70B8093400590934105A093AB
:102E20004205B09343058DA59EA5AFA5B8A94091D5
:102E30004005509141056091420570914305481746
:102E400059076A077B0708F06DCF80934005909380
:102E50004105A0934205B093430564CF109240050D
:102E6000109241051092420510924305DCCF6A8909
:102E70007B898C899D89C0904005D0904105E09068
:102E80004205F09043056C157D058E059F0551F0B8
:102E900060934005709341058093420590934305EC
:102EA0000E94CD10E0916305F0916405808181302E
:102EB00009F481CE86A10E940F1075CE213029F42D
:102EC00080E00E940F100E947F0210926405109211
:102ED00063050E94870FE0CBC0902E05D0902F0590
:102EE000E0903005F0903105C114D104E104F10403
:102EF000E9F420E030E04AE754E4FE01EF5BFF4FE5
:102F000060817181828193810E944E1B0E941B1BF4
:102F100060933205709333058093340590933505A3
:102F200060E67AEE80E090E00E94781080913205B1
:102F300090913305A0913405B0913505C816D90696
:102F4000EA06FB06B8F48EA10E940F1080912E05B0
:102F500090912F05A0913005B09131050196A11DEA
:102F6000B11D80932E0590932F05A0933005B0934B
:102F7000310592CB10922E0510922F05109230053C
:102F800010923105A2CF81E00E9428109ECF80E0F0
:102F9000FBCF81E00E942E1098CF80E0FBCF8F9274
:102FA0009F92AF92BF92CF92DF92EF92FF920F93D8
:102FB0001F93CF93DF9380913F058111F6C0E12CE1
:102FC000F12C8701A8019701C801B7010E949B0F4E
:102FD000E5E6F5E08CE0DF011D928A95E9F781E0F6
:102FE00080933605309B17C01F921F921F921F922D
:102FF000812CA12CB12CE8E4CE2EE4E4DE2EA80135
:10300000970160E070E080EA91E40E94C80A0F90A6
:103010000F900F900F90319B1AC01F921F921F921A
:103020001F92812CA12CB12C78E4C72E74E4D72EEA
:10303000E12CF12C8701A801970160E070E080EAA3
:1030400091EC0E94C80A0F900F900F900F90329B46
:103050001AC01F921F921F921F92812CA12CB12C7B
:1030600068E4C62E64E4D62EE12CF12C870120E022
:1030700030E040EA51E4C801B7010E94C80A0F904D
:103080000F900F900F90339B1AC01F921F921F92A8
:103090001F92812CA12CB12C58E4C52E54E4D52EBE
:1030A000E12CF12C870120E030E040EA51ECC8012E
:1030B000B7010E94C80A0F900F900F900F90809157
:1030C0003F05811175C01092360585E4982E9F92B8
:1030D000C8E4CF931F921F92A12CB12C6501E12C63
:1030E000F12C00E211E4A601950160EF73E284E7A0
:1030F00099EC0E946F11D4E4DF93CF931F921F923B
:10310000E12CF12C00E810E4A601950160EF73E2D8
:1031100084E799EC0E946F119F92CF931F921F92A8
:10312000A12CB12C30E2C32E31E4D32EE12CF12CB2
:10313000870120EF33E244E759ECC801B7010E9450
:103140006F11DF93CF931F921F92A12CB12C40E8F7
:10315000C42E40E4D42E20EF33E244E759ECC801FA
:10316000B7010E946F11A8019701C801B7010E9421
:103170009B0FE5E6F5E08CE0DF011D928A95E9F70B
:103180008DB79EB740960FB6F8949EBF0FBE8DBF09
:10319000DF91CF911F910F91FF90EF90DF90CF9033
:1031A000BF90AF909F908F9008950E94250303CF0A
:1031B0000E94250384CF5058BB27AA270E94F318EA
:1031C0000C94C41A0E94B61A38F00E94BD1A20F05E
:1031D00039F49F3F19F426F40C94B31A0EF4E095D9
:1031E000E7FB0C94841AE92F0E94D51A58F3BA17FA
:1031F000620773078407950720F079F4A6F50C940D
:103200000F1B0EF4E0950B2EBA2FA02D0B01B90168
:1032100090010C01CA01A0011124FF27591B99F04C
:10322000593F50F4503E68F11A16F040A22F232F58
:10323000342F4427585FF3CF469537952795A795A8
:10324000F0405395C9F77EF41F16BA0B620B730B4F
:10325000840BBAF09150A1F0FF0FBB1F661F771FC0
:10326000881FC2F70EC0BA0F621F731F841F48F475
:10327000879577956795B795F7959E3F08F0B0CFFE
:103280009395880F08F09927EE0F979587950895E5
:103290000E94F71A90F09F3748F4911116F40C949D
:1032A000101B60E070E080E89FE3089526F01B1695
:1032B000611D711D811D0C948A1A0C94A51A0E941F
:1032C000601A08F481E008950E9478190C94C41AD9
:1032D0000E94BD1A58F00E94B61A40F029F45F3FD0
:1032E00029F00C94841A51110C94101B0C94B31AED
:1032F0000E94D51A68F39923B1F3552391F3951BD6
:10330000550BBB27AA2762177307840738F09F5F06
:103310005F4F220F331F441FAA1FA9F335D00E2E73
:103320003AF0E0E832D091505040E695001CCAF7E0
:103330002BD0FE2F29D0660F771F881FBB1F2617A3
:1033400037074807AB07B0E809F0BB0B802DBF017A
:10335000FF2793585F4F3AF09E3F510578F00C9449
:10336000841A0C94101B5F3FE4F3983ED4F38695C7
:1033700077956795B795F7959F5FC9F7880F911D6A
:103380009695879597F90895E1E0660F771F881F56
:10339000BB1F621773078407BA0720F0621B730B09
:1033A000840BBA0BEE1F88F7E09508950E94DD1993
:1033B0006894B1110C94101B08950E94DD1A88F0D6
:1033C0009F5798F0B92F9927B751B0F0E1F0660FE9
:1033D000771F881F991F1AF0BA95C9F714C0B1302A
:1033E00091F00E940F1BB1E008950C940F1B672F02
:1033F000782F8827B85F39F0B93FCCF38695779559
:103400006795B395D9F73EF4909580957095619541
:103410007F4F8F4F9F4F0895E89409C097FB3EF46C
:1034200090958095709561957F4F8F4F9F4F992311
:10343000A9F0F92F96E9BB279395F695879577958F
:103440006795B795F111F8CFFAF4BB0F11F460FF4F
:103450001BC06F5F7F4F8F4F9F4F16C0882311F0A7
:1034600096E911C0772321F09EE8872F762F05C0BB
:10347000662371F096E8862F70E060E02AF09A9556
:10348000660F771F881FDAF7880F9695879597F94B
:1034900008950E94F71A90F09F3748F4911116F0A2
:1034A0000C94101B60E070E080E89FEB089526F418
:1034B0001B16611D711D811D0C948A1A0C94A51A8E
:1034C000990F0008550FAA0BE0E8FEEF1616170635
:1034D000E807F907C0F012161306E407F50798F09D
:1034E000621B730B840B950B39F40A2661F0232BB6
:1034F000242B252B21F408950A2609F4A140A69532
:103500008FEF811D811D089597F99F6780E870E016
:1035100060E00895882371F4772321F09850872B79
:10352000762F07C0662311F499270DC09051862B82
:1035300070E060E02AF09A95660F771F881FDAF72F
:10354000880F9695879597F908959F3F31F0915090
:1035500020F4879577956795B795880F911D969577
:10356000879597F908959FEF80EC089500240A94B9
:103570001616170618060906089500240A9412164E
:103580001306140605060895092E0394000C11F481
:10359000882352F0BB0F40F4BF2B11F460FF04C02E
:1035A0006F5F7F4F8F4F9F4F089557FD9058440F87
:1035B000551F59F05F3F71F04795880F97FB991F92
:1035C00061F09F3F79F0879508951216130614064F
:1035D000551FF2CF4695F1DF08C0161617061806DC
:1035E000991FF1CF869571056105089408950E9491
:1035F000DD1AA0F0BEE7B91788F4BB279F3860F446
:103600001616B11D672F782F8827985FF7CF8695FC
:1036100077956795B11D93959639C8F30895E89409
:10362000BB2766277727CB0197F908950E94601A78
:1036300008F48FEF08950E94DD1A58F19E5760F14B
:103640009851A0F0E9F0983020F5092E9927660FDF
:10365000771F881F991F0A94D1F712C0062E672F73
:10366000782F8827985F11F4000C07C0993FB4F3B6
:103670008695779567959395D9F7611D711D811D85
:103680003EF490958095709561957F4F8F4F9F4F39
:10369000089568940C94101B0C940F1B0E94611BDE
:1036A0000C94C41A0E94B61A38F00E94BD1A20F079
:1036B000952311F00C94841A0C94B31A11240C94D1
:1036C000101B0E94D51A70F3959FC1F3950F50E01F
:1036D000551F629FF001729FBB27F00DB11D639FC4
:1036E000AA27F00DB11DAA1F649F6627B00DA11D6A
:1036F000661F829F2227B00DA11D621F739FB00D10
:10370000A11D621F839FA00D611D221F749F33277F
:10371000A00D611D231F849F600D211D822F762F18
:103720006A2F11249F5750409AF0F1F088234AF0F5
:10373000EE0FFF1FBB1F661F771F881F9150504061
:10374000A9F79E3F510580F00C94841A0C94101B2D
:103750005F3FE4F3983ED4F3869577956795B795E8
:10376000F795E7959F5FC1F7FE2B880F911D969502
:10377000879597F9089519F416F40C94B31A0C94DC
:10378000A51A0E94DD1AB8F39923C9F3B6F39F571F
:10379000550B87FF0E94011C0024A0E640EA90011F
:1037A00080585695979528F4805C660F771F881F80
:1037B00020F026173707480730F4621B730B840B81
:1037C000202931294A2BA6951794079420253125C5
:1037D0004A2758F7660F771F881F20F026173707EC
:1037E000480730F4620B730B840B200D311D411D13
:1037F000A09581F7B901842F9158880F96958795E8
:10380000089591505040660F771F881FD2F7089592
:10381000AA1BBB1B51E107C0AA1FBB1FA617B707F6
:1038200010F0A61BB70B881F991F5A95A9F7809512
:103830009095BC01CD010895A1E21A2EAA1BBB1BD5
:10384000FD010DC0AA1FBB1FEE1FFF1FA217B3076C
:10385000E407F50720F0A21BB30BE40BF50B661F82
:10386000771F881F991F1A9469F760957095809546
:1038700090959B01AC01BD01CF010895EE0FFF1F94
:103880000590F491E02D09940E94571CA59F900D7E
:10389000B49F900DA49F800D911D11240895B7FF32
:1038A0000C94441C0E94441C821B930B0895A29FFD
:1038B000B001B39FC001A39F700D811D1124911D04
:1038C000B29F700D811D1124911D0895F894FFCFB2
:0238D0000101F4
:00000001FF
