:100000000C9434000C945B000C945B000C945B002B
:100010000C945B000C945B000C945B000C945B00F4
:100020000C945B000C947A110C945B000C948B1173
:100030000C945B000C945B000C945B000C945B00D4
:100040000C946E110C945B000C943E010C94E8002F
:100050000C945B000C945B000C945B000C945B00B4
:100060000C945B000C945B00EAEEF6E085EC98E003
:1000700001C08193EF3FF907E0F3D9F311241FBECC
:10008000CFEFD8E0DEBFCDBF11E0A0E0B1E0ECE9FA
:10009000F4E302C005900D92A230B107D9F726E033
:1000A000A2E0B1E001C01D92AA3EB207E1F70E94B2
:1000B0005D000C944C1A0C94000078940E948C0003
:1000C0000E9467020E94D20E0E940B110E94ED0E48
:1000D0000E940A0F0E944E0490E080E00895109262
:1000E0000301109202010895909109019F5F9038D9
:1000F00009F490E0209108012917E1F3E09109014A
:10010000F0E0E759F94F8083909309018091C10095
:1001100080628093C10008951092C50080E18093B1
:10012000C400E0ECF0E080818D7F8083E1ECF0E0C2
:100130008081806180838081886080838081806805
:1001400080838EE70C947400CF92DF92EF92FF923F
:10015000CF93C82FCB01BA0120E030E04AE754E446
:100160000E9428190E94F5186B017C0128EFF21AF1
:100170008C2D80680E947400D701C60127E0B695D7
:10018000A795979587952A95D1F780680E94740066
:10019000D701C6013EE0B695A795979587953A9504
:1001A000D1F780680E947400D701C60145E1B69579
:1001B000A795979587954A95D1F780680E94740016
:1001C0008C2FCF91FF90EF90DF90CF900C94740024
:1001D0001F920F920FB60F9211248F939F93EF935C
:1001E000FF9380910801909105019923D1F095E04A
:1001F0009093C600909105019150909305019091C4
:100200000901981305C08091C1008F7D8093C100C2
:10021000FF91EF919F918F910F900FBE0F901F90C4
:100220001895E82FF0E0E759F94F90819093C600B8
:100230008F5F803809F480E080930801E0CFE0917F
:100240000A01F0E0E759FA4F808190910A019F5F1F
:1002500090930A01909104019F5F90930401903163
:1002600061F4909105019F5F909305019091C10009
:1002700090629093C1001092040108951F920F9212
:100280000FB60F9211242F933F934F935F936F9369
:100290007F938F939F93AF93BF93CF93EF93FF93EE
:1002A000C091C600809100018823B1F01092000136
:1002B000C0930701FF91EF91CF91BF91AF919F91B3
:1002C0008F917F916F915F914F913F912F910F90FF
:1002D0000FBE0F901F90189581E0809300018091D0
:1002E00007018C1719F08DE30E94CF0FC031E8F49D
:1002F00081E2C13019F1C23069F410920301109209
:10030000020110920A0110920B01109204010E9446
:10031000E10FD0CFC33019F40E94AD02CBCF83E2FE
:10032000C43061F40E94B102C5CFE0910B0181E0BD
:100330008E0F90910A01981304C082E20E94CF0FA1
:10034000B9CFF0E0E759FA4FC08380930B01B2CFE9
:10035000CF93C1E080910301811115C01092060175
:10036000C1E090910A0180910B01981761F10E9400
:100370001F01803131F481E080930301109202016A
:1003800081E4CF91089580910201882371F0109249
:10039000060190910A0180910B01981749F00E9483
:1003A0001F01813111F4109203010E94C102D2CFCA
:1003B00080910601811104C00E94B502C09306011C
:1003C0000E94C102E6CF80910601811104C00E9403
:1003D000B502C09306010E94C102C3CF8091030100
:1003E000882361F080910201811108C090910A0177
:1003F00080910B01981304C00E94B50280E8089513
:100400000E941F0187FDFBCF813119F41092030177
:10041000F5CF83E20E94CF0FF1CF20910A01909196
:100420000B0181E0291301C080E0089581E08093F1
:10043000020108950F931F93E1E1F1E0638170E001
:1004400090E080E0605871098109910927E0660F0A
:10045000771F881F991F2A95D1F7028110E030E09D
:1004600020E00058110921093109600F711F821F16
:10047000931F37E0660F771F881F991F3A95D1F7B2
:10048000018110E030E020E0005811092109310914
:10049000600F711F821F931F47E0660F771F881F31
:1004A000991F4A95D1F72081620F711D811D911D01
:1004B00060587109810998400E94E81720E030E0F7
:1004C0004AE754E40E943E171F910F910895E6E118
:1004D000F1E081E0808340E050E068E474E442832E
:1004E0005383648375831682178210861186128661
:1004F00013861486158616864DEC5CEC6BE673EC61
:100500004787508B618B728B40E050E062E972EC60
:10051000438B548B658B768B40E050E060EA71EC46
:10052000478B508F618F728F9CE0E1E3F1E0DF0138
:10053000292F1D922A95E9F7EDE3F1E0DF011D92E5
:100540009A95E9F78093100180930F0110920E01A4
:1005500010920D0180930C01089581E080931001A9
:10056000089581E080930F01089580910D0190918D
:100570000E01019690930E0180930D0110920C01D3
:1005800008958F929F92AF92BF92CF92DF92EF9297
:10059000FF920F931F93CF934A9B02C04B9903C0C6
:1005A00080E00E94F40E0E94DE0F882391F10E94E9
:1005B000780E0E94B4106B017C010E94A3104B01C5
:1005C0005C010E94921087017601A50194010E94AE
:1005D0007D0E0E94921060932501709326018093F6
:1005E0002701909328010E94A31060932901709322
:1005F0002A0180932B0190932C010E94B4106093E8
:100600002D0170932E0180932F0190933001109251
:10061000150180911001811105C080910F0188237F
:1006200009F430C1109210010E944E0E811112C0C7
:100630000E940D0281110EC00E94DE0F81110AC0BE
:1006400081E40E94740083B7816083BF889583B77B
:100650008E7F83BF4A9903C082E40E9474004B9945
:1006600003C083E40E9474000E94DB0FC82F803215
:1006700011F00E947400309905C0C43219F084E270
:100680000E947400319905C0C53219F085E20E94BC
:100690007400329905C0C63219F086E20E947400D7
:1006A000339905C0CA3219F08AE20E947400349965
:1006B00005C0CB3219F08BE20E947400359905C059
:1006C000CD3219F08DE20E9474000E9492102DEC40
:1006D0003CEC4BE653E40E94B61620913101309178
:1006E000320140913301509134010E94B516AB01A3
:1006F000BC0188E70E94A4000E94A31020E030E023
:1007000042E952E40E94B61620913501309136013B
:1007100040913701509138010E94B516AB01BC01E0
:1007200089E70E94A4000E94B41020E030E040EA73
:1007300051E40E94B6162091390130913A0140915E
:100740003B0150913C010E94B516AB01BC018AE708
:100750000E94A40080910C01811110C060910D01D4
:1007600070910E0190E080E00E94E617AB01BC01A1
:1007700087E70E94A40081E080930C01EAEEF6E096
:10078000BF016A5E76408081853C09F473C090E0C9
:1007900080E00E94E617AB01BC0185E70E94A4003F
:1007A00080910F01882309F457C010920F0140E097
:1007B00050E86BEF74E486E70E94A4004091310199
:1007C00050913201609133017091340181E60E94B1
:1007D000A40040913501509136016091370170912C
:1007E000380182E60E94A4004091390150913A01FB
:1007F00060913B0170913C0183E60E94A40040910E
:1008000018015091190160911A0170911B0187E63E
:100810000E94A40060911C0170E090E080E00E94C2
:10082000E617AB01BC0188E60E94A40040911D01BF
:1008300050911E0160911F017091200189E60E9474
:10084000A4004091210150912201609123017091F7
:1008500024018AE60E94A40086E0CF911F910F91A7
:10086000FF90EF90DF90CF90BF90AF909F908F90D0
:100870000C94740088E0EF3FF80711F008F087CF80
:1008800031967ECFCF911F910F91FF90EF90DF9027
:10089000CF90BF90AF909F908F90089531E3232E1B
:1008A00031E0332ECCE0412C512C40EA642E41EC57
:1008B000742ED1E00E94A801182F0E94DE0F882319
:1008C00019F00E94C102F6CF17FDA5C2EFEBE10FB0
:1008D000EA3108F03FC1EF3008F038C1F0E0ED58E0
:1008E000FB4F0C94181AE8048204DC04AF04EB04F8
:1008F000EE04F104F604FB043A056B059C05A00523
:10090000A205A405A0901801B0901901C0901A0189
:10091000D0901B01E0902D01F0902E0100912F014D
:10092000109130012091290130912A0140912B0131
:1009300050912C0160912501709126018091270131
:10094000909128011F921F921F921F9280901C016C
:100950000E94D1080F900F900F900F9039C0A09077
:100960001801B0901901C0901A01D0901B01E090BD
:100970002D01F0902E0100912F0110913001209156
:10098000290130912A0140912B0150912C01609155
:100990002501709126018091270190912801E09115
:1009A0002401EF93E0912301EF93E0912201EF9373
:1009B000E0912101EF93CACF60911D0170911E015A
:1009C00080911F019091200140911C010E94120E04
:1009D0001092150176CF10921601FACFD09316011E
:1009E000F7CF8091160180931701F2CF8091170104
:1009F00080931601EDCF0E941715D101EC2F1D92A7
:100A0000EA95E9F78DEC9CECABE6B3EC809325011D
:100A100090932601A0932701B093280180E090E0F5
:100A2000A2E9B2EC8093290190932A01A0932B01B3
:100A3000B0932C0140922D0150922E0160922F0113
:100A400070923001A0901801B0901901C0901A0165
:100A5000D0901B011F921F921F921F92812CE12C9C
:100A6000F12C00EA11EC9C01AD016DEC7CEC8BE605
:100A700093EC6ECF8091310190913201A0913301BE
:100A8000B091340180933D0190933E01A0933F01CA
:100A9000B09340018091350190913601A0913701CA
:100AA000B09138018093410190934201A09343019A
:100AB000B09344018091390190913A01A0913B019A
:100AC000B0913C018093450190934601A09347016A
:100AD000B09348017DCF80913D0190913E01A0915E
:100AE0003F01B09140018093310190933201A09376
:100AF0003301B09334018091410190914201A09162
:100B00004301B09144018093350190933601A09345
:100B10003701B09338018091450190914601A09131
:100B20004701B09148018093390190933A01A09315
:100B30003B01B0933C014CCF83E00E94390E48CF7B
:100B400084E0FBCF85E0F9CF86E0F7CF8CE30E940D
:100B5000CF0F3ECF8FE9810F8A3108F05AC18091C3
:100B60001501843009F053C11456173108F04DC1F6
:100B7000E12FF0E0E254FA4F0C94181A6B060507C7
:100B8000590605078106AD06D906050705070507BD
:100B90000507050776060507050764060507050727
:100BA00005070507D50501062D06109116010E94BF
:100BB0001A021130D9F42DEC3CEC4BE653E40E94C0
:100BC000B5169B01AC0160913101709132018091A9
:100BD0003301909134010E94B61660932501709301
:100BE00026018093270190932801F2CE9B01AC014E
:100BF0006091250170912601809127019091280133
:100C0000EACF109116010E941A021130D9F420E0A7
:100C100030E042E952E40E94B5169B01AC016091BC
:100C200035017091360180913701909138010E9411
:100C3000B6166093290170932A0180932B0190933B
:100C40002C01C6CE9B01AC016091290170912A0153
:100C500080912B0190912C01EACF109116010E94F6
:100C60001A021130D9F420E030E040EA51E40E9449
:100C7000B5169B01AC016091390170913A018091E8
:100C80003B0190913C010E94B61660932D01709338
:100C90002E0180932F01909330019ACE9B01AC01DD
:100CA00060912D0170912E0180912F019091300162
:100CB000EACF0E941A026093180170931901809381
:100CC0001A0190931B0184CE0E941A020E94B7174A
:100CD00060931C017DCE0E941A0260931D017093E7
:100CE0001E0180931F019093200172CE0E941A0270
:100CF000609321017093220180932301909324013A
:100D000067CE0E941A026B017C018091160181302E
:100D100059F4C0923101D0923201E0923301F09245
:100D2000340156CE0E94C1020E94CC0F8111FACF2D
:100D30000E9492102DEC3CEC4BE653E40E94B61658
:100D4000A70196010E94B61660933101709332019B
:100D500080933301909334013BCE0E941A026B01C1
:100D60007C0180911601813059F4C0923501D092F6
:100D70003601E0923701F09238012ACE0E94C1027A
:100D80000E94CC0F8111FACF0E94A31020E030E026
:100D900042E952E40E94B616A70196010E94B616D7
:100DA0006093350170933601809337019093380139
:100DB0000FCE0E941A026B017C01809116018130D6
:100DC00059F4C0923901D0923A01E0923B01F0927D
:100DD0003C01FECD0E94C1020E94CC0F8111FACFCE
:100DE0000E94B41020E030E040EA51E40E94B616C0
:100DF000A70196010E94B6166093390170933A01DB
:100E000080933B0190933C01E3CD8EE3A0CE8AE337
:100E10009ECE83E29CCEE0911501E43048F481E05F
:100E20008E0F80931501F0E0EF5EFE4F108349CDE9
:100E30008AE30E94CF0F45CD4F925F926F927F92CF
:100E40008F929F92AF92BF92CF92DF92EF92FF92DA
:100E50000F931F93CF93DF93CDB7DEB762970FB693
:100E6000F894DEBF0FBECDBF9A8B898B2A013B0160
:100E70005901FC0162897389848995890E94E6176A
:100E80006B017C01A30192010E9428190E94221784
:100E90000E94B7172B013C01E989FA8941A652A6A5
:100EA00063A674A6A5019801C701B6010E9428197E
:100EB0000E9422170E94B7174B015C01E989FA8949
:100EC00085A696A6A7A6B0AA21A932A943A954A986
:100ED000A0EEBEE20E941E1A69837A838B839C83F4
:100EE0000E94E8176D837E838F839887C301B201C8
:100EF0000E94E6172B013C01A7019601C701B6012C
:100F00000E9428196B017C01A3019201C301B20167
:100F10000E94281969877A878B879C872D813E815B
:100F20004F815885CA01B9010E94B6166D877E8728
:100F30008F87988B29853A854B855C85C701B601DB
:100F40000E94B5162D853E854F8558890E943E1713
:100F50000E9422170E94B0172B013C01C501B40169
:100F60000E94E6179B01AC010E9428194B015C010D
:100F7000A70196010E94B5166B017C0169817A81F7
:100F80008B819C8190958095709561957F4F8F4F57
:100F90009F4F0E94E8179B01AC010E94B6169B016F
:100FA000AC01C701B6010E943E170E942318E989CF
:100FB000FA89C684D784E088F188A70196012419AC
:100FC00035094609570929833A834B835C830E947C
:100FD000B01729813A814B815C81261B370B480B66
:100FE000590BDA01C901B7FF3BC0C701B6010E9426
:100FF000E8172D853E854F8558890E942819298537
:101000003A854B855C850E94B516A50194010E9426
:10101000B6164B015C0120E030E040E850E46D8101
:101020007E818F8198850E9428199B01AC01C501A2
:10103000B4010E943E170E9422170E94B01797FF2A
:1010400003C060E070E0CB0126013701641575052F
:101050008605970514F42B013C0180E090E0DC014B
:10106000E989FA8945AA56AA67AA70AE840D951D2A
:10107000A61DB71D81AF92AFA3AFB4AF62960FB6F6
:10108000F894DEBF0FBECDBFDF91CF911F910F91BE
:10109000FF90EF90DF90CF90BF90AF909F908F9098
:1010A0007F906F905F904F9008954F925F926F92F4
:1010B0007F92AF92BF92CF92DF92EF92FF920F9307
:1010C0001F93CF93DF938C01EB01FC01428C538C77
:1010D000648C758CAA8CBB8CCC8CDD8C9501A601A4
:1010E000C301B2010E94391787FF37C0A3019201E3
:1010F000C301B2010E9428192B013C0120E030E518
:1011000043E458ECF80162A173A184A195A10E9467
:1011100028199B01AC01C301B2010E94B5160E94BF
:101120009B197B018C019B01AC01B501C6010E949A
:10113000391787FF02C0750186019701A801B50123
:10114000C6010E943917882341F0C701D8018A8F50
:101150009B8FAC8FBD8F81E08FA3DF91CF911F91CB
:101160000F91FF90EF90DF90CF90BF90AF907F9066
:101170006F905F904F900895CF93DF938F5F8E3085
:1011800009F480E0C82F880FDD0B809165018C1772
:101190001D0621F0CE01DF91CF9108950E94C1027A
:1011A000F4CF2F923F924F925F926F927F928F92E5
:1011B0009F92AF92BF92CF92DF92EF92FF920F93E6
:1011C0001F93CF93DF93CDB7DEB7A1970FB6F894F7
:1011D000DEBF0FBECDBF29013A01E982FA820B833F
:1011E0001C83AD82BE82CF82D886CEA8DFA8E8ACB1
:1011F000F9AC2DEC3CEE4BE154E40E9428190E941E
:10120000F518698B7A8B8B8B9C8B2DEC3CEE4BE12C
:1012100054E4C301B2010E9428190E94F5186D8B95
:101220007E8B8F8B988F26E636EA48E454E46981FA
:101230007A818B819C810E9428190E94F518698F00
:101240007A8F8B8F9C8F8091660190E00E94BC0802
:1012500089A380916601282E312C20E030E0A9017D
:10126000C701B6010E943917882309F499C285E4A1
:10127000829D8001839D100D112409591E4F81E02C
:10128000D8018C932DEC3CEE4BE154E4C701B60140
:101290000E94281920E030E040E854E40E94281918
:1012A0000E94F518F801FD96608371838283938311
:1012B00085E4829DF001839DF00D1124E959FE4FD4
:1012C00086A215868091590190915A01A0915B01E7
:1012D000B0915C0149885A886B887C884816590609
:1012E0006A067B0614F428E0258780905D019090C3
:1012F0005E01A0905F01B09060014D885E886F88AC
:10130000788C481459046A047B045CF425E4229D1B
:10131000F001239DF00D1124E959FE4F2585206130
:101320002587C0906101D0906201E0906301F09048
:101330006401498C5A8C6B8C7C8C4C145D046E045B
:101340007F045CF425E4229DF001239DF00D11241F
:10135000E959FE4F25852062258749885A886B8880
:101360007C88481A590A6A0A7B0AC301B20197FFAE
:1013700007C0442455243201461A570A680A790ADC
:1013800045E4429D9001439D300D112429593E4F63
:10139000D90111964D925D926D927C9214970D89B0
:1013A0001E892F89388D081919092A093B09480116
:1013B000590189829A82AB82BC82B7FE0BC0222778
:1013C0003327A901281939094A095B0929833A8376
:1013D0004B835C8345E4429D9001439D300D112475
:1013E000D901A959BE4F09811A812B813C811596DB
:1013F0000D931D932D933C931897298D3A8D4B8D0A
:101400005C8D2C193D094E095F0969017A01CD8671
:10141000DE86EF86F88AF7FE0BC0002711279801B9
:101420000C191D092E093F090D871E872F87388B40
:10143000E5E4E29DA001E39D500D112449595E4F62
:101440000D851E852F853889DA0119960D931D9318
:101450002D933C931C9749865A866B867C8609811E
:101460001A812B813C81401651066206730620F4D6
:1014700009871A872B873C8749845A846B847C842C
:101480002D853E854F85588942165306640675069C
:1014900010F429013A0125E4229D8001239D100DBD
:1014A000112409591E4FD8011E964D925D926D92DE
:1014B0007C925197411451046104710409F499C359
:1014C0000E94E8172DEC3CEE4BE154E40E943E17DD
:1014D00069877A878B879C87C501B4010E94E817CA
:1014E0002DEC3CEE4BE154E40E943E176D877E8765
:1014F0008F87988BC701B6010E94E81726E636EA67
:1015000048E454E40E943E174B015C0129853A856A
:101510004B855C85CA01B9010E9428196B017C01C9
:101520002D853E854F855889CA01B9010E94281929
:101530009B01AC01C701B6010E94B6166B017C018C
:10154000A5019401C501B4010E9428199B01AC01B9
:10155000C701B6010E94B6160E949B1969837A835F
:101560008B839C83F80162A373A384A395A39B013F
:10157000AC0160E070E080E89FE30E943E176B01E1
:101580007C018D819E81AF81B885F801868B978B18
:10159000A08FB18FC301B2010E94E8172B013C015B
:1015A0002D813E814F815885C701B6010E942819BF
:1015B000A30192010E9428190E9422170E94B717C6
:1015C000D80152966D937D938D939C935597A70167
:1015D0009601C301B2010E94281920E030E543ECD6
:1015E00057E40E94281920E030E84BE356E40E94BB
:1015F0003E170E9422170E94B717F80161AB72AB29
:1016000083AB94ABA701960169857A858B859C8510
:101610000E94281969877A878B879C87A701960182
:101620006D857E858F8598890E9428196D877E87B4
:101630008F87988BA7019601C501B4010E942819D4
:101640002B013C019091660180916501981709F486
:10165000B1C0C0904901D0904A01E0904B01F09098
:101660004C0120E030E0A901B601C7010E94F0184A
:1016700018160CF09FC060914D0170914E01809141
:101680004F0190915001905829853A854B855C8592
:101690000E9428194B015C012091510130915201A7
:1016A00040915301509154016D857E858F859889B5
:1016B0000E9428199B01AC01C501B4010E94B51616
:1016C0004B015C0120915501309156014091570129
:1016D00050915801C301B2010E9428199B01AC012D
:1016E000C501B4010E94B5164B015C0123E333E34D
:1016F00043E75FE30E94391787FF5CC02D813E817D
:101700004F815885B601C7010E94391787FD04C073
:10171000CD80DE80EF80F88423E333E343E75FEBA3
:10172000C501B4010E94F01818160CF047C0A501BD
:10173000940160E070E080E89FE30E94B51620E02D
:1017400030E040E05FE30E9428190E949B194B01A2
:101750005C0120E030E046E154E40E9428196D8FDE
:101760007E8F8F8F98A3A501940160E070E080E8E0
:101770009FE30E94B5169B01AC016D8D7E8D8F8D10
:1017800098A10E943E170E949B194B015C01960193
:10179000A7010E94F01818168CF0640175010EC0A4
:1017A00085E4829DF001839DF00D1124E959FE4FDF
:1017B00010827ECDC12CD12CE12CF12C85E4829DB0
:1017C000F001839DF00D1124E959FE4FC601D701A8
:1017D000868F978FA0A3B1A320E030E543E458ECB7
:1017E00069817A818B819C810E9428199B01AC01BF
:1017F00060E070E0CB010E94B5160E949B194B017E
:101800005C019B01AC01B601C7010E94391787FD3D
:1018100002C06401750185E4829D8001839D100DE5
:10182000112409591E4FC601D701F801828F938FE9
:10183000A48FB58F9401A5016D817E818F819885DC
:101840000E94391718160CF4E2C081E0D80198966E
:101850008C9385E4829DF001839DF00D1124E9595C
:10186000FE4F81E087A309851A852B853C8500936F
:101870004D0110934E0120934F01309350012D855F
:101880003E854F85588920935101309352014093F2
:101890005301509354014092550150925601609269
:1018A0005701709258018D819E81AF81B8858093D8
:1018B000490190934A01A0934B01B0934C0149A078
:1018C0004092660149885A886B887C884092590109
:1018D00050925A0160925B0170925C014D885E8863
:1018E0006F88788C40925D0150925E0160925F013A
:1018F00070926001498C5A8C6B8C7C8C4092610197
:10190000509262016092630170926401F0906601EE
:10191000F0E0E0E010E000E0209165018F2D0F2C59
:10192000000C990B2817190609F074C0F090650196
:1019300010E000E090E080E025E4E22E40916601B6
:101940002F2D0F2C000C330B4217130609F0D9C0B2
:10195000009759F00115110541F0DC0198962C9182
:10196000211103C0B8010E945508D0906501F12CE7
:10197000E12C85E4C82E8D2D0D2C000C990B2091A7
:1019800066012817190609F0D9C0D70156968D901F
:101990009D90AD90BC905997A50194015A966D9178
:1019A0007D918D919C915D970E943E172B013C018A
:1019B000F7018081A5019401813009F00BC1C501B7
:1019C000B4010E943E178B019C01B301A201C70123
:1019D0000E941C07D70197961C92A1960FB6F89407
:1019E000DEBF0FBECDBFDF91CF911F910F91FF9052
:1019F000EF90DF90CF90BF90AF909F908F907F90AF
:101A00006F905F904F903F902F900C94AE0FF80125
:101A100010A61FCFF11002C03EE0F32EFA942F2D36
:101A200035E42302C0011124AC0149595E4F6A011B
:101A30000115110509F45DC0309709F45AC0D801A9
:101A400098968C9198975E969C905E975F96AC90D6
:101A50005F979096BC9090979196EC9081114CC0B6
:101A6000428C538C648C758CA3019201692D7A2D64
:101A70008B2D9E2D0E94F0181816F4F5A3019201EB
:101A8000C301B2010E9428191B012C0120E030E59E
:101A900043E458ECF80162A173A184A195A10E94CE
:101AA00028199B01AC01C201B1010E94B5160E9428
:101AB0009B19362E472E582E892E262F372F482F2A
:101AC000592F692D7A2D8B2D9E2D0E94391787FF56
:101AD00003C0392C25018E2C832D942DA52DB82DD6
:101AE000F801828F938FA48FB58FE1E0D80197968C
:101AF000EC93F801860110CF892D9A2DAB2DBE2DC8
:101B0000EFCFFF2D4E2DF40290011124D901A959D8
:101B1000BE4F6D01009751F00115110539F0FC0120
:101B200020A5211103C0B8010E945508F394FEE0DE
:101B3000FF1201C0F12CC801860100CFBD2DEC2D94
:101B4000BE0290011124890109591E4F1801E114A8
:101B5000F104C9F1D70197962C9121110AC0C89EB2
:101B6000F001C99EF00D1124E959FE4F27A122234F
:101B700051F1F70146885788608C718CC89EF0013E
:101B8000C99EF00D1124E959FE4FA3019201628D07
:101B9000738D848D958D0E943E174B015C01A301CE
:101BA0009201D7015A966D917D918D919C915D978F
:101BB0000E943E17AB01BC0195018401C7010E9440
:101BC0001C07F70117A2D394FEE0DF1201C0D12C4D
:101BD0007101D1CE60E070E0CB010E943E178B0115
:101BE0009C01B301A201C7010E941C07F70117A2C3
:101BF000F4CEA1960FB6F894DEBF0FBECDBFDF9135
:101C0000CF911F910F91FF90EF90DF90CF90BF90F9
:101C1000AF909F908F907F906F905F904F903F908C
:101C20002F900895CF92DF92EF92FF92CF936B01A6
:101C30007C01C42F8091660190E00E94BC08E09175
:101C4000660195E4E99FF0011124E959FE4F92E005
:101C50009083C6A3EF5BFF4FC082D182E282F38202
:101C600080936601CF91FF90EF90DF90CF900C941E
:101C7000AE0FCF93C82F8091660190E00E94BC0800
:101C8000E091660195E4E99FF0011124E959FE4FC6
:101C9000C08380936601CF910C94AE0F20916601B2
:101CA0009091650181E0291301C080E00895909131
:101CB000660180916501981749F08091650125E4DE
:101CC000829FC001112489599E4F089590E080E0C1
:101CD00008959091660180916501981741F0809177
:101CE00065018F5F8E3009F480E08093650108956F
:101CF000809166018093650108958F929F92AF92C3
:101D0000BF92CF92DF92EF92FF920F931F93CF93E8
:101D1000DF9349015A0167012DEC3CEE4BE154E49D
:101D20000E9428190E94F518C9E5D1E068837983DB
:101D30008A839B832DEC3CEE4BE154E4C501B40156
:101D40000E9428190E94F5186C837D838E839F83DF
:101D500026E636EA48E454E4C801B6010E94281990
:101D60000E94F518688779878A879B8710924901B6
:101D700010924A0110924B0110924C01EDE4F1E0F7
:101D80008CE0DF011D928A95E9F7DF91CF911F91D9
:101D90000F91FF90EF90DF90CF90BF90AF909F900A
:101DA0008F900895EF92FF920F931F931092660108
:101DB00010926501E12CF12C00EA11EC20E030E0FA
:101DC00042E952EC6DEC7CEC8BE693EC0E947D0ECC
:101DD0001F910F91FF90EF9008958AB1837F8AB988
:101DE00087B1807C87B908954A9B02C04B9902C095
:101DF00017BC089587BD089587B50895882311F00D
:101E00005C9A08955C980895882311F05D9A08956E
:101E10005D980895569A17BC81E884BD82E085BD1F
:101E2000549A80E00E94FE0E559A80E00C94040FB4
:101E300080913D0590913E05A0913F05B0914005F0
:101E400040914105509142056091430570914405D0
:101E5000840F951FA61FB71F813828E3920721E042
:101E6000A207B10550F480933D0590933E05A093E1
:101E70003F05B093400580E0089580589843A14005
:101E8000B10980933D0590933E05A0933F05B09323
:101E9000400581E008959B01AC01203486E03807BD
:101EA0004105510520F420E436E040E050E060E0D8
:101EB00070E788E399E30E94F619B90190E02115D3
:101EC000310581E048075105B0F02115310588E062
:101ED0004807510520F563E05695479537952795B6
:101EE0006A95D1F7B901E3E0220F331F441F551F54
:101EF000EA95D1F791E080918100887F9F5F892BDF
:101F0000809381007093890060938800209341053D
:101F1000309342054093430550934405089586E06D
:101F200056954795379527958A95D1F7B90196E04B
:101F3000220F331F441F551F9A95D1F792E0DBCF34
:101F40000E944B0FE0915B05F0915C058081813030
:101F500019F480E00C94F40E86A1FCCF8091380532
:101F600081110BC081E08093380588E380935A0586
:101F700080916F00826080936F0008951092380501
:101F800010925C0510925B05EFE6F0E080818D7F9A
:101F9000808380E00C94F40E809138050895909130
:101FA0003705911107C08093360581E0809337058E
:101FB0000C946F000895809136050895809137053F
:101FC000089580E2809336051092370508954F9268
:101FD0005F926F927F928F92AF92BF92CF92DF9279
:101FE000EF92FF920F931F93CF93DF93CDB7DEB79E
:101FF0002C970FB6F894DEBF0FBECDBF69837A83EE
:102000008B839C832D833E834F8358872701380120
:10201000A986BA86CB86DC8680913805811179C085
:10202000E12CF12C8701A8019701C801B7010E949A
:102030007D0EEDE5F5E08CE0DF011D928A95E9F774
:102040001F921F921F921F92812CAEA0BFA0C8A406
:10205000D9A4830172012D813E814F815885698108
:102060007A818B819C810E94D1080F900F900F90F4
:102070000F908091380581114FC0E12CF12C870120
:10208000A8019701C801B7010E947D0EEDE5F5E0BA
:102090008CE0DF011D928A95E9F70E94E10F81E053
:1020A000809335051F921F921F921F92812CAEA024
:1020B000BFA0C8A4D9A4EAA0FBA00CA11DA12E8D8D
:1020C0003F8D48A159A169857A858B859C850E94A1
:1020D000D1080F900F900F900F90809138058111CB
:1020E0001EC0109235052C960FB6F894DEBF0FBEB9
:1020F000CDBFDF91CF911F910F91FF90EF90DF90B7
:10210000CF90BF90AF908F907F906F905F904F90E7
:1021100008950E94C10280CF0E94C102AACF0E94EE
:10212000C102DBCF60915D0570915E0580915F0516
:10213000909160050E94E8172DEC3CEE4BE154E4D1
:102140000E943E170895609161057091620580912B
:102150006305909164050E94E8172DEC3CEE4BE17D
:1021600054E40E943E1708956091650570916605DC
:1021700080916705909168050E94E81726E636EA87
:1021800048E454E40E943E1708958F929F92AF92C4
:10219000BF92CF92DF92EF92FF920F931F93CF9354
:1021A000DF9349015A0167012DEC3CEE4BE154E409
:1021B0000E9428190E94F518CDE5D5E0688379833F
:1021C0008A839B832DEC3CEE4BE154E4C501B401C2
:1021D0000E9428190E94F5186C837D838E839F834B
:1021E00026E636EA48E454E4C801B6010E942819FC
:1021F0000E94F518688779878A879B87DF91CF913E
:102200001F910F91FF90EF90DF90CF90BF90AF9014
:102210009F908F900895EF92FF920F931F9384B138
:102220008F6384B985B1807C886385B9E1E8F0E08B
:1022300080818F7E8083808188608083E0E8F0E009
:1022400080818D7F808380818E7F808380818F736A
:10225000808380818F7C80831092B0001092B100C7
:10226000E0E7F0E080818160808360E476E080E0F8
:1022700090E00E944B0F80E00E94F40EEDE5F5E047
:102280008CE0DF011D928A95E9F7E12CF12C00EA40
:1022900011EC20E030E042E952EC6DEC7CEC8BE696
:1022A00093EC0E94C51010923D0510923E051092CD
:1022B0003F051092400510925C0510925B0510924C
:1022C000370580E28093360510924505109235055A
:1022D0001F910F91FF90EF900C94BE0F1F920F92E1
:1022E0000FB60F9211245E9815BC0F900FBE0F9081
:1022F0001F9018951F920F920FB60F9211248F9373
:1023000085B1887F85B91092B1008F910F900FBE73
:102310000F901F9018951F920F920FB60F921124D5
:10232000CF92DF92EF92FF922F933F934F935F9361
:102330006F937F938F939F93AF93BF93CF93DF93CD
:10234000EF93FF938091450581110DC081E080934B
:102350004505809137058823E9F00E94BE0F0E9451
:10236000780E10924505FF91EF91DF91CF91BF91CB
:10237000AF919F918F917F916F915F914F913F911D
:102380002F91FF90EF90DF90CF900F900FBE0F90A6
:102390001F90189580913505811121C04A9B02C07C
:1023A0004B9903C080E00E94F40E309904C084E28F
:1023B0000E94CF0FD6CF319902C085E2F9CF329972
:1023C00002C086E2F5CF339902C08AE2F1CF349998
:1023D00002C08BE2EDCF359902C08DE2E9CF25B185
:1023E00090915A05987385B1877C892B85B928739C
:1023F0002913B7CF85B1887F90915A05892B85B96C
:102400008AEF8093B20082E08093B100789480914B
:102410005B0590915C05892B09F06AC00E94570EFC
:1024200090935C0580935B05009719F40E94BE0FA2
:1024300098CFFC012081223008F05AC061A572A516
:1024400083A594A56093390570933A0580933B0565
:1024500090933C0550E4C52E5CE9D52EE12CF12C7F
:10246000C0923D05D0923E05E0923F05F0924005B6
:102470000E94A00FE0915B05F0915C0580818130A6
:1024800041F41092460510924705109248051092AB
:10249000490586859785A089B189B595A7959795B2
:1024A0008795B095A095909581959F4FAF4FBF4F61
:1024B0008093560590935705A0935805B0935905FE
:1024C0008093520590935305A0935405B0935505FE
:1024D00080934E0590934F05A0935005B0935105FE
:1024E00010924A0510924B0510924C0510924D0522
:1024F000C0915B05D0915C052881273008F031CF71
:10250000E22FF0E0EA57FD4E0C94181A8D128D124E
:10251000B4140B150F15111515153D8530935A057B
:1025200089819A81AB81BC814091560550915705B4
:102530006091580570915905840F951FA61FB71F0C
:102540008093560590935705A0935805B09359056D
:102550004E855F8568897989181619061A061B0643
:1025600024F5316030935A05841B950BA60BB70BED
:102570008093560590935705A0935805B09359053D
:1025800080915D0590915E05A0915F05B091600519
:1025900033FFF3C00197A109B10980935D059093C2
:1025A0005E05A0935F05B09360058D819E81AF812C
:1025B000B885C0905205D0905305E0905405F09036
:1025C00055058C0D9D1DAE1DBF1D8093520590932A
:1025D0005305A0935405B0935505181619061A060D
:1025E0001B0634F530915A05326030935A05841B2E
:1025F000950BA60BB70B8093520590935305A093B0
:102600005405B09355058091610590916205A091A4
:102610006305B091640534FFB4C00197A109B10905
:102620008093610590936205A0936305B093640560
:1026300089859A85AB85BC85C0904E05D0904F05A5
:10264000E0905005F09051058C0D9D1DAE1DBF1DF5
:1026500080934E0590934F05A0935005B09351057C
:10266000181619061A061B0634F530915A053460FF
:1026700030935A05841B950BA60BB70B80934E0520
:1026800090934F05A0935005B09351058091650537
:1026900090916605A0916705B091680535FF75C0FA
:1026A0000197A109B1098093650590936605A093F0
:1026B0006705B093680580914A0590914B05A091FC
:1026C0004C05B0914D050196A11DB11D80934A05A1
:1026D00090934B05A0934C05B0934D0530915A054E
:1026E000E8E33E2730935A0584179507A607B707F6
:1026F00008F02FC14DA95EA96FA978AD8417950781
:10270000A607B70708F045C00E94180F882309F4F0
:1027100028CE89A99AA9ABA9BCA9409139055091A5
:102720003A0560913B0570913C05840F951FA61FEB
:10273000B71F8093390590933A05A0933B05B0935A
:102740003C054A895B896C897D89481759076A0766
:102750007B0740F44093390550933A0560933B055D
:1027600070933C056091390570913A0580913B0565
:1027700090913C050E94A00FF4CD0196A11DB11DC2
:102780000CCF0196A11DB11D4BCF0196A11DB11D0E
:102790008ACF49AD5AAD6BAD7CAD84179507A607BE
:1027A000B70769F480E49CE9A0E0B0E080933D05C0
:1027B00090933E05A0933F05B0934005D2CD84177A
:1027C0009507A607B70708F446C00E94180F88238C
:1027D00009F4C7CD49A95AA96BA97CA980913905EB
:1027E00090913A05A0913B05B0913C0548175907D7
:1027F0006A077B0738F5841B950BA60BB70B8093F4
:10280000390590933A05A0933B05B0933C058DA5FF
:102810009EA5AFA5B8A94091390550913A056091A0
:102820003B0570913C05481759076A077B0708F07C
:1028300099CF8093390590933A05A0933B05B093C7
:102840003C0590CF1092390510923A0510923B0545
:1028500010923C05DCCF6A897B898C899D89C09068
:102860003905D0903A05E0903B05F0903C056C1599
:102870007D058E059F0551F06093390570933A05EB
:1028800080933B0590933C050E94A00FE0915B056F
:10289000F0915C058081813009F059C080914A0532
:1028A00090914B05A0914C05B0914D053AE0880FF1
:1028B000991FAA1FBB1F3A95D1F740914605509129
:1028C00047056091480570914905452B462B472BDC
:1028D00041F48093460590934705A0934805B09333
:1028E0004905409146055091470560914805709112
:1028F000490584179507A607B70708F432CDFD965A
:1029000080819181A281B381840F951FA61FB71F7B
:102910008093460590934705A0934805B0934905D9
:10292000F8940E94EE0178948058990B880F991FB3
:102930006FEF70E00E94E219E0915B05F0915C0599
:1029400086A1869F802D11240E94F40E0ACD86A1B7
:10295000FBCF213011F40E94160210925C051092F8
:102960005B050E94690EFDCCC0902D05D0902E0510
:10297000E0902F05F0903005C114D104E104F1047A
:10298000E9F420E030E04AE754E4FE01EF5BFF4F5A
:1029900060817181828193810E9428190E94F518BB
:1029A000609331057093320580933305909334051D
:1029B00060E67AEE80E090E00E944B0F8091310556
:1029C00090913205A0913305B0913405C816D9060F
:1029D000EA06FB06B8F48EA10E94F40E80912D0544
:1029E00090912E05A0912F05B09130050196A11D63
:1029F000B11D80932D0590932E05A0932F05B093C4
:102A00003005AFCC10922D0510922E0510922F0597
:102A100010923005A2CF81E00E94FE0E9ECF80E092
:102A2000FBCF81E00E94040F98CF80E0FBCF5F9244
:102A30006F927F928F929F92AF92BF92CF92DF92CE
:102A4000EF92FF920F931F93CF93DF9380913805FE
:102A5000811185C1E12CF12C8701A8019701C801E2
:102A6000B7010E947D0EEDE5F5E08CE0DF011D92DF
:102A70008A95E9F781E080933505309917C01F9258
:102A80001F921F921F92812CA12CB12C80EAC82E7C
:102A900082E4D82EA801970160E070E080EA91E41A
:102AA0000E94D1080F900F900F900F9031991AC08B
:102AB0001F921F921F921F92812CA12CB12C10EA01
:102AC000C12E12E4D12EE12CF12C8701A80197012F
:102AD00060E070E080EA91EC0E94D1080F900F90C6
:102AE0000F900F9032991AC01F921F921F921F923F
:102AF000812CA12CB12CD0EACD2ED2E4DD2EE12CFC
:102B0000F12C870120E030E040EA51E4C801B70130
:102B10000E94D1080F900F900F900F9033991AC018
:102B20001F921F921F921F92812CA12CB12CC0EAE0
:102B3000CC2EC2E4DC2EE12CF12C870120E030E029
:102B400040EA51ECC801B7010E94D1080F900F90E4
:102B50000F900F9034991AC01F921F921F921F92CC
:102B6000812CA12CB12CA0EACA2EA2E4DA2EE12CF1
:102B7000F12C00EA11E420E030E0A901CA01B9011A
:102B80000E94D1080F900F900F900F9035991AC0A6
:102B90001F921F921F921F92812CA12CB12CE0EA50
:102BA000CE2EE2E4DE2EE12CF12C00EA11EC20E046
:102BB00030E0A901CA01B9010E94D1080F900F901D
:102BC0000F900F90809138058111CCC0109235057F
:102BD00083E4982E9F92C0EACF931F921F9291ECAC
:102BE000592E5F9220E2622E6F921F921F921F92C7
:102BF0001F921F921F92A12CB12C650110EFE12EA4
:102C000013E2F12E04E719E4A6019501C601B5010E
:102C10000E94E70FD2E4DF93CF931F921F9240EC04
:102C2000742E7F9250E8852E8F921F921F921F92D2
:102C30001F921F921F92A6019501C601B5010E9425
:102C4000E70F9F92CF931F921F921F921F921F9286
:102C50001F921F921F921F921F92A12CB12C60E213
:102C6000C62E61ECD62EE12CF12C8701A80197012C
:102C700060EF73E284E799E40E94E70F8DB79EB797
:102C800084960FB6F8949EBF0FBE8DBFDF93CF938F
:102C90001F921F921F921F921F921F921F921F92AC
:102CA0001F921F92A12CB12C70E8C72E70ECD72E6A
:102CB000A801970160EF73E284E799E40E94E70FAF
:102CC0009F92CF931F921F921F921F921F921F924B
:102CD0005F926F921F921F925701680120EF33E2BB
:102CE00044E759E4C801B7010E94E70FDF93CF938F
:102CF0001F921F921F921F921F921F927F928F927C
:102D00001F921F9220EF33E244E759E4C801B70154
:102D10000E94E70FADB7BEB794960FB6F894BEBF4A
:102D20000FBEADBFA8019701C801B7010E947D0E7B
:102D3000EDE5F5E08CE0DF011D928A95E9F7DF9182
:102D4000CF911F910F91FF90EF90DF90CF90BF90A8
:102D5000AF909F908F907F906F905F9008950E94AA
:102D6000C10274CE0E94C1022DCF5058BB27AA27A2
:102D70000E94CD160C949E180E94901838F00E9464
:102D8000971820F039F49F3F19F426F40C948D180D
:102D90000EF4E095E7FB0C945E18E92F0E94AF1843
:102DA00058F3BA17620773078407950720F079F480
:102DB000A6F50C94E9180EF4E0950B2EBA2FA02D71
:102DC0000B01B90190010C01CA01A0011124FF27D8
:102DD000591B99F0593F50F4503E68F11A16F040D3
:102DE000A22F232F342F4427585FF3CF46953795D2
:102DF0002795A795F0405395C9F77EF41F16BA0B97
:102E0000620B730B840BBAF09150A1F0FF0FBB1F44
:102E1000661F771F881FC2F70EC0BA0F621F731F8D
:102E2000841F48F4879577956795B795F7959E3FEA
:102E300008F0B0CF9395880F08F09927EE0F97957B
:102E4000879508950E94D11890F09F3748F491110A
:102E500016F40C94EA1860E070E080E89FE30895AF
:102E600026F01B16611D711D811D0C9464180C94B5
:102E70007F180E943A1808F481E008950E945217C2
:102E80000C949E180E94971858F00E94901840F0D9
:102E900029F45F3F29F00C945E1851110C94EA1844
:102EA0000C948D180E94AF1868F39923B1F3552341
:102EB00091F3951B550BBB27AA276217730784074D
:102EC00038F09F5F5F4F220F331F441FAA1FA9F3E3
:102ED00035D00E2E3AF0E0E832D091505040E695D1
:102EE000001CCAF72BD0FE2F29D0660F771F881F32
:102EF000BB1F261737074807AB07B0E809F0BB0B25
:102F0000802DBF01FF2793585F4F3AF09E3F510538
:102F100078F00C945E180C94EA185F3FE4F3983E46
:102F2000D4F3869577956795B795F7959F5FC9F721
:102F3000880F911D9695879597F90895E1E0660FA2
:102F4000771F881FBB1F621773078407BA0720F01B
:102F5000621B730B840BBA0BEE1F88F7E095089584
:102F60000E94B7176894B1110C94EA1808950E9452
:102F7000B71888F09F5798F0B92F9927B751B0F03C
:102F8000E1F0660F771F881F991F1AF0BA95C9F7ED
:102F900014C0B13091F00E94E918B1E008950C948A
:102FA000E918672F782F8827B85F39F0B93FCCF33D
:102FB000869577956795B395D9F73EF4909580956A
:102FC000709561957F4F8F4F9F4F0895E89409C08A
:102FD00097FB3EF490958095709561957F4F8F4F4C
:102FE0009F4F9923A9F0F92F96E9BB279395F69562
:102FF000879577956795B795F111F8CFFAF4BB0FE0
:1030000011F460FF1BC06F5F7F4F8F4F9F4F16C043
:10301000882311F096E911C0772321F09EE8872FCD
:10302000762F05C0662371F096E8862F70E060E089
:103030002AF09A95660F771F881FDAF7880F969502
:10304000879597F908950E94D11890F09F3748F41A
:10305000911116F00C94EA1860E070E080E89FEBA4
:10306000089526F41B16611D711D811D0C946418B2
:103070000C947F18990F0008550FAA0BE0E8FEEF9B
:1030800016161706E807F907C0F012161306E4072C
:10309000F50798F0621B730B840B950B39F40A2625
:1030A00061F0232B242B252B21F408950A2609F403
:1030B000A140A6958FEF811D811D089597F99F6707
:1030C00080E870E060E00895882371F4772321F0B0
:1030D0009850872B762F07C0662311F499270DC0CF
:1030E0009051862B70E060E02AF09A95660F771F6A
:1030F000881FDAF7880F9695879597F908959F3F6F
:1031000031F0915020F4879577956795B795880FA2
:10311000911D9695879597F908959FEF80EC0895F6
:1031200000240A94161617061806090608950024A6
:103130000A9412161306140605060895092E039420
:10314000000C11F4882352F0BB0F40F4BF2B11F494
:1031500060FF04C06F5F7F4F8F4F9F4F089557FDF3
:103160009058440F551F59F05F3F71F04795880FF5
:1031700097FB991F61F09F3F79F08795089512168C
:1031800013061406551FF2CF4695F1DF08C0161638
:1031900017061806991FF1CF8695710561050894E9
:1031A00008950E94B718A0F0BEE7B91788F4BB27AE
:1031B0009F3860F41616B11D672F782F8827985F07
:1031C000F7CF869577956795B11D93959639C8F396
:1031D0000895E894BB2766277727CB0197F90895D0
:1031E0000E943A1808F48FEF08950E94B71858F11A
:1031F0009E5760F19851A0F0E9F0983020F5092E23
:103200009927660F771F881F991F0A94D1F712C05C
:10321000062E672F782F8827985F11F4000C07C0BF
:10322000993FB4F38695779567959395D9F7611D86
:10323000711D811D3EF490958095709561957F4F2D
:103240008F4F9F4F089568940C94EA180C94E918D6
:103250000E943B190C949E180E94901838F00E940E
:10326000971820F0952311F00C945E180C948D188B
:1032700011240C94EA180E94AF1870F3959FC1F3C3
:10328000950F50E0551F629FF001729FBB27F00D14
:10329000B11D639FAA27F00DB11DAA1F649F662769
:1032A000B00DA11D661F829F2227B00DA11D621FB8
:1032B000739FB00DA11D621F839FA00D611D221F72
:1032C000749F3327A00D611D231F849F600D211D56
:1032D000822F762F6A2F11249F5750409AF0F1F0D9
:1032E00088234AF0EE0FFF1FBB1F661F771F881F42
:1032F00091505040A9F79E3F510580F00C945E1804
:103300000C94EA185F3FE4F3983ED4F386957795E2
:103310006795B795F795E7959F5FC1F7FE2B880FE7
:10332000911D9695879597F9089519F416F40C94C4
:103330008D180C947F180E94B718B8F39923C9F31D
:10334000B6F39F57550B87FF0E94DB190024A0E6B8
:1033500040EA900180585695979528F4805C660F56
:10336000771F881F20F026173707480730F4621BA5
:10337000730B840B202931294A2BA69517940794A7
:10338000202531254A2758F7660F771F881F20F020
:1033900026173707480730F4620B730B840B200D98
:1033A000311D411DA09581F7B901842F9158880FD7
:1033B00096958795089591505040660F771F881F06
:1033C000D2F7089597FB072E16F4009407D077FDE7
:1033D00009D00E94291A07FC05D03EF490958195EA
:1033E0009F4F0895709561957F4F0895A1E21A2E21
:1033F000AA1BBB1BFD010DC0AA1FBB1FEE1FFF1F99
:10340000A217B307E407F50720F0A21BB30BE40BE8
:10341000F50B661F771F881F991F1A9469F760952F
:103420007095809590959B01AC01BD01CF010895E9
:10343000EE0FFF1F0590F491E02D09940E943D1AB4
:10344000A59F900DB49F900DA49F800D911D1124F8
:103450000895AA1BBB1B51E107C0AA1FBB1FA617DB
:10346000B70710F0A61BB70B881F991F5A95A9F72D
:1034700080959095BC01CD010895A29FB001B39FA6
:10348000C001A39F700D811D1124911DB29F700D6D
:0C349000811D1124911D0895F894FFCFB8
:02349C0001002D
:00000001FF
