:100000000C9461000C9488000C9488000C94880077
:100010000C9488000C9488000C9488000C94880040
:100020000C9488000C94CF110C9488000C94E0116F
:100030000C9488000C9488000C9488000C94880020
:100040000C94C3110C9488000C947D010C94210134
:100050000C9488000C9488000C9488000C94880000
:100060000C9488000C9488001907AA04FE04CF049D
:100070000B050E05110516051B0559058A05BB055F
:10008000BD05BF05C10579061207670612078F0671
:10009000BC06E906120712071207120712078406A8
:1000A0001207120772061207120712071207DE055F
:1000B0000C063A06391339136815BF15C115C51555
:1000C000C715EAEEF6E085EC98E001C08193EF3FBA
:1000D000F907E0F3D9F311241FBECFEFD8E0DEBF5C
:1000E000CDBF11E0A0E0B1E0ECE2F5E302C0059085
:1000F0000D92A230B107D9F726E0A2E0B1E001C02D
:100100001D92AA3EB207E1F70E948A000C94941A4D
:100110000C94000078940E94B9000E94A8020E94EA
:10012000DD0E0E9463110E94F50E0E94210F0E94B5
:10013000860480E090E0089510920301109202017D
:100140000895909109019F5F903809F490E0209103
:1001500008019217E1F3E0910901F0E0E659F94F47
:100160008083909309018091C10080628093C100D7
:1001700008951092C50080E18093C400E0ECF0E0A7
:1001800080818D7F8083E1ECF0E0808180618083DD
:100190008081886080838081806880838EE70C9472
:1001A000A100CF92DF92EF92FF92CF93C82FCB01A5
:1001B000BA0120E030E04AE754E40E9468190E9446
:1001C00035196B017C0128EFF21A8C2D80680E9492
:1001D000A100D701C60180789F73AA27BB2727E01B
:1001E000B695A795979587952A95D1F780580E943F
:1001F000A100D701C6018827907CAF71BB273EE0E4
:10020000B695A795979587953A95D1F780580E940E
:10021000A100D701C60188279927A07EBF7045E1BC
:10022000B695A795979587954A95D1F780580E94DE
:10023000A1008C2FCF91FF90EF90DF90CF900C9486
:10024000A1001F920F920FB60F9211248F939F93CC
:10025000EF93FF938091080190910501992349F054
:1002600095E09093C60090910501915090930501FF
:100270000DC0E82FF0E0E659F94F90819093C60049
:100280008F5F803809F480E0809308019091090124
:10029000891305C08091C1008F7D8093C100FF91BB
:1002A000EF919F918F910F900FBE0F901F90189517
:1002B000E0910A01F0E0E659FA4F808190910A013D
:1002C0009F5F90930A012FB7F894909104019F5F6C
:1002D0009093040190910401903110F42FBF089580
:1002E000909105019F5F909305019091C1009062EC
:1002F0009093C10010920401F1CF1F920F920FB69C
:100300000F9211242F933F934F935F936F937F939B
:100310008F939F93AF93BF93CF93EF93FF93C0912E
:10032000C60080910001882329F010920001C0933B
:1003300007013DC081E08093000180910701C8174B
:1003400019F08DE30E942E10C031F8F4C13011F481
:1003500081E224C0C23069F41092030110920201BC
:1003600010920A0110920B01109204010E94401099
:100370001EC0C33019F40E94E60219C0C43019F43B
:100380000E94EA0214C083E209C0E0910B0181E0FF
:100390008E0F90910A01891304C082E20E942E10F0
:1003A00006C0F0E0E659FA4FC08380930B01FF913D
:1003B000EF91CF91BF91AF919F918F917F916F916D
:1003C0005F914F913F912F910F900FBE0F901F9013
:1003D0001895CF93C1E080910301882301F18091AA
:1003E00002018823C9F01092060190910A018091C0
:1003F0000B0198130BC080910601811104C00E946B
:10040000EE02C09306010E94FA02EFCF0E9458014B
:10041000813111F4109203010E94FA02DCCF109294
:100420000601C1E090910A0180910B0198130BC065
:1004300080910601811104C00E94EE02C093060162
:100440000E94FA02EFCF0E945801803131F481E01E
:10045000809303011092020181E4CF91089580916D
:1004600003018823C9F080910201811115C0909188
:100470000A0180910B01981303C00E94EE020CC088
:100480000E94580187FD09C0813119F410920301BF
:1004900003C083E20E942E1080E8089520910A0193
:1004A00090910B0181E0291301C080E0089581E063
:1004B000809302010895E1E1F1E0438150E060E0C2
:1004C00070E0405851096109710987E0440F551FD8
:1004D000661F771F8A95D1F7828190E0A0E0B0E097
:1004E00080589109A109B109840F951FA61FB71F54
:1004F000AC01BD0197E0440F551F661F771F9A9509
:10050000D1F7818190E0A0E0B0E080589109A10985
:10051000B109840F951FA61FB71F27E0880F991FE9
:10052000AA1FBB1F2A95D1F72081820F911DA11D03
:10053000B11DBC01CD0160587109810998400E942C
:10054000281820E030E04AE754E40E947E1708951E
:10055000E6E1F1E081E0808340E050E06AEF75E49D
:1005600042835383648375831682178210861186B3
:100570001286138614861586168640E050E060EADF
:1005800070E44787508B618B728B438B548B658BE8
:10059000768B178A108E118E128E9CE0E1E3F1E0CB
:1005A000DF01292F1D922A95E9F7EDE3F1E0DF0144
:1005B0001D929A95E9F78093100180930F01109294
:1005C0000E0110920D0180930C01089581E080933B
:1005D0001001089581E080930F01089580910D012D
:1005E00090910E01019690930E0180930D0110924F
:1005F0000C0108958F929F92AF92BF92CF92DF929B
:10060000EF92FF920F931F93CF9329B189B1982F47
:10061000991F9927991F22FB882780F9892B11F4AC
:100620004B9B03C080E00E94FC0E0E943D1088237B
:1006300091F10E94820E0E940B116B017C010E94BD
:10064000FA104B015C010E94E91087017601A501B7
:1006500094010E94870E0E94E91060932501709317
:10066000260180932701909328010E94FA1060933D
:10067000290170932A0180932B0190932C010E94F1
:100680000B1160932D0170932E0180932F01909395
:1006900030011092150180911001811105C08091E7
:1006A0000F01882309F426C1109210010E94580EF0
:1006B000811112C00E944E0281110EC00E943D1095
:1006C00081110AC081E40E94A10083B7816083BFC9
:1006D000889583B78E7F83BF29B189B1982F991FE1
:1006E0009927991F22FB882780F9892B19F082E42A
:1006F0000E94A1004B9B03C083E40E94A1000E94C2
:100700003A10C82F803211F00E94A100309B05C022
:10071000C43219F084E20E94A100319B05C0C532A9
:1007200019F085E20E94A100329B05C0C63219F083
:1007300086E20E94A100339B05C0CA3219F08AE20A
:100740000E94A1000E94E91020E030E040EA50E45D
:100750000E94F51620913101309132014091330110
:10076000509134010E94F516AB01BC0188E70E944C
:10077000D1000E94FA1020E030E040EA50E40E94EC
:10078000F516209135013091360140913701509195
:1007900038010E94F516AB01BC0189E70E94D10027
:1007A0000E940B112091390130913A0140913B0197
:1007B00050913C010E94F516AB01BC018AE70E94F2
:1007C000D10080910C01811110C060910D017091D8
:1007D0000E0180E090E00E942618AB01BC0187E783
:1007E0000E94D10081E080930C01EAEEF6E0BF01A7
:1007F0006A5E76408081853C09F466C080E090E0C6
:100800000E942618AB01BC0185E70E94D1008091AF
:100810000F01882309F460C010920F0140E050EEF0
:1008200062E275E486E70E94D10040913101509167
:100830003201609133017091340181E60E94D10050
:100840004091350150913601609137017091380126
:1008500082E60E94D1004091390150913A016091A5
:100860003B0170913C0183E60E94D1004091180148
:100870005091190160911A0170911B0187E60E9445
:10088000D10060911C0170E080E090E00E94261889
:10089000AB01BC0188E60E94D10040911D0150913E
:1008A0001E0160911F017091200189E60E94D10014
:1008B0004091210150912201609123017091240106
:1008C0008AE60E94D10008C088E0EF3FF80711F0E7
:1008D00008F094CF31968BCF86E0CF911F910F9186
:1008E000FF90EF90DF90CF90BF90AF909F908F9050
:1008F0000C94A100CF911F910F91FF90EF90DF908A
:10090000CF90BF90AF909F908F900895C1E3D1E0BA
:100910008CE0982E772473940E94E901182F0E948E
:100920003D10882319F00E94FA02F6CF17FD84C209
:100930008FEB810F8A3108F02AC1812F90E0FC01F2
:10094000E154F109EF30F10508F01FC1EC5CFF4FF5
:100950000C94581AA0901801B0901901C0901A0177
:10096000D0901B01E0902D01F0902E0100912F01FD
:10097000109130012091290130912A0140912B01E1
:1009800050912C01609125017091260180912701E1
:10099000909128011F921F921F921F922CC0A0902D
:1009A0001801B0901901C0901A01D0901B01E0907D
:1009B0002D01F0902E0100912F0110913001209116
:1009C000290130912A0140912B0150912C01609115
:1009D0002501709126018091270190912801E091D5
:1009E0002401EF93E0912301EF93E0912201EF9333
:1009F000E0912101EF9380901C0154C060911D0192
:100A000070911E0180911F019091200140911C0165
:100A10000E941C0E0EC2109216010BC2709216019B
:100A200008C2809116018093170103C280911701BB
:100A300080931601FEC10E94E915FE01892D1192D5
:100A40008A95E9F780E090E0A0EAB0E48093250180
:100A500090932601A0932701B09328018093290148
:100A600090932A01A0932B01B0932C0110922D0199
:100A700010922E0110922F0110923001A0901801B7
:100A8000B0901901C0901A01D0901B011F921F92C3
:100A90001F921F92812CE12CF12C87019C01AD014A
:100AA000BC01CD010E94E4080F900F900F900F90B1
:100AB000C0C18091310190913201A0913301B09178
:100AC000340180933D0190933E01A0933F01B09388
:100AD00040018091350190913601A0913701B0918C
:100AE00038018093410190934201A0934301B09358
:100AF00044018091390190913A01A0913B01B0915C
:100B00003C018093450190934601A0934701B09327
:100B100048018FC180913D0190913E01A0913F011C
:100B2000B09140018093310190933201A093330141
:100B3000B09334018091410190914201A091430111
:100B4000B09144018093350190933601A093370111
:100B5000B09338018091450190914601A0914701E1
:100B6000B09148018093390190933A01A0933B01E1
:100B7000B0933C015EC183E005C084E003C085E022
:100B800001C086E00E94430E54C18CE350C18FE93E
:100B9000810F8A3108F04AC180911501843009F033
:100BA00043C1812F90E0FC01E456F109E731F105E2
:100BB00008F038C1ED5BFF4F0C94581A8091160174
:100BC000813099F40E945B0220E030E040EA50E47A
:100BD0000E94F6169B01AC016091310170913201C7
:100BE00080913301909134010CC00E945B029B0103
:100BF000AC016091250170912601809127019091AF
:100C000028010E94F61660932501709326018093B7
:100C10002701909328010DC180911601813099F42C
:100C20000E945B0220E030E040EA50E40E94F616A9
:100C30009B01AC01609135017091360180913701C3
:100C4000909138010CC00E945B029B01AC01609145
:100C5000290170912A0180912B0190912C010E9411
:100C6000F6166093290170932A0180932B019093CB
:100C70002C01DFC080911601813091F40E945B024B
:100C800020E030E0A9010E94F6169B01AC016091C2
:100C9000390170913A0180913B0190913C010CC067
:100CA0000E945B029B01AC0160912D0170912E01AD
:100CB00080912F01909130010E94F61660932D01D2
:100CC00070932E0180932F0190933001B2C00E9447
:100CD0005B02609318017093190180931A0190933D
:100CE0001B01A7C00E945B020E94F71760931C01C2
:100CF000A0C00E945B0260931D0170931E0180934F
:100D00001F019093200195C00E945B026093210116
:100D10007093220180932301909324018AC00E9442
:100D20005B026B017C0180911601813049F4C09215
:100D30003101D0923201E0923301F092340179C056
:100D40000E942B10882319F00E94FA02F9CF0E940A
:100D5000E91020E030E040EA50E40E94F516A701D7
:100D600096010E94F61660933101709332018093D0
:100D70003301909334015DC00E945B026B017C01E2
:100D800080911601813049F4C0923501D09236012C
:100D9000E0923701F09238014CC00E942B1088235A
:100DA00019F00E94FA02F9CF0E94FA1020E030E018
:100DB00040EA50E40E94F516A70196010E94F6163B
:100DC0006093350170933601809337019093380119
:100DD00030C00E945B026B017C0180911601813062
:100DE00049F4C0923901D0923A01E0923B01F0926D
:100DF0003C011FC00E942B10882319F00E94FA02A8
:100E0000F9CF0E940B119B01AC01C701B6010E94F2
:100E1000F6166093390170933A0180933B019093E9
:100E20003C0107C08EE303C08AE301C083E20E9455
:100E30002E101092150177CDE0911501E43048F4A1
:100E400081E08E0F80931501F0E0EF5EFE4F10837E
:100E50006ACD8AE30E942E1066CD4F925F926F9208
:100E60007F928F929F92AF92BF92CF92DF92EF923A
:100E7000FF920F931F93CF93DF93CDB7DEB76297A7
:100E80000FB6F894DEBF0FBECDBF9A8B898B2A01B7
:100E90003B0148015901FC01628973898489958964
:100EA0000E9426186B017C01A30192010E9468191F
:100EB0000E9462170E94F7172B013C01E989FA8909
:100EC00061A772A783A794A7A5019401C701B601E2
:100ED0000E9468190E9462170E94F7174B015C017B
:100EE000E989FA8965A776A787A790AB21A932A9D6
:100EF00043A954A9A0EEBEE20E945E1A69837A83D8
:100F00008B839C830E9428186D837E838F839887B0
:100F1000C301B2010E9426182B013C01A7019601D2
:100F2000C701B6010E9468196B017C01A3019201FF
:100F3000C301B2010E94681969877A878B879C87F1
:100F40002D813E814F815885CA01B9010E94F61654
:100F50006D877E878F87988B29853A854B855C8541
:100F6000C701B6010E94F5162D853E854F8558892B
:100F70000E947E170E9462170E94F0172B013C010D
:100F8000C501B4010E9426189B01AC010E9468199A
:100F90004B015C01A70196010E94F5166B017C01D3
:100FA00069817A818B819C819095809570956195FE
:100FB0007F4F8F4F9F4F0E9428189B01AC010E94CA
:100FC000F6169B01AC01C701B6010E947E170E9474
:100FD0006318E989FA89C684D784E088F188A70173
:100FE0009601241935094609570929833A834B8309
:100FF0005C830E94F01729813A814B815C81261B1A
:10100000370B480B590BDA01C90157FF3BC0C70129
:10101000B6010E9428182D853E854F8558890E946B
:10102000681929853A854B855C850E94F516A501CE
:1010300094010E94F6164B015C0120E030E040E88C
:1010400050E46D817E818F8198850E9468199B0193
:10105000AC01C501B4010E947E170E9462170E9474
:10106000F01797FF03C060E070E0CB012601370165
:101070006C157D058E059F0514F42B013C0180E065
:1010800090E0DC01E989FA8945AA56AA67AA70AE00
:10109000480E591E6A1E7B1E41AE52AE63AE74AE40
:1010A00062960FB6F894DEBF0FBECDBFDF91CF9131
:1010B0001F910F91FF90EF90DF90CF90BF90AF9076
:1010C0009F908F907F906F905F904F9008954F9278
:1010D0005F926F927F92AF92BF92CF92DF92EF9228
:1010E000FF920F931F93CF93DF938C01EB01FC01D1
:1010F000428C538C648C758CAA8CBB8CCC8CDD8C14
:101100009501A601C301B2010E94791787FF37C07C
:10111000A3019201C301B2010E9468192B013C0195
:1011200020E03AEB4BE55AECF80162A173A184A1EF
:1011300095A10E9468199B01AC01C301B2010E94F4
:10114000F5160E94DB197B018C019B01AC01B501F6
:10115000C6010E94791787FF02C0750186019701B9
:10116000A801B501C6010E947917882341F0C70183
:10117000D8018A8F9B8FAC8FBD8F81E08FA3DF91C9
:10118000CF911F910F91FF90EF90DF90CF90BF9084
:10119000AF907F906F905F904F900895CF93DF93C3
:1011A0008F5F8E3009F480E0C82F880FDD0B8091AF
:1011B000650190E0C817D90719F40E94FA02F7CF29
:1011C000CE01DF91CF9108952F923F924F925F927F
:1011D0006F927F928F929F92AF92BF92CF92DF9247
:1011E000EF92FF920F931F93CF93DF93CDB7DEB7AC
:1011F000A1970FB6F894DEBF0FBECDBF29013A010B
:10120000EA82FB820C831D83A982BE82CF82D886AC
:10121000CEA8DFA8E8ACF9AC2CE137EC41EB52E406
:101220000E9468190E943519698B7A8B8B8B9C8B75
:1012300024E731ED45EB52E4C301B2010E94681985
:101240000E9435196D8B7E8B8F8B988F25E535E548
:1012500045E052E46A817B818C819D810E946819FE
:101260000E943519698F7A8F8B8F9C8F80916601D0
:1012700090E00E94CE0889A380916601282E312C2F
:1012800020E030E0A901C701B6010E947917882348
:1012900011F185E4829D8001839D100D112409596F
:1012A0001E4F81E0D8018C932CE137EC41EB52E4E6
:1012B000C701B6010E94681920E030E040E854E41C
:1012C0000E9468190E943519F801FD9660837183A8
:1012D0008283938309C085E4829DF001839DF00D94
:1012E0001124E959FE4F108285E4829DF001839D0F
:1012F000F00D1124E959FE4F86A2158680915901FF
:1013000090915A01A0915B01B0915C0149885A8883
:101310006B887C88481659066A067B0614F428E018
:10132000258780905D0190905E01A0905F01B09054
:1013300060014D885E886F88788C481459046A046F
:101340007B045CF425E4229DF001239DF00D112423
:10135000E959FE4F258520612587C0906101D09015
:101360006201E0906301F0906401498C5A8C6B8CAF
:101370007C8C4C145D046E047F045CF425E4229D97
:10138000F001239DF00D1124E959FE4F25852062BF
:10139000258749885A886B887C88481A590A6A0ABE
:1013A0007B0AC301B20177FE07C0442455243201F1
:1013B000461A570A680A790A45E4429D9001439DFE
:1013C000300D1124F901E959FE4F418252826382A6
:1013D00074822D893E894F89588D281939094A0907
:1013E0005B0949015A012A833B834C835D8357FF84
:1013F0000BC022273327A901281939094A095B099B
:101400002A833B834C835D8345E4429D9001439D49
:10141000300D1124F901E959FE4F2A813B814C819D
:101420005D812583368347835087298D3A8D4B8D87
:101430005C8D2C193D094E095F0969017A012D87E0
:101440003E874F87588B57FF0BC022273327A901B0
:101450002C193D094E095F092D873E874F87588B10
:10146000E5E4E29DA001E39D500D1124FA01E95944
:10147000FE4F2D853E854F855889218732874387CA
:10148000548749865A866B867C862A813B814C81AB
:101490005D81421653066406750620F429873A8753
:1014A0004B875C8749845A846B847C842D853E8578
:1014B0004F855889421653066406750610F42901B3
:1014C0003A0125E4229D8001239D100D1124095924
:1014D0001E4FD8011E964D925D926D927C9251974F
:1014E000411451046104710409F48DC30E94281849
:1014F0002CE137EC41EB52E40E947E1769877A8732
:101500008B879C87C501B4010E94281824E731ED20
:1015100045EB52E40E947E176D877E878F87988BFC
:10152000C701B6010E94281825E535E545E052E4DB
:101530000E947E174B015C0129853A854B855C85AD
:10154000CA01B9010E9468196B017C012D853E8595
:101550004F855889CA01B9010E9468199B01AC01E5
:10156000C701B6010E94F6166B017C01A50194012A
:10157000C501B4010E9468199B01AC01C701B60105
:101580000E94F6160E94DB196A837B838C839D83FD
:10159000F80162A373A384A395A39B01AC0160E04F
:1015A00070E080E89FE30E947E176B017C018981D7
:1015B0009E81AF81B885F801868B978BA08FB18F04
:1015C000C301B2010E9428182B013C0129813E81F0
:1015D0004F815885C701B6010E946819A301920185
:1015E0000E9468190E9462170E94F717D80152964C
:1015F0006D937D938D939C935597A3019201C701A1
:10160000B6010E94681920E03AEB4BED59E40E94C4
:10161000681920E030E84BE356E40E947E170E94F0
:1016200062170E94F717F80161AB72AB83AB94AB02
:10163000A701960169857A858B859C850E9468192A
:1016400069877A878B879C87A70196016D857E8540
:101650008F8598890E9468196D877E878F87988B00
:10166000A7019601C501B4010E9468192B013C0134
:101670009091660180916501981709F4ABC0E090E4
:101680004901F0904A0100914B0110914C0120E07A
:1016900030E0A901B701C8010E94301918160CF0FA
:1016A00099C080914D0190914E01A0914F01B09150
:1016B0005001BC01CD01905829853A854B855C8548
:1016C0000E9468194B015C01209151013091520137
:1016D00040915301509154016D857E858F85988985
:1016E0000E9468199B01AC01C501B4010E94F51666
:1016F0004B015C01209155013091560140915701F9
:1017000050915801C301B2010E9468199B01AC01BC
:10171000C501B4010E94F5164B015C0123E333E3DC
:1017200043E75FE30E94791787FF54C09701A80140
:1017300069817E818F8198850E943019181624F066
:10174000E980FE800F81188523E333E343E75FEBF5
:10175000C501B4010E94301918160CF03FC0A50154
:10176000940160E070E080E89FE30E94F51620E0BD
:1017700030E040E05FE30E9468190E94DB194B01F2
:101780005C0120E030EC48E256E40E9468196D8F5D
:101790007E8F8F8F98A3A501940160E070E080E8B0
:1017A0009FE30E94F5169B01AC016D8D7E8D8F8DA0
:1017B00098A10E947E170E94DB195B016C019B01BE
:1017C000AC01B701C8010E94791787FD07C07501F8
:1017D000860104C0E12CF12C00E010E085E4829D3C
:1017E000F001839DF00D1124E959FE4FC701D80186
:1017F000868F978FA0A3B1A320E03AEB4BE55AEC7C
:101800006A817B818C819D810E9468199B01AC015A
:1018100060E070E0CB010E94F5160E94DB195B01CD
:101820006C019B01AC01B701C8010E94791787FDCB
:1018300004C075019C2D8D2D02C0902F812F25E4B1
:10184000229D8001239D100D112409591E4FA701CF
:10185000692F782FD8015A964D935D936D937C93A1
:101860005D979501A60169817E818F8198850E948F
:101870007917181624F081E0F80180A703C0D80179
:1018800098961C9285E4829DF001839DF00D1124B1
:10189000E959FE4F81E087A329853A854B855C8510
:1018A00020934D0130934E0140934F0150935001CE
:1018B0008D859E85AF85B8898093510190935201A3
:1018C000A0935301B0935401409255015092560198
:1018D000609257017092580189819E81AF81B885CD
:1018E0008093490190934A01A0934B01B0934C011E
:1018F00049A04092660149885A886B887C8840924A
:10190000590150925A0160925B0170925C014D88BE
:101910005E886F88788C40925D0150925E01609283
:101920005F0170926001498C5A8C6B8C7C8C409268
:101930006101509262016092630170926401F090C3
:101940006601E0E0F0E000E010E08091650190E0E9
:101950002F2D0F2C000C330B2817390709F47DC0ED
:10196000F11002C03EE0F32EFA9425E43F2D32033D
:10197000C0011124AC0149595E4F4A0101151105FE
:1019800009F468C0309709F465C0D80198968C9125
:1019900098975E962C905E975F963C905F97909696
:1019A000AC90909791964C904982811147C0B22C8F
:1019B000C32CDA2CE42C428C538C648C758CA301E0
:1019C0009201622D732D8A2D9E2D0E9430191816BA
:1019D000ACF5A3019201C301B2010E9468192B0169
:1019E0003C0120E03AEB4BE55AECD80192966D9120
:1019F0007D918D919C9195970E9468199B01AC01F6
:101A0000C301B2010E94F5160E94DB19562E672E03
:101A1000782EA92E262F372F482F592F622D732D60
:101A20008D2D9E2D0E94791787FD03C0B52C630173
:101A3000EA2C8B2D9C2DAD2DBE2D03C0C101AA2DEE
:101A4000B981F801828F938FA48FB58FE1E0D8011F
:101A50009796EC93F801840178CFF090650100E04F
:101A600010E080E090E025E4E22E4F2D0F2C000CDA
:101A7000550B2091660130E042175307F1F0E49EC8
:101A80009001E59E300D1124A90149595E4F6A016C
:101A9000009759F00115110541F0DC0198962C9141
:101AA000211103C0B8010E946708F394BEE0FB1245
:101AB00001C0F12CC8018601D8CF009751F0011563
:101AC000110539F0FC0120A5211103C0B8010E94C5
:101AD0006708D0906501E12CF12C85E4C82E2D2DEE
:101AE0000D2C000C330B8091660190E0281739070C
:101AF00009F447C0C29EC001C39E900D1124AC01E1
:101B000049595E4F1A01E114F104A1F1D7019796EA
:101B10008C91811104C0FA0187A1882359F1D70162
:101B200056964D905D906D907C905997C29EF001B5
:101B3000C39EF00D1124E959FE4FA3019201628D5D
:101B4000738D848D958D0E947E174B015C01A301DE
:101B50009201F701628D738D848D958D0E947E17A1
:101B6000AB01BC0195018401C7010E942D07D7017B
:101B700097961C92D394BEE0DB1201C0D12C710168
:101B8000AECFF701808186889788A08CB18CA501A3
:101B90009401813019F4C501B40103C060E070E024
:101BA000CB010E947E172B013C01A5019401D701B6
:101BB0005A966D917D918D919C915D970E947E17B3
:101BC000AB01BC0193018201C7010E942D07F701FF
:101BD00017A2A1960FB6F894DEBF0FBECDBFDF915E
:101BE000CF911F910F91FF90EF90DF90CF90BF901A
:101BF000AF909F908F907F906F905F904F903F90AD
:101C00002F900C940D10A1960FB6F894DEBF0FBE66
:101C1000CDBFDF91CF911F910F91FF90EF90DF909B
:101C2000CF90BF90AF909F908F907F906F905F907C
:101C30004F903F902F900895CF92DF92EF92FF92B6
:101C4000CF936B017C01C42F8091660190E00E94CC
:101C5000CE08E091660195E4E99FF0011124E9596D
:101C6000FE4F92E09083C6A3EF5BFF4FC082D1820C
:101C7000E282F38280936601CF91FF90EF90DF9034
:101C8000CF900C940D10CF93C82F8091660190E0F7
:101C90000E94CE08E091660195E4E99FF0011124CD
:101CA000E959FE4FC08380936601CF910C940D10CB
:101CB000209166019091650181E0291301C080E0C7
:101CC00008959091660180916501981749F080917F
:101CD000650125E4829FC001112489599E4F089512
:101CE00080E090E0089590916601809165019817D9
:101CF00041F0809165018F5F8E3009F480E0809320
:101D000065010895809166018093650108958F9221
:101D10009F92AF92BF92CF92DF92EF92FF920F937A
:101D20001F93CF93DF9349015A01670178012CE19A
:101D300037EC41EB52E40E9468190E943519C9E55D
:101D4000D1E0688379838A839B8324E731ED45EB77
:101D500052E4C501B4010E9468190E9435196C83D0
:101D60007D838E839F8325E535E545E052E4C701F9
:101D7000B6010E9468190E943519688779878A8799
:101D80009B871092490110924A0110924B011092C8
:101D90004C018CE0EDE4F1E0DF011D928A95E9F75A
:101DA000DF91CF911F910F91FF90EF90DF90CF9037
:101DB000BF90AF909F908F900895EF92FF920F93F6
:101DC0001F931092660110926501E12CF12C87019E
:101DD00020E030E040EA50E4CA01B9010E94870ED9
:101DE0001F910F91FF90EF9008958AB183778AB980
:101DF00087B1807C87B9089539B199B1292F221F05
:101E00002227221F32FB992790F9922B21F44B991C
:101E100002C0811104C010922D055D980895809331
:101E20002D05089580912D050895882311F05C9A61
:101E300008955C980895882311F05E9A08955E983D
:101E40000895559A14BC15BCEEE6F0E080818160DF
:101E5000808316BC549A80E00E94150F569A80E049
:101E60000C941B0F40913E0550913F056091400539
:101E7000709141058091420590914305A0914405E0
:101E8000B0914505840F951FA61FB71F813828E321
:101E9000920721E0A207B10550F480933E0590938C
:101EA0003F05A0934005B093410580E00895805818
:101EB0009843A140B10980933E0590933F05A093BC
:101EC0004005B093410581E008959B01AC012034A9
:101ED00086E038074105510520F420E436E040E073
:101EE00050E060E070E788E399E30E94361A21151C
:101EF000310581E04807510518F4B90180E02FC091
:101F00002115310588E048075105A8F4DA01C90117
:101F1000F3E0B695A79597958795FA95D1F7BC010B
:101F20009C01AD01A3E0220F331F441F551FAA954A
:101F3000D1F781E014C0DA01C90126E0B695A79572
:101F4000979587952A95D1F7BC019C01AD01E6E0F4
:101F5000220F331F441F551FEA95D1F782E090915D
:101F60008100987F8F5F892B809381007093890017
:101F700060938800209342053093430540934405C5
:101F8000509345050895CF92DF92EF92FF92CF9341
:101F9000DF936B017C010E94650FC0915C05D091BD
:101FA0005D058881813011F480E02FC0C701B60142
:101FB0000E9426186B017C016A897B898C899D8926
:101FC0000E9426189B01AC01C701B6010E947E1732
:101FD00023E333E343E75FE30E9468192DEC3CEC15
:101FE0004CE45DE30E94F6166B017C016EA170E08B
:101FF00080E090E00E9428189B01AC01C701B60167
:102000000E9468190E94F717862FDF91CF91FF90E9
:10201000EF90DF90CF900C94FC0E809139058111E8
:102020000BC081E08093390580E380935B0580914C
:102030006F00826080936F000895109239051092AE
:102040005D0510925C05EFE6F0E080818D7F808376
:1020500080E00C94FC0E809139050895909138052C
:10206000911107C08093370581E0809338050C9467
:102070009C00089580913705089580913805089552
:1020800080E2809337051092380508954F925F9251
:102090006F927F928F92AF92BF92CF92DF92EF9228
:1020A000FF920F931F93CF93DF93CDB7DEB72C979B
:1020B0000FB6F894DEBF0FBECDBF69837A838B83E2
:1020C0009C8329013A01ED82FE820F831887A9863D
:1020D000BA86CB86DC8680913905882319F00E9468
:1020E000FA02F9CFE12CF12C8701A8019701C80170
:1020F000B7010E94870E8CE0EEE5F5E0DF011D924E
:102100008A95E9F71F921F921F921F92812CAE8C25
:10211000BF8CC8A0D9A0A301920169817A818B816B
:102120009C810E94E4080F900F900F900F90809177
:102130003905882319F00E94FA02F9CFE12CF12C1D
:102140008701A8019701C801B7010E94870E8CE0A2
:10215000EEE5F5E0DF011D928A95E9F70E94401057
:1021600081E0809336051F921F921F921F92812C4F
:10217000AE8CBF8CC8A0D9A029853A854B855C85DB
:102180006D817E818F8198850E94E4080F900F9069
:102190000F900F9080913905882319F00E94FA0260
:1021A000F9CF109236052C960FB6F894DEBF0FBE0D
:1021B000CDBFDF91CF911F910F91FF90EF90DF90F6
:1021C000CF90BF90AF908F907F906F905F904F9027
:1021D000089560915E0570915F0580916005909112
:1021E00061050E9428182CE137EC41EB52E40E9473
:1021F0007E17089560916205709163058091640572
:10220000909165050E94281824E731ED45EB52E4D2
:102210000E947E1708956091660570916705809110
:102220006805909169050E94281825E535E545E087
:1022300052E40E947E1708958F929F92AF92BF92B0
:10224000CF92DF92EF92FF920F931F93CF93DF9382
:1022500049015A01670178012CE137EC41EB52E466
:102260000E9468190E943519CEE5D5E0688379830C
:102270008A839B8324E731ED45EB52E4C501B40129
:102280000E9468190E9435196C837D838E839F8319
:1022900025E535E545E052E4C701B6010E9468191D
:1022A0000E943519688779878A879B87DF91CF914C
:1022B0001F910F91FF90EF90DF90CF90BF90AF9064
:1022C0009F908F900895EF92FF920F931F9384B188
:1022D0008F6384B985B1807C806385B9E1E8F0E0E3
:1022E00080818F7E8083808188608083E0E8F0E059
:1022F00080818D7F808380818E7F808380818F73BA
:10230000808380818F7C80831092B0001092B10016
:10231000E0E7F0E080818160808360E476E080E047
:1023200090E00E94650F80E00E94FC0E8CE0EEE5DC
:10233000F5E0DF011D928A95E9F7E12CF12C870188
:1023400020E030E040EA50E4CA01B9010E941C11CB
:1023500010923E0510923F051092400510924105E3
:1023600010925D0510925C051092380580E2809312
:10237000370510924605109236051F910F91FF9078
:10238000EF900C941D101F920F920FB60F92112414
:102390005D9815BC0F900FBE0F901F9018951F925F
:1023A0000F920FB60F9211248F9385B1887F85B954
:1023B0001092B1008F910F900FBE0F901F90189543
:1023C0001F920F920FB60F921124CF92DF92EF92CD
:1023D000FF922F933F934F935F936F937F938F93CE
:1023E0009F93AF93BF93CF93DF93EF93FF9380912E
:1023F00046058111D7C381E0809346058091380559
:10240000882329F00E941D100E94820EC9C380916A
:102410003605811122C029B189B1982F991F9927BA
:10242000991F22FB882780F9892B11F44B9B03C04D
:1024300080E00E94FC0E309B02C084E20BC0319B06
:1024400002C085E207C0329B02C086E203C0339B14
:1024500004C08AE20E942E10A3C30E94120F909122
:102460000101903120F4809101018F5F66C08111DC
:1024700002C05D9861C015BC5D9A823F08F05CC0E7
:102480004091420550914305609144057091450586
:10249000252F362F472F552790E1899FD0011124F2
:1024A0000E94691A6F3F710581059105D9F1D0F13C
:1024B000B3E09695879577956795BA95D1F76F3F75
:1024C00071058105910581F178F1A3E096958795D5
:1024D00077956795AA95D1F76F3F710581059105AD
:1024E00029F120F1F2E09695879577956795FA9511
:1024F000D1F76F3F710581059105D1F0C8F0E2E099
:102500009695879577956795EA95D1F76F3F710511
:102510008105910529F020F06FEF70E080E090E0F8
:1025200025E007C021E005C022E003C023E001C090
:1025300024E0619566BD25BD81E08093010125B150
:1025400090915B05987385B1877C892B85B9822F23
:102550008873891325C385B1887F90915B05892B8A
:1025600085B98AEF8093B20082E08093B1007894BD
:1025700080915C0590915D05892B09F06AC00E94ED
:10258000610E90935D0580935C05009719F40E949D
:102590001D1006C3FC012081223008F05AC061A53D
:1025A00072A583A594A560933A0570933B0580932B
:1025B0003C0590933D0550E4C52E5CE9D52EE12CF9
:1025C000F12CC0923E05D0923F05E0924005F0927A
:1025D00041050E94C30FE0915C05F0915D0580818B
:1025E000813041F410924705109248051092490538
:1025F00010924A0586859785A089B189B595A795DA
:1026000097958795B095A095909581959F4FAF4FE1
:10261000BF4F8093570590935805A0935905B093E9
:102620005A058093530590935405A0935505B09394
:10263000560580934F0590935005A0935105B09394
:10264000520510924B0510924C0510924D051092B8
:102650004E05C0915C05D0915D052881822F90E0E8
:102660008730910508F09CC2FC01E65AFF4F0C949C
:10267000581A3D8530935B0549815A816B817C8175
:102680008091570590915805A0915905B0915A0530
:10269000840F951FA61FB71F809357059093580569
:1026A000A0935905B0935A054E855F85688979894D
:1026B000181619061A061B0644F5316030935B059F
:1026C000841B950BA60BB70B809357059093580569
:1026D000A0935905B0935A0580915E0590915F05CE
:1026E000A0916005B091610533FF04C00197A10975
:1026F000B10903C00196A11DB11D80935E059093A1
:102700005F05A0936005B0936105CD80DE80EF800A
:10271000F8848091530590915405A0915505B0918E
:1027200056058C0D9D1DAE1DBF1D809353059093C6
:102730005405A0935505B0935605181619061A06A8
:102740001B0654F530915B05326030935B05841BAA
:10275000950BA60BB70B8093530590935405A0934C
:102760005505B09356058091620590916305A0913F
:102770006405B091650534FF04C00197A109B10952
:1027800003C00196A11DB11D80936205909363055E
:10279000A0936405B0936505C984DA84EB84FC8456
:1027A00080914F0590915005A0915105B09152052F
:1027B0008C0D9D1DAE1DBF1D80934F059093500540
:1027C000A0935105B0935205181619061A061B0658
:1027D00054F530915B05346030935B05841B950B99
:1027E000A60BB70B80934F0590935005A09351050E
:1027F000B09352058091660590916705A091680598
:10280000B091690535FF04C00197A109B10903C062
:102810000196A11DB11D8093660590936705A09355
:102820006805B093690580914B0590914C05A09186
:102830004D05B0914E050196A11DB11D80934B052C
:1028400090934C05A0934D05B0934E05E0915B0528
:1028500030E33E2730935B0584179507A607B7073B
:1028600008F030C14DA95EA96FA978AD841795070E
:10287000A607B70780F50E94320F882309F490C19C
:1028800049A95AA96BA97CA980913A0590913B0569
:10289000A0913C05B0913D05840F951FA61FB71F61
:1028A00080933A0590933B05A0933C05B0933D057A
:1028B0004A895B896C897D89481759076A077B07B4
:1028C00008F069C040933A0550933B0560933C057E
:1028D00070933D0560C049AD5AAD6BAD7CAD8417BA
:1028E0009507A607B70769F480E49CE9A0E0B0E08B
:1028F00080933E0590933F05A0934005B09341051A
:102900004FC184179507A607B70708F44FC00E9468
:10291000320F882309F444C149A95AA96BA97CA99B
:1029200080913A0590913B05A0913C05B0913D0501
:10293000481759076A077B0768F4841B950BA60B99
:10294000B70B80933A0590933B05A0933C05B09359
:102950003D0508C010923A0510923B0510923C05C7
:1029600010923D058DA59EA5AFA5B8A940913A0549
:1029700050913B0560913C0570913D054817590702
:102980006A077B0740F480933A0590933B05A09338
:102990003C05B0933D0560913A0570913B058091EF
:1029A0003C0590913D050E94C30FFAC06A897B895E
:1029B0008C899D89C0903A05D0903B05E0903C05FC
:1029C000F0903D056C157D058E059F0551F06093D7
:1029D0003A0570933B0580933C0590933D050E941A
:1029E000C30FE0915C05F0915D058081813009F0B5
:1029F00065C08091470590914805A0914905B09127
:102A00004A0540914B0550914C0560914D057091E0
:102A10004E05892B8A2B8B2B89F4DB01CA013AE006
:102A2000880F991FAA1FBB1F3A95D1F780934705BE
:102A300090934805A0934905B0934A0580914705B6
:102A400090914805A0914905B0914A052AE0440FAC
:102A5000551F661F771F2A95D1F7481759076A0730
:102A60007B0708F49DC0FD9640815181628173818E
:102A7000840F951FA61FB71F8093470590934805A5
:102A8000A0934905B0934A05F8940E942F027894C8
:102A9000282F30E020583109220F331FE0915C05C8
:102AA000F0915D0546A1429FC001439F900D112406
:102AB0006FEF70E00E94221A862F01C086A10E944B
:102AC000FC0E6EC0213009F065C00E94570262C042
:102AD000C0902E05D0902F05E0903005F090310584
:102AE000C114D104E104F104E9F420E030E04AE744
:102AF00054E4FE01EF5BFF4F60817181828193811D
:102B00000E9468190E94351960933205709333054D
:102B1000809334059093350560E67AEE80E090E08E
:102B20000E94650F8091320590913305A091340584
:102B3000B0913505C816D906EA06FB06B8F48EA191
:102B40000E94FC0E80912E0590912F05A0913005DA
:102B5000B09131050196A11DB11D80932E05909372
:102B60002F05A0933005B09331051AC010922E05A1
:102B700010922F0510923005109231050BC081E0A4
:102B800001C080E00E94150F05C081E001C080E017
:102B90000E941B0F10925D0510925C050E94730E3F
:102BA00010924605FF91EF91DF91CF91BF91AF91C8
:102BB0009F918F917F916F915F914F913F912F9155
:102BC000FF90EF90DF90CF900F900FBE0F901F906F
:102BD00018958F929F92AF92BF92CF92DF92EF9211
:102BE000FF920F931F93CF93DF9380913905882332
:102BF00019F00E94FA02F9CFE12CF12C8701A8010B
:102C00009701C801B7010E94870E8CE0EEE5F5E060
:102C1000DF011D928A95E9F781E080933605309BAC
:102C200017C01F921F921F921F92812CA12CB12CB2
:102C3000E8E4CE2EE4E4DE2EA801970160E070E027
:102C400080EA91E40E94E4080F900F900F900F909B
:102C5000319B1AC01F921F921F921F92812CA12C90
:102C6000B12C78E4C72E74E4D72EE12CF12C870127
:102C7000A801970160E070E080EA91EC0E94E4080E
:102C80000F900F900F900F90329B1AC01F921F92BF
:102C90001F921F92812CA12CB12C68E4C62E64E4F3
:102CA000D62EE12CF12C870120E030E040EA51E4FF
:102CB000C801B7010E94E4080F900F900F900F9089
:102CC000339B1AC01F921F921F921F92812CA12C1E
:102CD000B12C58E4C52E54E4D52EE12CF12C8701FB
:102CE00020E030E040EA51ECC801B7010E94E4085E
:102CF0000F900F900F900F9080913905882319F055
:102D00000E94FA02F9CF1092360585E4982E9F9220
:102D1000C8E4CF931F921F92A12CB12C6501E12C26
:102D2000F12C00E211E4A601950160EF73E284E763
:102D300099EC0E944610D4E4DF93CF931F921F9228
:102D4000E12CF12C00E810E4A601950160EF73E29C
:102D500084E799EC0E9446109F92CF931F921F9296
:102D6000A12CB12C30E2C32E31E4D32EE12CF12C76
:102D7000870120EF33E244E759ECC801B7010E9414
:102D80004610DF93CF931F921F92A12CB12C40E8E5
:102D9000C42E40E4D42E20EF33E244E759ECC801BE
:102DA000B7010E944610A8019701C801B7010E940F
:102DB000870E8CE0EEE5F5E0DF011D928A95E9F7DC
:102DC0008DB79EB740960FB6F8949EBF0FBE8DBFCD
:102DD000DF91CF911F910F91FF90EF90DF90CF90F7
:102DE000BF90AF909F908F9008955058BB27AA270F
:102DF0000E940D170C94DE180E94D01838F00E9423
:102E0000D71820F039F49F3F19F426F40C94CD180C
:102E10000EF4E095E7FB0C949E18E92F0E94EF1842
:102E200058F3BA17620773078407950720F079F4FF
:102E3000A6F50C9429190EF4E0950B2EBA2FA02DAF
:102E40000B01B90190010C01CA01A0011124FF2757
:102E5000591B99F0593F50F4503E68F11A16F04052
:102E6000A22F232F342F4427585FF3CF4695379551
:102E70002795A795F0405395C9F77EF41F16BA0B16
:102E8000620B730B840BBAF09150A1F0FF0FBB1FC4
:102E9000661F771F881FC2F70EC0BA0F621F731F0D
:102EA000841F48F4879577956795B795F7959E3F6A
:102EB00008F0B0CF9395880F08F09927EE0F9795FB
:102EC000879508950E94111990F09F3748F4911149
:102ED00016F40C942A1960E070E080E89FE30895EE
:102EE00026F01B16611D711D811D0C94A4180C94F5
:102EF000BF180E947A1808F481E008950E94921782
:102F00000C94DE180E94D71858F00E94D01840F098
:102F100029F45F3F29F00C949E1851110C942A1942
:102F20000C94CD180E94EF1868F39923B1F3552340
:102F300091F3951B550BBB27AA27621773078407CC
:102F400038F09F5F5F4F220F331F441FAA1FA9F362
:102F500035D00E2E3AF0E0E832D091505040E69550
:102F6000001CCAF72BD0FE2F29D0660F771F881FB1
:102F7000BB1F261737074807AB07B0E809F0BB0BA4
:102F8000802DBF01FF2793585F4F3AF09E3F5105B8
:102F900078F00C949E180C942A195F3FE4F3983E45
:102FA000D4F3869577956795B795F7959F5FC9F7A1
:102FB000880F911D9695879597F90895E1E0660F22
:102FC000771F881FBB1F621773078407BA0720F09B
:102FD000621B730B840BBA0BEE1F88F7E095089504
:102FE0000E94F7176894B1110C942A1908950E9451
:102FF000F71888F09F5798F0B92F9927B751B0F07C
:10300000E1F0660F771F881F991F1AF0BA95C9F76C
:1030100014C0B13091F00E942919B1E008950C94C8
:103020002919672F782F8827B85F39F0B93FCCF37B
:10303000869577956795B395D9F73EF490958095E9
:10304000709561957F4F8F4F9F4F0895E89409C009
:1030500097FB3EF490958095709561957F4F8F4FCB
:103060009F4F9923A9F0F92F96E9BB279395F695E1
:10307000879577956795B795F111F8CFFAF4BB0F5F
:1030800011F460FF1BC06F5F7F4F8F4F9F4F16C0C3
:10309000882311F096E911C0772321F09EE8872F4D
:1030A000762F05C0662371F096E8862F70E060E009
:1030B0002AF09A95660F771F881FDAF7880F969582
:1030C000879597F908950E94111990F09F3748F459
:1030D000911116F00C942A1960E070E080E89FEBE3
:1030E000089526F41B16611D711D811D0C94A418F2
:1030F0000C94BF18990F0008550FAA0BE0E8FEEFDB
:1031000016161706E807F907C0F012161306E407AB
:10311000F50798F0621B730B840B950B39F40A26A4
:1031200061F0232B242B252B21F408950A2609F482
:10313000A140A6958FEF811D811D089597F99F6786
:1031400080E870E060E00895882371F4772321F02F
:103150009850872B762F07C0662311F499270DC04E
:103160009051862B70E060E02AF09A95660F771FE9
:10317000881FDAF7880F9695879597F908959F3FEE
:1031800031F0915020F4879577956795B795880F22
:10319000911D9695879597F908959FEF80EC089576
:1031A00000240A9416161706180609060895002426
:1031B0000A9412161306140605060895092E0394A0
:1031C000000C11F4882352F0BB0F40F4BF2B11F414
:1031D00060FF04C06F5F7F4F8F4F9F4F089557FD73
:1031E0009058440F551F59F05F3F71F04795880F75
:1031F00097FB991F61F09F3F79F08795089512160C
:1032000013061406551FF2CF4695F1DF08C01616B7
:1032100017061806991FF1CF869571056105089468
:1032200008950E94F718A0F0BEE7B91788F4BB27ED
:103230009F3860F41616B11D672F782F8827985F86
:10324000F7CF869577956795B11D93959639C8F315
:103250000895E894BB2766277727CB0197F908954F
:103260000E947A1808F48FEF08950E94F71858F119
:103270009E5760F19851A0F0E9F0983020F5092EA2
:103280009927660F771F881F991F0A94D1F712C0DC
:10329000062E672F782F8827985F11F4000C07C03F
:1032A000993FB4F38695779567959395D9F7611D06
:1032B000711D811D3EF490958095709561957F4FAD
:1032C0008F4F9F4F089568940C942A190C942919D4
:1032D0000E947B190C94DE180E94D01838F00E94CE
:1032E000D71820F0952311F00C949E180C94CD184B
:1032F00011240C942A190E94EF1870F3959FC1F3C2
:10330000950F50E0551F629FF001729FBB27F00D93
:10331000B11D639FAA27F00DB11DAA1F649F6627E8
:10332000B00DA11D661F829F2227B00DA11D621F37
:10333000739FB00DA11D621F839FA00D611D221FF1
:10334000749F3327A00D611D231F849F600D211DD5
:10335000822F762F6A2F11249F5750409AF0F1F058
:1033600088234AF0EE0FFF1FBB1F661F771F881FC1
:1033700091505040A9F79E3F510580F00C949E1843
:103380000C942A195F3FE4F3983ED4F38695779521
:103390006795B795F795E7959F5FC1F7FE2B880F67
:1033A000911D9695879597F9089519F416F40C9444
:1033B000CD180C94BF180E94F718B8F39923C9F3DD
:1033C000B6F39F57550B87FF0E941B1A0024A0E6F7
:1033D00040EA900180585695979528F4805C660FD6
:1033E000771F881F20F026173707480730F4621B25
:1033F000730B840B202931294A2BA6951794079427
:10340000202531254A2758F7660F771F881F20F09F
:1034100026173707480730F4620B730B840B200D17
:10342000311D411DA09581F7B901842F9158880F56
:1034300096958795089591505040660F771F881F85
:10344000D2F7089597FB072E16F4009407D077FD66
:1034500009D00E94711A07FC05D03EF49095819521
:103460009F4F0895709561957F4F0895A1E21A2EA0
:10347000AA1BBB1BFD010DC0AA1FBB1FEE1FFF1F18
:10348000A217B307E407F50720F0A21BB30BE40B68
:10349000F50B661F771F881F991F1A9469F76095AF
:1034A0007095809590959B01AC01BD01CF01089569
:1034B000EE0FFF1F0590F491E02D09940E94851AEC
:1034C000A59F900DB49F900DA49F800D911D112478
:1034D0000895B7FF0C945E1A0E945E1A821B930B2C
:1034E0000895AA1BBB1B51E107C0AA1FBB1FA6174B
:1034F000B70710F0A61BB70B881F991F5A95A9F79D
:1035000080959095BC01CD010895A29FB001B39F15
:10351000C001A39F700D811D1124911DB29F700DDC
:0C352000811D1124911D0895F894FFCF27
:02352C0001019B
:00000001FF
