:100000000C9434000C945B000C945B000C945B002B
:100010000C945B000C945B000C9451010C945B00FD
:100020000C945B000C94F0110C945B000C94011286
:100030000C945B000C945B000C945B000C945B00D4
:100040000C94E4110C945B000C947E010C94F6006B
:100050000C945B000C945B000C945B000C945B00B4
:100060000C945B000C945B00E0EFF6E085EC98E00C
:1000700001C08193EF3FF907E0F3D9F311241FBECC
:10008000CFEFD8E0DEBFCDBF11E0A0E0B1E0E0E708
:10009000F6E302C005900D92A230B107D9F726E031
:1000A000A2E0B1E001C01D92A03FB207E1F70E94BB
:1000B0005D000C94361B0C94000078940E948C0018
:1000C0000E94B1020E94260F0E9481110E94410FDE
:1000D0000E945E0F0E94A20490E080E008951092BA
:1000E0000301109202010895909109019F5F9038D9
:1000F00009F490E0209108012917E1F3E09109014A
:10010000F0E0E159F94F8083909309018091C1009B
:1001100080628093C10008951092C50080E18093B1
:10012000C400E0ECF0E080818D7F8083E1ECF0E0C2
:100130008081806180838081886080838081806805
:1001400080838EE70E947400F894A89584B7877F17
:1001500084BFE0E6F0E080818861808386E480836C
:1001600078940895CF92DF92EF92FF92CF93C82FA9
:10017000CB01BA0120E030E04AE754E40E94261A9D
:100180000E94F3196B017C0128EFF21A8C2D806814
:100190000E947400D701C60127E0B695A7959795F0
:1001A00087952A95D1F780680E947400D701C6010F
:1001B0003EE0B695A795979587953A95D1F78068D3
:1001C0000E947400D701C60145E1B695A7959795A1
:1001D00087954A95D1F780680E9474008C2FCF9143
:1001E000FF90EF90DF90CF900C9474001F920F92CD
:1001F0000FB60F9211248F939F93EF93FF938091EB
:100200000801909105019923D1F095E09093C600E3
:1002100090910501915090930501909109019813D7
:1002200005C08091C1008F7D8093C100FF91EF9147
:100230009F918F910F900FBE0F901F901895E82FF0
:10024000F0E0E159F94F90819093C6008F5F8038BC
:1002500009F480E080930801E0CFE0910A01F0E02A
:10026000E159FA4F808190910A019F5F90930A01B2
:100270002FB7F894909104019F5F9093040190919F
:100280000401903160F0909105019F5F909305010A
:100290009091C10090629093C100109204012FBF11
:1002A00008951F920F920FB60F9211242F933F9330
:1002B0004F935F936F937F938F939F93AF93BF936E
:1002C000EF93FF9380E00E94480F8BE30E9423107E
:1002D000E0E6F0E0808180648083FF91EF91BF9140
:1002E000AF919F918F917F916F915F914F913F91CE
:1002F0002F910F900FBE0F901F9018951F920F9285
:100300000FB60F9211242F933F934F935F936F93E8
:100310007F938F939F93AF93BF93EF93FF93A89592
:100320009091C600809100018823A9F010920001ED
:1003300090930701FF91EF91BF91AF919F918F91A2
:100340007F916F915F914F913F912F910F900FBED1
:100350000F901F90189581E0809300018091070114
:10036000891721F08DE30E942310E4CF803148F5F6
:10037000813011F481E2F7CF823069F410920301E9
:100380001092020110920A0110920B0110920401C6
:100390000E943710CFCF883019F40E94EA10CACFDC
:1003A000873019F40E94EE10C5CF833019F40E94F3
:1003B000F702C0CF843019F40E94FB02BBCF83E266
:1003C000D2CFE0910B0191E09E0F20910A012913F9
:1003D00002C082E2C8CFF0E0E159FA4F80839093E7
:1003E0000B01A8CFCF93C1E080910301811115C00B
:1003F00010920601C1E090910A0180910B019817BB
:1004000061F10E942D01803131F481E0809303017C
:100410001092020181E4CF91089580910201882316
:1004200071F01092060190910A0180910B019817CA
:1004300049F00E942D01813111F4109203010E94B4
:100440000E03D2CF80910601811104C00E94FF02E9
:10045000C09306010E940E03E6CF80910601811130
:1004600004C00E94FF02C09306010E940E03C3CF86
:1004700080910301882361F080910201811108C0FD
:1004800090910A0180910B01981304C00E94FF0211
:1004900080E808950E942D0187FDFBCF813119F47A
:1004A00010920301F5CF83E20E942310F1CF209137
:1004B0000A0190910B0181E0291301C080E00895A9
:1004C00081E08093020108950F931F93E1E1F1E031
:1004D000638170E090E080E06058710981099109C2
:1004E00027E0660F771F881F991F2A95D1F7028191
:1004F00010E030E020E00058110921093109600FB7
:10050000711F821F931F37E0660F771F881F991F87
:100510003A95D1F7018110E030E020E00058110950
:1005200021093109600F711F821F931F47E0660F79
:10053000771F881F991F4A95D1F72081620F711D7F
:10054000811D911D60587109810998400E94E6182B
:1005500020E030E04AE754E40E943C181F910F91DC
:100560000895E6E1F1E081E0808340E050E068E456
:1005700074E44283538364837583168217821086E2
:100580001186128613861486158616864DEC5CEC51
:100590006BE673EC4787508B618B728B40E050E0C9
:1005A00062E972EC438B548B658B768B40E050E0B4
:1005B00060EA71EC478B508F618F728F9CE0E1E3B2
:1005C000F1E0DF01292F1D922A95E9F7EDE3F1E033
:1005D000DF011D929A95E9F78093100180930F0136
:1005E00010920E0110920D0180930C01089581E08C
:1005F00080931001089581E080930F0108952FB733
:10060000F89480910D0190910E01019690930E0146
:1006100080930D0110920C012FBF08958F929F922D
:10062000AF92BF92CF92DF92EF92FF920F931F9300
:10063000CF934A9B02C04B9903C080E00E94480FB1
:100640000E943410882391F10E94CC0E0E94231145
:100650006B017C010E940F114B015C010E94FB1099
:1006600087017601A50194010E94D10E0E94FB1022
:1006700060932501709326018093270190932801B0
:100680000E940F116093290170932A0180932B011E
:1006900090932C010E94231160932D0170932E01E1
:1006A00080932F01909330011092150180911001D9
:1006B000811105C080910F01882309F437C1109280
:1006C00010010E94A20E811112C00E9457028111D6
:1006D0000EC00E94341081110AC081E40E9474008F
:1006E00083B7816083BF889583B78E7F83BF4A9924
:1006F00003C082E40E9474004B9903C083E40E940B
:1007000074000E94F810882319F084E40E94740099
:100710000E943110C82F803211F00E94740030996D
:1007200005C0C43219F084E20E947400319905C0FA
:10073000C53219F085E20E947400329905C0C632B4
:1007400019F086E20E947400339905C0CA3219F08C
:100750008AE20E947400349905C0CB3219F08BE212
:100760000E947400359905C0CD3219F08DE20E94C7
:1007700074000E94FB102DEC3CEC4BE653E40E940D
:10078000B4172091310130913201409133015091E1
:1007900034010E94B317AB01BC0188E70E94B2008C
:1007A0000E940F1120E030E042E952E40E94B417A9
:1007B0002091350130913601409137015091380137
:1007C0000E94B317AB01BC0189E70E94B2000E94EE
:1007D000231120E030E040EA51E40E94B417209158
:1007E000390130913A0140913B0150913C010E9406
:1007F000B317AB01BC018AE70E94B20080910C01E3
:10080000811110C060910D0170910E0190E080E0A7
:100810000E94E418AB01BC0187E70E94B20081E0AE
:1008200080930C01E0EFF6E0BF01605F76408081CD
:10083000853C09F473C090E080E00E94E418AB01AD
:10084000BC0185E70E94B20080910F01882309F462
:1008500057C010920F0140E050EE62E275E486E767
:100860000E94B200409131015091320160913301F8
:100870007091340181E60E94B2004091350150919F
:100880003601609137017091380182E60E94B20012
:100890004091390150913A0160913B0170913C01C6
:1008A00083E60E94B20040911801509119016091B5
:1008B0001A0170911B0187E60E94B20060911C0131
:1008C00070E090E080E00E94E418AB01BC0188E693
:1008D0000E94B20040911D0150911E0160911F01C4
:1008E0007091200189E60E94B2004091210150914F
:1008F000220160912301709124018AE60E94B200D6
:1009000086E0CF911F910F91FF90EF90DF90CF90F5
:10091000BF90AF909F908F900C94740088E0EF3F51
:10092000F80711F008F087CF31967ECFCF911F9155
:100930000F91FF90EF90DF90CF90BF90AF909F907E
:100940008F90089531E3232E31E0332ECCE0412CFB
:10095000512C40EA642E41EC742ED1E00E94F20149
:10096000182F0E943410882319F00E940E03F6CF2E
:1009700017FDA5C2EFEBE10FEA3108F03FC1EF3000
:1009800008F038C1F0E0E953FB4F0C94161B3C050E
:10099000D604300503053F05420545054A054F05C8
:1009A0008E05BF05F005F405F605F805A0901801C1
:1009B000B0901901C0901A01D0901B01E0902D0158
:1009C000F0902E0100912F0110913001209129010A
:1009D00030912A0140912B0150912C016091250109
:1009E0007091260180912701909128011F921F92FA
:1009F0001F921F9280901C010E9425090F900F905A
:100A00000F900F9039C0A0901801B0901901C090BC
:100A10001A01D0901B01E0902D01F0902E01009161
:100A20002F01109130012091290130912A0140912C
:100A30002B0150912C01609125017091260180912C
:100A4000270190912801E0912401EF93E091230187
:100A5000EF93E0912201EF93E0912101EF93CACF50
:100A600060911D0170911E0180911F0190912001E4
:100A700040911C010E94660E1092150176CF1092D3
:100A80001601FACFD0931601F7CF8091160180930B
:100A90001701F2CF8091170180931601EDCF0E94CC
:100AA0001516D101EC2F1D92EA95E9F78DEC9CEC1F
:100AB000ABE6B3EC8093250190932601A093270128
:100AC000B093280180E090E0A2E9B2EC8093290184
:100AD00090932A01A0932B01B0932C0140922D01F9
:100AE00050922E0160922F0170923001A090180157
:100AF000B0901901C0901A01D0901B011F921F9253
:100B00001F921F92812CE12CF12C00EA11EC9C0128
:100B1000AD016DEC7CEC8BE693EC6ECF80913101F6
:100B200090913201A0913301B091340180933D0145
:100B300090933E01A0933F01B09340018091350115
:100B400090913601A0913701B09138018093410115
:100B500090934201A0934301B093440180913901E5
:100B600090913A01A0913B01B0913C0180934501E5
:100B700090934601A0934701B09348017DCF8091A7
:100B80003D0190913E01A0913F01B09140018093C1
:100B9000310190933201A0933301B09334018091DD
:100BA000410190914201A0914301B0914401809391
:100BB000350190933601A0933701B09338018091AD
:100BC000450190914601A0914701B0914801809361
:100BD000390190933A01A0933B01B0933C014CCF73
:100BE00083E00E948D0E48CF84E0FBCF85E0F9CFF3
:100BF00086E0F7CF8CE30E9423103ECF8FE9810F70
:100C00008A3108F05AC180911501843009F053C12E
:100C10001456173108F04DC1E12FF0E0EE5EF94FA8
:100C20000C94161BBF065907AD065907D5060107D8
:100C30002D0759075907590759075907CA06590770
:100C40005907B8065907590759075907290655067C
:100C50008106109116010E9464021130D9F42DEC26
:100C60003CEC4BE653E40E94B3179B01AC0160914E
:100C700031017091320180913301909134010E94D1
:100C8000B4176093250170932601809327019093F8
:100C90002801F2CE9B01AC016091250170912601E3
:100CA0008091270190912801EACF109116010E94AE
:100CB00064021130D9F420E030E042E952E40E94AD
:100CC000B3179B01AC0160913501709136018091A1
:100CD0003701909138010E94B417609329017093F5
:100CE0002A0180932B0190932C01C6CE9B01AC016D
:100CF0006091290170912A0180912B0190912C0122
:100D0000EACF109116010E9464021130D9F420E05C
:100D100030E040EA51E40E94B3179B01AC016091BE
:100D2000390170913A0180913B0190913C010E9400
:100D3000B41760932D0170932E0180932F0190932F
:100D400030019ACE9B01AC0160912D0170912E0172
:100D500080912F0190913001EACF0E94640260934C
:100D600018017093190180931A0190931B0184CE8E
:100D70000E9464020E94B51860931C017DCE0E94FF
:100D8000640260931D0170931E0180931F01909374
:100D9000200172CE0E9464026093210170932201AF
:100DA000809323019093240167CE0E9464026B011B
:100DB0007C0180911601813059F4C0923101D092AA
:100DC0003201E0923301F092340156CE0E940E03BC
:100DD0000E9420108111FACF0E94FB102DEC3CECF8
:100DE0004BE653E40E94B417A70196010E94B41782
:100DF00060933101709332018093330190933401F9
:100E00003BCE0E9464026B017C018091160181300F
:100E100059F4C0923501D0923601E0923701F09238
:100E200038012ACE0E940E030E9420108111FACFB1
:100E30000E940F1120E030E042E952E40E94B41712
:100E4000A70196010E94B417609335017093360193
:100E500080933701909338010FCE0E9464026B019A
:100E60007C0180911601813059F4C0923901D092F1
:100E70003A01E0923B01F0923C01FECD0E940E034C
:100E80000E9420108111FACF0E94231120E030E04F
:100E900040EA51E40E94B417A70196010E94B417DA
:100EA0006093390170933A0180933B0190933C0128
:100EB000E3CD8EE3A0CE8AE39ECE83E29CCEE0918A
:100EC0001501E43048F481E08E0F80931501F0E0C5
:100ED000EF5EFE4F108349CD8AE30E94231045CD7B
:100EE0004F925F926F927F928F929F92AF92BF923A
:100EF000CF92DF92EF92FF920F931F93CF93DF93E6
:100F0000CDB7DEB762970FB6F894DEBF0FBECDBF88
:100F10009A8B898B2A013B015901FC0162897389F3
:100F2000848995890E94E4186B017C01A3019201D8
:100F30000E94261A0E9420180E94B5182B013C011D
:100F4000E989FA8941A652A663A674A6A50198016B
:100F5000C701B6010E94261A0E9420180E94B518E7
:100F60004B015C01E989FA8985A696A6A7A6B0AAD5
:100F700021A932A943A954A9A0EEBEE20E941C1BDC
:100F800069837A838B839C830E94E6186D837E83BA
:100F90008F839887C301B2010E94E4182B013C01A2
:100FA000A7019601C701B6010E94261A6B017C01B8
:100FB000A3019201C301B2010E94261A69877A87B0
:100FC0008B879C872D813E814F815885CA01B9014D
:100FD0000E94B4176D877E878F87988B29853A8505
:100FE0004B855C85C701B6010E94B3172D853E85F0
:100FF0004F8558890E943C180E9420180E94AE1804
:101000002B013C01C501B4010E94E4189B01AC0115
:101010000E94261A4B015C01A70196010E94B3179A
:101020006B017C0169817A818B819C81909580958F
:10103000709561957F4F8F4F9F4F0E94E6189B01DF
:10104000AC010E94B4179B01AC01C701B6010E941C
:101050003C180E942119E989FA89C684D784E0885E
:10106000F188A701960124193509460957092983F2
:101070003A834B835C830E94AE1829813A814B816D
:101080005C81261B370B480B590BDA01C901B7FFEE
:101090003BC0C701B6010E94E6182D853E854F85ED
:1010A00058890E94261A29853A854B855C850E94BD
:1010B000B317A50194010E94B4174B015C0120E015
:1010C00030E040E850E46D817E818F8198850E94F8
:1010D000261A9B01AC01C501B4010E943C180E9474
:1010E00020180E94AE1897FF03C060E070E0CB01AB
:1010F00026013701641575058605970514F42B0143
:101100003C0180E090E0DC01E989FA8945AA56AA11
:1011100067AA70AE840D951DA61DB71D81AF92AF55
:10112000A3AFB4AF62960FB6F894DEBF0FBECDBFCB
:10113000DF91CF911F910F91FF90EF90DF90CF90B3
:10114000BF90AF909F908F907F906F905F904F90E7
:1011500008954F925F926F927F92AF92BF92CF921B
:10116000DF92EF92FF920F931F93CF93DF938C0147
:10117000EB01FC01428C538C648C758CAA8CBB8C6B
:10118000CC8CDD8C9501A601C301B2010E943718F9
:1011900087FF37C0A3019201C301B2010E94261A42
:1011A0002B013C0120E030E543E458ECF80162A15A
:1011B00073A184A195A10E94261A9B01AC01C301D1
:1011C000B2010E94B3170E94991A7B018C019B0106
:1011D000AC01B501C6010E94371887FF02C0750136
:1011E00086019701A801B501C6010E94371888231E
:1011F00041F0C701D8018A8F9B8FAC8FBD8F81E0F2
:101200008FA3DF91CF911F910F91FF90EF90DF900F
:10121000CF90BF90AF907F906F905F904F90089568
:10122000CF93DF938F5F8E3009F480E0C82F880F53
:10123000DD0B809165018C171D0621F0CE01DF9139
:10124000CF9108950E940E03F4CF2F923F924F92B8
:101250005F926F927F928F929F92AF92BF92CF9246
:10126000DF92EF92FF920F931F93CF93DF93CDB74F
:10127000DEB7A1970FB6F894DEBF0FBECDBF290130
:101280003A01E982FA820B831C83AD82BE82CF824F
:10129000D886CEA8DFA8E8ACF9AC2DEC3CEE4BE14B
:1012A00054E40E94261A0E94F319698B7A8B8B8B67
:1012B0009C8B2DEC3CEE4BE154E4C301B2010E9447
:1012C000261A0E94F3196D8B7E8B8F8B988F26E6E2
:1012D00036EA48E454E469817A818B819C810E94DA
:1012E000261A0E94F319698F7A8F8B8F9C8F8091B9
:1012F000660190E00E94100989A380916601282E62
:10130000312C20E030E0A901C701B6010E94371856
:10131000882309F499C285E4829D8001839D100D84
:10132000112409591E4F81E0D8018C932DEC3CEE1D
:101330004BE154E4C701B6010E94261A20E030E0D8
:1013400040E854E40E94261A0E94F319F801FD9621
:10135000608371838283938385E4829DF001839D02
:10136000F00D1124E959FE4F86A21586809159018E
:1013700090915A01A0915B01B0915C0149885A8813
:101380006B887C88481659066A067B0614F428E0A8
:10139000258780905D0190905E01A0905F01B090E4
:1013A00060014D885E886F88788C481459046A04FF
:1013B0007B045CF425E4229DF001239DF00D1124B3
:1013C000E959FE4F258520612587C0906101D090A5
:1013D0006201E0906301F0906401498C5A8C6B8C3F
:1013E0007C8C4C145D046E047F045CF425E4229D27
:1013F000F001239DF00D1124E959FE4F258520624F
:10140000258749885A886B887C88481A590A6A0A4D
:101410007B0AC301B20197FF07C04424552432015F
:10142000461A570A680A790A45E4429D9001439D8D
:10143000300D112429593E4FD90111964D925D92DC
:101440006D927C9214970D891E892F89388D081909
:1014500019092A093B094801590189829A82AB82FC
:10146000BC82B7FE0BC022273327A90128193909EE
:101470004A095B0929833A834B835C8345E4429D97
:101480009001439D300D1124D901A959BE4F098106
:101490001A812B813C8115960D931D932D933C93BE
:1014A0001897298D3A8D4B8D5C8D2C193D094E096D
:1014B0005F0969017A01CD86DE86EF86F88AF7FE3C
:1014C0000BC00027112798010C191D092E093F098F
:1014D0000D871E872F87388BE5E4E29DA001E39DF1
:1014E000500D112449595E4F0D851E852F85388971
:1014F000DA0119960D931D932D933C931C97498601
:101500005A866B867C8609811A812B813C81401624
:1015100051066206730620F409871A872B873C87D9
:1015200049845A846B847C842D853E854F855889F7
:10153000421653066406750610F429013A0125E4A3
:10154000229D8001239D100D112409591E4FD801A1
:101550001E964D925D926D927C925197411451046A
:101560006104710409F499C30E94E6182DEC3CEE65
:101570004BE154E40E943C1869877A878B879C87EB
:10158000C501B4010E94E6182DEC3CEE4BE154E499
:101590000E943C186D877E878F87988BC701B601A4
:1015A0000E94E61826E636EA48E454E40E943C1815
:1015B0004B015C0129853A854B855C85CA01B901DF
:1015C0000E94261A6B017C012D853E854F85588926
:1015D000CA01B9010E94261A9B01AC01C701B601DC
:1015E0000E94B4176B017C01A5019401C501B401EF
:1015F0000E94261A9B01AC01C701B6010E94B417D4
:101600000E94991A69837A838B839C83F80162A371
:1016100073A384A395A39B01AC0160E070E080E814
:101620009FE30E943C186B017C018D819E81AF81FC
:10163000B885F801868B978BA08FB18FC301B2015B
:101640000E94E6182B013C012D813E814F81588577
:10165000C701B6010E94261AA30192010E94261A10
:101660000E9420180E94B518D80152966D937D9360
:101670008D939C935597A7019601C301B2010E94D7
:10168000261A20E030E543EC57E40E94261A20E0B9
:1016900030E84BE356E40E943C180E9420180E9458
:1016A000B518F80161AB72AB83AB94ABA70196019F
:1016B00069857A858B859C850E94261A69877A8739
:1016C0008B879C87A70196016D857E858F8598897C
:1016D0000E94261A6D877E878F87988BA7019601B7
:1016E000C501B4010E94261A2B013C0190916601AC
:1016F00080916501981709F4B1C0C0904901D0905C
:101700004A01E0904B01F0904C0120E030E0A9014B
:10171000B601C7010E94EE1918160CF09FC0609127
:101720004D0170914E0180914F0190915001905860
:1017300029853A854B855C850E94261A4B015C0100
:101740002091510130915201409153015091540127
:101750006D857E858F8598890E94261A9B01AC0134
:10176000C501B4010E94B3174B015C0120915501E2
:10177000309156014091570150915801C301B20177
:101780000E94261A9B01AC01C501B4010E94B31747
:101790004B015C0123E333E343E75FE30E94371827
:1017A00087FF5CC02D813E814F815885B601C701FE
:1017B0000E94371887FD04C0CD80DE80EF80F8845A
:1017C00023E333E343E75FEBC501B4010E94EE1965
:1017D00018160CF047C0A501940160E070E080E8A5
:1017E0009FE30E94B31720E030E040E05FE30E94F7
:1017F000261A0E94991A4B015C0120E030E046E174
:1018000054E40E94261A6D8F7E8F8F8F98A3A501B6
:10181000940160E070E080E89FE30E94B3179B01B1
:10182000AC016D8D7E8D8F8D98A10E943C180E9419
:10183000991A4B015C019601A7010E94EE19181636
:101840008CF0640175010EC085E4829DF001839DDA
:10185000F00D1124E959FE4F10827ECDC12CD12C00
:10186000E12CF12C85E4829DF001839DF00D112483
:10187000E959FE4FC601D701868F978FA0A3B1A368
:1018800020E030E543E458EC69817A818B819C81CA
:101890000E94261A9B01AC0160E070E0CB010E941F
:1018A000B3170E94991A4B015C019B01AC01B60170
:1018B000C7010E94371887FD02C06401750185E4E5
:1018C000829D8001839D100D112409591E4FC60170
:1018D000D701F801828F938FA48FB58F9401A50152
:1018E0006D817E818F8198850E94371818160CF4BF
:1018F000E2C081E0D80198968C9385E4829DF00146
:10190000839DF00D1124E959FE4F81E087A30985DD
:101910001A852B853C8500934D0110934E01209331
:101920004F01309350012D853E854F855889209376
:10193000510130935201409353015093540140920E
:1019400055015092560160925701709258018D8155
:101950009E81AF81B8858093490190934A01A093FD
:101960004B01B0934C0149A04092660149885A88C6
:101970006B887C884092590150925A0160925B01B9
:1019800070925C014D885E886F88788C40925D0112
:1019900050925E0160925F0170926001498C5A8C96
:1019A0006B8C7C8C40926101509262016092630169
:1019B00070926401F0906601F0E0E0E010E000E079
:1019C000209165018F2D0F2C000C990B28171906FB
:1019D00009F074C0F090650110E000E090E080E054
:1019E00025E4E22E409166012F2D0F2C000C330BC5
:1019F0004217130609F0D9C0009759F001151105D7
:101A000041F0DC0198962C91211103C0B8010E948D
:101A1000A908D0906501F12CE12C85E4C82E8D2D0C
:101A20000D2C000C990B209166012817190609F05E
:101A3000D9C0D70156968D909D90AD90BC90599786
:101A4000A50194015A966D917D918D919C915D9720
:101A50000E943C182B013C01F7018081A5019401F3
:101A6000813009F00BC1C501B4010E943C188B0103
:101A70009C01B301A201C7010E947007D70197968C
:101A80001C92A1960FB6F894DEBF0FBECDBFDF91BA
:101A9000CF911F910F91FF90EF90DF90CF90BF906B
:101AA000AF909F908F907F906F905F904F903F90FE
:101AB0002F900C940210F80110A61FCFF11002C055
:101AC0003EE0F32EFA942F2D35E42302C0011124B9
:101AD000AC0149595E4F6A010115110509F45DC059
:101AE000309709F45AC0D80198968C9198975E96D1
:101AF0009C905E975F96AC905F979096BC90909705
:101B00009196EC9081114CC0428C538C648C758CF6
:101B1000A3019201692D7A2D8B2D9E2D0E94EE1925
:101B20001816F4F5A3019201C301B2010E94261A0E
:101B30001B012C0120E030E543E458ECF80162A1E0
:101B400073A184A195A10E94261A9B01AC01C20138
:101B5000B1010E94B3170E94991A362E472E582EB3
:101B6000892E262F372F482F592F692D7A2D8B2D0F
:101B70009E2D0E94371887FF03C0392C25018E2C1B
:101B8000832D942DA52DB82DF801828F938FA48FCE
:101B9000B58FE1E0D8019796EC93F801860110CF5C
:101BA000892D9A2DAB2DBE2DEFCFFF2D4E2DF4029A
:101BB00090011124D901A959BE4F6D01009751F030
:101BC0000115110539F0FC0120A5211103C0B80150
:101BD0000E94A908F394FEE0FF1201C0F12CC80195
:101BE000860100CFBD2DEC2DBE029001112489018C
:101BF00009591E4F1801E114F104C9F1D701979654
:101C00002C9121110AC0C89EF001C99EF00D11242B
:101C1000E959FE4F27A1222351F1F7014688578841
:101C2000608C718CC89EF001C99EF00D1124E95999
:101C3000FE4FA3019201628D738D848D958D0E945C
:101C40003C184B015C01A3019201D7015A966D919A
:101C50007D918D919C915D970E943C18AB01BC01D8
:101C600095018401C7010E947007F70117A2D39460
:101C7000FEE0DF1201C0D12C7101D1CE60E070E036
:101C8000CB010E943C188B019C01B301A201C7014A
:101C90000E947007F70117A2F4CEA1960FB6F89430
:101CA000DEBF0FBECDBFDF91CF911F910F91FF908F
:101CB000EF90DF90CF90BF90AF909F908F907F90EC
:101CC0006F905F904F903F902F900895CF92DF924A
:101CD000EF92FF92CF936B017C01C42F809166013C
:101CE00090E00E941009E091660195E4E99FF001FF
:101CF0001124E959FE4F92E09083C6A3EF5BFF4F9A
:101D0000C082D182E282F38280936601CF91FF90FC
:101D1000EF90DF90CF900C940210CF93C82F80915A
:101D2000660190E00E941009E091660195E4E99F48
:101D3000F0011124E959FE4FC08380936601CF91D1
:101D40000C940210209166019091650181E02913A5
:101D500001C080E008959091660180916501981717
:101D600049F08091650125E4829FC00111248959C1
:101D70009E4F089590E080E00895909166018091D3
:101D80006501981741F0809165018F5F8E3009F4ED
:101D900080E08093650108958091660180936501DC
:101DA00008958F929F92AF92BF92CF92DF92EF925F
:101DB000FF920F931F93CF93DF9349015A0167015D
:101DC0002DEC3CEE4BE154E40E94261A0E94F319DC
:101DD000C9E5D1E0688379838A839B832DEC3CEE4F
:101DE0004BE154E4C501B4010E94261A0E94F31984
:101DF0006C837D838E839F8326E636EA48E454E431
:101E0000C801B6010E94261A0E94F31968877987D3
:101E10008A879B871092490110924A0110924B01C8
:101E200010924C01EDE4F1E08CE0DF011D928A9507
:101E3000E9F7DF91CF911F910F91FF90EF90DF9025
:101E4000CF90BF90AF909F908F900895EF92FF92A8
:101E50000F931F931092660110926501E12CF12CF3
:101E600000EA11EC20E030E042E952EC6DEC7CEC51
:101E70008BE693EC0E94D10E1F910F91FF90EF9093
:101E800008958AB1837F8AB987B1807C87B9089524
:101E90004A9B02C04B9902C017BC089587BD0895A4
:101EA00087B50895882311F05C9A08955C98089589
:101EB000882311F05D9A08955D980895569A17BC8D
:101EC00081E884BD82E085BD549A80E00E94520F73
:101ED000559A80E00C94580F8091430590914405E9
:101EE000A0914505B09146054091470550914805A0
:101EF0006091490570914A05840F951FA61FB71F71
:101F0000813828E3920721E0A207B10550F48093BD
:101F1000430590934405A0934505B093460580E0A2
:101F2000089580589843A140B10980934305909348
:101F30004405A0934505B093460581E008959B01B3
:101F4000AC01203486E038074105510520F420E437
:101F500036E040E050E060E070E788E399E30E94FB
:101F6000F41AB90190E02115310581E048075105C7
:101F7000B0F02115310588E04807510520F563E0F0
:101F800056954795379527956A95D1F7B901E3E0BE
:101F9000220F331F441F551FEA95D1F791E080911E
:101FA0008100887F9F5F892B8093810070938900D7
:101FB0006093880020934705309348054093490576
:101FC00050934A05089586E056954795379527958D
:101FD0008A95D1F7B90196E0220F331F441F551F90
:101FE0009A95D1F792E0DBCF0E949F0FE0916105B7
:101FF000F09162058081813019F480E00C94480FE3
:1020000086A1FCCF80913E0581110BC081E08093B9
:102010003E0588E38093600580916F008260809325
:102020006F00089510923E051092620510926105AE
:10203000EFE6F0E080818D7F808380E00C94480F94
:1020400080913E05089590913D05911109C08093BE
:102050003C0581E080933D0510923B050C946F0098
:10206000089580913C05089580913D05089580E292
:1020700080933C0510923D0510923B0508954F92C8
:102080005F926F927F928F92AF92BF92CF92DF92C8
:10209000EF92FF920F931F93CF93DF93CDB7DEB7ED
:1020A0002C970FB6F894DEBF0FBECDBF69837A833D
:1020B0008B839C832D833E834F8358872701380170
:1020C000A986BA86CB86DC8680913E05811179C0CF
:1020D000E12CF12C8701A8019701C801B7010E94EA
:1020E000D10EE3E6F5E08CE0DF011D928A95E9F779
:1020F0001F921F921F921F92812CAEA0BFA0C8A456
:10210000D9A4830172012D813E814F815885698157
:102110007A818B819C810E9425090F900F900F90EE
:102120000F9080913E0581114FC0E12CF12C870169
:10213000A8019701C801B7010E94D10EE3E6F5E0BE
:102140008CE0DF011D928A95E9F70E94371081E04B
:10215000809335051F921F921F921F92812CAEA073
:10216000BFA0C8A4D9A4EAA0FBA00CA11DA12E8DDC
:102170003F8D48A159A169857A858B859C850E94F0
:1021800025090F900F900F900F9080913E058111BF
:102190001EC0109235052C960FB6F894DEBF0FBE08
:1021A000CDBFDF91CF911F910F91FF90EF90DF9006
:1021B000CF90BF90AF908F907F906F905F904F9037
:1021C00008950E940E0380CF0E940E03AACF0E94A2
:1021D0000E03DBCF81E080933B05089580913B05A2
:1021E000882319F081E080933A0510923B05089509
:1021F00080913B0508952FB7F89460916305709125
:10220000640580916505909166052FBF0E94E618D0
:102210002DEC3CEE4BE154E40E943C1808952FB79E
:10222000F8946091670570916805809169059091B7
:102230006A052FBF0E94E6182DEC3CEE4BE154E4FA
:102240000E943C1808952FB7F89460916B05709127
:102250006C0580916D0590916E052FBF0E94E61868
:1022600026E636EA48E454E40E943C1808958F922A
:102270009F92AF92BF92CF92DF92EF92FF920F9315
:102280001F93CF93DF9349015A01670178011FB76C
:10229000F8942DEC3CEE4BE154E40E94261A0E9487
:1022A000F319C3E6D5E0688379838A839B832DEC99
:1022B0003CEE4BE154E4C501B4010E94261A0E9491
:1022C000F3196C837D838E839F8326E636EA48E488
:1022D00054E4C701B6010E94261A0E94F3196887C8
:1022E00079878A879B871FBFDF91CF911F910F91BD
:1022F000FF90EF90DF90CF90BF90AF909F908F9026
:102300000895EF92FF920F931F9384B18F6384B966
:1023100085B1807C886385B9E1E8F0E080818F7EBB
:102320008083808188608083E0E8F0E080818D7F19
:10233000808380818E7F808380818F738083808182
:102340008F7C80831092B0001092B100E0E7F0E043
:1023500080818160808360E476E080E090E00E948C
:102360009F0F80E00E94480FE3E6F5E08CE0DF017C
:102370001D928A95E9F7E12CF12C00EA11EC20E09E
:1023800030E042E952EC6DEC7CEC8BE693EC0E9481
:102390003711109243051092440510924505109292
:1023A0004605109262051092610510923D0580E28B
:1023B00080933C0510924B05109235051F910F91AB
:1023C000FF90EF900C9412101F920F920FB60F9285
:1023D00011245E9815BC0F900FBE0F901F9018959A
:1023E0001F920F920FB60F9211248F9385B1887FA1
:1023F00085B91092B1008F910F900FBE0F901F9072
:1024000018951F920F920FB60F921124CF92DF9260
:10241000EF92FF922F933F934F935F936F937F932E
:102420008F939F93AF93BF93CF93DF93EF93FF93DC
:1024300080914B0581110DC081E080934B05809107
:102440003D058823E9F00E9412100E94CC0E1092E4
:102450004B05FF91EF91DF91CF91BF91AF919F918C
:102460008F917F916F915F914F913F912F91FF904D
:10247000EF90DF90CF900F900FBE0F901F901895A8
:1024800080913B05882321F080E00E94480FDFCF38
:1024900080913505811121C04A9B02C04B9903C030
:1024A00080E00E94480F309904C084E20E9423100B
:1024B000CECF319902C085E2F9CF329902C086E2CF
:1024C000F5CF339902C08AE2F1CF349902C08BE292
:1024D000EDCF359902C08DE2E9CF25B1909160052D
:1024E000987385B1877C892B85B928732913AFCF61
:1024F00085B1887F90916005892B85B98AEF80939B
:10250000B20082E08093B10078948091610590914F
:102510006205892B09F06CC00E94AB0E9093620596
:1025200080936105009719F40E94121090CFFC016E
:102530002081223008F05CC061A572A583A594A516
:1025400060933F0570934005809341059093420549
:1025500040E4C42E4CE9D42EE12CF12CC09243056A
:10256000D0924405E0924505F09246050E94F40F92
:10257000E0916105F09162058081813041F4109213
:102580004C0510924D0510924E0510924F05868510
:102590009785A089B189B595A79597958795B095A9
:1025A000A095909581959F4FAF4FBF4F80935C054D
:1025B00090935D05A0935E05B0935F0580935805E9
:1025C00090935905A0935A05B0935B0580935405E9
:1025D00090935505A0935605B0935705109250055A
:1025E00010925105109252051092530510923A051F
:1025F000C0916105D09162052881273008F027CF6E
:10260000E22FF0E0EA5FFC4E0C94161B0D130D1345
:10261000B21509160D160F1613163D853093600579
:1026200089819A81AB81BC8140915C0550915D05A7
:1026300060915E0570915F05840F951FA61FB71FFF
:1026400080935C0590935D05A0935E05B0935F0554
:102650004E855F8568897989181619061A061B0642
:1026600024F5316030936005841B950BA60BB70BE6
:1026700080935C0590935D05A0935E05B0935F0524
:102680008091630590916405A0916505B091660500
:1026900033FFF0C00197A109B109809363059093BE
:1026A0006405A0936505B09366058D819E81AF8119
:1026B000B885C0905805D0905905E0905A05F09023
:1026C0005B058C0D9D1DAE1DBF1D8093580590931D
:1026D0005905A0935A05B0935B05181619061A06FA
:1026E0001B0634F530916005326030936005841B21
:1026F000950BA60BB70B8093580590935905A093A3
:102700005A05B0935B058091670590916805A0918B
:102710006905B0916A0534FFB1C00197A109B109FB
:102720008093670590936805A0936905B0936A0547
:1027300089859A85AB85BC85C0905405D090550598
:10274000E0905605F09057058C0D9D1DAE1DBF1DE8
:102750008093540590935505A0935605B093570563
:10276000181619061A061B0634F5309160053460F8
:1027700030936005841B950BA60BB70B8093540513
:1027800090935505A0935605B093570580916B051E
:1027900090916C05A0916D05B0916E0535FF72C0EA
:1027A0000197A109B10980936B0590936C05A093E3
:1027B0006D05B0936E058091500590915105A091E3
:1027C0005205B09153050196A11DB11D809350058E
:1027D00090935105A0935205B09353053091600535
:1027E000E8E33E273093600584179507A607B707EF
:1027F00008F0ADC120913A05213009F047C0409161
:102800003F0550914005609141057091420540930C
:10281000360550933705609338057093390589A5BF
:102820009AA5ABA5BCA5481759076A077B0740F0D6
:1028300080933F0590934005A0934105B0934205D6
:1028400080E49CE9A0E0B0E08093430590934405C8
:10285000A0934505B093460560913F0570914005F2
:1028600080914105909142050E94F40F82E080938F
:102870003A05EDCD0196A11DB11D0FCF0196A11D09
:10288000B11D4ECF0196A11DB11D8DCF20913A05EE
:10289000223009F03FC00E946C0F882309F4D7CD85
:1028A00089A99AA9ABA9BCA940913F0550914005BF
:1028B0006091410570914205840F951FA61FB71FB7
:1028C00080933F0590934005A0934105B093420546
:1028D0004091360550913705609138057091390562
:1028E00084179507A607B70750F040933F0550930C
:1028F0004005609341057093420510923A0560913E
:102900003F057091400580914105909142050E94DC
:10291000F40F9DCD4DA95EA96FA978AD84179507D9
:10292000A607B70778F50E946C0F882309F48FCDAE
:1029300089A99AA9ABA9BCA940913F05509140052E
:102940006091410570914205840F951FA61FB71F26
:1029500080933F0590934005A0934105B0934205B5
:102960004A895B896C897D89481759076A077B0703
:1029700030F640933F0550934005609341057093B6
:102980004205BDCF49AD5AAD6BAD7CAD84179507FF
:10299000A607B70769F480E49CE9A0E0B0E0809363
:1029A000430590934405A0934505B09346054FCD4C
:1029B00084179507A607B70708F446C00E946C0F56
:1029C000882309F444CD49A95AA96BA97CA980910F
:1029D0003F0590914005A0914105B09142054817EF
:1029E00059076A077B0738F5841B950BA60BB70BB5
:1029F00080933F0590934005A0934105B093420515
:102A00008DA59EA5AFA5B8A940913F055091400561
:102A10006091410570914205481759076A077B0785
:102A200008F06DCF80933F0590934005A09341053A
:102A3000B093420564CF10923F051092400510926A
:102A4000410510924205DCCF6A897B898C899D897A
:102A5000C0903F05D0904005E0904105F0904205C0
:102A60006C157D058E059F0551F060933F057093B1
:102A7000400580934105909342050E94F40FE09138
:102A80006105F09162058081813009F05EC080911E
:102A9000500590915105A0915205B09153052AE03F
:102AA000880F991FAA1FBB1F2A95D1F740914C058B
:102AB00050914D0560914E0570914F05452B462B69
:102AC000472B41F480934C0590934D05A0934E0500
:102AD000B0934F0540914C0550914D0560914E05C6
:102AE00070914F0584179507A607B70708F4AFCC78
:102AF000FD9680819181A281B381840F951FA61FCD
:102B0000B71F80934C0590934D05A0934E05B0934D
:102B10004F05F8940E9438027894E0916105F09195
:102B2000620526A130E0220F331F682F6058770B13
:102B3000269FC001279F900D369F900D11246FEFA7
:102B400070E00E94E01A862FA0CC86A19ECC213096
:102B500011F40E94600210926205109261050E94B9
:102B6000BD0E75CCC0902D05D0902E05E0902F05A0
:102B7000F0903005C114D104E104F104E9F420E03F
:102B800030E04AE754E4FE01EF5BFF4F6081718162
:102B9000828193810E94261A0E94F3196093310565
:102BA00070933205809333059093340560E67AEE96
:102BB00080E090E00E949F0F809131059091320556
:102BC000A0913305B0913405C816D906EA06FB0674
:102BD000B8F48EA10E94480F80912D0590912E058A
:102BE000A0912F05B09130050196A11DB11D8093D4
:102BF0002D0590932E05A0932F05B093300527CC7B
:102C000010922D0510922E0510922F05109230056E
:102C1000A2CF81E00E94520F9ECF80E0FBCF81E0E7
:102C20000E94580F98CF80E0FBCF5F926F927F9207
:102C30008F929F92AF92BF92CF92DF92EF92FF92CC
:102C40000F931F93CF93DF9380913E05811185C130
:102C5000E12CF12C8701A8019701C801B7010E945E
:102C6000D10EE3E6F5E08CE0DF011D928A95E9F7ED
:102C700081E080933505309917C01F921F921F92F3
:102C80001F92812CA12CB12C80EAC82E82E4D82E70
:102C9000A801970160E070E080EA91E40E942509B4
:102CA0000F900F900F900F9031991AC01F921F92A2
:102CB0001F921F92812CA12CB12C10EAC12E12E47C
:102CC000D12EE12CF12C8701A801970160E070E082
:102CD00080EA91EC0E9425090F900F900F900F90C1
:102CE00032991AC01F921F921F921F92812CA12C01
:102CF000B12CD0EACD2ED2E4DD2EE12CF12C8701CF
:102D000020E030E040EA51E4C801B7010E94250903
:102D10000F900F900F900F9033991AC01F921F922F
:102D20001F921F92812CA12CB12CC0EACC2EC2E4A0
:102D3000DC2EE12CF12C870120E030E040EA51EC60
:102D4000C801B7010E9425090F900F900F900F90B6
:102D500034991AC01F921F921F921F92812CA12C8E
:102D6000B12CA0EACA2EA2E4DA2EE12CF12C00EA62
:102D700011E420E030E0A901CA01B9010E9425094F
:102D80000F900F900F900F9035991AC01F921F92BD
:102D90001F921F92812CA12CB12CE0EACE2EE2E4EE
:102DA000DE2EE12CF12C00EA11EC20E030E0A9014C
:102DB000CA01B9010E9425090F900F900F900F9042
:102DC00080913E058111CCC01092350583E4982E88
:102DD0009F92C0EACF931F921F9291EC592E5F925F
:102DE00020E2622E6F921F921F921F921F921F92DB
:102DF0001F92A12CB12C650110EFE12E13E2F12EF0
:102E000004E719E4A6019501C601B5010E943F102F
:102E1000D2E4DF93CF931F921F9240EC742E7F92E7
:102E200050E8852E8F921F921F921F921F921F9221
:102E30001F92A6019501C601B5010E943F109F9205
:102E4000CF931F921F921F921F921F921F921F9249
:102E50001F921F921F92A12CB12C60E2C62E61EC32
:102E6000D62EE12CF12C8701A801970160EF73E2C7
:102E700084E799E40E943F108DB79EB784960FB601
:102E8000F8949EBF0FBE8DBFDF93CF931F921F920A
:102E90001F921F921F921F921F921F921F921F92AA
:102EA000A12CB12C70E8C72E70ECD72EA801970189
:102EB00060EF73E284E799E40E943F109F92CF9302
:102EC0001F921F921F921F921F921F925F926F92EA
:102ED0001F921F925701680120EF33E244E759E443
:102EE000C801B7010E943F10DF93CF931F921F923A
:102EF0001F921F921F921F927F928F921F921F927A
:102F000020EF33E244E759E4C801B7010E943F10C3
:102F1000ADB7BEB794960FB6F894BEBF0FBEADBFA7
:102F2000A8019701C801B7010E94D10EE3E6F5E0C0
:102F30008CE0DF011D928A95E9F7DF91CF911F9117
:102F40000F91FF90EF90DF90CF90BF90AF909F9048
:102F50008F907F906F905F9008950E940E0374CEC3
:102F60000E940E032DCF5058BB27AA270E94CB17D3
:102F70000C949C190E948E1938F00E94951920F02B
:102F800039F49F3F19F426F40C948B190EF4E09554
:102F9000E7FB0C945C19E92F0E94AD1958F3BA179E
:102FA000620773078407950720F079F4A6F50C945F
:102FB000E7190EF4E0950B2EBA2FA02D0B01B901E5
:102FC00090010C01CA01A0011124FF27591B99F09F
:102FD000593F50F4503E68F11A16F040A22F232FAB
:102FE000342F4427585FF3CF469537952795A795FB
:102FF000F0405395C9F77EF41F16BA0B620B730BA2
:10300000840BBAF09150A1F0FF0FBB1F661F771F12
:10301000881FC2F70EC0BA0F621F731F841F48F4C7
:10302000879577956795B795F7959E3F08F0B0CF50
:103030009395880F08F09927EE0F97958795089537
:103040000E94CF1990F09F3748F4911116F40C9418
:10305000E81960E070E080E89FE3089526F01B1611
:10306000611D711D811D0C9462190C947D190E94C3
:10307000381908F481E008950E9450180C949C19A6
:103080000E94951958F00E948E1940F029F45F3F74
:1030900029F00C945C1951110C94E8190C948B19BB
:1030A0000E94AD1968F39923B1F3552391F3951B51
:1030B000550BBB27AA2762177307840738F09F5F59
:1030C0005F4F220F331F441FAA1FA9F335D00E2EC6
:1030D0003AF0E0E832D091505040E695001CCAF733
:1030E0002BD0FE2F29D0660F771F881FBB1F2617F6
:1030F00037074807AB07B0E809F0BB0B802DBF01CD
:10310000FF2793585F4F3AF09E3F510578F00C949B
:103110005C190C94E8195F3FE4F3983ED4F386956C
:1031200077956795B795F7959F5FC9F7880F911DBC
:103130009695879597F90895E1E0660F771F881FA8
:10314000BB1F621773078407BA0720F0621B730B5B
:10315000840BBA0BEE1F88F7E09508950E94B5180E
:103160006894B1110C94E81908950E94B51988F07B
:103170009F5798F0B92F9927B751B0F0E1F0660F3B
:10318000771F881F991F1AF0BA95C9F714C0B1307C
:1031900091F00E94E719B1E008950C94E719672FA8
:1031A000782F8827B85F39F0B93FCCF386957795AB
:1031B0006795B395D9F73EF4909580957095619594
:1031C0007F4F8F4F9F4F0895E89409C097FB3EF4BF
:1031D00090958095709561957F4F8F4F9F4F992364
:1031E000A9F0F92F96E9BB279395F69587957795E2
:1031F0006795B795F111F8CFFAF4BB0F11F460FFA2
:103200001BC06F5F7F4F8F4F9F4F16C0882311F0F9
:1032100096E911C0772321F09EE8872F762F05C00D
:10322000662371F096E8862F70E060E02AF09A95A8
:10323000660F771F881FDAF7880F9695879597F99D
:1032400008950E94CF1990F09F3748F4911116F01D
:103250000C94E81960E070E080E89FEB089526F494
:103260001B16611D711D811D0C9462190C947D1932
:10327000990F0008550FAA0BE0E8FEEF1616170687
:10328000E807F907C0F012161306E407F50798F0EF
:10329000621B730B840B950B39F40A2661F0232B08
:1032A000242B252B21F408950A2609F4A140A69584
:1032B0008FEF811D811D089597F99F6780E870E069
:1032C00060E00895882371F4772321F09850872BCC
:1032D000762F07C0662311F499270DC09051862BD5
:1032E00070E060E02AF09A95660F771F881FDAF782
:1032F000880F9695879597F908959F3F31F09150E3
:1033000020F4879577956795B795880F911D9695C9
:10331000879597F908959FEF80EC089500240A940B
:103320001616170618060906089500240A941216A0
:103330001306140605060895092E0394000C11F4D3
:10334000882352F0BB0F40F4BF2B11F460FF04C080
:103350006F5F7F4F8F4F9F4F089557FD9058440FD9
:10336000551F59F05F3F71F04795880F97FB991FE4
:1033700061F09F3F79F087950895121613061406A1
:10338000551FF2CF4695F1DF08C01616170618062E
:10339000991FF1CF869571056105089408950E94E3
:1033A000B519A0F0BEE7B91788F4BB279F3860F4C1
:1033B0001616B11D672F782F8827985FF7CF86954F
:1033C00077956795B11D93959639C8F30895E8945C
:1033D000BB2766277727CB0197F908950E943819F4
:1033E00008F48FEF08950E94B51958F19E5760F1C7
:1033F0009851A0F0E9F0983020F5092E9927660F32
:10340000771F881F991F0A94D1F712C0062E672FC5
:10341000782F8827985F11F4000C07C0993FB4F308
:103420008695779567959395D9F7611D711D811DD7
:103430003EF490958095709561957F4F8F4F9F4F8B
:10344000089568940C94E8190C94E7190E94391AAD
:103450000C949C190E948E1938F00E94951920F046
:10346000952311F00C945C190C948B1911240C9475
:10347000E8190E94AD1970F3959FC1F3950F50E0C4
:10348000551F629FF001729FBB27F00DB11D639F16
:10349000AA27F00DB11DAA1F649F6627B00DA11DBC
:1034A000661F829F2227B00DA11D621F739FB00D62
:1034B000A11D621F839FA00D611D221F749F3327D2
:1034C000A00D611D231F849F600D211D822F762F6B
:1034D0006A2F11249F5750409AF0F1F088234AF048
:1034E000EE0FFF1FBB1F661F771F881F91505040B4
:1034F000A9F79E3F510580F00C945C190C94E819D3
:103500005F3FE4F3983ED4F3869577956795B7953A
:10351000F795E7959F5FC1F7FE2B880F911D969554
:10352000879597F9089519F416F40C948B190C9457
:103530007D190E94B519B8F39923C9F3B6F39F57C3
:10354000550B87FF0E94D91A0024A0E640EA90019B
:1035500080585695979528F4805C660F771F881FD2
:1035600020F026173707480730F4621B730B840BD3
:10357000202931294A2BA695179407942025312517
:103580004A2758F7660F771F881F20F0261737073E
:10359000480730F4620B730B840B200D311D411D65
:1035A000A09581F7B901842F9158880F969587953A
:1035B000089591505040660F771F881FD2F70895E5
:1035C000AA1BBB1B51E107C0AA1FBB1FA617B70749
:1035D00010F0A61BB70B881F991F5A95A9F7809565
:1035E0009095BC01CD010895A1E21A2EAA1BBB1B28
:1035F000FD010DC0AA1FBB1FEE1FFF1FA217B307BF
:10360000E407F50720F0A21BB30BE40BF50B661FD4
:10361000771F881F991F1A9469F760957095809598
:1036200090959B01AC01BD01CF010895EE0FFF1FE6
:103630000590F491E02D09940E94271BA59F900D01
:10364000B49F900DA49F800D911D11240895A29FF9
:10365000B001B39FC001A39F700D811D1124911D66
:10366000B29F700D811D1124911D0895F894FFCF14
:02367000010057
:00000001FF
