:100000000C9434000C945B000C945B000C945B002B
:100010000C945B000C945B000C945B000C945B00F4
:100020000C945B000C9483110C945B000C94941161
:100030000C945B000C945B000C945B000C945B00D4
:100040000C9477110C945B000C943E010C94E80026
:100050000C945B000C945B000C945B000C945B00B4
:100060000C945B000C945B00EAEEF6E085EC98E003
:1000700001C08193EF3FF907E0F3D9F311241FBECC
:10008000CFEFD8E0DEBFCDBF11E0A0E0B1E0EAE6FF
:10009000F4E302C005900D92A230B107D9F726E033
:1000A000A2E0B1E001C01D92AA3EB207E1F70E94B2
:1000B0005D000C94331A0C94000078940E948C001C
:1000C0000E9467020E94A40E0E9417110E94BC0E9B
:1000D0000E94DF0E0E94320490E080E008951092AA
:1000E0000301109202010895909109019F5F9038D9
:1000F00009F490E0209108012917E1F3E09109014A
:10010000F0E0E659F94F8083909309018091C10096
:1001100080628093C10008951092C50080E18093B1
:10012000C400E0ECF0E080818D7F8083E1ECF0E0C2
:100130008081806180838081886080838081806805
:1001400080838EE70C947400CF92DF92EF92FF923F
:10015000CF93C82FCB01BA0120E030E04AE754E446
:100160000E9407190E94D4186B017C0128EFF21A33
:100170008C2D80680E947400D701C60127E0B695D7
:10018000A795979587952A95D1F780680E94740066
:10019000D701C6013EE0B695A795979587953A9504
:1001A000D1F780680E947400D701C60145E1B69579
:1001B000A795979587954A95D1F780680E94740016
:1001C0008C2FCF91FF90EF90DF90CF900C94740024
:1001D0001F920F920FB60F9211248F939F93EF935C
:1001E000FF9380910801909105019923D1F095E04A
:1001F0009093C600909105019150909305019091C4
:100200000901981305C08091C1008F7D8093C100C2
:10021000FF91EF919F918F910F900FBE0F901F90C4
:100220001895E82FF0E0E659F94F90819093C600B9
:100230008F5F803809F480E080930801E0CFE0917F
:100240000A01F0E0E659FA4F808190910A019F5F20
:1002500090930A01909104019F5F90930401903163
:1002600061F4909105019F5F909305019091C10009
:1002700090629093C1001092040108951F920F9212
:100280000FB60F9211242F933F934F935F936F9369
:100290007F938F939F93AF93BF93CF93EF93FF93EE
:1002A000C091C600809100018823B1F01092000136
:1002B000C0930701FF91EF91CF91BF91AF919F91B3
:1002C0008F917F916F915F914F913F912F910F90FF
:1002D0000FBE0F901F90189581E0809300018091D0
:1002E00007018C1719F08DE30E94E30FC031E8F489
:1002F00081E2C13019F1C23069F410920301109209
:10030000020110920A0110920B01109204010E9446
:10031000F50FD0CFC33019F40E94A502CBCF83E2F2
:10032000C43061F40E94A902C5CFE0910B0181E0C5
:100330008E0F90910A01981304C082E20E94E30F8D
:10034000B9CFF0E0E659FA4FC08380930B01B2CFEA
:10035000CF93C1E080910301811115C01092060175
:10036000C1E090910A0180910B01981761F10E9400
:100370001F01803131F481E080930301109202016A
:1003800081E4CF91089580910201882371F0109249
:10039000060190910A0180910B01981749F00E9483
:1003A0001F01813111F4109203010E94B902D2CFD2
:1003B00080910601811104C00E94AD02C093060124
:1003C0000E94B902E6CF80910601811104C00E940B
:1003D000AD02C09306010E94B902C3CF8091030110
:1003E000882361F080910201811108C090910A0177
:1003F00080910B01981304C00E94AD0280E808951B
:100400000E941F0187FDFBCF813119F41092030177
:10041000F5CF83E20E94E30FF1CF20910A01909182
:100420000B0181E0291301C080E0089581E08093F1
:10043000020108950F931F93E1E1F1E0638170E001
:1004400090E080E0605871098109910927E0660F0A
:10045000771F881F991F2A95D1F7028110E030E09D
:1004600020E00058110921093109600F711F821F16
:10047000931F37E0660F771F881F991F3A95D1F7B2
:10048000018110E030E020E0005811092109310914
:10049000600F711F821F931F47E0660F771F881F31
:1004A000991F4A95D1F72081620F711D811D911D01
:1004B00060587109810998400E94C71720E030E018
:1004C0004AE754E40E941D171F910F910895E6E139
:1004D000F1E081E0808340E050E06AEF75E4428320
:1004E0005383648375831682178210861186128661
:1004F000138614861586168640E050E060EA70E4A4
:100500004787508B618B728B438B548B658B768BBB
:10051000178A108E118E128E9CE0E1E3F1E0DF016C
:10052000292F1D922A95E9F7EDE3F1E0DF011D92F5
:100530009A95E9F78093100180930F0110920E01B4
:1005400010920D0180930C01089581E080931001B9
:10055000089581E080930F01089580910D0190919D
:100560000E01019690930E0180930D0110920C01E3
:1005700008958F929F92AF92BF92CF92DF92EF92A7
:10058000FF920F931F93CF934A9B02C04B9903C0D6
:1005900080E00E94C30E0E94F20F882391F10E9416
:1005A0004A0E0E94C0106B017C010E94AF104B01EB
:1005B0005C010E949E1087017601A50194010E94B2
:1005C0004F0E0E949E106093250170932601809328
:1005D0002701909328010E94AF1060932901709326
:1005E0002A0180932B0190932C010E94C0106093EC
:1005F0002D0170932E0180932F0190933001109262
:10060000150180911001811105C080910F0188238F
:1006100009F41CC1109210010E94200E811112C019
:100620000E940D0281110EC00E94F20F81110AC0BA
:1006300081E40E94740083B7816083BF889583B78B
:100640008E7F83BF4A9903C082E40E9474004B9955
:1006500003C083E40E9474000E94EF0FC82F803211
:1006600011F00E947400309905C0C43219F084E280
:100670000E947400319905C0C53219F085E20E94CC
:100680007400329905C0C63219F086E20E947400E7
:10069000339905C0CA3219F08AE20E9474000E94A0
:1006A0009E1020E030E040EA50E40E949416209131
:1006B00031013091320140913301509134010E9457
:1006C0009416AB01BC0188E70E94A4000E94AF1001
:1006D00020E030E040EA50E40E9494162091350179
:1006E0003091360140913701509138010E949416A3
:1006F000AB01BC0189E70E94A4000E94C0102091B8
:10070000390130913A0140913B0150913C010E94E6
:100710009416AB01BC018AE70E94A40080910C01F1
:10072000811110C060910D0170910E0190E080E088
:100730000E94C517AB01BC0187E70E94A40081E0BD
:1007400080930C01EAEEF6E0BF016A5E764080819C
:10075000853C09F473C090E080E00E94C517AB01AE
:10076000BC0185E70E94A40080910F01882309F451
:1007700057C010920F0140E050E86BEF74E486E739
:100780000E94A400409131015091320160913301E7
:100790007091340181E60E94A4004091350150918E
:1007A0003601609137017091380182E60E94A40001
:1007B0004091390150913A0160913B0170913C01A7
:1007C00083E60E94A40040911801509119016091A4
:1007D0001A0170911B0187E60E94A40060911C0120
:1007E00070E090E080E00E94C517AB01BC0188E694
:1007F0000E94A40040911D0150911E0160911F01B3
:100800007091200189E60E94A4004091210150913D
:10081000220160912301709124018AE60E94A400C4
:1008200086E0CF911F910F91FF90EF90DF90CF90D6
:10083000BF90AF909F908F900C94740088E0EF3F32
:10084000F80711F008F087CF31967ECFCF911F9136
:100850000F91FF90EF90DF90CF90BF90AF909F905F
:100860008F900895C1E3D1E08CE0982E77247394A3
:100870000E94A801182F0E94F20F882319F00E94ED
:10088000B902F6CF17FD99C2EFEBE10FEA3108F09C
:1008900038C1EF3008F031C1F0E0EF5AFB4F0C9453
:1008A000F719C6046004BA048D04C904CC04CF044B
:1008B000D404D904110542057305770579057B0534
:1008C000A0901801B0901901C0901A01D0901B019E
:1008D000E0902D01F0902E0100912F011091300138
:1008E0002091290130912A0140912B0150912C0136
:1008F0006091250170912601809127019091280136
:100900001F921F921F921F9280901C010E94A308A9
:100910000F900F900F900F9039C0A0901801B090D9
:100920001901C0901A01D0901B01E0902D01F090A8
:100930002E0100912F011091300120912901309159
:100940002A0140912B0150912C0160912501709159
:1009500026018091270190912801E0912401EF93D5
:10096000E0912301EF93E0912201EF93E0912101C7
:10097000EF93CACF60911D0170911E0180911F01FC
:100980009091200140911C010E94E40D10921501EC
:1009900076CF10921601FACF70921601F7CF8091A0
:1009A000160180931701F2CF8091170180931601F1
:1009B000EDCF0E948815FE01892D11928A95E9F7E5
:1009C00080E090E0A0EAB0E48093250190932601B6
:1009D000A0932701B09328018093290190932A01C5
:1009E000A0932B01B0932C0110922D0110922E0197
:1009F00010922F0110923001A0901801B0901901AF
:100A0000C0901A01D0901B011F921F921F921F923B
:100A1000812CE12CF12C87019C01AD01CD01B901A4
:100A200075CF8091310190913201A0913301B09145
:100A3000340180933D0190933E01A0933F01B09318
:100A400040018091350190913601A0913701B0911C
:100A500038018093410190934201A0934301B093E8
:100A600044018091390190913A01A0913B01B091EC
:100A70003C018093450190934601A0934701B093B8
:100A8000480184CF80913D0190913E01A0913F01AA
:100A9000B09140018093310190933201A0933301D2
:100AA000B09334018091410190914201A0914301A2
:100AB000B09144018093350190933601A0933701A2
:100AC000B09338018091450190914601A091470172
:100AD000B09148018093390190933A01A0933B0172
:100AE000B0933C0153CF83E00E940B0E4FCF84E0C4
:100AF000FBCF85E0F9CF86E0F7CF8CE30E94E30FD0
:100B000045CF8FE9810F8A3108F055C180911501D9
:100B1000843009F04EC11456173108F048C1E12F56
:100B2000F0E0EB56FA4F0C94F7194106D7062F0662
:100B3000D70657068306AF06D706D706D706D706C9
:100B4000D7064C06D706D7063A06D706D706D706E5
:100B5000D706AC05D8050406109116010E941A02AA
:100B60001130D9F420E030E040EA50E40E949516BC
:100B70009B01AC0160913101709132018091330190
:100B8000909134010E94951660932501709326017F
:100B90008093270190932801F9CE9B01AC016091CD
:100BA0002501709126018091270190912801EACFBB
:100BB000109116010E941A021130D9F420E030E0A1
:100BC00040EA50E40E9495169B01AC01609135010A
:100BD0007091360180913701909138010E949516ED
:100BE0006093290170932A0180932B0190932C012B
:100BF000CDCE9B01AC016091290170912A018091B9
:100C00002B0190912C01EACF109116010E941A023B
:100C10001130D1F420E030E0A9010E9495169B012B
:100C2000AC016091390170913A0180913B01909142
:100C30003C010E94951660932D0170932E018093C4
:100C40002F0190933001A2CE9B01AC0160912D0148
:100C500070912E0180912F0190913001EACF0E9476
:100C60001A02609318017093190180931A019093EE
:100C70001B018CCE0E941A020E94961760931C01E1
:100C800085CE0E941A0260931D0170931E0180930D
:100C90001F01909320017ACE0E941A0260932101D5
:100CA0007093220180932301909324016FCE0E94C0
:100CB0001A026B017C0180911601813059F4C092B7
:100CC0003101D0923201E0923301F09234015ECED4
:100CD0000E94B9020E94E00F8111FACF0E949E107B
:100CE00020E030E040EA50E40E949416A70196010B
:100CF0000E94951660933101709332018093330105
:100D00009093340143CE0E941A026B017C018091C2
:100D10001601813059F4C0923501D0923601E0922B
:100D20003701F092380132CE0E94B9020E94E00FE2
:100D30008111FACF0E94AF1020E030E040EA50E489
:100D40000E949416A70196010E94951660933501A2
:100D500070933601809337019093380117CE0E942B
:100D60001A026B017C0180911601813059F4C09206
:100D70003901D0923A01E0923B01F0923C0106CE5B
:100D80000E94B9020E94E00F8111FACF0E94C010A8
:100D90009B01AC01C701B6010E9495166093390111
:100DA00070933A0180933B0190933C01EFCD8EE329
:100DB000A5CE8AE3A3CE83E2A1CEE0911501E43073
:100DC00048F481E08E0F80931501F0E0EF5EFE4F56
:100DD000108355CD8AE30E94E30F51CD4F925F926D
:100DE0006F927F928F929F92AF92BF92CF92DF923B
:100DF000EF92FF920F931F93CF93DF93CDB7DEB7A0
:100E000062970FB6F894DEBF0FBECDBF9A8B898B69
:100E10002A013B015901FC01628973898489958902
:100E20000E94C5176B017C01A30192010E94071962
:100E30000E9401170E9496172B013C01E989FA894B
:100E400041A652A663A674A6A5019801C701B601E2
:100E50000E9407190E9401170E9496174B015C011E
:100E6000E989FA8985A696A6A7A6B0AA21A932A9DA
:100E700043A954A9A0EEBEE20E94FD1969837A83BA
:100E80008B839C830E94C7176D837E838F83988793
:100E9000C301B2010E94C5172B013C01A7019601B5
:100EA000C701B6010E9407196B017C01A3019201E1
:100EB000C301B2010E94071969877A878B879C87D3
:100EC0002D813E814F815885CA01B9010E94951636
:100ED0006D877E878F87988B29853A854B855C85C2
:100EE000C701B6010E9494162D853E854F8558890D
:100EF0000E941D170E9401170E948F172B013C01B1
:100F0000C501B4010E94C5179B01AC010E940719DD
:100F10004B015C01A70196010E9494166B017C01B4
:100F200069817A818B819C8190958095709561957E
:100F30007F4F8F4F9F4F0E94C7179B01AC010E94AC
:100F400095169B01AC01C701B6010E941D170E94B6
:100F50000218E989FA89C684D784E088F188A70154
:100F60009601241935094609570929833A834B8389
:100F70005C830E948F1729813A814B815C81261BFB
:100F8000370B480B590BDA01C901B7FF3BC0C7014A
:100F9000B6010E94C7172D853E854F8558890E944E
:100FA000071929853A854B855C850E949416A50111
:100FB00094010E9495164B015C0120E030E040E86E
:100FC00050E46D817E818F8198850E9407199B0175
:100FD000AC01C501B4010E941D170E9401170E94B7
:100FE0008F1797FF03C060E070E0CB012601370147
:100FF000641575058605970514F42B013C0180E006
:1010000090E0DC01E989FA8945AA56AA67AA70AE80
:10101000840D951DA61DB71D81AF92AFA3AFB4AFD0
:1010200062960FB6F894DEBF0FBECDBFDF91CF91B1
:101030001F910F91FF90EF90DF90CF90BF90AF90F6
:101040009F908F907F906F905F904F9008954F92F8
:101050005F926F927F92AF92BF92CF92DF92EF92A8
:10106000FF920F931F93CF93DF938C01EB01FC0151
:10107000428C538C648C758CAA8CBB8CCC8CDD8C94
:101080009501A601C301B2010E94181787FF37C05E
:10109000A3019201C301B2010E9407192B013C0177
:1010A00020E03AEB4BE55AECF80162A173A184A170
:1010B00095A10E9407199B01AC01C301B2010E94D6
:1010C00094160E947A197B018C019B01AC01B50139
:1010D000C6010E94181787FF02C07501860197019B
:1010E000A801B501C6010E941817882341F0C70165
:1010F000D8018A8F9B8FAC8FBD8F81E08FA3DF914A
:10110000CF911F910F91FF90EF90DF90CF90BF9004
:10111000AF907F906F905F904F900895CF93DF9343
:101120008F5F8E3009F480E0C82F880FDD0B80912F
:1011300065018C171D0621F0CE01DF91CF91089536
:101140000E94B902F4CF2F923F924F925F926F921A
:101150007F928F929F92AF92BF92CF92DF92EF9247
:10116000FF920F931F93CF93DF93CDB7DEB7A19775
:101170000FB6F894DEBF0FBECDBF29013A01E98258
:10118000FA820B831C83AD82BE82CF82D886CEA822
:10119000DFA8E8ACF9AC2CE137EC41EB52E40E945B
:1011A00007190E94D418698B7A8B8B8B9C8B24E750
:1011B00031ED45EB52E4C301B2010E9407190E94D0
:1011C000D4186D8B7E8B8F8B988F25E535E545E0A8
:1011D00052E469817A818B819C810E9407190E9467
:1011E000D418698F7A8F8B8F9C8F8091660190E0E5
:1011F0000E948E0889A380916601282E312C20E060
:1012000030E0A901C701B6010E941817882309F42C
:1012100099C285E4829D8001839D100D1124095996
:101220001E4F81E0D8018C932CE137EC41EB52E466
:10123000C701B6010E94071920E030E040E854E4FD
:101240000E9407190E94D418F801FD9660837183EB
:101250008283938385E4829DF001839DF00D1124A8
:10126000E959FE4F86A215868091590190915A0145
:10127000A0915B01B0915C0149885A886B887C8899
:10128000481659066A067B0614F428E025878090E4
:101290005D0190905E01A0905F01B09060014D886B
:1012A0005E886F88788C481459046A047B045CF467
:1012B00025E4229DF001239DF00D1124E959FE4FF4
:1012C000258520612587C0906101D0906201E09062
:1012D0006301F0906401498C5A8C6B8C7C8C4C14AB
:1012E0005D046E047F045CF425E4229DF001239DDF
:1012F000F00D1124E959FE4F258520622587498884
:101300005A886B887C88481A590A6A0A7B0AC30182
:10131000B20197FF07C0442455243201461A570AE8
:10132000680A790A45E4429D9001439D300D1124DD
:1013300029593E4FD90111964D925D926D927C9242
:1013400014970D891E892F89388D081919092A09C2
:101350003B094801590189829A82AB82BC82B7FE5F
:101360000BC022273327A901281939094A095B092B
:1013700029833A834B835C8345E4429D9001439DDE
:10138000300D1124D901A959BE4F09811A812B8131
:101390003C8115960D931D932D933C931897298DA1
:1013A0003A8D4B8D5C8D2C193D094E095F09690101
:1013B0007A01CD86DE86EF86F88AF7FE0BC000271D
:1013C000112798010C191D092E093F090D871E8749
:1013D0002F87388BE5E4E29DA001E39D500D112499
:1013E00049595E4F0D851E852F853889DA0119967A
:1013F0000D931D932D933C931C9749865A866B86BB
:101400007C8609811A812B813C8140165106620637
:10141000730620F409871A872B873C8749845A84EE
:101420006B847C842D853E854F85588942165306F2
:101430006406750610F429013A0125E4229D800115
:10144000239D100D112409591E4FD8011E964D924F
:101450005D926D927C925197411451046104710424
:1014600009F499C30E94C7172CE137EC41EB52E411
:101470000E941D1769877A878B879C87C501B401F5
:101480000E94C71724E731ED45EB52E40E941D1777
:101490006D877E878F87988BC701B6010E94C7171B
:1014A00025E535E545E052E40E941D174B015C013E
:1014B00029853A854B855C85CA01B9010E940719C7
:1014C0006B017C012D853E854F855889CA01B90184
:1014D0000E9407199B01AC01C701B6010E94951635
:1014E0006B017C01A5019401C501B4010E9407199B
:1014F0009B01AC01C701B6010E9495160E947A19A2
:1015000069837A838B839C83F80162A373A384A38A
:1015100095A39B01AC0160E070E080E89FE30E942E
:101520001D176B017C018D819E81AF81B885F8010B
:10153000868B978BA08FB18FC301B2010E94C71712
:101540002B013C012D813E814F815885C701B60199
:101550000E940719A30192010E9407190E94011716
:101560000E949617D80152966D937D938D939C930C
:101570005597A7019601C301B2010E94071920E007
:101580003AEB4BED59E40E94071920E030E84BE3B9
:1015900056E40E941D170E9401170E949617F80139
:1015A00061AB72AB83AB94ABA701960169857A8579
:1015B0008B859C850E94071969877A878B879C8712
:1015C000A70196016D857E858F8598890E940719F0
:1015D0006D877E878F87988BA7019601C501B4011F
:1015E0000E9407192B013C019091660180916501D1
:1015F000981709F4B1C0C0904901D0904A01E09019
:101600004B01F0904C0120E030E0A901B601C70188
:101610000E94CF1818160CF09FC060914D01709178
:101620004E0180914F0190915001905829853A8543
:101630004B855C850E9407194B015C01209151018B
:101640003091520140915301509154016D857E8536
:101650008F8598890E9407199B01AC01C501B401CF
:101660000E9494164B015C01209155013091560166
:101670004091570150915801C301B2010E940719CE
:101680009B01AC01C501B4010E9494164B015C01A1
:1016900023E333E343E75FE30E94181787FF5CC04F
:1016A0002D813E814F815885B601C7010E941817D0
:1016B00087FD04C0CD80DE80EF80F88423E333E330
:1016C00043E75FEBC501B4010E94CF1818160CF078
:1016D00047C0A501940160E070E080E89FE30E94AC
:1016E000941620E030E040E05FE30E9407190E947A
:1016F0007A194B015C0120E030EC48E256E40E948C
:1017000007196D8F7E8F8F8F98A3A501940160E0DC
:1017100070E080E89FE30E9494169B01AC016D8D00
:101720007E8D8F8D98A10E941D170E947A194B0102
:101730005C019601A7010E94CF1818168CF0640175
:1017400075010EC085E4829DF001839DF00D11248A
:10175000E959FE4F10827ECDC12CD12CE12CF12C09
:1017600085E4829DF001839DF00D1124E959FE4F1F
:10177000C601D701868F978FA0A3B1A320E03AEBD3
:101780004BE55AEC69817A818B819C810E94071913
:101790009B01AC0160E070E0CB010E9494160E94B6
:1017A0007A194B015C019B01AC01B601C7010E9493
:1017B000181787FD02C06401750185E4829D8001D0
:1017C000839D100D112409591E4FC601D701F80140
:1017D000828F938FA48FB58F9401A5016D817E8137
:1017E0008F8198850E94181718160CF4E2C081E0CA
:1017F000D80198968C9385E4829DF001839DF00D2D
:101800001124E959FE4F81E087A309851A852B85AC
:101810003C8500934D0110934E0120934F0130936E
:1018200050012D853E854F85588920935101309375
:1018300052014093530150935401409255015092EC
:10184000560160925701709258018D819E81AF813F
:10185000B8858093490190934A01A0934B01B093BE
:101860004C0149A04092660149885A886B887C885F
:101870004092590150925A0160925B0170925C0152
:101880004D885E886F88788C40925D0150925E0131
:1018900060925F0170926001498C5A8C6B8C7C8CD9
:1018A0004092610150926201609263017092640102
:1018B000F0906601F0E0E0E010E000E020916501CA
:1018C0008F2D0F2C000C990B2817190609F074C0E6
:1018D000F090650110E000E090E080E025E4E22E69
:1018E000409166012F2D0F2C000C330B421713066D
:1018F00009F0D9C0009759F00115110541F0DC013C
:1019000098962C91211103C0B8010E942708D0900D
:101910006501F12CE12C85E4C82E8D2D0D2C000CD9
:10192000990B209166012817190609F0D9C0D70133
:1019300056968D909D90AD90BC905997A5019401BD
:101940005A966D917D918D919C915D970E941D1786
:101950002B013C01F7018081A5019401813009F040
:101960000BC1C501B4010E941D178B019C01B3017D
:10197000A201C7010E94EE06D70197961C92A1967C
:101980000FB6F894DEBF0FBECDBFDF91CF911F9190
:101990000F91FF90EF90DF90CF90BF90AF909F900E
:1019A0008F907F906F905F904F903F902F900C940E
:1019B000C20FF80110A61FCFF11002C03EE0F32EB7
:1019C000FA942F2D35E42302C0011124AC014959AA
:1019D0005E4F6A010115110509F45DC0309709F4E5
:1019E0005AC0D80198968C9198975E969C905E9775
:1019F0005F96AC905F979096BC9090979196EC9084
:101A000081114CC0428C538C648C758CA301920163
:101A1000692D7A2D8B2D9E2D0E94CF181816F4F566
:101A2000A3019201C301B2010E9407191B012C01FD
:101A300020E03AEB4BE55AECF80162A173A184A1D6
:101A400095A10E9407199B01AC01C201B1010E943E
:101A500094160E947A19362E472E582E892E262F3C
:101A6000372F482F592F692D7A2D8B2D9E2D0E94AF
:101A7000181787FF03C0392C25018E2C832D942D38
:101A8000A52DB82DF801828F938FA48FB58FE1E03B
:101A9000D8019796EC93F801860110CF892D9A2DE5
:101AA000AB2DBE2DEFCFFF2D4E2DF4029001112452
:101AB000D901A959BE4F6D01009751F001151105CB
:101AC00039F0FC0120A5211103C0B8010E942708AC
:101AD000F394FEE0FF1201C0F12CC801860100CF93
:101AE000BD2DEC2DBE0290011124890109591E4F14
:101AF0001801E114F104C9F1D70197962C91211135
:101B00000AC0C89EF001C99EF00D1124E959FE4F8C
:101B100027A1222351F1F70146885788608C718CE8
:101B2000C89EF001C99EF00D1124E959FE4FA30192
:101B30009201628D738D848D958D0E941D174B01CE
:101B40005C01A3019201D7015A966D917D918D910F
:101B50009C915D970E941D17AB01BC01950184010A
:101B6000C7010E94EE06F70117A2D394FEE0DF1230
:101B700001C0D12C7101D1CE60E070E0CB010E9498
:101B80001D178B019C01B301A201C7010E94EE0643
:101B9000F70117A2F4CEA1960FB6F894DEBF0FBEE0
:101BA000CDBFDF91CF911F910F91FF90EF90DF900C
:101BB000CF90BF90AF909F908F907F906F905F90ED
:101BC0004F903F902F900895CF92DF92EF92FF9227
:101BD000CF936B017C01C42F8091660190E00E943D
:101BE0008E08E091660195E4E99FF0011124E9591E
:101BF000FE4F92E09083C6A3EF5BFF4FC082D1827D
:101C0000E282F38280936601CF91FF90EF90DF90A4
:101C1000CF900C94C20FCF93C82F8091660190E0B3
:101C20000E948E08E091660195E4E99FF00111247D
:101C3000E959FE4FC08380936601CF910C94C20F87
:101C4000209166019091650181E0291301C080E037
:101C500008959091660180916501981749F08091EF
:101C6000650125E4829FC001112489599E4F089582
:101C700090E080E008959091660180916501981749
:101C800041F0809165018F5F8E3009F480E0809390
:101C900065010895809166018093650108958F9292
:101CA0009F92AF92BF92CF92DF92EF92FF920F93EB
:101CB0001F93CF93DF9349015A0167012CE137EC61
:101CC00041EB52E40E9407190E94D418C9E5D1E003
:101CD000688379838A839B8324E731ED45EB52E463
:101CE000C501B4010E9407190E94D4186C837D833A
:101CF0008E839F8325E535E545E052E4C801B601B2
:101D00000E9407190E94D418688779878A879B8761
:101D10001092490110924A0110924B0110924C010D
:101D2000EDE4F1E08CE0DF011D928A95E9F7DF91A7
:101D3000CF911F910F91FF90EF90DF90CF90BF90C8
:101D4000AF909F908F900895EF92FF920F931F9303
:101D50001092660110926501E12CF12C870120E0C0
:101D600030E040EA50E4CA01B9010E944F0E1F91D1
:101D70000F91FF90EF9008958AB1837F8AB987B160
:101D8000807C87B908954A9B04C04B9B02C0811197
:101D900004C010922D055E98089580932D05089536
:101DA00080912D050895882311F05C9A08955C9820
:101DB0000895882311F05F9A08955F980895569AC0
:101DC00014BC15BCEEE6F0E080818160808316BC17
:101DD000549A80E00E94D30E579A80E00C94D90E5A
:101DE00080913E0590913F05A0914005B09141053D
:101DF000409142055091430560914405709145051D
:101E0000840F951FA61FB71F813828E3920721E092
:101E1000A207B10550F480933E0590933F05A0932F
:101E20004005B093410580E0089580589843A14053
:101E3000B10980933E0590933F05A0934005B09370
:101E4000410581E008959B01AC01203486E038070C
:101E50004105510520F420E436E040E050E060E028
:101E600070E788E399E30E94D519B90190E0211544
:101E7000310581E048075105B0F02115310588E0B2
:101E80004807510520F563E0569547953795279506
:101E90006A95D1F7B901E3E0220F331F441F551FA4
:101EA000EA95D1F791E080918100887F9F5F892B2F
:101EB000809381007093890060938800209342058D
:101EC000309343054093440550934505089586E0BB
:101ED00056954795379527958A95D1F7B90196E09C
:101EE000220F331F441F551F9A95D1F792E0DBCF85
:101EF000CF92DF92EF92FF92CF93DF936B017C0141
:101F00000E94230FC0915C05D0915D0588818130CE
:101F100049F480E0DF91CF91FF90EF90DF90CF9078
:101F20000C94C30EC701B6010E94C5176B017C015A
:101F30006A897B898C899D890E94C5179B01AC01A8
:101F4000C701B6010E941D1723E333E343E75FE3B4
:101F50000E9407192DEC3CEC4CE45DE30E949516C1
:101F60006B017C016EA170E090E080E00E94C717D9
:101F70009B01AC01C701B6010E9407190E94961788
:101F8000862FC8CF8091390581110BC081E08093E5
:101F9000390580E380935B0580916F0082608093B8
:101FA0006F0008951092390510925D0510925C053E
:101FB000EFE6F0E080818D7F808380E00C94C30E9B
:101FC00080913905089590913805911107C080934B
:101FD000370581E0809338050C946F000895809157
:101FE0003705089580913805089580E2809337057C
:101FF0001092380508954F925F926F927F928F9260
:10200000AF92BF92CF92DF92EF92FF920F931F9306
:10201000CF93DF93CDB7DEB72C970FB6F894DEBF22
:102020000FBECDBF69837A838B839C8329013A01DC
:10203000ED82FE820F831887A986BA86CB86DC865E
:1020400080913905811171C0E12CF12C8701A80123
:102050009701C801B7010E944F0EEEE5F5E08CE054
:10206000DF011D928A95E9F71F921F921F921F921E
:10207000812CAE8CBF8CC8A0D9A0A301920169812C
:102080007A818B819C810E94A3080F900F900F9002
:102090000F908091390581114BC0E12CF12C870103
:1020A000A8019701C801B7010E944F0EEEE5F5E0C7
:1020B0008CE0DF011D928A95E9F70E94F50F81E01F
:1020C000809336051F921F921F921F92812CAE8C17
:1020D000BF8CC8A0D9A029853A854B855C856D81C8
:1020E0007E818F8198850E94A3080F900F900F909A
:1020F0000F908091390581111EC0109236052C96E3
:102100000FB6F894DEBF0FBECDBFDF91CF911F9108
:102110000F91FF90EF90DF90CF90BF90AF908F9096
:102120007F906F905F904F9008950E94B90288CF82
:102130000E94B902AECF0E94B902DBCF60915E056A
:1021400070915F0580916005909161050E94C717AD
:102150002CE137EC41EB52E40E941D170895609189
:1021600062057091630580916405909165050E94F8
:10217000C71724E731ED45EB52E40E941D1708957F
:102180006091660570916705809168059091690579
:102190000E94C71725E535E545E052E40E941D176A
:1021A00008958F929F92AF92BF92CF92DF92EF925B
:1021B000FF920F931F93CF93DF9349015A01670159
:1021C0002CE137EC41EB52E40E9407190E94D4182D
:1021D000CEE5D5E0688379838A839B8324E731ED5C
:1021E00045EB52E4C501B4010E9407190E94D418BE
:1021F0006C837D838E839F8325E535E545E052E43E
:10220000C801B6010E9407190E94D418688779870F
:102210008A879B87DF91CF911F910F91FF90EF905D
:10222000DF90CF90BF90AF909F908F900895EF92E6
:10223000FF920F931F9384B18F6384B985B1807C23
:10224000806385B9E1E8F0E080818F7E80838081C2
:1022500088608083E0E8F0E080818D7F80838081EA
:102260008E7F808380818F73808380818F7C808349
:102270001092B0001092B100E0E7F0E08081816040
:10228000808360E476E080E090E00E94230F80E0AD
:102290000E94C30EEEE5F5E08CE0DF011D928A9509
:1022A000E9F7E12CF12C870120E030E040EA50E42E
:1022B000CA01B9010E94D11010923E0510923F054B
:1022C000109240051092410510925D0510925C0538
:1022D0001092380580E280933705109246051092DF
:1022E00036051F910F91FF90EF900C94D20F1F9223
:1022F0000F920FB60F9211245E9815BC0F900FBE6F
:102300000F901F9018951F920F920FB60F921124E5
:102310008F9385B1887F85B91092B1008F910F900E
:102320000FBE0F901F9018951F920F920FB60F922D
:102330001124CF92DF92EF92FF922F933F934F930E
:102340005F936F937F938F939F93AF93BF93CF933D
:10235000DF93EF93FF938091460581110DC081E0DB
:1023600080934605809138058823E9F00E94D20FBA
:102370000E944A0E10924605FF91EF91DF91CF9196
:10238000BF91AF919F918F917F916F915F914F918D
:102390003F912F91FF90EF90DF90CF900F900FBE65
:1023A0000F901F90189580913605811119C04A9B96
:1023B00002C04B9903C080E00E94C30E309904C054
:1023C00084E20E94E30FD6CF319902C085E2F9CFB3
:1023D000329902C086E2F5CF339902C08AE2F1CF8A
:1023E0000E94D00E90910101903180F58091010101
:1023F0008F5F8093010125B190915B05987385B142
:10240000877C892B85B928732913B4CF85B1887F40
:1024100090915B05892B85B98AEF8093B20082E0A9
:102420008093B100789480915C0590915D05892B33
:1024300009F0D2C00E94290E90935D0580935C053F
:10244000009709F06AC00E94D20F94CF811103C097
:102450005E9881E0CECF15BC5E9A823FD0F7209186
:102460004205309143054091440550914505232F85
:10247000342F452F552790E1899FD00111240E94C8
:10248000081AAB01BC01DC01CA0121E04F3F510534
:1024900061057105F1F1E8F1C3E0B695A79597954F
:1024A0008795CA95D1F722E08F3F9105A105B10527
:1024B00081F178F1DB01CA01F6E0B695A795979511
:1024C0008795FA95D1F723E08F3F9105A105B105D6
:1024D00001F1F8F0BB27A72F962F852F24E08F3F1F
:1024E0009105A105B105A9F0A0F0DB01CA015AE0F0
:1024F000B695A795979587955A95D1F78F3F9105F2
:10250000A105B10529F020F08FEF90E0A0E0B0E048
:1025100025E0819586BD25BD9CCFFC012081223020
:1025200008F05AC061A572A583A594A560933A05E9
:1025300070933B0580933C0590933D0540E4C42E89
:102540004CE9D42EE12CF12CC0923E05D0923F05EF
:10255000E0924005F09241050E94780FE0915C0501
:10256000F0915D058081813041F410924705109211
:1025700048051092490510924A0586859785A089DD
:10258000B189B595A79597958795B095A0959095A4
:1025900081959F4FAF4FBF4F80935705909358053C
:1025A000A0935905B0935A05809353059093540511
:1025B000A0935505B093560580934F059093500511
:1025C000A0935105B093520510924B0510924C0503
:1025D00010924D0510924E05C0915C05D0915D059D
:1025E0002881273008F0C6CEE22FF0E0E650FD4EFD
:1025F0000C94F719011301132D157C158015821504
:1026000086153D8530935B0589819A81AB81BC81BC
:1026100040915705509158056091590570915A05A0
:10262000840F951FA61FB71F8093570590935805D9
:10263000A0935905B0935A054E855F8568897989BD
:10264000181619061A061B0624F5316030935B052F
:10265000841B950BA60BB70B8093570590935805D9
:10266000A0935905B0935A0580915E0590915F053E
:10267000A0916005B091610533FFF3C00197A109F6
:10268000B10980935E0590935F05A0936005B093B8
:1026900061058D819E81AF81B885C0905305D09032
:1026A0005405E0905505F09056058C0D9D1DAE1D0E
:1026B000BF1D8093530590935405A0935505B09387
:1026C0005605181619061A061B0634F530915B05D7
:1026D000326030935B05841B950BA60BB70B809380
:1026E000530590935405A0935505B09356058091DA
:1026F000620590916305A0916405B091650534FF72
:10270000B4C00197A109B109809362059093630554
:10271000A0936405B093650589859A85AB85BC85D2
:10272000C0904F05D0905005E0905105F0905205B3
:102730008C0D9D1DAE1DBF1D80934F0590935005C0
:10274000A0935105B0935205181619061A061B06D8
:1027500034F530915B05346030935B05841B950B39
:10276000A60BB70B80934F0590935005A09351058E
:10277000B09352058091660590916705A091680518
:10278000B091690535FF75C00197A109B109809322
:10279000660590936705A0936805B09369058091DD
:1027A0004B0590914C05A0914D05B0914E050196B9
:1027B000A11DB11D80934B0590934C05A0934D0531
:1027C000B0934E0530915B05E0E33E2730935B0507
:1027D00084179507A607B70708F034C14DA95EA96D
:1027E0006FA978AD84179507A607B70708F045C00D
:1027F0000E94F00E882309F4BDCD89A99AA9ABA93E
:10280000BCA940913A0550913B0560913C057091FF
:102810003D05840F951FA61FB71F80933A0590931F
:102820003B05A0933C05B0933D054A895B896C89C3
:102830007D89481759076A077B0740F440933A059A
:1028400050933B0560933C0570933D0560913A05BC
:1028500070913B0580913C0590913D050E94780F59
:1028600089CD0196A11DB11D0CCF0196A11DB11DF1
:102870004BCF0196A11DB11D8ACF49AD5AAD6BADAD
:102880007CAD84179507A607B70769F480E49CE937
:10289000A0E0B0E080933E0590933F05A0934005F3
:1028A000B093410567CD84179507A607B70708F4CD
:1028B00046C00E94F00E882309F45CCD49A95AA9AC
:1028C0006BA97CA980913A0590913B05A0913C05AC
:1028D000B0913D05481759076A077B0738F5841BF7
:1028E000950BA60BB70B80933A0590933B05A093ED
:1028F0003C05B0933D058DA59EA5AFA5B8A9409117
:102900003A0550913B0560913C0570913D05481793
:1029100059076A077B0708F099CF80933A0590938F
:102920003B05A0933C05B0933D0590CF10923A052E
:1029300010923B0510923C0510923D05DCCF6A8950
:102940007B898C899D89C0903A05D0903B05E090A9
:102950003C05F0903D056C157D058E059F0551F0F9
:1029600060933A0570933B0580933C0590933D0539
:102970000E94780FE0915C05F0915D0580818130C7
:1029800009F05EC080914B0590914C05A0914D05DA
:10299000B0914E052AE0880F991FAA1FBB1F2A95E8
:1029A000D1F74091470550914805609149057091D4
:1029B0004A05452B462B472B41F4809347059093BE
:1029C0004805A0934905B0934A05409147055091A9
:1029D00048056091490570914A0584179507A60737
:1029E000B70708F4C7CCFD9680819181A281B3819D
:1029F000840F951FA61FB71F809347059093480526
:102A0000A0934905B0934A05F8940E94EE0178948A
:102A1000482F4058550B9A01220F331FE0915C0557
:102A2000F0915D0546A1429FC001439F900D112486
:102A30006FEF70E00E94C119862F0E94C30E9ACCDE
:102A400086A1FBCF213011F40E94160210925D0581
:102A500010925C050E943B0E8DCCC0902E05D0904C
:102A60002F05E0903005F0903105C114D104E10448
:102A7000F104E9F420E030E04AE754E4FE01EF5BC2
:102A8000FF4F60817181828193810E9407190E94AA
:102A9000D418609332057093330580933405909376
:102AA000350560E67AEE80E090E00E94230F5FEF4C
:102AB000C51AD50AE50AF50AC0922E05D0922F054F
:102AC000E0923005F0923105809132059091330506
:102AD000A0913405B0913505C816D906EA06FB0663
:102AE00010F48EA1AACF10922E0510922F051092ED
:102AF000300510923105AACF81E00E94D30EA6CFF7
:102B000080E0FBCF81E00E94D90EA0CF80E0FBCF18
:102B10008F929F92AF92BF92CF92DF92EF92FF92ED
:102B20000F931F93CF93DF93809139058111F6C0E6
:102B3000E12CF12C8701A8019701C801B7010E947F
:102B40004F0EEEE5F5E08CE0DF011D928A95E9F786
:102B500081E080933605309917C01F921F921F9213
:102B60001F92812CA12CB12CE8E4CE2EE4E4DE2EC1
:102B7000A801970160E070E080EA91E40E94A30858
:102B80000F900F900F900F9031991AC01F921F92C3
:102B90001F921F92812CA12CB12C78E4C72E74E4D3
:102BA000D72EE12CF12C8701A801970160E070E09D
:102BB00080EA91EC0E94A3080F900F900F900F9065
:102BC00032991AC01F921F921F921F92812CA12C22
:102BD000B12C68E4C62E64E4D62EE12CF12C8701DA
:102BE00020E030E040EA51E4C801B7010E94A308A8
:102BF0000F900F900F900F9033991AC01F921F9251
:102C00001F921F92812CA12CB12C58E4C52E54E4A4
:102C1000D52EE12CF12C870120E030E040EA51EC88
:102C2000C801B7010E94A3080F900F900F900F905A
:102C300080913905811175C01092360585E4982E72
:102C40009F92C8E4CF931F921F92A12CB12C6501D3
:102C5000E12CF12C00E211E4A601950160EF73E292
:102C600084E799EC0E94FB0FD4E4DF93CF931F928B
:102C70001F92E12CF12C00E810E4A601950160EF11
:102C800073E284E799EC0E94FB0F9F92CF931F920F
:102C90001F92A12CB12C30E2C32E31E4D32EE12CB3
:102CA000F12C870120EF33E244E759ECC801B7016A
:102CB0000E94FB0FDF93CF931F921F92A12CB12C88
:102CC00040E8C42E40E4D42E20EF33E244E759EC30
:102CD000C801B7010E94FB0FA8019701C801B70105
:102CE0000E944F0EEEE5F5E08CE0DF011D928A9523
:102CF000E9F78DB79EB740960FB6F8949EBF0FBE0A
:102D00008DBFDF91CF911F910F91FF90EF90DF90DA
:102D1000CF90BF90AF909F908F9008950E94B9027E
:102D200003CF0E94B90284CF5058BB27AA270E9424
:102D3000AC160C947D180E946F1838F00E9476181B
:102D400020F039F49F3F19F426F40C946C180EF41B
:102D5000E095E7FB0C943D18E92F0E948E1858F37C
:102D6000BA17620773078407950720F079F4A6F570
:102D70000C94C8180EF4E0950B2EBA2FA02D0B0161
:102D8000B90190010C01CA01A0011124FF27591BB0
:102D900099F0593F50F4503E68F11A16F040A22FB6
:102DA000232F342F4427585FF3CF46953795279527
:102DB000A795F0405395C9F77EF41F16BA0B620B26
:102DC000730B840BBAF09150A1F0FF0FBB1F661F6D
:102DD000771F881FC2F70EC0BA0F621F731F841FB0
:102DE00048F4879577956795B795F7959E3F08F0D6
:102DF000B0CF9395880F08F09927EE0F9795879598
:102E000008950E94B01890F09F3748F4911116F47D
:102E10000C94C91860E070E080E89FE3089526F004
:102E20001B16611D711D811D0C9443180C945E18B6
:102E30000E94191808F481E008950E9431170C943B
:102E40007D180E94761858F00E946F1840F029F4FF
:102E50005F3F29F00C943D1851110C94C9180C9443
:102E60006C180E948E1868F39923B1F3552391F3DF
:102E7000951B550BBB27AA2762177307840738F0E9
:102E80009F5F5F4F220F331F441FAA1FA9F335D046
:102E90000E2E3AF0E0E832D091505040E695001CFA
:102EA000CAF72BD0FE2F29D0660F771F881FBB1FB4
:102EB000261737074807AB07B0E809F0BB0B802D92
:102EC000BF01FF2793585F4F3AF09E3F510578F0BE
:102ED0000C943D180C94C9185F3FE4F3983ED4F36A
:102EE000869577956795B795F7959F5FC9F7880F92
:102EF000911D9695879597F90895E1E0660F771FE4
:102F0000881FBB1F621773078407BA0720F0621B74
:102F1000730B840BBA0BEE1F88F7E09508950E949F
:102F200096176894B1110C94C91808950E949618C8
:102F300088F09F5798F0B92F9927B751B0F0E1F07A
:102F4000660F771F881F991F1AF0BA95C9F714C02A
:102F5000B13091F00E94C818B1E008950C94C818DF
:102F6000672F782F8827B85F39F0B93FCCF3869563
:102F700077956795B395D9F73EF4909580957095C0
:102F800061957F4F8F4F9F4F0895E89409C097FB3D
:102F90003EF490958095709561957F4F8F4F9F4F30
:102FA0009923A9F0F92F96E9BB279395F695879574
:102FB00077956795B795F111F8CFFAF4BB0F11F437
:102FC00060FF1BC06F5F7F4F8F4F9F4F16C08823DE
:102FD00011F096E911C0772321F09EE8872F762F14
:102FE00005C0662371F096E8862F70E060E02AF055
:102FF0009A95660F771F881FDAF7880F9695879541
:1030000097F908950E94B01890F09F3748F49111F5
:1030100016F00C94C91860E070E080E89FEB08950A
:1030200026F41B16611D711D811D0C9443180C9410
:103030005E18990F0008550FAA0BE0E8FEEF161670
:103040001706E807F907C0F012161306E407F5079C
:1030500098F0621B730B840B950B39F40A2661F010
:10306000232B242B252B21F408950A2609F4A140B3
:10307000A6958FEF811D811D089597F99F6780E8C0
:1030800070E060E00895882371F4772321F0985070
:10309000872B762F07C0662311F499270DC0905116
:1030A000862B70E060E02AF09A95660F771F881FE4
:1030B000DAF7880F9695879597F908959F3F31F035
:1030C000915020F4879577956795B795880F911D56
:1030D0009695879597F908959FEF80EC08950024C1
:1030E0000A941616170618060906089500240A946D
:1030F00012161306140605060895092E0394000CF3
:1031000011F4882352F0BB0F40F4BF2B11F460FF81
:1031100004C06F5F7F4F8F4F9F4F089557FD9058AA
:10312000440F551F59F05F3F71F04795880F97FB8B
:10313000991F61F09F3F79F0879508951216130645
:103140001406551FF2CF4695F1DF08C01616170674
:103150001806991FF1CF86957105610508940895A9
:103160000E949618A0F0BEE7B91788F4BB279F38D5
:1031700060F41616B11D672F782F8827985FF7CF58
:10318000869577956795B11D93959639C8F30895FF
:10319000E894BB2766277727CB0197F908950E940B
:1031A000191808F48FEF08950E94961858F19E5749
:1031B00060F19851A0F0E9F0983020F5092E992798
:1031C000660F771F881F991F0A94D1F712C0062E29
:1031D000672F782F8827985F11F4000C07C0993F5C
:1031E000B4F38695779567959395D9F7611D711D11
:1031F000811D3EF490958095709561957F4F8F4F1E
:103200009F4F089568940C94C9180C94C8180E9494
:103210001A190C947D180E946F1838F00E947618C5
:1032200020F0952311F00C943D180C946C18112487
:103230000C94C9180E948E1870F3959FC1F3950FD6
:1032400050E0551F629FF001729FBB27F00DB11D2A
:10325000639FAA27F00DB11DAA1F649F6627B00DBA
:10326000A11D661F829F2227B00DA11D621F739FA3
:10327000B00DA11D621F839FA00D611D221F749FB1
:103280003327A00D611D231F849F600D211D822FF8
:10329000762F6A2F11249F5750409AF0F1F088231F
:1032A0004AF0EE0FFF1FBB1F661F771F881F91504C
:1032B0005040A9F79E3F510580F00C943D180C94A6
:1032C000C9185F3FE4F3983ED4F3869577956795E8
:1032D000B795F795E7959F5FC1F7FE2B880F911D76
:1032E0009695879597F9089519F416F40C946C182F
:1032F0000C945E180E949618B8F39923C9F3B6F39C
:103300009F57550B87FF0E94BA190024A0E640EA98
:10331000900180585695979528F4805C660F771F2A
:10332000881F20F026173707480730F4621B730BFD
:10333000840B202931294A2BA69517940794202520
:1033400031254A2758F7660F771F881F20F0261768
:103350003707480730F4620B730B840B200D311DC7
:10336000411DA09581F7B901842F9158880F96953A
:103370008795089591505040660F771F881FD2F7A8
:10338000089597FB072E16F4009407D077FD09D017
:103390000E94101A07FC05D03EF4909581959F4F2E
:1033A0000895709561957F4F0895A1E21A2EAA1B8A
:1033B000BB1BFD010DC0AA1FBB1FEE1FFF1FA217E5
:1033C000B307E407F50720F0A21BB30BE40BF50BE2
:1033D000661F771F881F991F1A9469F7609570956B
:1033E000809590959B01AC01BD01CF010895EE0F32
:1033F000FF1F0590F491E02D09940E94241AA59FC7
:10340000900DB49F900DA49F800D911D11240895DF
:10341000B7FF0C94FD190E94FD19821B930B0895B0
:10342000AA1BBB1B51E107C0AA1FBB1FA617B707EA
:1034300010F0A61BB70B881F991F5A95A9F7809506
:103440009095BC01CD010895A29FB001B39FC0012A
:10345000A39F700D811D1124911DB29F700D811DC0
:0A3460001124911D0895F894FFCF88
:02346A0001015E
:00000001FF
