:100000000C9461000C9488000C9488000C94880077
:100010000C9488000C9488000C948B010C9488003C
:100020000C9488000C9422120C9488000C943312C7
:100030000C9488000C9488000C9488000C94880020
:100040000C9416120C9488000C94B8010C942F0197
:100050000C9488000C9488000C9488000C94880000
:100060000C9488000C9488005407E50439050A05AF
:10007000460549054C05510556059405C505F60587
:10008000F805FA05FC05B4064D07A2064D07CA0699
:10009000F70624074D074D074D074D074D07BF06CF
:1000A0004D074D07AD064D074D074D074D07190686
:1000B000470675068B138B1336168D168F169316FF
:1000C0009516E0EFF6E085EC98E001C08193EF3FF4
:1000D000F907E0F3D9F311241FBECFEFD8E0DEBF5C
:1000E000CDBF11E0A0E0B1E0E0EAF6E302C0059088
:1000F0000D92A230B107D9F726E0A2E0B1E001C02D
:100100001D92A03FB207E1F70E948A000C944E1B9B
:100110000C94000078940E94B9000E94EB020E94A7
:10012000180F0E94B6110E94300F0E94530F0E94B8
:10013000C10480E090E00895109203011092020142
:100140000895909109019F5F903809F490E0209103
:1001500008019217E1F3E0910901F0E0E059F94F4D
:100160008083909309018091C10080628093C100D7
:1001700008951092C50080E18093C400E0ECF0E0A7
:1001800080818D7F8083E1ECF0E0808180618083DD
:100190008081886080838081806880838EE70E9470
:1001A000A100F894A89584B7877F84BFE0E6F0E0CB
:1001B00080818861808386E4808378940895CF92DB
:1001C000DF92EF92FF92CF93C82FCB01BA0120E0CC
:1001D00030E04AE754E40E94361A0E94031A6B0189
:1001E0007C0128EFF21A8C2D80680E94A100D701B3
:1001F000C60180789F73AA27BB2727E0B695A795ED
:10020000979587952A95D1F780580E94A100D7012C
:10021000C6018827907CAF71BB273EE0B695A795B5
:10022000979587953A95D1F780580E94A100D701FC
:10023000C60188279927A07EBF7045E1B695A7958E
:10024000979587954A95D1F780580E94A1008C2FE9
:10025000CF91FF90EF90DF90CF900C94A1001F9270
:100260000F920FB60F9211248F939F93EF93FF93EA
:100270008091080190910501992349F095E09093B0
:10028000C600909105019150909305010DC0E82F93
:10029000F0E0E059F94F90819093C6008F5F80386D
:1002A00009F480E08093080190910901891305C049
:1002B0008091C1008F7D8093C100FF91EF919F914C
:1002C0008F910F900FBE0F901F901895E0910A012B
:1002D000F0E0E059FA4F808190910A019F5F90937E
:1002E0000A012FB7F894909104019F5F9093040145
:1002F00090910401903110F42FBF08959091050161
:100300009F5F909305019091C10090629093C1000E
:1003100010920401F1CF1F920F920FB60F92112489
:100320002F933F934F935F936F937F938F939F93FD
:10033000AF93BF93EF93FF9380E00E94370F8BE35F
:100340000E946010E0E6F0E0808180648083FF918D
:10035000EF91BF91AF919F918F917F916F915F913D
:100360004F913F912F910F900FBE0F901F901895B6
:100370001F920F920FB60F9211242F933F934F931A
:100380005F936F937F938F939F93AF93BF93EF93FD
:10039000FF93A8958091C60090910001992329F0C0
:1003A000109200018093070146C091E090930001F4
:1003B00090910701891711F08DE334C0803148F521
:1003C000813011F481E22EC0823069F41092030171
:1003D0001092020110920A0110920B011092040176
:1003E0000E94741028C0883019F40E941F1123C085
:1003F000873019F40E9423111EC0833019F40E9423
:10040000290319C0843019F40E942D0314C083E21B
:1004100009C0E0910B0191E09E0F20910A01921317
:1004200004C082E20E94601006C0F0E0E059FA4F7A
:10043000808390930B01FF91EF91BF91AF919F91BA
:100440008F917F916F915F914F913F912F910F907D
:100450000FBE0F901F901895CF93C1E080910301BC
:10046000882301F1809102018823C9F010920601CE
:1004700090910A0180910B0198130BC080910601A5
:10048000811104C00E943103C09306010E94400301
:10049000EFCF0E946601813111F4109203010E9496
:1004A0004003DCCF10920601C1E090910A018091D7
:1004B0000B0198130BC080910601811104C00E94AA
:1004C0003103C09306010E944003EFCF0E946601F2
:1004D000803131F481E0809303011092020181E4C4
:1004E000CF910895809103018823C9F08091020182
:1004F000811115C090910A0180910B01981303C0DE
:100500000E9431030CC00E94660187FD09C0813141
:1005100019F41092030103C083E20E94601080E886
:10052000089520910A0190910B0181E0291301C0E7
:1005300080E0089581E0809302010895E1E1F1E017
:10054000438150E060E070E0405851096109710951
:1005500087E0440F551F661F771F8A95D1F7828168
:1005600090E0A0E0B0E080589109A109B109840FA2
:10057000951FA61FB71FAC01BD0197E0440F551F83
:10058000661F771F9A95D1F7818190E0A0E0B0E0D7
:1005900080589109A109B109840F951FA61FB71FA3
:1005A00027E0880F991FAA1FBB1F2A95D1F720812A
:1005B000820F911DA11DB11DBC01CD0160587109B3
:1005C000810998400E94F61820E030E04AE754E4A0
:1005D0000E944C180895E6E1F1E081E0808340E05C
:1005E00050E06AEF75E44283538364837583168217
:1005F0001782108611861286138614861586168633
:1006000040E050E060EA70E44787508B618B728B6A
:10061000438B548B658B768B178A108E118E128EBE
:100620009CE0E1E3F1E0DF01292F1D922A95E9F733
:10063000EDE3F1E0DF011D929A95E9F78093100157
:1006400080930F0110920E0110920D0180930C0106
:10065000089581E080931001089581E080930F0157
:1006600008952FB7F89480910D0190910E01019695
:1006700090930E0180930D0110920C012FBF0895ED
:100680008F929F92AF92BF92CF92DF92EF92FF92A2
:100690000F931F93CF934A9B02C04B9903C080E0F6
:1006A0000E94370F0E947110882391F10E94BD0EA5
:1006B0000E9458116B017C010E9444114B015C01A6
:1006C0000E94301187017601A50194010E94C20E9B
:1006D0000E943011609325017093260180932701B9
:1006E000909328010E9444116093290170932A017C
:1006F00080932B0190932C010E94581160932D013F
:1007000070932E0180932F01909330011092150168
:1007100080911001811105C080910F01882309F497
:1007200024C1109210010E94930E811112C00E94E8
:10073000910281110EC00E94711081110AC081E4E2
:100740000E94A10083B7816083BF889583B78E7FA5
:1007500083BF4A9903C082E40E94A1004B9903C061
:1007600083E40E94A1000E942D11882319F084E4E3
:100770000E94A1000E946E10C82F803211F00E94CA
:10078000A100309905C0C43219F084E20E94A10092
:10079000319905C0C53219F085E20E94A100329955
:1007A00005C0C63219F086E20E94A100339905C047
:1007B000CA3219F08AE20E94A1000E94301120E0A2
:1007C00030E040EA50E40E94C3172091310130919B
:1007D000320140913301509134010E94C317AB01A3
:1007E000BC0188E70E94DF000E94441120E030E055
:1007F00040EA50E40E94C317209135013091360140
:1008000040913701509138010E94C317AB01BC01E0
:1008100089E70E94DF000E94581120913901309130
:100820003A0140913B0150913C010E94C317AB013A
:10083000BC018AE70E94DF0080910C01811110C089
:1008400060910D0170910E0180E090E00E94F4181B
:10085000AB01BC0187E70E94DF0081E080930C01BF
:10086000E0EFF6E0BF01605F76408081853C09F4EF
:1008700066C080E090E00E94F418AB01BC0185E7FF
:100880000E94DF0080910F01882309F460C010925C
:100890000F0140E050EE62E275E486E70E94DF005F
:1008A00040913101509132016091330170913401D6
:1008B00081E60E94DF004091350150913601609140
:1008C00037017091380182E60E94DF0040913901C2
:1008D00050913A0160913B0170913C0183E60E9486
:1008E000DF00409118015091190160911A01709137
:1008F0001B0187E60E94DF0060911C0170E080E030
:1009000090E00E94F418AB01BC0188E60E94DF0071
:1009100040911D0150911E0160911F0170912001B5
:1009200089E60E94DF0040912101509122016091EF
:100930002301709124018AE60E94DF0008C088E04C
:10094000EF3FF80711F008F094CF31968BCF86E097
:10095000CF911F910F91FF90EF90DF90CF90BF90BC
:10096000AF909F908F900C94A100CF911F910F9109
:10097000FF90EF90DF90CF90BF90AF909F908F90BF
:100980000895C1E3D1E08CE0982E772473940E94FF
:100990002C02182F0E947110882319F00E94400326
:1009A000F6CF17FD84C28FEB810F8A3108F02AC180
:1009B000812F90E0FC01E154F109EF30F10508F0DE
:1009C0001FC1EC5CFF4F0C94261BA0901801B09047
:1009D0001901C0901A01D0901B01E0902D01F090F8
:1009E0002E0100912F0110913001209129013091A9
:1009F0002A0140912B0150912C01609125017091A9
:100A0000260180912701909128011F921F921F9229
:100A10001F922CC0A0901801B0901901C0901A012B
:100A2000D0901B01E0902D01F0902E0100912F013C
:100A3000109130012091290130912A0140912B0120
:100A400050912C0160912501709126018091270120
:100A500090912801E0912401EF93E0912301EF931D
:100A6000E0912201EF93E0912101EF9380901C012E
:100A700054C060911D0170911E0180911F019091E1
:100A8000200140911C010E94570E0EC210921601C7
:100A90000BC27092160108C2809116018093170153
:100AA00003C28091170180931601FEC10E94B71600
:100AB000FE01892D11928A95E9F780E090E0A0EA85
:100AC000B0E48093250190932601A0932701B09371
:100AD00028018093290190932A01A0932B01B093C0
:100AE0002C0110922D0110922E0110922F011092C4
:100AF0003001A0901801B0901901C0901A01D09057
:100B00001B011F921F921F921F92812CE12CF12C2E
:100B100087019C01AD01BC01CD010E941F090F900E
:100B20000F900F900F90C0C18091310190913201D0
:100B3000A0913301B091340180933D0190933E0127
:100B4000A0933F01B093400180913501909136010F
:100B5000A0913701B09138018093410190934201F7
:100B6000A0934301B09344018091390190913A01DF
:100B7000A0913B01B0913C018093450190934601C7
:100B8000A0934701B09348018FC180913D0190919E
:100B90003E01A0913F01B0914001809331019093BB
:100BA0003201A0933301B0933401809141019091BF
:100BB0004201A0914301B09144018093350190938B
:100BC0003601A0933701B09338018091450190918F
:100BD0004601A0914701B09148018093390190935B
:100BE0003A01A0933B01B0933C015EC183E005C094
:100BF00084E003C085E001C086E00E947E0E54C1FF
:100C00008CE350C18FE9810F8A3108F04AC180918D
:100C10001501843009F043C1812F90E0FC01E456B6
:100C2000F109E731F10508F038C1ED5BFF4F0C9495
:100C3000261B80911601813099F40E949E0220E0CB
:100C400030E040EA50E40E94C4179B01AC0160917F
:100C500031017091320180913301909134010CC0C7
:100C60000E949E029B01AC016091250170912601BA
:100C700080912701909128010E94C417609325015B
:100C80007093260180932701909328010DC18091D4
:100C90001601813099F40E949E0220E030E040EA83
:100CA00050E40E94C4179B01AC0160913501709122
:100CB000360180913701909138010CC00E949E024C
:100CC0009B01AC016091290170912A0180912B0157
:100CD00090912C010E94C4176093290170932A01FE
:100CE00080932B0190932C01DFC0809116018130FD
:100CF00091F40E949E0220E030E0A9010E94C417F6
:100D00009B01AC016091390170913A0180913B01E6
:100D100090913C010CC00E949E029B01AC0160912D
:100D20002D0170912E0180912F01909130010E9430
:100D3000C41760932D0170932E0180932F0190931F
:100D40003001B2C00E949E02609318017093190195
:100D500080931A0190931B01A7C00E949E020E94DB
:100D6000C51860931C01A0C00E949E0260931D01E3
:100D700070931E0180931F019093200195C00E94E3
:100D80009E0260932101709322018093230190932E
:100D900024018AC00E949E026B017C018091160191
:100DA000813049F4C0923101D0923201E092330196
:100DB000F092340179C00E945D10882319F00E94DE
:100DC0004003F9CF0E94301120E030E040EA50E4C7
:100DD0000E94C317A70196010E94C41760933101B6
:100DE0007093320180933301909334015DC00E946F
:100DF0009E026B017C0180911601813049F4C09202
:100E00003501D0923601E0923701F09238014CC0A2
:100E10000E945D10882319F00E944003F9CF0E94C0
:100E2000441120E030E040EA50E40E94C317A701DB
:100E300096010E94C4176093350170933601809328
:100E400037019093380130C00E949E026B017C01F3
:100E500080911601813049F4C0923901D0923A0153
:100E6000E0923B01F0923C011FC00E945D1088237C
:100E700019F00E944003F9CF0E9458119B01AC0168
:100E8000C701B6010E94C4176093390170933A01FB
:100E900080933B0190933C0107C08EE303C08AE33B
:100EA00001C083E20E9460101092150177CDE0919D
:100EB0001501E43048F481E08E0F80931501F0E0D5
:100EC000EF5EFE4F10836ACD8AE30E94601066CD0C
:100ED0004F925F926F927F928F929F92AF92BF924A
:100EE000CF92DF92EF92FF920F931F93CF93DF93F6
:100EF000CDB7DEB762970FB6F894DEBF0FBECDBF99
:100F00009A8B898B2A013B0148015901FC016289B6
:100F10007389848995890E94F4186B017C01A3016F
:100F200092010E94361A0E9430180E94C5182B01A7
:100F30003C01E989FA8961A772A783A794A7A50153
:100F40009401C701B6010E94361A0E9430180E940F
:100F5000C5184B015C01E989FA8965A776A787A7BF
:100F600090AB21A932A943A954A9A0EEBEE20E94E8
:100F70002C1B69837A838B839C830E94F6186D8374
:100F80007E838F839887C301B2010E94F4182B01DE
:100F90003C01A7019601C701B6010E94361A6B01F8
:100FA0007C01A3019201C301B2010E94361A698734
:100FB0007A878B879C872D813E814F815885CA0116
:100FC000B9010E94C4176D877E878F87988B29850A
:100FD0003A854B855C85C701B6010E94C3172D85F4
:100FE0003E854F8558890E944C180E9430180E94F7
:100FF000BE182B013C01C501B4010E94F4189B01ED
:10100000AC010E94361A4B015C01A70196010E94B7
:10101000C3176B017C0169817A818B819C819095DA
:101020008095709561957F4F8F4F9F4F0E94F61866
:101030009B01AC010E94C4179B01AC01C701B60122
:101040000E944C180E943119E989FA89C684D78414
:10105000E088F188A7019601241935094609570946
:1010600029833A834B835C830E94BE1829813A818D
:101070004B815C81261B370B480B590BDA01C901E8
:1010800057FF3BC0C701B6010E94F6182D853E856B
:101090004F8558890E94361A29853A854B855C858B
:1010A0000E94C317A50194010E94C4174B015C0163
:1010B00020E030E040E850E46D817E818F819885AA
:1010C0000E94361A9B01AC01C501B4010E944C1864
:1010D0000E9430180E94BE1897FF03C060E070E0C5
:1010E000CB01260137016C157D058E059F0514F493
:1010F0002B013C0180E090E0DC01E989FA8945AAF6
:1011000056AA67AA70AE480E591E6A1E7B1E41AED3
:1011100052AE63AE74AE62960FB6F894DEBF0FBEE9
:10112000CDBFDF91CF911F910F91FF90EF90DF9096
:10113000CF90BF90AF909F908F907F906F905F9077
:101140004F9008954F925F926F927F92AF92BF92AD
:10115000CF92DF92EF92FF920F931F93CF93DF9383
:101160008C01EB01FC01428C538C648C758CAA8C35
:10117000BB8CCC8CDD8C9501A601C301B2010E9411
:10118000471887FF37C0A3019201C301B2010E9433
:10119000361A2B013C0120E03AEB4BE55AECF80102
:1011A00062A173A184A195A10E94361A9B01AC0192
:1011B000C301B2010E94C3170E94A91A7B018C01CE
:1011C0009B01AC01B501C6010E94471887FF02C010
:1011D000750186019701A801B501C6010E94471853
:1011E000882341F0C701D8018A8F9B8FAC8FBD8FB8
:1011F00081E08FA3DF91CF911F910F91FF90EF902E
:10120000DF90CF90BF90AF907F906F905F904F90A6
:101210000895CF93DF938F5F8E3009F480E0C82F5D
:10122000880FDD0B8091650190E0C817D90719F48C
:101230000E944003F7CFCE01DF91CF9108952F9206
:101240003F924F925F926F927F928F929F92AF9256
:10125000BF92CF92DF92EF92FF920F931F93CF93A3
:10126000DF93CDB7DEB7A1970FB6F894DEBF0FBE00
:10127000CDBF29013A01EA82FB820C831D83A9823A
:10128000BE82CF82D886CEA8DFA8E8ACF9AC2CE12C
:1012900037EC41EB52E40E94361A0E94031A698B24
:1012A0007A8B8B8B9C8B24E731ED45EB52E4C301A9
:1012B000B2010E94361A0E94031A6D8B7E8B8F8BAF
:1012C000988F25E535E545E052E46A817B818C8184
:1012D0009D810E94361A0E94031A698F7A8F8B8F24
:1012E0009C8F8091660190E00E94090989A38091FA
:1012F0006601282E312C20E030E0A901C701B6019B
:101300000E944718882311F185E4829D8001839D06
:10131000100D112409591E4F81E0D8018C932CE146
:1013200037EC41EB52E4C701B6010E94361A20E0C7
:1013300030E040E854E40E94361A0E94031AF80193
:10134000FD96608371838283938309C085E4829DC7
:10135000F001839DF00D1124E959FE4F108285E4C0
:10136000829DF001839DF00D1124E959FE4F86A264
:1013700015868091590190915A01A0915B01B0911D
:101380005C0149885A886B887C88481659066A0629
:101390007B0614F428E0258780905D0190905E0123
:1013A000A0905F01B09060014D885E886F88788C56
:1013B000481459046A047B045CF425E4229DF0017E
:1013C000239DF00D1124E959FE4F258520612587C5
:1013D000C0906101D0906201E0906301F0906401DF
:1013E000498C5A8C6B8C7C8C4C145D046E047F048D
:1013F0005CF425E4229DF001239DF00D1124E959B0
:10140000FE4F25852062258749885A886B887C880D
:10141000481A590A6A0A7B0AC301B20177FE07C05B
:10142000442455243201461A570A680A790A45E4C9
:10143000429D9001439D300D1124F901E959FE4F61
:1014400041825282638274822D893E894F89588DF0
:10145000281939094A095B0949015A012A833B8342
:101460004C835D8357FF0BC022273327A90128191E
:1014700039094A095B092A833B834C835D8345E430
:10148000429D9001439D300D1124F901E959FE4F11
:101490002A813B814C815D81258336834783508738
:1014A000298D3A8D4B8D5C8D2C193D094E095F09B4
:1014B00069017A012D873E874F87588B57FF0BC0F4
:1014C00022273327A9012C193D094E095F092D87D1
:1014D0003E874F87588BE5E4E29DA001E39D500DC8
:1014E0001124FA01E959FE4F2D853E854F85588913
:1014F000218732874387548749865A866B867C8644
:101500002A813B814C815D81421653066406750633
:1015100020F429873A874B875C8749845A846B84F7
:101520007C842D853E854F85588942165306640676
:10153000750610F429013A0125E4229D8001239DBE
:10154000100D112409591E4FD8011E964D925D921F
:101550006D927C925197411451046104710409F415
:101560008DC30E94F6182CE137EC41EB52E40E9447
:101570004C1869877A878B879C87C501B4010E94C4
:10158000F61824E731ED45EB52E40E944C186D87C4
:101590007E878F87988BC701B6010E94F61825E5D4
:1015A00035E545E052E40E944C184B015C01298569
:1015B0003A854B855C85CA01B9010E94361A6B01D8
:1015C0007C012D853E854F855889CA01B9010E944D
:1015D000361A9B01AC01C701B6010E94C4176B010A
:1015E0007C01A5019401C501B4010E94361A9B013A
:1015F000AC01C701B6010E94C4170E94A91A6A83F0
:101600007B838C839D83F80162A373A384A395A33A
:101610009B01AC0160E070E080E89FE30E944C1801
:101620006B017C0189819E81AF81B885F801868B31
:10163000978BA08FB18FC301B2010E94F6182B01C6
:101640003C0129813E814F815885C701B6010E9426
:10165000361AA30192010E94361A0E9430180E9485
:10166000C518D80152966D937D938D939C93559791
:10167000A3019201C701B6010E94361A20E03AEB9D
:101680004BED59E40E94361A20E030E84BE356E473
:101690000E944C180E9430180E94C518F80161ABD6
:1016A00072AB83AB94ABA701960169857A858B8574
:1016B0009C850E94361A69877A878B879C87A70149
:1016C00096016D857E858F8598890E94361A6D8773
:1016D0007E878F87988BA7019601C501B4010E9470
:1016E000361A2B013C019091660180916501981793
:1016F00009F4ABC0E0904901F0904A0100914B0120
:1017000010914C0120E030E0A901B701C8010E940E
:10171000FE1918160CF099C080914D0190914E0160
:10172000A0914F01B0915001BC01CD019058298585
:101730003A854B855C850E94361A4B015C012091ED
:1017400051013091520140915301509154016D85E6
:101750007E858F8598890E94361A9B01AC01C50150
:10176000B4010E94C3174B015C01209155013091D7
:1017700056014091570150915801C301B2010E9496
:10178000361A9B01AC01C501B4010E94C3174B017D
:101790005C0123E333E343E75FE30E94471887FFDD
:1017A00054C09701A80169817E818F8198850E942C
:1017B000FE19181624F0E980FE800F81188523E3B6
:1017C00033E343E75FEBC501B4010E94FE1918162D
:1017D0000CF03FC0A501940160E070E080E89FE359
:1017E0000E94C31720E030E040E05FE30E94361A19
:1017F0000E94A91A4B015C0120E030EC48E256E45B
:101800000E94361A6D8F7E8F8F8F98A3A501940149
:1018100060E070E080E89FE30E94C3179B01AC0189
:101820006D8D7E8D8F8D98A10E944C180E94A91AF3
:101830005B016C019B01AC01B701C8010E94471814
:1018400087FD07C07501860104C0E12CF12C00E082
:1018500010E085E4829DF001839DF00D1124E9598B
:10186000FE4FC701D801868F978FA0A3B1A320E0B8
:101870003AEB4BE55AEC6A817B818C819D810E9419
:10188000361A9B01AC0160E070E0CB010E94C317E7
:101890000E94A91A5B016C019B01AC01B701C80150
:1018A0000E94471887FD04C075019C2D8D2D02C034
:1018B000902F812F25E4229D8001239D100D11245E
:1018C00009591E4FA701692F782FD8015A964D93B9
:1018D0005D936D937C935D979501A60169817E81EF
:1018E0008F8198850E944718181624F081E0F8012E
:1018F00080A703C0D80198961C9285E4829DF001D0
:10190000839DF00D1124E959FE4F81E087A32985BD
:101910003A854B855C8520934D0130934E01409371
:101920004F01509350018D859E85AF85B889809376
:10193000510190935201A0935301B09354014092EE
:101940005501509256016092570170925801898159
:101950009E81AF81B8858093490190934A01A093FD
:101960004B01B0934C0149A04092660149885A88C6
:101970006B887C884092590150925A0160925B01B9
:1019800070925C014D885E886F88788C40925D0112
:1019900050925E0160925F0170926001498C5A8C96
:1019A0006B8C7C8C40926101509262016092630169
:1019B00070926401F0906601E0E0F0E000E010E079
:1019C0008091650190E02F2D0F2C000C330B281710
:1019D000390709F47DC0F11002C03EE0F32EFA94FD
:1019E00025E43F2D3203C0011124AC0149595E4F5B
:1019F0004A010115110509F468C0309709F465C062
:101A0000D80198968C9198975E962C905E975F96E9
:101A10003C905F979096AC90909791964C904982AD
:101A2000811147C0B22CC32CDA2CE42C428C538C8D
:101A3000648C758CA3019201622D732D8A2D9E2DCD
:101A40000E94FE191816ACF5A3019201C301B20160
:101A50000E94361A2B013C0120E03AEB4BE55AEC90
:101A6000D80192966D917D918D919C9195970E9450
:101A7000361A9B01AC01C301B2010E94C3170E9438
:101A8000A91A562E672E782EA92E262F372F482FCB
:101A9000592F622D732D8D2D9E2D0E94471887FD85
:101AA00003C0B52C6301EA2C8B2D9C2DAD2DBE2DD2
:101AB00003C0C101AA2DB981F801828F938FA48F31
:101AC000B58FE1E0D8019796EC93F801840178CFC7
:101AD000F090650100E010E080E090E025E4E22E67
:101AE0004F2D0F2C000C550B2091660130E0421752
:101AF0005307F1F0E49E9001E59E300D1124A901F9
:101B000049595E4F6A01009759F00115110541F0DE
:101B1000DC0198962C91211103C0B8010E94A20803
:101B2000F394BEE0FB1201C0F12CC8018601D8CFAE
:101B3000009751F00115110539F0FC0120A5211184
:101B400003C0B8010E94A208D0906501E12CF12CDD
:101B500085E4C82E2D2D0D2C000C330B80916601D1
:101B600090E02817390709F447C0C29EC001C39E00
:101B7000900D1124AC0149595E4F1A01E114F10492
:101B8000A1F1D70197968C91811104C0FA0187A128
:101B9000882359F1D70156964D905D906D907C90B9
:101BA0005997C29EF001C39EF00D1124E959FE4FD2
:101BB000A3019201628D738D848D958D0E944C18C6
:101BC0004B015C01A3019201F701628D738D848D3D
:101BD000958D0E944C18AB01BC0195018401C70191
:101BE0000E946807D70197961C92D394BEE0DB123F
:101BF00001C0D12C7101AECFF70180818688978812
:101C0000A08CB18CA5019401813019F4C501B401F7
:101C100003C060E070E0CB010E944C182B013C0136
:101C2000A5019401D7015A966D917D918D919C915A
:101C30005D970E944C18AB01BC0193018201C70162
:101C40000E946807F70117A2A1960FB6F894DEBFAD
:101C50000FBECDBFDF91CF911F910F91FF90EF90FD
:101C6000DF90CF90BF90AF909F908F907F906F90BC
:101C70005F904F903F902F900C943F10A1960FB61D
:101C8000F894DEBF0FBECDBFDF91CF911F910F91B2
:101C9000FF90EF90DF90CF90BF90AF909F908F908C
:101CA0007F906F905F904F903F902F900895CF92CC
:101CB000DF92EF92FF92CF936B017C01C42F809152
:101CC000660190E00E940909E091660195E4E99FB0
:101CD000F0011124E959FE4F92E09083C6A3EF5B17
:101CE000FF4FC082D182E282F38280936601CF915E
:101CF000FF90EF90DF90CF900C943F10CF93C82FC0
:101D00008091660190E00E940909E091660195E4E6
:101D1000E99FF0011124E959FE4FC08380936601C9
:101D2000CF910C943F10209166019091650181E064
:101D3000291301C080E008959091660180916501AA
:101D4000981749F08091650125E4829FC001112414
:101D500089599E4F089580E090E008959091660122
:101D600080916501981741F0809165018F5F8E30F9
:101D700009F480E080936501089580916601809365
:101D8000650108958F929F92AF92BF92CF92DF929A
:101D9000EF92FF920F931F93CF93DF9349015A0164
:101DA000670178012CE137EC41EB52E40E94361ACE
:101DB0000E94031AC9E5D1E0688379838A839B83F3
:101DC00024E731ED45EB52E4C501B4010E94361A17
:101DD0000E94031A6C837D838E839F8325E535E5FE
:101DE00045E052E4C701B6010E94361A0E94031A68
:101DF000688779878A879B871092490110924A01E8
:101E000010924B0110924C018CE0EDE4F1E0DF0107
:101E10001D928A95E9F7DF91CF911F910F91FF9065
:101E2000EF90DF90CF90BF90AF909F908F900895EC
:101E3000EF92FF920F931F9310926601109265012B
:101E4000E12CF12C870120E030E040EA50E4CA01A7
:101E5000B9010E94C20E1F910F91FF90EF9008955B
:101E60008AB1837F8AB987B1807C87B908954A9BFC
:101E700004C04B9B02C0811104C010922D055E98D6
:101E8000089580932D05089580912D050895882348
:101E900011F05C9A08955C980895882311F05F9A78
:101EA00008955F980895569A14BC15BCEEE6F0E0CC
:101EB00080818160808316BC549A80E00E94470F25
:101EC000579A80E00C944D0F409144055091450580
:101ED00060914605709147058091480590914905AC
:101EE000A0914A05B0914B05840F951FA61FB71FFF
:101EF000813828E3920721E0A207B10550F48093CE
:101F0000440590934505A0934605B093470580E0AE
:101F1000089580589843A140B10980934405909357
:101F20004505A0934605B093470581E008959B01C0
:101F3000AC01203486E038074105510520F420E447
:101F400036E040E050E060E070E788E399E30E940B
:101F5000041B2115310581E04807510518F4B9012A
:101F600080E02FC02115310588E048075105A8F40D
:101F7000DA01C901F3E0B695A79597958795FA958B
:101F8000D1F7BC019C01AD01A3E0220F331F441F18
:101F9000551FAA95D1F781E014C0DA01C90126E0E6
:101FA000B695A795979587952A95D1F7BC019C0181
:101FB000AD01E6E0220F331F441F551FEA95D1F70C
:101FC00082E090918100987F8F5F892B80938100C0
:101FD00070938900609388002093480530934905E9
:101FE00040934A0550934B050895CF92DF92EF92AC
:101FF000FF92CF93DF936B017C010E94970FC091FA
:102000006205D09163058881813011F480E02FC092
:10201000C701B6010E94F4186B017C016A897B89B3
:102020008C899D890E94F4189B01AC01C701B601FF
:102030000E944C1823E333E343E75FE30E94361A20
:102040002DEC3CEC4CE45DE30E94C4176B017C0179
:102050006EA170E080E090E00E94F6189B01AC0158
:10206000C701B6010E94361A0E94C518862FDF915B
:10207000CF91FF90EF90DF90CF900C94370F80912D
:102080003F0581110BC081E080933F0580E3809381
:10209000610580916F00826080936F0008951092B7
:1020A0003F051092630510926205EFE6F0E0808133
:1020B0008D7F808380E00C94370F80913F050895D9
:1020C00090913E05911109C080933D0581E0809378
:1020D0003E0510923C050C949C00089580913D05AE
:1020E000089580913E05089580E280933D05109209
:1020F0003E0510923C0508954F925F926F927F9239
:102100008F92AF92BF92CF92DF92EF92FF920F9396
:102110001F93CF93DF93CDB7DEB72C970FB6F8940C
:10212000DEBF0FBECDBF69837A838B839C83290179
:102130003A01ED82FE820F831887A986BA86CB8684
:10214000DC8680913F05882319F00E944003F9CF77
:10215000E12CF12C8701A8019701C801B7010E9469
:10216000C20E8CE0E4E6F5E0DF011D928A95E9F706
:102170001F921F921F921F92812CAE8CBF8CC8A001
:10218000D9A0A301920169817A818B819C810E94EF
:102190001F090F900F900F900F9080913F0588239B
:1021A00019F00E944003F9CFE12CF12C8701A8011E
:1021B0009701C801B7010E94C20E8CE0E4E6F5E089
:1021C000DF011D928A95E9F70E94741081E08093E7
:1021D00036051F921F921F921F92812CAE8CBF8CCE
:1021E000C8A0D9A029853A854B855C856D817E8103
:1021F0008F8198850E941F090F900F900F900F906C
:1022000080913F05882319F00E944003F9CF109276
:1022100036052C960FB6F894DEBF0FBECDBFDF910A
:10222000CF911F910F91FF90EF90DF90CF90BF90D3
:10223000AF908F907F906F905F904F90089581E066
:1022400080933C05089580913C05882319F081E036
:1022500080933B0510923C05089580913C050895BC
:102260002FB7F894609164057091650580916605BB
:10227000909167052FBF0E94F6182CE137EC41EBD7
:1022800052E40E944C1808952FB7F89460916805A5
:102290007091690580916A0590916B052FBF0E942E
:1022A000F61824E731ED45EB52E40E944C180895EE
:1022B0002FB7F89460916C0570916D0580916E0553
:1022C00090916F052FBF0E94F61825E535E545E092
:1022D00052E40E944C1808958F929F92AF92BF9241
:1022E000CF92DF92EF92FF920F931F93CF93DF93E2
:1022F00049015A01670178011FB7F8942CE137ECC6
:1023000041EB52E40E94361A0E94031AC4E6D5E05B
:10231000688379838A839B8324E731ED45EB52E41C
:10232000C501B4010E94361A0E94031A6C837D8392
:102330008E839F8325E535E545E052E4C701B6016C
:102340000E94361A0E94031A688779878A879B87BA
:102350001FBFDF91CF911F910F91FF90EF90DF9002
:10236000CF90BF90AF909F908F900895EF92FF9283
:102370000F931F9384B18F6384B985B1807C806390
:1023800085B9E1E8F0E080818F7E8083808188607C
:102390008083E0E8F0E080818D7F808380818E7F84
:1023A000808380818F73808380818F7C8083109273
:1023B000B0001092B100E0E7F0E08081816080839E
:1023C00060E476E080E090E00E94970F80E00E9459
:1023D000370F8CE0E4E6F5E0DF011D928A95E9F71E
:1023E000E12CF12C870120E030E040EA50E4CA0102
:1023F000B9010E946C11109244051092450510928B
:1024000046051092470510926305109262051092DE
:102410003E0580E280933D0510924C0510923605F2
:102420001F910F91FF90EF900C944F101F920F92FD
:102430000FB60F9211245E9815BC0F900FBE0F902F
:102440001F9018951F920F920FB60F9211248F9321
:1024500085B1887F85B91092B1008F910F900FBE22
:102460000F901F9018951F920F920FB60F92112484
:10247000CF92DF92EF92FF922F933F934F935F9310
:102480006F937F938F939F93AF93BF93CF93DF937C
:10249000EF93FF9380914C05811152C481E08093AA
:1024A0004C0580913E05882329F00E944F100E9420
:1024B000BD0E44C480913C05882311F080E0CDC35B
:1024C00080913605811119C04A9B02C04B9903C007
:1024D00080E00E94370F309902C084E20BC031992E
:1024E00002C085E207C0329902C086E203C0339978
:1024F00004C08AE20E94601021C40E94440F90919F
:102500000101903120F4809101018F5F66C081113B
:1025100002C05E9861C015BC5E9A823F08F05CC044
:10252000409148055091490560914A0570914B05CD
:10253000252F362F472F552790E1899FD001112451
:102540000E94371B6F3F710581059105D9F1D0F1CC
:10255000B3E09695879577956795BA95D1F76F3FD4
:1025600071058105910581F178F1A3E09695879534
:1025700077956795AA95D1F76F3F7105810591050C
:1025800029F120F1F2E09695879577956795FA9570
:10259000D1F76F3F710581059105D1F0C8F0E2E0F8
:1025A0009695879577956795EA95D1F76F3F710571
:1025B0008105910529F020F06FEF70E080E090E058
:1025C00025E007C021E005C022E003C023E001C0F0
:1025D00024E0619566BD25BD81E08093010125B1B0
:1025E00090916105987385B1877C892B85B9822F7D
:1025F00088738913A3C385B1887F90916105892B66
:1026000085B98AEF8093B20082E08093B10078941C
:102610008091620590916305892B09F06CC00E943E
:102620009C0E9093630580936205009719F40E94B5
:102630004F1084C3FC012081223008F05CC061A5EA
:1026400072A583A594A5609340057093410580937E
:1026500042059093430550E4C52E5CE9D52EE12C4C
:10266000F12CC0924405D0924505E0924605F092C7
:1026700047050E94F50FE0916205F09163058081A6
:10268000813041F410924D0510924E0510924F0585
:102690001092500586859785A089B189B595A79533
:1026A00097958795B095A095909581959F4FAF4F41
:1026B000BF4F80935D0590935E05A0935F05B09337
:1026C00060058093590590935A05A0935B05B093DC
:1026D0005C058093550590935605A0935705B093DC
:1026E0005805109251051092520510925305109200
:1026F000540510923B05C0916205D0916305288175
:10270000822F90E08730910508F018C3FC01E65A4B
:10271000FF4F0C94261B3D853093610549815A81FA
:102720006B817C8180915D0590915E05A0915F0534
:10273000B0916005840F951FA61FB71F80935D059C
:1027400090935E05A0935F05B09360054E855F850D
:1027500068897989181619061A061B0644F531602E
:1027600030936105841B950BA60BB70B80935D0519
:1027700090935E05A0935F05B0936005809164051A
:1027800090916505A0916605B091670533FF04C07F
:102790000197A109B10903C00196A11DB11D809344
:1027A000640590936505A0936605B0936705CD8099
:1027B000DE80EF80F8848091590590915A05A091B0
:1027C0005B05B0915C058C0D9D1DAE1DBF1D8093FA
:1027D000590590935A05A0935B05B0935C051816B4
:1027E00019061A061B0654F53091610532603093C4
:1027F0006105841B950BA60BB70B8093590590932D
:102800005A05A0935B05B0935C0580916805909193
:102810006905A0916A05B0916B0534FF04C001976A
:10282000A109B10903C00196A11DB11D80936805DE
:1028300090936905A0936A05B0936B05C984DA8407
:10284000EB84FC848091550590915605A091570525
:10285000B09158058C0D9D1DAE1DBF1D8093550573
:1028600090935605A0935705B0935805181619066E
:102870001A061B0654F530916105346030936105EA
:10288000841B950BA60BB70B8093550590935605AB
:10289000A0935705B093580580916C0590916D05F4
:1028A000A0916E05B0916F0535FF04C00197A10995
:1028B000B10903C00196A11DB11D80936C059093D1
:1028C0006D05A0936E05B0936F05809151059091B1
:1028D0005205A0915305B09154050196A11DB11D5B
:1028E0008093510590935205A0935305B0935405DE
:1028F000E091610530E33E27309361058417950729
:10290000A607B70708F0ACC120913B052130D9F5E7
:1029100040914005509141056091420570914305F9
:1029200040933705509338056093390570933A0505
:1029300089A59AA5ABA5BCA5481759076A077B07C7
:1029400040F08093400590934105A0934205B093D9
:10295000430580E49CE9A0E0B0E0809344059093B7
:102960004505A0934605B0934705609140057091D9
:10297000410580914205909143050E94F50F82E048
:1029800080933B05DBC120913B052230B1F50E94CD
:10299000640F882309F4D2C149A95AA96BA97CA95B
:1029A0008091400590914105A0914205B091430569
:1029B000840F951FA61FB71F809340059093410574
:1029C000A0934205B09343054091370550913805D7
:1029D0006091390570913A0584179507A607B707E6
:1029E00008F4A4C04093400550934105609342050C
:1029F0007093430510923B0599C04DA95EA96FA93C
:102A000078AD84179507A607B70780F50E94640F75
:102A1000882309F493C149A95AA96BA97CA980917B
:102A2000400590914105A0914205B0914305840F66
:102A3000951FA61FB71F8093400590934105A09353
:102A40004205B09343054A895B896C897D894817A3
:102A500059076A077B0708F069C040934005509307
:102A60004105609342057093430560C049AD5AAD7E
:102A70006BAD7CAD84179507A607B70769F480E4B2
:102A80009CE9A0E0B0E08093440590934505A093B5
:102A90004605B093470552C184179507A607B707A7
:102AA00008F44FC00E94640F882309F447C149A964
:102AB0005AA96BA97CA98091400590914105A091EC
:102AC0004205B0914305481759076A077B0768F428
:102AD000841B950BA60BB70B809340059093410583
:102AE000A0934205B093430508C010924005109290
:102AF000410510924205109243058DA59EA5AFA5F4
:102B0000B8A94091400550914105609142057091EE
:102B10004305481759076A077B0740F4809340052F
:102B200090934105A0934205B09343056091400501
:102B30007091410580914205909143050E94F50FE7
:102B4000FDC06A897B898C899D89C0904005D090A1
:102B50004105E0904205F09043056C157D058E051A
:102B60009F0551F0609340057093410580934205A5
:102B7000909343050E94F50FE0916205F091630583
:102B80008081813009F068C080914D0590914E059B
:102B9000A0914F05B09150054091510550915205BB
:102BA0006091530570915405892B8A2B8B2B89F4E6
:102BB000DB01CA013AE0880F991FAA1FBB1F3A9593
:102BC000D1F780934D0590934E05A0934F05B09398
:102BD000500580914D0590914E05A0914F05B09103
:102BE00050052AE0440F551F661F771F2A95D1F71D
:102BF000481759076A077B0708F4A0C0FD96408173
:102C0000518162817381840F951FA61FB71F809326
:102C10004D0590934E05A0934F05B0935005F89441
:102C20000E9472027894E0916205F091630526A1FA
:102C3000482F50E04058510930E0220F331F429F87
:102C4000C001439F900D529F900D11246FEF70E0D3
:102C50000E94F01A862F01C086A10E94370F6EC015
:102C6000213009F065C00E949A0262C0C0902E0512
:102C7000D0902F05E0903005F0903105C114D104BB
:102C8000E104F104E9F420E030E04AE754E4FE0115
:102C9000EF5BFF4F60817181828193810E94361AC0
:102CA0000E94031A609332057093330580933405B4
:102CB0009093350560E67AEE80E090E00E94970FF1
:102CC0008091320590913305A0913405B09135057E
:102CD000C816D906EA06FB06B8F48EA10E94370F83
:102CE00080912E0590912F05A0913005B09131056E
:102CF0000196A11DB11D80932E0590932F05A093E1
:102D00003005B09331051AC010922E0510922F0590
:102D100010923005109231050BC081E001C080E0B7
:102D20000E94470F05C081E001C080E00E944D0F66
:102D300010926305109262050E94AE0E10924C052F
:102D4000FF91EF91DF91CF91BF91AF919F918F91C3
:102D50007F916F915F914F913F912F91FF90EF90F5
:102D6000DF90CF900F900FBE0F901F9018958F920D
:102D70009F92AF92BF92CF92DF92EF92FF920F930A
:102D80001F93CF93DF9380913F05882319F00E9412
:102D90004003F9CFE12CF12C8701A8019701C8016C
:102DA000B7010E94C20E8CE0E4E6F5E0DF011D925F
:102DB0008A95E9F781E080933605309917C01F9214
:102DC0001F921F921F92812CA12CB12CE8E4CE2ED1
:102DD000E4E4DE2EA801970160E070E080EA91E46F
:102DE0000E941F090F900F900F900F9031991AC0F9
:102DF0001F921F921F921F92812CA12CB12C78E45C
:102E0000C72E74E4D72EE12CF12C8701A80197017D
:102E100060E070E080EA91EC0E941F090F900F9033
:102E20000F900F9032991AC01F921F921F921F92FB
:102E3000812CA12CB12C68E4C62E64E4D62EE12CA2
:102E4000F12C870120E030E040EA51E4C801B701ED
:102E50000E941F090F900F900F900F9033991AC086
:102E60001F921F921F921F92812CA12CB12C58E40B
:102E7000C52E54E4D52EE12CF12C870120E030E062
:102E800040EA51ECC801B7010E941F090F900F9052
:102E90000F900F9080913F05882319F00E94400306
:102EA000F9CF1092360585E4982E9F92C8E4CF930F
:102EB0001F921F92A12CB12C6501E12CF12C00E294
:102EC00011E4A601950160EF73E284E799EC0E949A
:102ED0007C10D4E4DF93CF931F921F92E12CF12C4E
:102EE00000E810E4A601950160EF73E284E799EC35
:102EF0000E947C109F92CF931F921F92A12CB12C05
:102F000030E2C32E31E4D32EE12CF12C870120EFE7
:102F100033E244E759ECC801B7010E947C10DF930B
:102F2000CF931F921F92A12CB12C40E8C42E40E4F5
:102F3000D42E20EF33E244E759ECC801B7010E94D8
:102F40007C10A8019701C801B7010E94C20E8CE055
:102F5000E4E6F5E0DF011D928A95E9F78DB79EB7AB
:102F600040960FB6F8949EBF0FBE8DBFDF91CF91F4
:102F70001F910F91FF90EF90DF90CF90BF90AF9097
:102F80009F908F9008955058BB27AA270E94DB1767
:102F90000C94AC190E949E1938F00E94A51920F0DB
:102FA00039F49F3F19F426F40C949B190EF4E09524
:102FB000E7FB0C946C19E92F0E94BD1958F3BA175E
:102FC000620773078407950720F079F4A6F50C943F
:102FD000F7190EF4E0950B2EBA2FA02D0B01B901B5
:102FE00090010C01CA01A0011124FF27591B99F07F
:102FF000593F50F4503E68F11A16F040A22F232F8B
:10300000342F4427585FF3CF469537952795A795DA
:10301000F0405395C9F77EF41F16BA0B620B730B81
:10302000840BBAF09150A1F0FF0FBB1F661F771FF2
:10303000881FC2F70EC0BA0F621F731F841F48F4A7
:10304000879577956795B795F7959E3F08F0B0CF30
:103050009395880F08F09927EE0F97958795089517
:103060000E94DF1990F09F3748F4911116F40C94E8
:10307000F81960E070E080E89FE3089526F01B16E1
:10308000611D711D811D0C9472190C948D190E9483
:10309000481908F481E008950E9460180C94AC1956
:1030A0000E94A51958F00E949E1940F029F45F3F34
:1030B00029F00C946C1951110C94F8190C949B196B
:1030C0000E94BD1968F39923B1F3552391F3951B21
:1030D000550BBB27AA2762177307840738F09F5F39
:1030E0005F4F220F331F441FAA1FA9F335D00E2EA6
:1030F0003AF0E0E832D091505040E695001CCAF713
:103100002BD0FE2F29D0660F771F881FBB1F2617D5
:1031100037074807AB07B0E809F0BB0B802DBF01AC
:10312000FF2793585F4F3AF09E3F510578F00C947B
:103130006C190C94F8195F3FE4F3983ED4F386952C
:1031400077956795B795F7959F5FC9F7880F911D9C
:103150009695879597F90895E1E0660F771F881F88
:10316000BB1F621773078407BA0720F0621B730B3B
:10317000840BBA0BEE1F88F7E09508950E94C518DE
:103180006894B1110C94F81908950E94C51988F03B
:103190009F5798F0B92F9927B751B0F0E1F0660F1B
:1031A000771F881F991F1AF0BA95C9F714C0B1305C
:1031B00091F00E94F719B1E008950C94F719672F68
:1031C000782F8827B85F39F0B93FCCF3869577958B
:1031D0006795B395D9F73EF4909580957095619574
:1031E0007F4F8F4F9F4F0895E89409C097FB3EF49F
:1031F00090958095709561957F4F8F4F9F4F992344
:10320000A9F0F92F96E9BB279395F69587957795C1
:103210006795B795F111F8CFFAF4BB0F11F460FF81
:103220001BC06F5F7F4F8F4F9F4F16C0882311F0D9
:1032300096E911C0772321F09EE8872F762F05C0ED
:10324000662371F096E8862F70E060E02AF09A9588
:10325000660F771F881FDAF7880F9695879597F97D
:1032600008950E94DF1990F09F3748F4911116F0ED
:103270000C94F81960E070E080E89FEB089526F464
:103280001B16611D711D811D0C9472190C948D19F2
:10329000990F0008550FAA0BE0E8FEEF1616170667
:1032A000E807F907C0F012161306E407F50798F0CF
:1032B000621B730B840B950B39F40A2661F0232BE8
:1032C000242B252B21F408950A2609F4A140A69564
:1032D0008FEF811D811D089597F99F6780E870E049
:1032E00060E00895882371F4772321F09850872BAC
:1032F000762F07C0662311F499270DC09051862BB5
:1033000070E060E02AF09A95660F771F881FDAF761
:10331000880F9695879597F908959F3F31F09150C2
:1033200020F4879577956795B795880F911D9695A9
:10333000879597F908959FEF80EC089500240A94EB
:103340001616170618060906089500240A94121680
:103350001306140605060895092E0394000C11F4B3
:10336000882352F0BB0F40F4BF2B11F460FF04C060
:103370006F5F7F4F8F4F9F4F089557FD9058440FB9
:10338000551F59F05F3F71F04795880F97FB991FC4
:1033900061F09F3F79F08795089512161306140681
:1033A000551FF2CF4695F1DF08C01616170618060E
:1033B000991FF1CF869571056105089408950E94C3
:1033C000C519A0F0BEE7B91788F4BB279F3860F491
:1033D0001616B11D672F782F8827985FF7CF86952F
:1033E00077956795B11D93959639C8F30895E8943C
:1033F000BB2766277727CB0197F908950E944819C4
:1034000008F48FEF08950E94C51958F19E5760F196
:103410009851A0F0E9F0983020F5092E9927660F11
:10342000771F881F991F0A94D1F712C0062E672FA5
:10343000782F8827985F11F4000C07C0993FB4F3E8
:103440008695779567959395D9F7611D711D811DB7
:103450003EF490958095709561957F4F8F4F9F4F6B
:10346000089568940C94F8190C94F7190E94491A5D
:103470000C94AC190E949E1938F00E94A51920F0F6
:10348000952311F00C946C190C949B1911240C9435
:10349000F8190E94BD1970F3959FC1F3950F50E084
:1034A000551F629FF001729FBB27F00DB11D639FF6
:1034B000AA27F00DB11DAA1F649F6627B00DA11D9C
:1034C000661F829F2227B00DA11D621F739FB00D42
:1034D000A11D621F839FA00D611D221F749F3327B2
:1034E000A00D611D231F849F600D211D822F762F4B
:1034F0006A2F11249F5750409AF0F1F088234AF028
:10350000EE0FFF1FBB1F661F771F881F9150504093
:10351000A9F79E3F510580F00C946C190C94F81992
:103520005F3FE4F3983ED4F3869577956795B7951A
:10353000F795E7959F5FC1F7FE2B880F911D969534
:10354000879597F9089519F416F40C949B190C9427
:103550008D190E94C519B8F39923C9F3B6F39F5783
:10356000550B87FF0E94E91A0024A0E640EA90016B
:1035700080585695979528F4805C660F771F881FB2
:1035800020F026173707480730F4621B730B840BB3
:10359000202931294A2BA6951794079420253125F7
:1035A0004A2758F7660F771F881F20F0261737071E
:1035B000480730F4620B730B840B200D311D411D45
:1035C000A09581F7B901842F9158880F969587951A
:1035D000089591505040660F771F881FD2F70895C5
:1035E000AA1BBB1B51E107C0AA1FBB1FA617B70729
:1035F00010F0A61BB70B881F991F5A95A9F7809545
:103600009095BC01CD010895A1E21A2EAA1BBB1B07
:10361000FD010DC0AA1FBB1FEE1FFF1FA217B3079E
:10362000E407F50720F0A21BB30BE40BF50B661FB4
:10363000771F881F991F1A9469F760957095809578
:1036400090959B01AC01BD01CF010895EE0FFF1FC6
:103650000590F491E02D09940E943F1BA59F900DC9
:10366000B49F900DA49F800D911D11240895B7FF64
:103670000C942C1B0E942C1B821B930B0895A29F61
:10368000B001B39FC001A39F700D811D1124911D36
:10369000B29F700D811D1124911D0895F894FFCFE4
:0236A000010126
:00000001FF
