:100000000C9461000C9488000C9488000C94880077
:100010000C9488000C9488000C9488000C94880040
:100020000C9488000C94C9110C9488000C94DA117B
:100030000C9488000C9488000C9488000C94880020
:100040000C94BD110C9488000C947D010C9421013A
:100050000C9488000C9488000C9488000C94880000
:100060000C9488000C9488001907AA04FE04CF049D
:100070000B050E05110516051B0559058A05BB055F
:10008000BD05BF05C10579061207670612078F0671
:10009000BC06E906120712071207120712078406A8
:1000A0001207120772061207120712071207DE055F
:1000B0000C063A06C112C112F014471549154D1528
:1000C0004F15E9EEF6E085EC98E001C08193EF3F33
:1000D000F907E0F3D9F311241FBECFEFD8E0DEBF5C
:1000E000CDBF11E0A0E0B1E0ECE2F4E302C0059086
:1000F0000D92A230B107D9F726E0A2E0B1E001C02D
:100100001D92A93EB207E1F70E948A000C94141ACE
:100110000C94000078940E94B9000E94A8020E94EA
:10012000DD0E0E945D110E94F50E0E94250F0E94B7
:10013000860480E090E0089510920301109202017D
:100140000895909109019F5F903809F490E0209103
:1001500008019217E1F3E0910901F0E0E759F94F46
:100160008083909309018091C10080628093C100D7
:1001700008951092C50080E18093C400E0ECF0E0A7
:1001800080818D7F8083E1ECF0E0808180618083DD
:100190008081886080838081806880838EE70C9472
:1001A000A100CF92DF92EF92FF92CF93C82FCB01A5
:1001B000BA0120E030E04AE754E40E94F0180E94BF
:1001C000BD186B017C0128EFF21A8C2D80680E940B
:1001D000A100D701C60180789F73AA27BB2727E01B
:1001E000B695A795979587952A95D1F780580E943F
:1001F000A100D701C6018827907CAF71BB273EE0E4
:10020000B695A795979587953A95D1F780580E940E
:10021000A100D701C60188279927A07EBF7045E1BC
:10022000B695A795979587954A95D1F780580E94DE
:10023000A1008C2FCF91FF90EF90DF90CF900C9486
:10024000A1001F920F920FB60F9211248F939F93CC
:10025000EF93FF938091080190910501992349F054
:1002600095E09093C60090910501915090930501FF
:100270000DC0E82FF0E0E759F94F90819093C60048
:100280008F5F803809F480E0809308019091090124
:10029000891305C08091C1008F7D8093C100FF91BB
:1002A000EF919F918F910F900FBE0F901F90189517
:1002B000E0910A01F0E0E759FA4F808190910A013C
:1002C0009F5F90930A012FB7F894909104019F5F6C
:1002D0009093040190910401903110F42FBF089580
:1002E000909105019F5F909305019091C1009062EC
:1002F0009093C10010920401F1CF1F920F920FB69C
:100300000F9211242F933F934F935F936F937F939B
:100310008F939F93AF93BF93CF93EF93FF93C0912E
:10032000C60080910001882329F010920001C0933B
:1003300007013DC081E08093000180910701C8174B
:1003400019F08DE30E942810C031F8F4C13011F487
:1003500081E224C0C23069F41092030110920201BC
:1003600010920A0110920B01109204010E943A109F
:100370001EC0C33019F40E94E60219C0C43019F43B
:100380000E94EA0214C083E209C0E0910B0181E0FF
:100390008E0F90910A01891304C082E20E942810F6
:1003A00006C0F0E0E759FA4FC08380930B01FF913C
:1003B000EF91CF91BF91AF919F918F917F916F916D
:1003C0005F914F913F912F910F900FBE0F901F9013
:1003D0001895CF93C1E080910301882301F18091AA
:1003E00002018823C9F01092060190910A018091C0
:1003F0000B0198130BC080910601811104C00E946B
:10040000EE02C09306010E94FA02EFCF0E9458014B
:10041000813111F4109203010E94FA02DCCF109294
:100420000601C1E090910A0180910B0198130BC065
:1004300080910601811104C00E94EE02C093060162
:100440000E94FA02EFCF0E945801803131F481E01E
:10045000809303011092020181E4CF91089580916D
:1004600003018823C9F080910201811115C0909188
:100470000A0180910B01981303C00E94EE020CC088
:100480000E94580187FD09C0813119F410920301BF
:1004900003C083E20E94281080E8089520910A0199
:1004A00090910B0181E0291301C080E0089581E063
:1004B000809302010895E1E1F1E0438150E060E0C2
:1004C00070E0405851096109710987E0440F551FD8
:1004D000661F771F8A95D1F7828190E0A0E0B0E097
:1004E00080589109A109B109840F951FA61FB71F54
:1004F000AC01BD0197E0440F551F661F771F9A9509
:10050000D1F7818190E0A0E0B0E080589109A10985
:10051000B109840F951FA61FB71F27E0880F991FE9
:10052000AA1FBB1F2A95D1F72081820F911DA11D03
:10053000B11DBC01CD0160587109810998400E942C
:10054000B01720E030E04AE754E40E94061708950F
:10055000E6E1F1E081E0808340E050E06AEF75E49D
:1005600042835383648375831682178210861186B3
:100570001286138614861586168640E050E060EADF
:1005800070E44787508B618B728B438B548B658BE8
:10059000768B178A108E118E128E9CE0E1E3F1E0CB
:1005A000DF01292F1D922A95E9F7EDE3F1E0DF0144
:1005B0001D929A95E9F78093100180930F01109294
:1005C0000E0110920D0180930C01089581E080933B
:1005D0001001089581E080930F01089580910D012D
:1005E00090910E01019690930E0180930D0110924F
:1005F0000C0108958F929F92AF92BF92CF92DF929B
:10060000EF92FF920F931F93CF9329B189B1982F47
:10061000991F9927991F22FB882780F9892B11F4AC
:100620004B9B03C080E00E94FC0E0E943710882381
:1006300091F10E94820E0E9405116B017C010E94C3
:10064000F4104B015C010E94E31087017601A501C3
:1006500094010E94870E0E94E3106093250170931D
:10066000260180932701909328010E94F410609343
:10067000290170932A0180932B0190932C010E94F1
:10068000051160932D0170932E0180932F0190939B
:1006900030011092150180911001811105C08091E7
:1006A0000F01882309F426C1109210010E94580EF0
:1006B000811112C00E944E0281110EC00E9437109B
:1006C00081110AC081E40E94A10083B7816083BFC9
:1006D000889583B78E7F83BF29B189B1982F991FE1
:1006E0009927991F22FB882780F9892B19F082E42A
:1006F0000E94A1004B9B03C083E40E94A1000E94C2
:100700003410C82F803211F00E94A100309B05C028
:10071000C43219F084E20E94A100319B05C0C532A9
:1007200019F085E20E94A100329B05C0C63219F083
:1007300086E20E94A100339B05C0CA3219F08AE20A
:100740000E94A1000E94E31020E030E040EA50E463
:100750000E947D1620913101309132014091330188
:10076000509134010E947D16AB01BC0188E70E94C4
:10077000D1000E94F41020E030E040EA50E40E94F2
:100780007D1620913501309136014091370150910D
:1007900038010E947D16AB01BC0189E70E94D1009F
:1007A0000E9405112091390130913A0140913B019D
:1007B00050913C010E947D16AB01BC018AE70E946A
:1007C000D10080910C01811110C060910D017091D8
:1007D0000E0180E090E00E94AE17AB01BC0187E7FC
:1007E0000E94D10081E080930C01E9EEF6E0BF01A8
:1007F000695E76408081853C09F466C080E090E0C7
:100800000E94AE17AB01BC0185E70E94D100809128
:100810000F01882309F460C010920F0140E050EEF0
:1008200062E275E486E70E94D10040913101509167
:100830003201609133017091340181E60E94D10050
:100840004091350150913601609137017091380126
:1008500082E60E94D1004091390150913A016091A5
:100860003B0170913C0183E60E94D1004091180148
:100870005091190160911A0170911B0187E60E9445
:10088000D10060911C0170E080E090E00E94AE1702
:10089000AB01BC0188E60E94D10040911D0150913E
:1008A0001E0160911F017091200189E60E94D10014
:1008B0004091210150912201609123017091240106
:1008C0008AE60E94D10008C088E0EF3FF80711F0E7
:1008D00008F094CF31968BCF86E0CF911F910F9186
:1008E000FF90EF90DF90CF90BF90AF909F908F9050
:1008F0000C94A100CF911F910F91FF90EF90DF908A
:10090000CF90BF90AF909F908F900895C1E3D1E0BA
:100910008CE0982E772473940E94E901182F0E948E
:100920003710882319F00E94FA02F6CF17FD84C20F
:100930008FEB810F8A3108F02AC1812F90E0FC01F2
:10094000E154F109EF30F10508F01FC1EC5CFF4FF5
:100950000C94E019A0901801B0901901C0901A01F0
:10096000D0901B01E0902D01F0902E0100912F01FD
:10097000109130012091290130912A0140912B01E1
:1009800050912C01609125017091260180912701E1
:10099000909128011F921F921F921F922CC0A0902D
:1009A0001801B0901901C0901A01D0901B01E0907D
:1009B0002D01F0902E0100912F0110913001209116
:1009C000290130912A0140912B0150912C01609115
:1009D0002501709126018091270190912801E091D5
:1009E0002401EF93E0912301EF93E0912201EF9333
:1009F000E0912101EF9380901C0154C060911D0192
:100A000070911E0180911F019091200140911C0165
:100A10000E941C0E0EC2109216010BC2709216019B
:100A200008C2809116018093170103C280911701BB
:100A300080931601FEC10E947115FE01892D11924D
:100A40008A95E9F780E090E0A0EAB0E48093250180
:100A500090932601A0932701B09328018093290148
:100A600090932A01A0932B01B0932C0110922D0199
:100A700010922E0110922F0110923001A0901801B7
:100A8000B0901901C0901A01D0901B011F921F92C3
:100A90001F921F92812CE12CF12C87019C01AD014A
:100AA000BC01CD010E94E4080F900F900F900F90B1
:100AB000C0C18091310190913201A0913301B09178
:100AC000340180933D0190933E01A0933F01B09388
:100AD00040018091350190913601A0913701B0918C
:100AE00038018093410190934201A0934301B09358
:100AF00044018091390190913A01A0913B01B0915C
:100B00003C018093450190934601A0934701B09327
:100B100048018FC180913D0190913E01A0913F011C
:100B2000B09140018093310190933201A093330141
:100B3000B09334018091410190914201A091430111
:100B4000B09144018093350190933601A093370111
:100B5000B09338018091450190914601A0914701E1
:100B6000B09148018093390190933A01A0933B01E1
:100B7000B0933C015EC183E005C084E003C085E022
:100B800001C086E00E94430E54C18CE350C18FE93E
:100B9000810F8A3108F04AC180911501843009F033
:100BA00043C1812F90E0FC01E456F109E731F105E2
:100BB00008F038C1ED5BFF4F0C94E01980911601ED
:100BC000813099F40E945B0220E030E040EA50E47A
:100BD0000E947E169B01AC0160913101709132013F
:100BE00080913301909134010CC00E945B029B0103
:100BF000AC016091250170912601809127019091AF
:100C000028010E947E16609325017093260180932F
:100C10002701909328010DC180911601813099F42C
:100C20000E945B0220E030E040EA50E40E947E1621
:100C30009B01AC01609135017091360180913701C3
:100C4000909138010CC00E945B029B01AC01609145
:100C5000290170912A0180912B0190912C010E9411
:100C60007E166093290170932A0180932B01909343
:100C70002C01DFC080911601813091F40E945B024B
:100C800020E030E0A9010E947E169B01AC0160913A
:100C9000390170913A0180913B0190913C010CC067
:100CA0000E945B029B01AC0160912D0170912E01AD
:100CB00080912F01909130010E947E1660932D014A
:100CC00070932E0180932F0190933001B2C00E9447
:100CD0005B02609318017093190180931A0190933D
:100CE0001B01A7C00E945B020E947F1760931C013A
:100CF000A0C00E945B0260931D0170931E0180934F
:100D00001F019093200195C00E945B026093210116
:100D10007093220180932301909324018AC00E9442
:100D20005B026B017C0180911601813049F4C09215
:100D30003101D0923201E0923301F092340179C056
:100D40000E942510882319F00E94FA02F9CF0E9410
:100D5000E31020E030E040EA50E40E947D16A70155
:100D600096010E947E166093310170933201809348
:100D70003301909334015DC00E945B026B017C01E2
:100D800080911601813049F4C0923501D09236012C
:100D9000E0923701F09238014CC00E942510882360
:100DA00019F00E94FA02F9CF0E94F41020E030E01E
:100DB00040EA50E40E947D16A70196010E947E162B
:100DC0006093350170933601809337019093380119
:100DD00030C00E945B026B017C0180911601813062
:100DE00049F4C0923901D0923A01E0923B01F0926D
:100DF0003C011FC00E942510882319F00E94FA02AE
:100E0000F9CF0E9405119B01AC01C701B6010E94F8
:100E10007E166093390170933A0180933B01909361
:100E20003C0107C08EE303C08AE301C083E20E9455
:100E300028101092150177CDE0911501E43048F4A7
:100E400081E08E0F80931501F0E0EF5EFE4F10837E
:100E50006ACD8AE30E94281066CD4F925F926F920E
:100E60007F928F929F92AF92BF92CF92DF92EF923A
:100E7000FF920F931F93CF93DF93CDB7DEB76297A7
:100E80000FB6F894DEBF0FBECDBF9A8B898B2A01B7
:100E90003B0148015901FC01628973898489958964
:100EA0000E94AE176B017C01A30192010E94F01811
:100EB0000E94EA160E947F172B013C01E989FA89FA
:100EC00061A772A783A794A7A5019401C701B601E2
:100ED0000E94F0180E94EA160E947F174B015C01E5
:100EE000E989FA8965A776A787A790AB21A932A9D6
:100EF00043A954A9A0EEBEE20E94E61969837A8351
:100F00008B839C830E94B0176D837E838F83988729
:100F1000C301B2010E94AE172B013C01A70196014B
:100F2000C701B6010E94F0186B017C01A301920178
:100F3000C301B2010E94F01869877A878B879C876A
:100F40002D813E814F815885CA01B9010E947E16CC
:100F50006D877E878F87988B29853A854B855C8541
:100F6000C701B6010E947D162D853E854F855889A3
:100F70000E9406170E94EA160E9478172B013C0176
:100F8000C501B4010E94AE179B01AC010E94F0188C
:100F90004B015C01A70196010E947D166B017C014B
:100FA00069817A818B819C819095809570956195FE
:100FB0007F4F8F4F9F4F0E94B0179B01AC010E9443
:100FC0007E169B01AC01C701B6010E9406170E9464
:100FD000EB17E989FA89C684D784E088F188A701EC
:100FE0009601241935094609570929833A834B8309
:100FF0005C830E94781729813A814B815C81261B92
:10100000370B480B590BDA01C90157FF3BC0C70129
:10101000B6010E94B0172D853E854F8558890E94E4
:10102000F01829853A854B855C850E947D16A501BF
:1010300094010E947E164B015C0120E030E040E804
:1010400050E46D817E818F8198850E94F0189B010C
:10105000AC01C501B4010E9406170E94EA160E9465
:10106000781797FF03C060E070E0CB0126013701DD
:101070006C157D058E059F0514F42B013C0180E065
:1010800090E0DC01E989FA8945AA56AA67AA70AE00
:10109000480E591E6A1E7B1E41AE52AE63AE74AE40
:1010A00062960FB6F894DEBF0FBECDBFDF91CF9131
:1010B0001F910F91FF90EF90DF90CF90BF90AF9076
:1010C0009F908F907F906F905F904F9008954F9278
:1010D0005F926F927F92AF92BF92CF92DF92EF9228
:1010E000FF920F931F93CF93DF938C01EB01FC01D1
:1010F000428C538C648C758CAA8CBB8CCC8CDD8C14
:101100009501A601C301B2010E94011787FF37C0F4
:10111000A3019201C301B2010E94F0182B013C010E
:1011200020E03AEB4BE55AECF80162A173A184A1EF
:1011300095A10E94F0189B01AC01C301B2010E946D
:101140007D160E9463197B018C019B01AC01B501E6
:10115000C6010E94011787FF02C075018601970131
:10116000A801B501C6010E940117882341F0C701FB
:10117000D8018A8F9B8FAC8FBD8F81E08FA3DF91C9
:10118000CF911F910F91FF90EF90DF90CF90BF9084
:10119000AF907F906F905F904F900895CF93DF93C3
:1011A0008F5F8E3009F480E0C82F880FDD0B8091AF
:1011B000650190E0C817D90719F40E94FA02F7CF29
:1011C000CE01DF91CF9108952F923F924F925F927F
:1011D0006F927F928F929F92AF92BF92CF92DF9247
:1011E000EF92FF920F931F93CF93DF93CDB7DEB7AC
:1011F000A1970FB6F894DEBF0FBECDBF29013A010B
:10120000EA82FB820C831D83A982BE82CF82D886AC
:10121000CEA8DFA8E8ACF9AC2CE137EC41EB52E406
:101220000E94F0180E94BD18698B7A8B8B8B9C8B67
:1012300024E731ED45EB52E4C301B2010E94F018FE
:101240000E94BD186D8B7E8B8F8B988F25E535E5C1
:1012500045E052E46A817B818C819D810E94F01877
:101260000E94BD18698F7A8F8B8F9C8F8091660149
:1012700090E00E94CE0889A380916601282E312C2F
:1012800020E030E0A901C701B6010E9401178823C0
:1012900011F185E4829D8001839D100D112409596F
:1012A0001E4F81E0D8018C932CE137EC41EB52E4E6
:1012B000C701B6010E94F01820E030E040E854E495
:1012C0000E94F0180E94BD18F801FD96608371839A
:1012D0008283938309C085E4829DF001839DF00D94
:1012E0001124E959FE4F108285E4829DF001839D0F
:1012F000F00D1124E959FE4F86A2158680915901FF
:1013000090915A01A0915B01B0915C0149885A8883
:101310006B887C88481659066A067B0614F428E018
:10132000258780905D0190905E01A0905F01B09054
:1013300060014D885E886F88788C481459046A046F
:101340007B045CF425E4229DF001239DF00D112423
:10135000E959FE4F258520612587C0906101D09015
:101360006201E0906301F0906401498C5A8C6B8CAF
:101370007C8C4C145D046E047F045CF425E4229D97
:10138000F001239DF00D1124E959FE4F25852062BF
:10139000258749885A886B887C88481A590A6A0ABE
:1013A0007B0AC301B20177FE07C0442455243201F1
:1013B000461A570A680A790A45E4429D9001439DFE
:1013C000300D1124F901E959FE4F418252826382A6
:1013D00074822D893E894F89588D281939094A0907
:1013E0005B0949015A012A833B834C835D8357FF84
:1013F0000BC022273327A901281939094A095B099B
:101400002A833B834C835D8345E4429D9001439D49
:10141000300D1124F901E959FE4F2A813B814C819D
:101420005D812583368347835087298D3A8D4B8D87
:101430005C8D2C193D094E095F0969017A012D87E0
:101440003E874F87588B57FF0BC022273327A901B0
:101450002C193D094E095F092D873E874F87588B10
:10146000E5E4E29DA001E39D500D1124FA01E95944
:10147000FE4F2D853E854F855889218732874387CA
:10148000548749865A866B867C862A813B814C81AB
:101490005D81421653066406750620F429873A8753
:1014A0004B875C8749845A846B847C842D853E8578
:1014B0004F855889421653066406750610F42901B3
:1014C0003A0125E4229D8001239D100D1124095924
:1014D0001E4FD8011E964D925D926D927C9251974F
:1014E000411451046104710409F48DC30E94B017C2
:1014F0002CE137EC41EB52E40E94061769877A87AA
:101500008B879C87C501B4010E94B01724E731ED99
:1015100045EB52E40E9406176D877E878F87988B74
:10152000C701B6010E94B01725E535E545E052E454
:101530000E9406174B015C0129853A854B855C8525
:10154000CA01B9010E94F0186B017C012D853E850E
:101550004F855889CA01B9010E94F0189B01AC015E
:10156000C701B6010E947E166B017C01A5019401A2
:10157000C501B4010E94F0189B01AC01C701B6017E
:101580000E947E160E9463196A837B838C839D83ED
:10159000F80162A373A384A395A39B01AC0160E04F
:1015A00070E080E89FE30E9406176B017C0189814F
:1015B0009E81AF81B885F801868B978BA08FB18F04
:1015C000C301B2010E94B0172B013C0129813E8169
:1015D0004F815885C701B6010E94F018A3019201FE
:1015E0000E94F0180E94EA160E947F17D8015296B6
:1015F0006D937D938D939C935597A3019201C701A1
:10160000B6010E94F01820E03AEB4BED59E40E943D
:10161000F01820E030E84BE356E40E9406170E94E1
:10162000EA160E947F17F80161AB72AB83AB94ABF3
:10163000A701960169857A858B859C850E94F018A3
:1016400069877A878B879C87A70196016D857E8540
:101650008F8598890E94F0186D877E878F87988B79
:10166000A7019601C501B4010E94F0182B013C01AD
:101670009091660180916501981709F4ABC0E090E4
:101680004901F0904A0100914B0110914C0120E07A
:1016900030E0A901B701C8010E94B81818160CF073
:1016A00099C080914D0190914E01A0914F01B09150
:1016B0005001BC01CD01905829853A854B855C8548
:1016C0000E94F0184B015C012091510130915201B0
:1016D00040915301509154016D857E858F85988985
:1016E0000E94F0189B01AC01C501B4010E947D1657
:1016F0004B015C01209155013091560140915701F9
:1017000050915801C301B2010E94F0189B01AC0135
:10171000C501B4010E947D164B015C0123E333E354
:1017200043E75FE30E94011787FF54C09701A801B8
:1017300069817E818F8198850E94B818181624F0DF
:10174000E980FE800F81188523E333E343E75FEBF5
:10175000C501B4010E94B81818160CF03FC0A501CD
:10176000940160E070E080E89FE30E947D1620E035
:1017700030E040E05FE30E94F0180E9463194B01E3
:101780005C0120E030EC48E256E40E94F0186D8FD6
:101790007E8F8F8F98A3A501940160E070E080E8B0
:1017A0009FE30E947D169B01AC016D8D7E8D8F8D18
:1017B00098A10E9406170E9463195B016C019B01AE
:1017C000AC01B701C8010E94011787FD07C0750170
:1017D000860104C0E12CF12C00E010E085E4829D3C
:1017E000F001839DF00D1124E959FE4FC701D80186
:1017F000868F978FA0A3B1A320E03AEB4BE55AEC7C
:101800006A817B818C819D810E94F0189B01AC01D3
:1018100060E070E0CB010E947D160E9463195B01BD
:101820006C019B01AC01B701C8010E94011787FD43
:1018300004C075019C2D8D2D02C0902F812F25E4B1
:10184000229D8001239D100D112409591E4FA701CF
:10185000692F782FD8015A964D935D936D937C93A1
:101860005D979501A60169817E818F8198850E948F
:101870000117181624F081E0F80180A703C0D801F1
:1018800098961C9285E4829DF001839DF00D1124B1
:10189000E959FE4F81E087A329853A854B855C8510
:1018A00020934D0130934E0140934F0150935001CE
:1018B0008D859E85AF85B8898093510190935201A3
:1018C000A0935301B0935401409255015092560198
:1018D000609257017092580189819E81AF81B885CD
:1018E0008093490190934A01A0934B01B0934C011E
:1018F00049A04092660149885A886B887C8840924A
:10190000590150925A0160925B0170925C014D88BE
:101910005E886F88788C40925D0150925E01609283
:101920005F0170926001498C5A8C6B8C7C8C409268
:101930006101509262016092630170926401F090C3
:101940006601E0E0F0E000E010E08091650190E0E9
:101950002F2D0F2C000C330B2817390709F47DC0ED
:10196000F11002C03EE0F32EFA9425E43F2D32033D
:10197000C0011124AC0149595E4F4A0101151105FE
:1019800009F468C0309709F465C0D80198968C9125
:1019900098975E962C905E975F963C905F97909696
:1019A000AC90909791964C904982811147C0B22C8F
:1019B000C32CDA2CE42C428C538C648C758CA301E0
:1019C0009201622D732D8A2D9E2D0E94B818181633
:1019D000ACF5A3019201C301B2010E94F0182B01E2
:1019E0003C0120E03AEB4BE55AECD80192966D9120
:1019F0007D918D919C9195970E94F0189B01AC016F
:101A0000C301B2010E947D160E946319562E672EF3
:101A1000782EA92E262F372F482F592F622D732D60
:101A20008D2D9E2D0E94011787FD03C0B52C6301EB
:101A3000EA2C8B2D9C2DAD2DBE2D03C0C101AA2DEE
:101A4000B981F801828F938FA48FB58FE1E0D8011F
:101A50009796EC93F801840178CFF090650100E04F
:101A600010E080E090E025E4E22E4F2D0F2C000CDA
:101A7000550B2091660130E042175307F1F0E49EC8
:101A80009001E59E300D1124A90149595E4F6A016C
:101A9000009759F00115110541F0DC0198962C9141
:101AA000211103C0B8010E946708F394BEE0FB1245
:101AB00001C0F12CC8018601D8CF009751F0011563
:101AC000110539F0FC0120A5211103C0B8010E94C5
:101AD0006708D0906501E12CF12C85E4C82E2D2DEE
:101AE0000D2C000C330B8091660190E0281739070C
:101AF00009F447C0C29EC001C39E900D1124AC01E1
:101B000049595E4F1A01E114F104A1F1D7019796EA
:101B10008C91811104C0FA0187A1882359F1D70162
:101B200056964D905D906D907C905997C29EF001B5
:101B3000C39EF00D1124E959FE4FA3019201628D5D
:101B4000738D848D958D0E9406174B015C01A30156
:101B50009201F701628D738D848D958D0E94061719
:101B6000AB01BC0195018401C7010E942D07D7017B
:101B700097961C92D394BEE0DB1201C0D12C710168
:101B8000AECFF701808186889788A08CB18CA501A3
:101B90009401813019F4C501B40103C060E070E024
:101BA000CB010E9406172B013C01A5019401D7012E
:101BB0005A966D917D918D919C915D970E9406172B
:101BC000AB01BC0193018201C7010E942D07F701FF
:101BD00017A2A1960FB6F894DEBF0FBECDBFDF915E
:101BE000CF911F910F91FF90EF90DF90CF90BF901A
:101BF000AF909F908F907F906F905F904F903F90AD
:101C00002F900C940710A1960FB6F894DEBF0FBE6C
:101C1000CDBFDF91CF911F910F91FF90EF90DF909B
:101C2000CF90BF90AF909F908F907F906F905F907C
:101C30004F903F902F900895CF92DF92EF92FF92B6
:101C4000CF936B017C01C42F8091660190E00E94CC
:101C5000CE08E091660195E4E99FF0011124E9596D
:101C6000FE4F92E09083C6A3EF5BFF4FC082D1820C
:101C7000E282F38280936601CF91FF90EF90DF9034
:101C8000CF900C940710CF93C82F8091660190E0FD
:101C90000E94CE08E091660195E4E99FF0011124CD
:101CA000E959FE4FC08380936601CF910C940710D1
:101CB000209166019091650181E0291301C080E0C7
:101CC00008959091660180916501981749F080917F
:101CD000650125E4829FC001112489599E4F089512
:101CE00080E090E0089590916601809165019817D9
:101CF00041F0809165018F5F8E3009F480E0809320
:101D000065010895809166018093650108958F9221
:101D10009F92AF92BF92CF92DF92EF92FF920F937A
:101D20001F93CF93DF9349015A01670178012CE19A
:101D300037EC41EB52E40E94F0180E94BD18C9E54F
:101D4000D1E0688379838A839B8324E731ED45EB77
:101D500052E4C501B4010E94F0180E94BD186C83C2
:101D60007D838E839F8325E535E545E052E4C701F9
:101D7000B6010E94F0180E94BD18688779878A878B
:101D80009B871092490110924A0110924B011092C8
:101D90004C018CE0EDE4F1E0DF011D928A95E9F75A
:101DA000DF91CF911F910F91FF90EF90DF90CF9037
:101DB000BF90AF909F908F900895EF92FF920F93F6
:101DC0001F931092660110926501E12CF12C87019E
:101DD00020E030E040EA50E4CA01B9010E94870ED9
:101DE0001F910F91FF90EF9008958AB183778AB980
:101DF00087B1807C87B9089539B199B1292F221F05
:101E00002227221F32FB992790F9922B11F44B9B2A
:101E100002C018BC01C088BD893210F082E005C044
:101E20008B3010F083E001C084E085BD089588B553
:101E30000895882311F05C9A08955C98089588238A
:101E400011F05E9A08955E980895559A88E085BDD0
:101E500081E084BD84B5806284BD8FEF87BD18BCEE
:101E6000549A80E00E94190F569A80E00C941F0F3C
:101E700040913D0550913E0560913F0570914005B0
:101E80008091410590914205A0914305B091440590
:101E9000840F951FA61FB71F813828E3920721E002
:101EA000A207B10550F480933D0590933E05A093A1
:101EB0003F05B093400580E0089580589843A140C5
:101EC000B10980933D0590933E05A0933F05B093E3
:101ED000400581E008959B01AC01203486E038077D
:101EE0004105510520F420E436E040E050E060E098
:101EF00070E788E399E30E94BE192115310581E05E
:101F00004807510518F4B90180E02FC021153105AB
:101F100088E048075105A8F4DA01C901F3E0B69555
:101F2000A79597958795FA95D1F7BC019C01AD01CE
:101F3000A3E0220F331F441F551FAA95D1F781E05C
:101F400014C0DA01C90126E0B695A7959795879543
:101F50002A95D1F7BC019C01AD01E6E0220F331FA9
:101F6000441F551FEA95D1F782E090918100987F38
:101F70008F5F892B80938100709389006093880024
:101F80002093410530934205409343055093440507
:101F90000895CF92DF92EF92FF92CF93DF936B0180
:101FA0007C010E946B0FC0915B05D0915C0588811C
:101FB000813011F480E023C0C701B6010E94AE1742
:101FC0006B017C016A897B898C899D890E94AE178F
:101FD0009B01AC01C701B6010E9406176B017C0191
:101FE0006EA170E080E090E00E94B0179B01AC0110
:101FF000C701B6010E94F0180E947F17862FDF915B
:10200000CF91FF90EF90DF90CF900C94FC0E8091D9
:10201000380581110BC081E08093380588E08093FA
:102020005A0580916F00826080936F00089510922E
:10203000380510925C0510925B05EFE6F0E08081B8
:102040008D7F808380E00C94FC0E8091380508958C
:1020500090913705911107C08093360581E08093F8
:1020600037050C949C000895809136050895809161
:102070003705089580E2809336051092370508955C
:102080004F925F926F927F928F92AF92BF92CF9258
:10209000DF92EF92FF920F931F93CF93DF93CDB711
:1020A000DEB72C970FB6F894DEBF0FBECDBF6983A5
:1020B0007A838B839C8329013A01ED82FE820F8310
:1020C0001887A986BA86CB86DC8680913805882356
:1020D00019F00E94FA02F9CFE12CF12C8701A80136
:1020E0009701C801B7010E94870E8CE0EDE5F5E08D
:1020F000DF011D928A95E9F71F921F921F921F928E
:10210000812CAE8CBF8CC8A0D9A0A301920169819B
:102110007A818B819C810E94E4080F900F900F9030
:102120000F9080913805882319F00E94FA02F9CFA8
:10213000E12CF12C8701A8019701C801B7010E9489
:10214000870E8CE0EDE5F5E0DF011D928A95E9F759
:102150000E943A1081E0809335051F921F921F92D2
:102160001F92812CAE8CBF8CC8A0D9A029853A853E
:102170004B855C856D817E818F8198850E94E40806
:102180000F900F900F900F9080913805882319F0D1
:102190000E94FA02F9CF109235052C960FB6F894EA
:1021A000DEBF0FBECDBFDF91CF911F910F91FF908A
:1021B000EF90DF90CF90BF90AF908F907F906F9017
:1021C0005F904F90089560915D0570915E058091DC
:1021D0005F05909160050E94B0172CE137EC41EB50
:1021E00052E40E940617089560916105709162059E
:1021F00080916305909164050E94B01724E731ED4A
:1022000045EB52E40E9406170895609165057091B0
:10221000660580916705909168050E94B01725E5D5
:1022200035E545E052E40E94061708958F929F928B
:10223000AF92BF92CF92DF92EF92FF920F931F93D4
:10224000CF93DF9349015A01670178012CE137EC04
:1022500041EB52E40E94F0180E94BD18CDE5D5E094
:10226000688379838A839B8324E731ED45EB52E4CD
:10227000C501B4010E94F0180E94BD186C837D83D3
:102280008E839F8325E535E545E052E4C701B6011D
:102290000E94F0180E94BD18688779878A879B87FB
:1022A000DF91CF911F910F91FF90EF90DF90CF9032
:1022B000BF90AF909F908F900895EF92FF920F93F1
:1022C0001F9384B18F6384B985B1807C886085B9A0
:1022D000E1E8F0E080818F7E808380818860808368
:1022E000E0E8F0E080818D7F808380818E7F808335
:1022F00080818F73808380818F7C80831092B00077
:102300001092B100E0E7F0E080818160808360E4BA
:1023100076E080E090E00E946B0F80E00E94FC0E6F
:102320008CE0EDE5F5E0DF011D928A95E9F7E12CFF
:10233000F12C870120E030E040EA50E4CA01B90105
:102340000E94161110923D0510923E0510923F0515
:102350001092400510925C0510925B0510923705B3
:1023600080E28093360510924505109235051F9145
:102370000F91FF90EF900C9417101F920F920FB6D1
:102380000F9211245D9815BC0F900FBE0F901F90F7
:1023900018951F920F920FB60F9211248F9385B14B
:1023A000887F85B91092B1008F910F900FBE0F906A
:1023B0001F9018951F920F920FB60F921124CF9273
:1023C000DF92EF92FF922F933F934F935F936F9320
:1023D0007F938F939F93AF93BF93CF93DF93EF93AD
:1023E000FF9380914505811165C381E08093450588
:1023F00080913705882329F00E9417100E94820ED1
:1024000057C380913505811122C029B189B1982F18
:10241000991F9927991F22FB882780F9892B11F48E
:102420004B9B03C080E00E94FC0E309B02C084E204
:102430000BC0319B02C085E207C0329B02C086E21E
:1024400003C0339B04C08AE20E94281031C325B127
:1024500090915A05987385B1877C892B85B9822F15
:102460008873891325C385B1887F90915A05892B7C
:1024700085B98AEF8093B20082E08093B1007894AE
:1024800080915B0590915C05892B09F06AC00E94E0
:10249000610E90935C0580935B05009719F40E9490
:1024A000171006C3FC012081223008F05AC061A534
:1024B00072A583A594A56093390570933A0580931E
:1024C0003B0590933C0550E4C52E5CE9D52EE12CEC
:1024D000F12CC0923D05D0923E05E0923F05F0926E
:1024E00040050E94C90FE0915B05F0915C05808179
:1024F000813041F41092460510924705109248052C
:102500001092490586859785A089B189B595A795CB
:1025100097958795B095A095909581959F4FAF4FD2
:10252000BF4F8093560590935705A0935805B093DD
:1025300059058093520590935305A0935405B09389
:10254000550580934E0590934F05A0935005B09389
:10255000510510924A0510924B0510924C051092AD
:102560004D05C0915B05D0915C052881822F90E0DC
:102570008730910508F09CC2FC01E65AFF4F0C948D
:10258000E0193D8530935A0549815A816B817C81E0
:102590008091560590915705A0915805B091590525
:1025A000840F951FA61FB71F80935605909357055C
:1025B000A0935805B09359054E855F856889798940
:1025C000181619061A061B0644F5316030935A0591
:1025D000841B950BA60BB70B80935605909357055C
:1025E000A0935805B093590580915D0590915E05C3
:1025F000A0915F05B091600533FF04C00197A10968
:10260000B10903C00196A11DB11D80935D05909392
:102610005E05A0935F05B0936005CD80DE80EF80FE
:10262000F8848091520590915305A0915405B09182
:1026300055058C0D9D1DAE1DBF1D809352059093B9
:102640005305A0935405B0935505181619061A069C
:102650001B0654F530915A05326030935A05841B9D
:10266000950BA60BB70B8093520590935305A0933F
:102670005405B09355058091610590916205A09134
:102680006305B091640534FF04C00197A109B10945
:1026900003C00196A11DB11D809361059093620551
:1026A000A0936305B0936405C984DA84EB84FC8449
:1026B00080914E0590914F05A0915005B091510524
:1026C0008C0D9D1DAE1DBF1D80934E0590934F0533
:1026D000A0935005B0935105181619061A061B064B
:1026E00054F530915A05346030935A05841B950B8C
:1026F000A60BB70B80934E0590934F05A093500502
:10270000B09351058091650590916605A09167058C
:10271000B091680535FF04C00197A109B10903C054
:102720000196A11DB11D8093650590936605A09348
:102730006705B093680580914A0590914B05A0917B
:102740004C05B0914D050196A11DB11D80934A0520
:1027500090934B05A0934C05B0934D05E0915A051D
:1027600038E03E2730935A0584179507A607B70728
:1027700008F030C14DA95EA96FA978AD84179507FF
:10278000A607B70780F50E94380F882309F490C187
:1027900049A95AA96BA97CA98091390590913A055C
:1027A000A0913B05B0913C05840F951FA61FB71F54
:1027B0008093390590933A05A0933B05B0933C056F
:1027C0004A895B896C897D89481759076A077B07A5
:1027D00008F069C04093390550933A0560933B0572
:1027E00070933C0560C049AD5AAD6BAD7CAD8417AC
:1027F0009507A607B70769F480E49CE9A0E0B0E07C
:1028000080933D0590933E05A0933F05B09340050E
:102810004FC184179507A607B70708F44FC00E9459
:10282000380F882309F444C149A95AA96BA97CA986
:102830008091390590913A05A0913B05B0913C05F6
:10284000481759076A077B0768F4841B950BA60B8A
:10285000B70B8093390590933A05A0933B05B0934D
:102860003C0508C01092390510923A0510923B05BC
:1028700010923C058DA59EA5AFA5B8A9409139053C
:1028800050913A0560913B0570913C0548175907F6
:102890006A077B0740F48093390590933A05A0932B
:1028A0003B05B0933C056091390570913A058091E4
:1028B0003B0590913C050E94C90FFAC06A897B894B
:1028C0008C899D89C0903905D0903A05E0903B05F0
:1028D000F0903C056C157D058E059F0551F06093C9
:1028E000390570933A0580933B0590933C050E940F
:1028F000C90FE0915B05F0915C058081813009F0A2
:1029000065C08091460590914705A0914805B0911A
:10291000490540914A0550914B0560914C057091D5
:102920004D05892B8A2B8B2B89F4DB01CA013AE0F8
:10293000880F991FAA1FBB1F3A95D1F780934605B0
:1029400090934705A0934805B093490580914605AB
:1029500090914705A0914805B09149052AE0440FA0
:10296000551F661F771F2A95D1F7481759076A0721
:102970007B0708F49DC0FD9640815181628173817F
:10298000840F951FA61FB71F809346059093470598
:10299000A0934805B0934905F8940E942F027894BB
:1029A000282F30E020583109220F331FE0915B05BA
:1029B000F0915C0546A1429FC001439F900D1124F8
:1029C0006FEF70E00E94AA19862F01C086A10E94B5
:1029D000FC0E6EC0213009F065C00E94570262C033
:1029E000C0902D05D0902E05E0902F05F090300579
:1029F000C114D104E104F104E9F420E030E04AE735
:102A000054E4FE01EF5BFF4F60817181828193810D
:102A10000E94F0180E94BD18609331057093320532
:102A2000809333059093340560E67AEE80E090E081
:102A30000E946B0F8091310590913205A091330572
:102A4000B0913405C816D906EA06FB06B8F48EA183
:102A50000E94FC0E80912D0590912E05A0912F05CE
:102A6000B09130050196A11DB11D80932D05909365
:102A70002E05A0932F05B09330051AC010922D0596
:102A800010922E0510922F05109230050BC081E098
:102A900001C080E00E94190F05C081E001C080E004
:102AA0000E941F0F10925C0510925B050E94730E2E
:102AB00010924505FF91EF91DF91CF91BF91AF91BA
:102AC0009F918F917F916F915F914F913F912F9146
:102AD000FF90EF90DF90CF900F900FBE0F901F9060
:102AE00018958F929F92AF92BF92CF92DF92EF9202
:102AF000FF920F931F93CF93DF9380913805882324
:102B000019F00E94FA02F9CFE12CF12C8701A801FB
:102B10009701C801B7010E94870E8CE0EDE5F5E052
:102B2000DF011D928A95E9F781E080933505309B9E
:102B300017C01F921F921F921F92812CA12CB12CA3
:102B4000E8E4CE2EE4E4DE2EA801970160E070E018
:102B500080EA91E40E94E4080F900F900F900F908C
:102B6000319B1AC01F921F921F921F92812CA12C81
:102B7000B12C78E4C72E74E4D72EE12CF12C870118
:102B8000A801970160E070E080EA91EC0E94E408FF
:102B90000F900F900F900F90329B1AC01F921F92B0
:102BA0001F921F92812CA12CB12C68E4C62E64E4E4
:102BB000D62EE12CF12C870120E030E040EA51E4F0
:102BC000C801B7010E94E4080F900F900F900F907A
:102BD000339B1AC01F921F921F921F92812CA12C0F
:102BE000B12C58E4C52E54E4D52EE12CF12C8701EC
:102BF00020E030E040EA51ECC801B7010E94E4084F
:102C00000F900F900F900F9080913805882319F046
:102C10000E94FA02F9CF1092350585E4982E9F9212
:102C2000C8E4CF931F921F92A12CB12C6501E12C17
:102C3000F12C00E211E4A601950160EF73E284E754
:102C400099EC0E944010D4E4DF93CF931F921F921F
:102C5000E12CF12C00E810E4A601950160EF73E28D
:102C600084E799EC0E9440109F92CF931F921F928D
:102C7000A12CB12C30E2C32E31E4D32EE12CF12C67
:102C8000870120EF33E244E759ECC801B7010E9405
:102C90004010DF93CF931F921F92A12CB12C40E8DC
:102CA000C42E40E4D42E20EF33E244E759ECC801AF
:102CB000B7010E944010A8019701C801B7010E9406
:102CC000870E8CE0EDE5F5E0DF011D928A95E9F7CE
:102CD0008DB79EB740960FB6F8949EBF0FBE8DBFBE
:102CE000DF91CF911F910F91FF90EF90DF90CF90E8
:102CF000BF90AF909F908F9008955058BB27AA2700
:102D00000E9495160C9466180E94581838F00E947C
:102D10005F1820F039F49F3F19F426F40C945518ED
:102D20000EF4E095E7FB0C942618E92F0E94771823
:102D300058F3BA17620773078407950720F079F4F0
:102D4000A6F50C94B1180EF4E0950B2EBA2FA02D19
:102D50000B01B90190010C01CA01A0011124FF2748
:102D6000591B99F0593F50F4503E68F11A16F04043
:102D7000A22F232F342F4427585FF3CF4695379542
:102D80002795A795F0405395C9F77EF41F16BA0B07
:102D9000620B730B840BBAF09150A1F0FF0FBB1FB5
:102DA000661F771F881FC2F70EC0BA0F621F731FFE
:102DB000841F48F4879577956795B795F7959E3F5B
:102DC00008F0B0CF9395880F08F09927EE0F9795EC
:102DD000879508950E94991890F09F3748F49111B3
:102DE00016F40C94B21860E070E080E89FE3089558
:102DF00026F01B16611D711D811D0C942C180C945E
:102E000047180E94021808F481E008950E941A17DA
:102E10000C9466180E945F1858F00E94581840F0F1
:102E200029F45F3F29F00C94261851110C94B21824
:102E30000C9455180E94771868F39923B1F3552321
:102E400091F3951B550BBB27AA27621773078407BD
:102E500038F09F5F5F4F220F331F441FAA1FA9F353
:102E600035D00E2E3AF0E0E832D091505040E69541
:102E7000001CCAF72BD0FE2F29D0660F771F881FA2
:102E8000BB1F261737074807AB07B0E809F0BB0B95
:102E9000802DBF01FF2793585F4F3AF09E3F5105A9
:102EA00078F00C9426180C94B2185F3FE4F3983E27
:102EB000D4F3869577956795B795F7959F5FC9F792
:102EC000880F911D9695879597F90895E1E0660F13
:102ED000771F881FBB1F621773078407BA0720F08C
:102EE000621B730B840BBA0BEE1F88F7E0950895F5
:102EF0000E947F176894B1110C94B21808950E9433
:102F00007F1888F09F5798F0B92F9927B751B0F0E4
:102F1000E1F0660F771F881F991F1AF0BA95C9F75D
:102F200014C0B13091F00E94B118B1E008950C9432
:102F3000B118672F782F8827B85F39F0B93FCCF3E5
:102F4000869577956795B395D9F73EF490958095DA
:102F5000709561957F4F8F4F9F4F0895E89409C0FA
:102F600097FB3EF490958095709561957F4F8F4FBC
:102F70009F4F9923A9F0F92F96E9BB279395F695D2
:102F8000879577956795B795F111F8CFFAF4BB0F50
:102F900011F460FF1BC06F5F7F4F8F4F9F4F16C0B4
:102FA000882311F096E911C0772321F09EE8872F3E
:102FB000762F05C0662371F096E8862F70E060E0FA
:102FC0002AF09A95660F771F881FDAF7880F969573
:102FD000879597F908950E94991890F09F3748F4C3
:102FE000911116F00C94B21860E070E080E89FEB4D
:102FF000089526F41B16611D711D811D0C942C185B
:103000000C944718990F0008550FAA0BE0E8FEEF43
:1030100016161706E807F907C0F012161306E4079C
:10302000F50798F0621B730B840B950B39F40A2695
:1030300061F0232B242B252B21F408950A2609F473
:10304000A140A6958FEF811D811D089597F99F6777
:1030500080E870E060E00895882371F4772321F020
:103060009850872B762F07C0662311F499270DC03F
:103070009051862B70E060E02AF09A95660F771FDA
:10308000881FDAF7880F9695879597F908959F3FDF
:1030900031F0915020F4879577956795B795880F13
:1030A000911D9695879597F908959FEF80EC089567
:1030B00000240A9416161706180609060895002417
:1030C0000A9412161306140605060895092E039491
:1030D000000C11F4882352F0BB0F40F4BF2B11F405
:1030E00060FF04C06F5F7F4F8F4F9F4F089557FD64
:1030F0009058440F551F59F05F3F71F04795880F66
:1031000097FB991F61F09F3F79F0879508951216FC
:1031100013061406551FF2CF4695F1DF08C01616A8
:1031200017061806991FF1CF869571056105089459
:1031300008950E947F18A0F0BEE7B91788F4BB2756
:103140009F3860F41616B11D672F782F8827985F77
:10315000F7CF869577956795B11D93959639C8F306
:103160000895E894BB2766277727CB0197F9089540
:103170000E94021808F48FEF08950E947F1858F1FA
:103180009E5760F19851A0F0E9F0983020F5092E93
:103190009927660F771F881F991F0A94D1F712C0CD
:1031A000062E672F782F8827985F11F4000C07C030
:1031B000993FB4F38695779567959395D9F7611DF7
:1031C000711D811D3EF490958095709561957F4F9E
:1031D0008F4F9F4F089568940C94B2180C94B118B7
:1031E0000E9403190C9466180E94581838F00E9427
:1031F0005F1820F0952311F00C9426180C945518A4
:1032000011240C94B2180E94771870F3959FC1F3A3
:10321000950F50E0551F629FF001729FBB27F00D84
:10322000B11D639FAA27F00DB11DAA1F649F6627D9
:10323000B00DA11D661F829F2227B00DA11D621F28
:10324000739FB00DA11D621F839FA00D611D221FE2
:10325000749F3327A00D611D231F849F600D211DC6
:10326000822F762F6A2F11249F5750409AF0F1F049
:1032700088234AF0EE0FFF1FBB1F661F771F881FB2
:1032800091505040A9F79E3F510580F00C942618AC
:103290000C94B2185F3FE4F3983ED4F3869577958B
:1032A0006795B795F795E7959F5FC1F7FE2B880F58
:1032B000911D9695879597F9089519F416F40C9435
:1032C00055180C9447180E947F18B8F39923C9F336
:1032D000B6F39F57550B87FF0E94A3190024A0E661
:1032E00040EA900180585695979528F4805C660FC7
:1032F000771F881F20F026173707480730F4621B16
:10330000730B840B202931294A2BA6951794079417
:10331000202531254A2758F7660F771F881F20F090
:1033200026173707480730F4620B730B840B200D08
:10333000311D411DA09581F7B901842F9158880F47
:1033400096958795089591505040660F771F881F76
:10335000D2F7089597FB072E16F4009407D077FD57
:1033600009D00E94F11907FC05D03EF49095819593
:103370009F4F0895709561957F4F0895A1E21A2E91
:10338000AA1BBB1BFD010DC0AA1FBB1FEE1FFF1F09
:10339000A217B307E407F50720F0A21BB30BE40B59
:1033A000F50B661F771F881F991F1A9469F76095A0
:1033B0007095809590959B01AC01BD01CF0108955A
:1033C000EE0FFF1F0590F491E02D09940E94051A5D
:1033D000A59F900DB49F900DA49F800D911D112469
:1033E0000895AA1BBB1B51E107C0AA1FBB1FA6174C
:1033F000B70710F0A61BB70B881F991F5A95A9F79E
:1034000080959095BC01CD010895A29FB001B39F16
:10341000C001A39F700D811D1124911DB29F700DDD
:0C342000811D1124911D0895F894FFCF28
:02342C0001009D
:00000001FF
