:100000000C9461000C9488000C9488000C94880077
:100010000C9488000C9488000C948B010C9488003C
:100020000C9488000C943F120C9488000C9450128D
:100030000C9488000C9488000C9488000C94880020
:100040000C9433120C9488000C94BA010C942F0178
:100050000C9488000C9488000C9488000C94880000
:100060000C9488000C9488006807F9044D051E055F
:100070005A055D05600565056A05A805D9050A06E6
:100080000C060E061006C8066107B6066107DE06F6
:100090000B07380761076107610761076107D3062E
:1000A00061076107C10661076107610761072D06E6
:1000B0005B068906B113B1135C16B316B516B916F3
:1000C000BB16E0EFF6E085EC98E001C08193EF3FCE
:1000D000F907E0F3D9F311241FBECFEFD8E0DEBF5C
:1000E000CDBF11E0A0E0B1E0ECEEF6E302C0059078
:1000F0000D92A230B107D9F726E0A2E0B1E001C02D
:100100001D92A03FB207E1F70E948A000C94741B75
:100110000C94000078940E94B9000E94ED020E94A5
:100120002C0F0E94D3110E94440F0E94700F0E9456
:10013000D50480E090E0089510920301109202012E
:100140000895909109019F5F903809F490E0209103
:1001500008019217E1F3E0910901F0E0E059F94F4D
:100160008083909309018091C10080628093C100D7
:1001700008951092C50080E18093C400E0ECF0E0A7
:1001800080818D7F8083E1ECF0E0808180618083DD
:100190008081886080838081806880838EE70E9470
:1001A000A100F894A89584B7877F84BFE0E6F0E0CB
:1001B00080818861808386E4808378940895CF92DB
:1001C000DF92EF92FF92CF93C82FCB01BA0120E0CC
:1001D00030E04AE754E40E945C1A0E94291A6B013D
:1001E0007C0128EFF21A8C2D80680E94A100D701B3
:1001F000C60180789F73AA27BB2727E0B695A795ED
:10020000979587952A95D1F780580E94A100D7012C
:10021000C6018827907CAF71BB273EE0B695A795B5
:10022000979587953A95D1F780580E94A100D701FC
:10023000C60188279927A07EBF7045E1B695A7958E
:10024000979587954A95D1F780580E94A1008C2FE9
:10025000CF91FF90EF90DF90CF900C94A1001F9270
:100260000F920FB60F9211248F939F93EF93FF93EA
:100270008091080190910501992349F095E09093B0
:10028000C600909105019150909305010DC0E82F93
:10029000F0E0E059F94F90819093C6008F5F80386D
:1002A00009F480E08093080190910901891305C049
:1002B0008091C1008F7D8093C100FF91EF919F914C
:1002C0008F910F900FBE0F901F901895E0910A012B
:1002D000F0E0E059FA4F808190910A019F5F90937E
:1002E0000A012FB7F894909104019F5F9093040145
:1002F00090910401903110F42FBF08959091050161
:100300009F5F909305019091C10090629093C1000E
:1003100010920401F1CF1F920F920FB60F92112489
:100320002F933F934F935F936F937F938F939F93FD
:10033000AF93BF93EF93FF9380E00E944B0F0E9417
:100340003C1181E080930001E0E6F0E08081806470
:100350008083FF91EF91BF91AF919F918F917F919A
:100360006F915F914F913F912F910F900FBE0F9022
:100370001F9018951F920F920FB60F9211242F9372
:100380003F934F935F936F937F938F939F93AF931D
:10039000BF93EF93FF93A8958091C60090910001C1
:1003A000992329F0109200018093070146C091E043
:1003B0009093000190910701891711F08DE334C0EB
:1003C000803148F5813011F481E22EC0823069F429
:1003D000109203011092020110920A0110920B0177
:1003E000109204010E94911028C0883019F40E94D4
:1003F0003C1123C0873019F40E9440111EC0833085
:1004000019F40E942B0319C0843019F40E942F03A1
:1004100014C083E209C0E0910B0191E09E0F20918E
:100420000A01921304C082E20E947D1006C0F0E02F
:10043000E059FA4F808390930B01FF91EF91BF91A8
:10044000AF919F918F917F916F915F914F913F916C
:100450002F910F900FBE0F901F901895CF93C1E072
:1004600080910301882301F1809102018823C9F062
:100470001092060190910A0180910B0198130BC014
:1004800080910601811104C00E943303C0930601CC
:100490000E944203EFCF0E946601813111F4109255
:1004A00003010E944203DCCF10920601C1E090914B
:1004B0000A0180910B0198130BC0809106018111F4
:1004C00004C00E943303C09306010E944203EFCF91
:1004D0000E946601803131F481E080930301109223
:1004E000020181E4CF910895809103018823C9F02E
:1004F00080910201811115C090910A0180910B0138
:10050000981303C00E9433030CC00E94660187FD4C
:1005100009C0813119F41092030103C083E20E94E3
:100520007D1080E8089520910A0190910B0181E0EF
:10053000291301C080E0089581E0809302010895AD
:10054000E1E1F1E0438150E060E070E040585109A2
:100550006109710987E0440F551F661F771F8A954F
:10056000D1F7828190E0A0E0B0E080589109A10924
:10057000B109840F951FA61FB71FAC01BD0197E0FD
:10058000440F551F661F771F9A95D1F7818190E020
:10059000A0E0B0E080589109A109B109840F951F2E
:1005A000A61FB71F27E0880F991FAA1FBB1F2A95F8
:1005B000D1F72081820F911DA11DB11DBC01CD017C
:1005C00060587109810998400E941C1920E030E0B0
:1005D0004AE754E40E9472180895E6E1F1E081E0F0
:1005E000808340E050E06AEF75E442835383648384
:1005F00075831682178210861186128613861486DA
:100600001586168640E050E060EA70E44787508B1C
:10061000618B728B438B548B658B768B178A108E14
:10062000118E128E9CE0E1E3F1E0DF01292F1D9293
:100630002A95E9F7EDE3F1E0DF011D929A95E9F7DC
:100640008093100180930F0110920E0110920D0102
:1006500080930C01089581E080931001089581E05A
:1006600080930F0108952FB7F89480910D01909118
:100670000E01019690930E0180930D0110920C01D2
:100680002FBF08958F929F92AF92BF92CF92DF9229
:10069000EF92FF920F931F93CF9329B189B1982FB7
:1006A000991F9927991F22FB882780F9892B11F41C
:1006B0004B9B03C080E00E944B0F0E948E1088234A
:1006C00091F10E94D10E0E9475116B017C010E9474
:1006D00061114B015C010E944D1187017601A5015A
:1006E00094010E94D60E0E944D11609325017093D3
:1006F000260180932701909328010E946111609345
:10070000290170932A0180932B0190932C010E9460
:10071000751160932D0170932E0180932F0190939A
:1007200030011092150180911001811105C0809156
:100730000F01882309F42DC1109210010E94A70E09
:10074000811112C00E94930281110EC00E948E106E
:1007500081110AC081E40E94A10083B7816083BF38
:10076000889583B78E7F83BF29B189B1982F991F50
:100770009927991F22FB882780F9892B19F082E499
:100780000E94A1004B9B03C083E40E94A1000E9431
:100790004A11882319F084E40E94A1000E948B1062
:1007A000C82F803211F00E94A100309B05C0C432D6
:1007B00019F084E20E94A100319B05C0C53219F0F6
:1007C00085E20E94A100329B05C0C63219F086E284
:1007D0000E94A100339B05C0CA3219F08AE20E9430
:1007E000A1000E944D1120E030E040EA50E40E9458
:1007F000E91720913101309132014091330150913C
:1008000034010E94E917AB01BC0188E70E94DF00B8
:100810000E94611120E030E040EA50E40E94E917B4
:1008200020913501309136014091370150913801C6
:100830000E94E917AB01BC0189E70E94DF000E941A
:1008400075112091390130913A0140913B0150914D
:100850003C010E94E917AB01BC018AE70E94DF005E
:1008600080910C01811110C060910D0170910E01F9
:1008700080E090E00E941A19AB01BC0187E70E945A
:10088000DF0081E080930C01E0EFF6E0BF01605FE4
:1008900076408081853C09F466C080E090E00E944B
:1008A0001A19AB01BC0185E70E94DF0080910F019E
:1008B000882309F460C010920F0140E050EE62E21C
:1008C00075E486E70E94DF004091310150913201CA
:1008D000609133017091340181E60E94DF00409104
:1008E000350150913601609137017091380182E6EF
:1008F0000E94DF004091390150913A0160913B0123
:1009000070913C0183E60E94DF00409118015091F4
:10091000190160911A0170911B0187E60E94DF00A6
:1009200060911C0170E080E090E00E941A19AB0118
:10093000BC0188E60E94DF0040911D0150911E011C
:1009400060911F017091200189E60E94DF004091B3
:1009500021015091220160912301709124018AE6C6
:100960000E94DF0008C088E0EF3FF80711F008F0B0
:1009700094CF31968BCF86E0CF911F910F91FF904E
:10098000EF90DF90CF90BF90AF909F908F900C949E
:10099000A100CF911F910F91FF90EF90DF90CF902A
:1009A000BF90AF909F908F900895C1E3D1E08CE00D
:1009B000982E772473940E942E02182F0E948E1076
:1009C000882319F00E944203F6CF17FD84C28FEBF3
:1009D000810F8A3108F02AC1812F90E0FC01E15497
:1009E000F109EF30F10508F01FC1EC5CFF4F0C94EA
:1009F0004C1BA0901801B0901901C0901A01D09022
:100A00001B01E0902D01F0902E0100912F0110911B
:100A100030012091290130912A0140912B01509100
:100A20002C01609125017091260180912701909100
:100A300028011F921F921F921F922CC0A090180194
:100A4000B0901901C0901A01D0901B01E0902D01C7
:100A5000F0902E0100912F01109130012091290179
:100A600030912A0140912B0150912C016091250178
:100A7000709126018091270190912801E091240135
:100A8000EF93E0912301EF93E0912201EF93E09146
:100A90002101EF9380901C0154C060911D01709161
:100AA0001E0180911F019091200140911C010E9424
:100AB0006B0E0EC2109216010BC27092160108C284
:100AC000809116018093170103C2809117018093D2
:100AD0001601FEC10E94DD16FE01892D11928A9534
:100AE000E9F780E090E0A0EAB0E4809325019093DC
:100AF0002601A0932701B0932801809329019093A8
:100B00002A01A0932B01B0932C0110922D01109279
:100B10002E0110922F0110923001A0901801B09078
:100B20001901C0901A01D0901B011F921F921F92B1
:100B30001F92812CE12CF12C87019C01AD01BC019D
:100B4000CD010E9433090F900F900F900F90C0C1FC
:100B50008091310190913201A0913301B091340123
:100B600080933D0190933E01A0933F01B0934001DB
:100B70008091350190913601A0913701B0913801F3
:100B80008093410190934201A0934301B0934401AB
:100B90008091390190913A01A0913B01B0913C01C3
:100BA0008093450190934601A0934701B09348017B
:100BB0008FC180913D0190913E01A0913F01B09184
:100BC00040018093310190933201A0933301B0939F
:100BD00034018091410190914201A0914301B09173
:100BE00044018093350190933601A0933701B0936F
:100BF00038018091450190914601A0914701B09143
:100C000048018093390190933A01A0933B01B0933E
:100C10003C015EC183E005C084E003C085E001C003
:100C200086E00E94920E54C18CE350C18FE9810F7F
:100C30008A3108F04AC180911501843009F043C11E
:100C4000812F90E0FC01E456F109E731F10508F04D
:100C500038C1ED5BFF4F0C944C1B80911601813025
:100C600099F40E94A00220E030E040EA50E40E94A3
:100C7000EA179B01AC0160913101709132018091C2
:100C80003301909134010CC00E94A0029B01AC0181
:100C90006091250170912601809127019091280192
:100CA0000E94EA1760932501709326018093270123
:100CB000909328010DC180911601813099F40E9412
:100CC000A00220E030E040EA50E40E94EA179B01D5
:100CD000AC0160913501709136018091370190919E
:100CE00038010CC00E94A0029B01AC016091290157
:100CF00070912A0180912B0190912C010E94EA179A
:100D00006093290170932A0180932B0190932C0109
:100D1000DFC080911601813091F40E94A00220E092
:100D200030E0A9010E94EA179B01AC0160913901F2
:100D300070913A0180913B0190913C010CC00E945E
:100D4000A0029B01AC0160912D0170912E01809158
:100D50002F01909130010E94EA1760932D0170934A
:100D60002E0180932F0190933001B2C00E94A00207
:100D7000609318017093190180931A0190931B01DD
:100D8000A7C00E94A0020E94EB1860931C01A0C0A3
:100D90000E94A00260931D0170931E0180931F01A9
:100DA0009093200195C00E94A0026093210170934E
:100DB000220180932301909324018AC00E94A00203
:100DC0006B017C0180911601813049F4C0923101A0
:100DD000D0923201E0923301F092340179C00E9446
:100DE0007A10882319F00E944203F9CF0E944D1116
:100DF00020E030E040EA50E40E94E917A7019601A4
:100E00000E94EA176093310170933201809333019D
:100E1000909334015DC00E94A0026B017C0180911F
:100E20001601813049F4C0923501D0923601E0922A
:100E30003701F09238014CC00E947A10882319F0D3
:100E40000E944203F9CF0E94611120E030E040EAA5
:100E500050E40E94E917A70196010E94EA176093E7
:100E6000350170933601809337019093380130C07B
:100E70000E94A0026B017C0180911601813049F42F
:100E8000C0923901D0923A01E0923B01F0923C01CC
:100E90001FC00E947A10882319F00E944203F9CFE4
:100EA0000E9475119B01AC01C701B6010E94EA17AF
:100EB0006093390170933A0180933B0190933C0118
:100EC00007C08EE303C08AE301C083E20E947D1065
:100ED0001092150177CDE0911501E43048F481E0DE
:100EE0008E0F80931501F0E0EF5EFE4F10836ACD08
:100EF0008AE30E947D1066CD4F925F926F927F923F
:100F00008F929F92AF92BF92CF92DF92EF92FF9219
:100F10000F931F93CF93DF93CDB7DEB762970FB6D2
:100F2000F894DEBF0FBECDBF9A8B898B2A013B019F
:100F300048015901FC0162897389848995890E945D
:100F40001A196B017C01A30192010E945C1A0E9494
:100F500056180E94EB182B013C01E989FA8961A718
:100F600072A783A794A7A5019401C701B6010E94A7
:100F70005C1A0E9456180E94EB184B015C01E9892B
:100F8000FA8965A776A787A790AB21A932A943A9BB
:100F900054A9A0EEBEE20E94521B69837A838B8320
:100FA0009C830E941C196D837E838F839887C30165
:100FB000B2010E941A192B013C01A7019601C70139
:100FC000B6010E945C1A6B017C01A3019201C3016E
:100FD000B2010E945C1A69877A878B879C872D8172
:100FE0003E814F815885CA01B9010E94EA176D8779
:100FF0007E878F87988B29853A854B855C85C701CD
:10100000B6010E94E9172D853E854F8558890E94BB
:1010100072180E9456180E94E4182B013C01C50169
:10102000B4010E941A199B01AC010E945C1A4B0189
:101030005C01A70196010E94E9176B017C0169819F
:101040007A818B819C8190958095709561957F4F79
:101050008F4F9F4F0E941C199B01AC010E94EA1701
:101060009B01AC01C701B6010E9472180E9457197A
:10107000E989FA89C684D784E088F188A7019601B6
:10108000241935094609570929833A834B835C8320
:101090000E94E41829813A814B815C81261B370B21
:1010A000480B590BDA01C90157FF3BC0C701B60114
:1010B0000E941C192D853E854F8558890E945C1A17
:1010C00029853A854B855C850E94E917A501940125
:1010D0000E94EA174B015C0120E030E040E850E458
:1010E0006D817E818F8198850E945C1A9B01AC0185
:1010F000C501B4010E9472180E9456180E94E4189B
:1011000097FF03C060E070E0CB01260137016C154A
:101110007D058E059F0514F42B013C0180E090E0D5
:10112000DC01E989FA8945AA56AA67AA70AE480E79
:10113000591E6A1E7B1E41AE52AE63AE74AE6296FD
:101140000FB6F894DEBF0FBECDBFDF91CF911F91D8
:101150000F91FF90EF90DF90CF90BF90AF909F9056
:101160008F907F906F905F904F9008954F925F9215
:101170006F927F92AF92BF92CF92DF92EF92FF92E7
:101180000F931F93CF93DF938C01EB01FC01428CF3
:10119000538C648C758CAA8CBB8CCC8CDD8C9501AB
:1011A000A601C301B2010E946D1887FF37C0A301D9
:1011B0009201C301B2010E945C1A2B013C0120E0A4
:1011C0003AEB4BE55AECF80162A173A184A195A119
:1011D0000E945C1A9B01AC01C301B2010E94E91795
:1011E0000E94CF1A7B018C019B01AC01B501C601A5
:1011F0000E946D1887FF02C0750186019701A80142
:10120000B501C6010E946D18882341F0C701D801BD
:101210008A8F9B8FAC8FBD8F81E08FA3DF91CF91A1
:101220001F910F91FF90EF90DF90CF90BF90AF9004
:101230007F906F905F904F900895CF93DF938F5F73
:101240008E3009F480E0C82F880FDD0B8091650196
:1012500090E0C817D90719F40E944203F7CFCE01D6
:10126000DF91CF9108952F923F924F925F926F92AC
:101270007F928F929F92AF92BF92CF92DF92EF9226
:10128000FF920F931F93CF93DF93CDB7DEB7A19754
:101290000FB6F894DEBF0FBECDBF29013A01EA8236
:1012A000FB820C831D83A982BE82CF82D886CEA802
:1012B000DFA8E8ACF9AC2CE137EC41EB52E40E943A
:1012C0005C1A0E94291A698B7A8B8B8B9C8B24E782
:1012D00031ED45EB52E4C301B2010E945C1A0E9459
:1012E000291A6D8B7E8B8F8B988F25E535E545E030
:1012F00052E46A817B818C819D810E945C1A0E94EC
:10130000291A698F7A8F8B8F9C8F8091660190E06C
:101310000E941D0989A380916601282E312C20E0AE
:1013200030E0A901C701B6010E946D18882311F1B0
:1013300085E4829D8001839D100D112409591E4F63
:1013400081E0D8018C932CE137EC41EB52E4C701EA
:10135000B6010E945C1A20E030E040E854E40E94AC
:101360005C1A0E94291AF801FD96608371838283BA
:10137000938309C085E4829DF001839DF00D1124C3
:10138000E959FE4F108285E4829DF001839DF00DA6
:101390001124E959FE4F86A215868091590190913A
:1013A0005A01A0915B01B0915C0149885A886B8811
:1013B0007C88481659066A067B0614F428E02587BF
:1013C00080905D0190905E01A0905F01B0906001FF
:1013D0004D885E886F88788C481459046A047B04B1
:1013E0005CF425E4229DF001239DF00D1124E959C0
:1013F000FE4F258520612587C0906101D090620154
:10140000E0906301F0906401498C5A8C6B8C7C8C69
:101410004C145D046E047F045CF425E4229DF0010D
:10142000239DF00D1124E959FE4F25852062258763
:1014300049885A886B887C88481A590A6A0A7B0A44
:10144000C301B20177FE07C0442455243201461A75
:10145000570A680A790A45E4429D9001439D300D80
:101460001124F901E959FE4F41825282638274824C
:101470002D893E894F89588D281939094A095B09F8
:1014800049015A012A833B834C835D8357FF0BC07C
:1014900022273327A901281939094A095B092A8318
:1014A0003B834C835D8345E4429D9001439D300D19
:1014B0001124F901E959FE4F2A813B814C815D815C
:1014C0002583368347835087298D3A8D4B8D5C8DDC
:1014D0002C193D094E095F0969017A012D873E8764
:1014E0004F87588B57FF0BC022273327A9012C1990
:1014F0003D094E095F092D873E874F87588BE5E4EC
:10150000E29DA001E39D500D1124FA01E959FE4F1F
:101510002D853E854F85588921873287438754879B
:1015200049865A866B867C862A813B814C815D8107
:10153000421653066406750620F429873A874B87BE
:101540005C8749845A846B847C842D853E854F85D5
:101550005889421653066406750610F429013A01AB
:1015600025E4229D8001239D100D112409591E4F51
:10157000D8011E964D925D926D927C9251974114C6
:1015800051046104710409F48DC30E941C192CE1FB
:1015900037EC41EB52E40E94721869877A878B8797
:1015A0009C87C501B4010E941C1924E731ED45EB6D
:1015B00052E40E9472186D877E878F87988BC701CF
:1015C000B6010E941C1925E535E545E052E40E946C
:1015D00072184B015C0129853A854B855C85CA01EF
:1015E000B9010E945C1A6B017C012D853E854F85F7
:1015F0005889CA01B9010E945C1A9B01AC01C7015C
:10160000B6010E94EA176B017C01A5019401C50196
:10161000B4010E945C1A9B01AC01C701B6010E9493
:10162000EA170E94CF1A6A837B838C839D83F8011B
:1016300062A373A384A395A39B01AC0160E070E057
:1016400080E89FE30E9472186B017C0189819E8172
:10165000AF81B885F801868B978BA08FB18FC301BE
:10166000B2010E941C192B013C0129813E814F814E
:101670005885C701B6010E945C1AA30192010E941D
:101680005C1A0E9456180E94EB18D80152966D936E
:101690007D938D939C935597A3019201C701B60149
:1016A0000E945C1A20E03AEB4BED59E40E945C1A70
:1016B00020E030E84BE356E40E9472180E9456186E
:1016C0000E94EB18F80161AB72AB83AB94ABA7013E
:1016D000960169857A858B859C850E945C1A69874D
:1016E0007A878B879C87A70196016D857E858F857C
:1016F00098890E945C1A6D877E878F87988BA701D7
:101700009601C501B4010E945C1A2B013C01909125
:10171000660180916501981709F4ABC0E09049011A
:10172000F0904A0100914B0110914C0120E030E013
:10173000A901B701C8010E94241A18160CF099C01B
:1017400080914D0190914E01A0914F01B0915001B7
:10175000BC01CD01905829853A854B855C850E9456
:101760005C1A4B015C012091510130915201409172
:101770005301509154016D857E858F8598890E9413
:101780005C1A9B01AC01C501B4010E94E9174B0131
:101790005C012091550130915601409157015091C3
:1017A0005801C301B2010E945C1A9B01AC01C50142
:1017B000B4010E94E9174B015C0123E333E343E7E3
:1017C0005FE30E946D1887FF54C09701A8016981EB
:1017D0007E818F8198850E94241A181624F0E98052
:1017E000FE800F81188523E333E343E75FEBC501F8
:1017F000B4010E94241A18160CF03FC0A5019401F0
:1018000060E070E080E89FE30E94E91720E030E0AC
:1018100040E05FE30E945C1A0E94CF1A4B015C011A
:1018200020E030EC48E256E40E945C1A6D8F7E8F17
:101830008F8F98A3A501940160E070E080E89FE39A
:101840000E94E9179B01AC016D8D7E8D8F8D98A153
:101850000E9472180E94CF1A5B016C019B01AC01BF
:10186000B701C8010E946D1887FD07C07501860188
:1018700004C0E12CF12C00E010E085E4829DF00131
:10188000839DF00D1124E959FE4FC701D801868FC1
:10189000978FA0A3B1A320E03AEB4BE55AEC6A8105
:1018A0007B818C819D810E945C1A9B01AC0160E070
:1018B00070E0CB010E94E9170E94CF1A5B016C0116
:1018C0009B01AC01B701C8010E946D1887FD04C0DF
:1018D00075019C2D8D2D02C0902F812F25E4229D16
:1018E0008001239D100D112409591E4FA701692F56
:1018F000782FD8015A964D935D936D937C935D97A5
:101900009501A60169817E818F8198850E946D185D
:10191000181624F081E0F80180A703C0D80198963A
:101920001C9285E4829DF001839DF00D1124E959FC
:10193000FE4F81E087A329853A854B855C852093FE
:101940004D0130934E0140934F01509350018D85CE
:101950009E85AF85B8898093510190935201A093E1
:101960005301B09354014092550150925601609238
:1019700057017092580189819E81AF81B88580930B
:10198000490190934A01A0934B01B0934C0149A0A7
:101990004092660149885A886B887C884092590138
:1019A00050925A0160925B0170925C014D885E8892
:1019B0006F88788C40925D0150925E0160925F0169
:1019C00070926001498C5A8C6B8C7C8C40926101C6
:1019D000509262016092630170926401F09066011E
:1019E000E0E0F0E000E010E08091650190E02F2D54
:1019F0000F2C000C330B2817390709F47DC0F110A8
:101A000002C03EE0F32EFA9425E43F2D3203C001DC
:101A10001124AC0149595E4F4A010115110509F421
:101A200068C0309709F465C0D80198968C91989752
:101A30005E962C905E975F963C905F979096AC90E8
:101A4000909791964C904982811147C0B22CC32C3B
:101A5000DA2CE42C428C538C648C758CA30192019B
:101A6000622D732D8A2D9E2D0E94241A1816ACF516
:101A7000A3019201C301B2010E945C1A2B013C0137
:101A800020E03AEB4BE55AECD80192966D917D91AE
:101A90008D919C9195970E945C1A9B01AC01C301AA
:101AA000B2010E94E9170E94CF1A562E672E782E97
:101AB000A92E262F372F482F592F622D732D8D2DAC
:101AC0009E2D0E946D1887FD03C0B52C6301EA2C82
:101AD0008B2D9C2DAD2DBE2D03C0C101AA2DB9812A
:101AE000F801828F938FA48FB58FE1E0D80197968C
:101AF000EC93F801840178CFF090650100E010E0EC
:101B000080E090E025E4E22E4F2D0F2C000C550BC9
:101B10002091660130E042175307F1F0E49E9001F6
:101B2000E59E300D1124A90149595E4F6A010097C5
:101B300059F00115110541F0DC0198962C91211105
:101B400003C0B8010E94B608F394BEE0FB1201C0C6
:101B5000F12CC8018601D8CF009751F0011511056D
:101B600039F0FC0120A5211103C0B8010E94B6087C
:101B7000D0906501E12CF12C85E4C82E2D2D0D2C83
:101B8000000C330B8091660190E02817390709F4A7
:101B900047C0C29EC001C39E900D1124AC0149599B
:101BA0005E4F1A01E114F104A1F1D70197968C91CF
:101BB000811104C0FA0187A1882359F1D7015696F3
:101BC0004D905D906D907C905997C29EF001C39EA0
:101BD000F00D1124E959FE4FA3019201628D738D1E
:101BE000848D958D0E9472184B015C01A3019201B6
:101BF000F701628D738D848D958D0E947218AB01F3
:101C0000BC0195018401C7010E947C07D70197960A
:101C10001C92D394BEE0DB1201C0D12C7101AECF77
:101C2000F701808186889788A08CB18CA5019401EA
:101C3000813019F4C501B40103C060E070E0CB014C
:101C40000E9472182B013C01A5019401D7015A96FC
:101C50006D917D918D919C915D970E947218AB0161
:101C6000BC0193018201C7010E947C07F70117A202
:101C7000A1960FB6F894DEBF0FBECDBFDF91CF9116
:101C80001F910F91FF90EF90DF90CF90BF90AF909A
:101C90009F908F907F906F905F904F903F902F908C
:101CA0000C945C10A1960FB6F894DEBF0FBECDBFAA
:101CB000DF91CF911F910F91FF90EF90DF90CF9028
:101CC000BF90AF909F908F907F906F905F904F905C
:101CD0003F902F900895CF92DF92EF92FF92CF9393
:101CE0006B017C01C42F8091660190E00E941D0968
:101CF000E091660195E4E99FF0011124E959FE4F56
:101D000092E09083C6A3EF5BFF4FC082D182E28254
:101D1000F38280936601CF91FF90EF90DF90CF9098
:101D20000C945C10CF93C82F8091660190E00E94C4
:101D30001D09E091660195E4E99FF0011124E9593C
:101D4000FE4FC08380936601CF910C945C1020916C
:101D500066019091650181E0291301C080E008953A
:101D60009091660180916501981749F08091650115
:101D700025E4829FC001112489599E4F089580E077
:101D800090E008959091660180916501981741F067
:101D9000809165018F5F8E3009F480E0809365014A
:101DA0000895809166018093650108958F929F92B6
:101DB000AF92BF92CF92DF92EF92FF920F931F9359
:101DC000CF93DF9349015A01670178012CE137EC89
:101DD00041EB52E40E945C1A0E94291AC9E5D1E045
:101DE000688379838A839B8324E731ED45EB52E452
:101DF000C501B4010E945C1A0E94291A6C837D837C
:101E00008E839F8325E535E545E052E4C701B601A1
:101E10000E945C1A0E94291A688779878A879B87A3
:101E20001092490110924A0110924B0110924C01FC
:101E30008CE0EDE4F1E0DF011D928A95E9F7DF9196
:101E4000CF911F910F91FF90EF90DF90CF90BF90B7
:101E5000AF909F908F900895EF92FF920F931F93F2
:101E60001092660110926501E12CF12C870120E0AF
:101E700030E040EA50E4CA01B9010E94D60E1F9139
:101E80000F91FF90EF9008958AB183778AB987B157
:101E9000807C87B9089539B199B1292F221F222753
:101EA000221F32FB992790F9922B21F44B9902C003
:101EB000811104C010922D055D98089580932D0521
:101EC000089580912D050895882311F05C9A089556
:101ED0005C980895882311F05E9A08955E9808959D
:101EE000559A14BC15BCEEE6F0E0808181608083D9
:101EF00016BC549A80E00E94640F569A80E00C94BD
:101F00006A0F4091440550914505609146057091D6
:101F100047058091480590914905A0914A05B091E7
:101F20004B05840F951FA61FB71F813828E3920722
:101F300021E0A207B10550F4809344059093450534
:101F4000A0934605B093470580E0089580589843D4
:101F5000A140B1098093440590934505A09346059F
:101F6000B093470581E008959B01AC01203486E0E1
:101F700038074105510520F420E436E040E050E008
:101F800060E070E788E399E30E942A1B2115310580
:101F900081E04807510518F4B90180E02FC02115F0
:101FA000310588E048075105A8F4DA01C901F3E0DA
:101FB000B695A79597958795FA95D1F7BC019C01A1
:101FC000AD01A3E0220F331F441F551FAA95D1F77F
:101FD00081E014C0DA01C90126E0B695A79597956E
:101FE00087952A95D1F7BC019C01AD01E6E0220F4F
:101FF000331F441F551FEA95D1F782E0909181006D
:10200000987F8F5F892B8093810070938900609304
:102010008800209348053093490540934A05509322
:102020004B050895CF92DF92EF92FF92CF93DF930B
:102030006B017C010E94B40FC0916205D0916305D1
:102040008881813011F480E02FC0C701B6010E9461
:102050001A196B017C016A897B898C899D890E9490
:102060001A199B01AC01C701B6010E94721823E343
:1020700033E343E75FE30E945C1A2DEC3CEC4CE455
:102080005DE30E94EA176B017C016EA170E080E0C5
:1020900090E00E941C199B01AC01C701B6010E948F
:1020A0005C1A0E94EB18862FDF91CF91FF90EF9082
:1020B000DF90CF900C944B0F80913F0581110BC0A6
:1020C00081E080933F0588E08093610580916F00F7
:1020D000826080936F00089510923F05109263050F
:1020E00010926205EFE6F0E080818D7F808380E0D2
:1020F0000C944B0F80913F05089590913E059111EE
:1021000009C080933D0581E080933E0510923C0517
:102110000C949C00089580913D05089580913E05A2
:10212000089580E280933D0510923E0510923C0593
:1021300008954F925F926F927F928F92AF92BF926B
:10214000CF92DF92EF92FF920F931F93CF93DF9383
:10215000CDB7DEB72C970FB6F894DEBF0FBECDBF5C
:1021600069837A838B839C8329013A01ED82FE8205
:102170000F831887A986BA86CB86DC8680913F05B7
:10218000882319F00E944203F9CFE12CF12C87013A
:10219000A8019701C801B7010E94D60E8CE0E4E6C1
:1021A000F5E0DF011D928A95E9F71F921F921F92B9
:1021B0001F92812CAE8CBF8CC8A0D9A0A301920124
:1021C00069817A818B819C810E9433090F900F90E5
:1021D0000F900F9080913F05882319F00E944203D1
:1021E000F9CFE12CF12C8701A8019701C801B701B3
:1021F0000E94D60E8CE0E4E6F5E0DF011D928A95A0
:10220000E9F70E94911081E0809336051F921F929A
:102210001F921F92812CAE8CBF8CC8A0D9A029859B
:102220003A854B855C856D817E818F8198850E9482
:1022300033090F900F900F900F9080913F058823E6
:1022400019F00E944203F9CF109236052C960FB672
:10225000F894DEBF0FBECDBFDF91CF911F910F91DC
:10226000FF90EF90DF90CF90BF90AF908F907F90D6
:102270006F905F904F90089581E080933C050895A2
:1022800080913C05882319F081E080933B051092F2
:102290003C05089580913C0508952FB7F89460910E
:1022A00064057091650580916605909167052FBF63
:1022B0000E941C192CE137EC41EB52E40E94721889
:1022C00008952FB7F8946091680570916905809121
:1022D0006A0590916B052FBF0E941C1924E731ED10
:1022E00045EB52E40E94721808952FB7F89460915C
:1022F0006C0570916D0580916E0590916F052FBFF3
:102300000E941C1925E535E545E052E40E9472184B
:1023100008958F929F92AF92BF92CF92DF92EF92E9
:10232000FF920F931F93CF93DF9349015A016701E7
:1023300078011FB7F8942CE137EC41EB52E40E948E
:102340005C1A0E94291AC4E6D5E0688379838A83DF
:102350009B8324E731ED45EB52E4C501B4010E94B3
:102360005C1A0E94291A6C837D838E839F8325E5E6
:1023700035E545E052E4C701B6010E945C1A0E94AF
:10238000291A688779878A879B871FBFDF91CF913A
:102390001F910F91FF90EF90DF90CF90BF90AF9083
:1023A0009F908F900895EF92FF920F931F9384B1A7
:1023B0008F6384B985B1807C886085B9E1E8F0E0FD
:1023C00080818F7E8083808188608083E0E8F0E078
:1023D00080818D7F808380818E7F808380818F73D9
:1023E000808380818F7C80831092B0001092B10036
:1023F000E0E7F0E080818160808360E476E080E067
:1024000090E00E94B40F80E00E944B0F8CE0E4E665
:10241000F5E0DF011D928A95E9F7E12CF12C8701A7
:1024200020E030E040EA50E4CA01B9010E9489117D
:1024300010924405109245051092460510924705EA
:10244000109263051092620510923E0580E280931F
:102450003D0510924C05109236051F910F91FF908B
:10246000EF900C946C101F920F920FB60F921124E4
:102470005D9815BC0F900FBE0F901F9018951F927E
:102480000F920FB60F9211248F9385B1887F85B973
:102490001092B1008F910F900FBE0F901F90189562
:1024A0001F920F920FB60F921124CF92DF92EF92EC
:1024B000FF922F933F934F935F936F937F938F93ED
:1024C0009F93AF93BF93CF93DF93EF93FF9380914D
:1024D0004C0581115BC481E080934C0580913E05E1
:1024E000882329F00E946C100E94D10E4DC4809167
:1024F0003C05882311F080E0D6C380913605811118
:1025000022C029B189B1982F991F9927991F22FBC1
:10251000882780F9892B11F44B9B03C080E00E942F
:102520004B0F309B02C084E20BC0319B02C085E29E
:1025300007C0329B02C086E203C0339B04C08AE21C
:102540000E947D1021C40E94610F90910101903181
:1025500020F4809101018F5F66C0811102C05D98F7
:1025600061C015BC5D9A823F08F05CC0409148058F
:102570005091490560914A0570914B05252F362FE2
:10258000472F552790E1899FD00111240E945D1BA0
:102590006F3F710581059105D9F1D0F1B3E09695B2
:1025A000879577956795BA95D1F76F3F7105810546
:1025B000910581F178F1A3E09695879577956795D8
:1025C000AA95D1F76F3F71058105910529F120F199
:1025D000F2E09695879577956795FA95D1F76F3FD5
:1025E000710581059105D1F0C8F0E2E096958795D7
:1025F00077956795EA95D1F76F3F7105810591054C
:1026000029F020F06FEF70E080E090E025E007C057
:1026100021E005C022E003C023E001C024E0619571
:1026200066BD25BD81E08093010125B190916105D2
:10263000987385B1877C892B85B9822F887389131C
:10264000A3C385B1887F90916105892B85B98AEFF5
:102650008093B20082E08093B1007894809162050B
:1026600090916305892B09F06CC00E94B00E909385
:10267000630580936205009719F40E946C1084C36F
:10268000FC012081223008F05CC061A572A583A501
:1026900094A5609340057093410580934205909303
:1026A000430550E4C52E5CE9D52EE12CF12CC092F7
:1026B0004405D0924505E0924605F09247050E94F8
:1026C0001210E0916205F09163058081813041F440
:1026D00010924D0510924E0510924F051092500524
:1026E00086859785A089B189B595A7959795879592
:1026F000B095A095909581959F4FAF4FBF4F809318
:102700005D0590935E05A0935F05B093600580938F
:10271000590590935A05A0935B05B0935C0580938F
:10272000550590935605A0935705B0935805109200
:1027300051051092520510925305109254051092B3
:102740003B05C0916205D09163052881822F90E0FE
:102750008730910508F018C3FC01E65AFF4F0C942E
:102760004C1B3D853093610549815A816B817C8189
:1027700080915D0590915E05A0915F05B091600527
:10278000840F951FA61FB71F80935D0590935E056C
:10279000A0935F05B09360054E855F856889798950
:1027A000181619061A061B0644F5316030936105A8
:1027B000841B950BA60BB70B80935D0590935E056C
:1027C000A0935F05B09360058091640590916505C5
:1027D000A0916605B091670533FF04C00197A10978
:1027E000B10903C00196A11DB11D809364059093AA
:1027F0006505A0936605B0936705CD80DE80EF8008
:10280000F8848091590590915A05A0915B05B0918B
:102810005C058C0D9D1DAE1DBF1D809359059093C9
:102820005A05A0935B05B0935C05181619061A06A5
:102830001B0654F530916105326030936105841BAD
:10284000950BA60BB70B8093590590935A05A0934F
:102850005B05B0935C058091680590916905A09136
:102860006A05B0916B0534FF04C00197A109B10955
:1028700003C00196A11DB11D809368059093690561
:10288000A0936A05B0936B05C984DA84EB84FC8459
:102890008091550590915605A0915705B091580526
:1028A0008C0D9D1DAE1DBF1D809355059093560543
:1028B000A0935705B0935805181619061A061B065B
:1028C00054F530916105346030936105841B950B9C
:1028D000A60BB70B8093550590935605A09357050B
:1028E000B093580580916C0590916D05A0916E058F
:1028F000B0916F0535FF04C00197A109B10903C06C
:102900000196A11DB11D80936C0590936D05A09358
:102910006E05B0936F058091510590915205A0917D
:102920005305B09154050196A11DB11D8093510529
:1029300090935205A0935305B0935405E09161051F
:1029400038E03E273093610584179507A607B7073F
:1029500008F0ACC120913B052130D9F540914005EC
:1029600050914105609142057091430540933705B0
:10297000509338056093390570933A0589A59AA557
:10298000ABA5BCA5481759076A077B0740F08093A1
:10299000400590934105A0934205B093430580E420
:1029A0009CE9A0E0B0E08093440590934505A09396
:1029B0004605B093470560914005709141058091AF
:1029C0004205909143050E94121082E080933B05DE
:1029D000DBC120913B052230B1F50E94810F882395
:1029E00009F4D2C149A95AA96BA97CA980914005D3
:1029F00090914105A0914205B0914305840F951F28
:102A0000A61FB71F8093400590934105A0934205F0
:102A1000B0934305409137055091380560913905D1
:102A200070913A0584179507A607B70708F4A4C064
:102A300040934005509341056093420570934305D0
:102A400010923B0599C04DA95EA96FA978AD841776
:102A50009507A607B70780F50E94810F882309F420
:102A600093C149A95AA96BA97CA98091400590916D
:102A70004105A0914205B0914305840F951FA61F03
:102A8000B71F8093400590934105A0934205B093F2
:102A900043054A895B896C897D89481759076A070C
:102AA0007B0708F069C0409340055093410560934F
:102AB00042057093430560C049AD5AAD6BAD7CAD26
:102AC00084179507A607B70769F480E49CE9A0E09E
:102AD000B0E08093440590934505A0934605B093DC
:102AE000470552C184179507A607B70708F44FC0DA
:102AF0000E94810F882309F447C149A95AA96BA9EB
:102B00007CA98091400590914105A0914205B0912A
:102B10004305481759076A077B0768F4841B950B20
:102B2000A60BB70B8093400590934105A0934205F7
:102B3000B093430508C010924005109241051092D1
:102B40004205109243058DA59EA5AFA5B8A9409159
:102B50004005509141056091420570914305481729
:102B600059076A077B0740F480934005909341051D
:102B7000A0934205B09343056091400570914105D3
:102B800080914205909143050E941210FDC06A8910
:102B90007B898C899D89C0904005D0904105E0904B
:102BA0004205F09043056C157D058E059F0551F09B
:102BB00060934005709341058093420590934305CF
:102BC0000E941210E0916205F091630580818130CE
:102BD00009F068C080914D0590914E05A0914F0578
:102BE000B0915005409151055091520560915305A7
:102BF00070915405892B8A2B8B2B89F4DB01CA0138
:102C00003AE0880F991FAA1FBB1F3A95D1F780930E
:102C10004D0590934E05A0934F05B09350058091BC
:102C20004D0590914E05A0914F05B09150052AE0B9
:102C3000440F551F661F771F2A95D1F7481759076C
:102C40006A077B0708F4A0C0FD964081518162812C
:102C50007381840F951FA61FB71F80934D05909316
:102C60004E05A0934F05B0935005F8940E9474024E
:102C70007894E0916205F091630526A1482F50E019
:102C80004058510930E0220F331F429FC001439F3B
:102C9000900D529F900D11246FEF70E00E94161B53
:102CA000862F01C086A10E944B0F6EC0213009F013
:102CB00065C00E949C0262C0C0902E05D0902F0576
:102CC000E0903005F0903105C114D104E104F10425
:102CD000E9F420E030E04AE754E4FE01EF5BFF4F07
:102CE00060817181828193810E945C1A0E94291AFD
:102CF00060933205709333058093340590933505C6
:102D000060E67AEE80E090E00E94B40F8091320598
:102D100090913305A0913405B0913505C816D906B8
:102D2000EA06FB06B8F48EA10E944B0F80912E0597
:102D300090912F05A0913005B09131050196A11D0C
:102D4000B11D80932E0590932F05A0933005B0936D
:102D500031051AC010922E0510922F0510923005E1
:102D6000109231050BC081E001C080E00E94640F29
:102D700005C081E001C080E00E946A0F10926305E7
:102D8000109262050E94C20E10924C05FF91EF91C5
:102D9000DF91CF91BF91AF919F918F917F916F9173
:102DA0005F914F913F912F91FF90EF90DF90CF90E7
:102DB0000F900FBE0F901F9018958F929F92AF9219
:102DC000BF92CF92DF92EF92FF920F931F93CF9318
:102DD000DF9380913F05882319F00E944203F9CFC9
:102DE000E12CF12C8701A8019701C801B7010E94CD
:102DF000D60E8CE0E4E6F5E0DF011D928A95E9F756
:102E000081E080933605309B17C01F921F921F925E
:102E10001F92812CA12CB12CE8E4CE2EE4E4DE2E0E
:102E2000A801970160E070E080EA91E40E94330914
:102E30000F900F900F900F90319B1AC01F921F920E
:102E40001F921F92812CA12CB12C78E4C72E74E420
:102E5000D72EE12CF12C8701A801970160E070E0EA
:102E600080EA91EC0E9433090F900F900F900F9021
:102E7000329B1AC01F921F921F921F92812CA12C6D
:102E8000B12C68E4C62E64E4D62EE12CF12C870127
:102E900020E030E040EA51E4C801B7010E94330964
:102EA0000F900F900F900F90339B1AC01F921F929C
:102EB0001F921F92812CA12CB12C58E4C52E54E4F2
:102EC000D52EE12CF12C870120E030E040EA51ECD6
:102ED000C801B7010E9433090F900F900F900F9017
:102EE00080913F05882319F00E944203F9CF109288
:102EF000360585E4982E9F92C8E4CF931F921F92C7
:102F0000A12CB12C6501E12CF12C00E211E4A60109
:102F1000950160EF73E284E799EC0E949910D4E484
:102F2000DF93CF931F921F92E12CF12C00E810E465
:102F3000A601950160EF73E284E799EC0E94991075
:102F40009F92CF931F921F92A12CB12C30E2C32EDF
:102F500031E4D32EE12CF12C870120EF33E244E75A
:102F600059ECC801B7010E949910DF93CF931F92CB
:102F70001F92A12CB12C40E8C42E40E4D42E20EFA7
:102F800033E244E759ECC801B7010E949910A80147
:102F90009701C801B7010E94D60E8CE0E4E6F5E087
:102FA000DF011D928A95E9F78DB79EB740960FB65F
:102FB000F8949EBF0FBE8DBFDF91CF911F910F91EF
:102FC000FF90EF90DF90CF90BF90AF909F908F9049
:102FD00008955058BB27AA270E9401180C94D219B3
:102FE0000E94C41938F00E94CB1920F039F49F3F99
:102FF00019F426F40C94C1190EF4E095E7FB0C9437
:103000009219E92F0E94E31958F3BA176207730760
:103010008407950720F079F4A6F50C941D1A0EF498
:10302000E0950B2EBA2FA02D0B01B90190010C01D8
:10303000CA01A0011124FF27591B99F0593F50F4F0
:10304000503E68F11A16F040A22F232F342F442748
:10305000585FF3CF469537952795A795F040539540
:10306000C9F77EF41F16BA0B620B730B840BBAF010
:103070009150A1F0FF0FBB1F661F771F881FC2F77B
:103080000EC0BA0F621F731F841F48F4879577958F
:103090006795B795F7959E3F08F0B0CF9395880F49
:1030A00008F09927EE0F9795879508950E94051AC5
:1030B00090F09F3748F4911116F40C941E1A60E0BA
:1030C00070E080E89FE3089526F01B16611D711DD6
:1030D000811D0C9498190C94B3190E946E1908F470
:1030E00081E008950E9486180C94D2190E94CB1991
:1030F00058F00E94C41940F029F45F3F29F00C9465
:10310000921951110C941E1A0C94C1190E94E319C2
:1031100068F39923B1F3552391F3951B550BBB2706
:10312000AA2762177307840738F09F5F5F4F220F4B
:10313000331F441FAA1FA9F335D00E2E3AF0E0E842
:1031400032D091505040E695001CCAF72BD0FE2F8C
:1031500029D0660F771F881FBB1F26173707480720
:10316000AB07B0E809F0BB0B802DBF01FF279358D8
:103170005F4F3AF09E3F510578F00C9492190C94F1
:103180001E1A5F3FE4F3983ED4F3869577956795D2
:10319000B795F7959F5FC9F7880F911D969587950D
:1031A00097F90895E1E0660F771F881FBB1F62172C
:1031B00073078407BA0720F0621B730B840BBA0BEA
:1031C000EE1F88F7E09508950E94EB186894B111FE
:1031D0000C941E1A08950E94EB1988F09F5798F0DE
:1031E000B92F9927B751B0F0E1F0660F771F881F0C
:1031F000991F1AF0BA95C9F714C0B13091F00E9426
:103200001D1AB1E008950C941D1A672F782F882796
:10321000B85F39F0B93FCCF3869577956795B3954C
:10322000D9F73EF490958095709561957F4F8F4FBB
:103230009F4F0895E89409C097FB3EF490958095C0
:10324000709561957F4F8F4F9F4F9923A9F0F92F6C
:1032500096E9BB279395F695879577956795B795EA
:10326000F111F8CFFAF4BB0F11F460FF1BC06F5FD0
:103270007F4F8F4F9F4F16C0882311F096E911C0E2
:10328000772321F09EE8872F762F05C0662371F003
:1032900096E8862F70E060E02AF09A95660F771F17
:1032A000881FDAF7880F9695879597F908950E94F9
:1032B000051A90F09F3748F4911116F00C941E1ADD
:1032C00060E070E080E89FEB089526F41B16611D16
:1032D000711D811D0C9498190C94B319990F000855
:1032E000550FAA0BE0E8FEEF16161706E807F907D8
:1032F000C0F012161306E407F50798F0621B730B73
:10330000840B950B39F40A2661F0232B242B252BF3
:1033100021F408950A2609F4A140A6958FEF811D96
:10332000811D089597F99F6780E870E060E0089537
:10333000882371F4772321F09850872B762F07C0CC
:10334000662311F499270DC09051862B70E060E040
:103350002AF09A95660F771F881FDAF7880F9695DF
:10336000879597F908959F3F31F0915020F4879504
:1033700077956795B795880F911D9695879597F9DD
:1033800008959FEF80EC089500240A9416161706FE
:1033900018060906089500240A9412161306140646
:1033A00005060895092E0394000C11F4882352F0A9
:1033B000BB0F40F4BF2B11F460FF04C06F5F7F4F61
:1033C0008F4F9F4F089557FD9058440F551F59F048
:1033D0005F3F71F04795880F97FB991F61F09F3F02
:1033E00079F087950895121613061406551FF2CF2B
:1033F0004695F1DF08C0161617061806991FF1CF7B
:10340000869571056105089408950E94EB19A0F056
:10341000BEE7B91788F4BB279F3860F41616B11DB4
:10342000672F782F8827985FF7CF869577956795D0
:10343000B11D93959639C8F30895E894BB27662784
:103440007727CB0197F908950E946E1908F48FEF42
:1034500008950E94EB1958F19E5760F19851A0F021
:10346000E9F0983020F5092E9927660F771F881FFD
:10347000991F0A94D1F712C0062E672F782F88273C
:10348000985F11F4000C07C0993FB4F386957795C7
:1034900067959395D9F7611D711D811D3EF4909537
:1034A0008095709561957F4F8F4F9F4F08956894D9
:1034B0000C941E1A0C941D1A0E946F1A0C94D219A7
:1034C0000E94C41938F00E94CB1920F0952311F006
:1034D0000C9492190C94C11911240C941E1A0E9478
:1034E000E31970F3959FC1F3950F50E0551F629F4C
:1034F000F001729FBB27F00DB11D639FAA27F00D4D
:10350000B11DAA1F649F6627B00DA11D661F829F73
:103510002227B00DA11D621F739FB00DA11D621F58
:10352000839FA00D611D221F749F3327A00D611D75
:10353000231F849F600D211D822F762F6A2F112457
:103540009F5750409AF0F1F088234AF0EE0FFF1F8A
:10355000BB1F661F771F881F91505040A9F79E3FE1
:10356000510580F00C9492190C941E1A5F3FE4F3FD
:10357000983ED4F3869577956795B795F795E79537
:103580009F5FC1F7FE2B880F911D9695879597F940
:10359000089519F416F40C94C1190C94B3190E94EF
:1035A000EB19B8F39923C9F3B6F39F57550B87FF6F
:1035B0000E940F1B0024A0E640EA90018058569517
:1035C000979528F4805C660F771F881F20F02617D8
:1035D0003707480730F4621B730B840B202931290D
:1035E0004A2BA69517940794202531254A2758F78A
:1035F000660F771F881F20F026173707480730F41B
:10360000620B730B840B200D311D411DA09581F7BA
:10361000B901842F9158880F9695879508959150F8
:103620005040660F771F881FD2F70895AA1BBB1B57
:1036300051E107C0AA1FBB1FA617B70710F0A61BB2
:10364000B70B881F991F5A95A9F780959095BC01D3
:10365000CD010895A1E21A2EAA1BBB1BFD010DC0CE
:10366000AA1FBB1FEE1FFF1FA217B307E407F50732
:1036700020F0A21BB30BE40BF50B661F771F881F0E
:10368000991F1A9469F760957095809590959B01A4
:10369000AC01BD01CF010895EE0FFF1F0590F4911D
:1036A000E02D09940E94651BA59F900DB49F900D7D
:1036B000A49F800D911D11240895B7FF0C94521BF7
:1036C0000E94521B821B930B0895A29FB001B39FCF
:1036D000C001A39F700D811D1124911DB29F700D1B
:0C36E000811D1124911D0895F894FFCF66
:0236EC000101DA
:00000001FF
